{
	"data": {
		"bytecode": {
			"linkReferences": {},
			"object": "60806040526000600455600580553480156200001a57600080fd5b5060405162003f1538038062003f158339818101604052810190620000409190620007a2565b8181806200005481620000d860201b60201c565b5081600390805190602001906200006d92919062000555565b50620000953360045460055460405180602001604052806000815250620000f460201b60201c565b50507f1a0f921ce3c6f2f0f6be5b624a487bc1d5143e1fd1833154f39ab63e13d8975530604051620000c891906200086c565b60405180910390a1505062000e56565b8060029080519060200190620000f092919062000555565b5050565b600073ffffffffffffffffffffffffffffffffffffffff168473ffffffffffffffffffffffffffffffffffffffff160362000166576040517f08c379a00000000000000000000000000000000000000000000000000000000081526004016200015d9062000910565b60405180910390fd5b600062000178620002b860201b60201c565b9050620001b1816000876200019388620002c060201b60201c565b620001a488620002c060201b60201c565b876200034160201b60201c565b8260008086815260200190815260200160002060008773ffffffffffffffffffffffffffffffffffffffff1673ffffffffffffffffffffffffffffffffffffffff16815260200190815260200160002060008282546200021291906200096b565b925050819055508473ffffffffffffffffffffffffffffffffffffffff16600073ffffffffffffffffffffffffffffffffffffffff168273ffffffffffffffffffffffffffffffffffffffff167fc3d58168c5ae7397731d063d5bbf3d657854427343f4c083240f7aacaa2d0f62878760405162000292929190620009d9565b60405180910390a4620002b1816000878787876200034960201b60201c565b5050505050565b600033905090565b60606000600167ffffffffffffffff811115620002e257620002e162000634565b5b604051908082528060200260200182016040528015620003115781602001602082028036833780820191505090505b50905082816000815181106200032c576200032b62000a06565b5b60200260200101818152505080915050919050565b505050505050565b620003758473ffffffffffffffffffffffffffffffffffffffff166200054260201b62000bd51760201c565b156200053a578373ffffffffffffffffffffffffffffffffffffffff1663f23a6e6187878686866040518663ffffffff1660e01b8152600401620003be95949392919062000a92565b6020604051808303816000875af1925050508015620003fd57506040513d601f19601f82011682018060405250810190620003fa919062000b53565b60015b620004ae576200040c62000b92565b806308c379a0036200046f57506200042362000bb7565b8062000430575062000471565b806040517f08c379a000000000000000000000000000000000000000000000000000000000815260040162000466919062000c9e565b60405180910390fd5b505b6040517f08c379a0000000000000000000000000000000000000000000000000000000008152600401620004a59062000d38565b60405180910390fd5b63f23a6e6160e01b7bffffffffffffffffffffffffffffffffffffffffffffffffffffffff1916817bffffffffffffffffffffffffffffffffffffffffffffffffffffffff19161462000538576040517f08c379a00000000000000000000000000000000000000000000000000000000081526004016200052f9062000dd0565b60405180910390fd5b505b505050505050565b600080823b905060008111915050919050565b828054620005639062000e21565b90600052602060002090601f016020900481019282620005875760008555620005d3565b82601f10620005a257805160ff1916838001178555620005d3565b82800160010185558215620005d3579182015b82811115620005d2578251825591602001919060010190620005b5565b5b509050620005e29190620005e6565b5090565b5b8082111562000601576000816000905550600101620005e7565b5090565b6000604051905090565b600080fd5b600080fd5b600080fd5b600080fd5b6000601f19601f8301169050919050565b7f4e487b7100000000000000000000000000000000000000000000000000000000600052604160045260246000fd5b6200066e8262000623565b810181811067ffffffffffffffff8211171562000690576200068f62000634565b5b80604052505050565b6000620006a562000605565b9050620006b3828262000663565b919050565b600067ffffffffffffffff821115620006d657620006d562000634565b5b620006e18262000623565b9050602081019050919050565b60005b838110156200070e578082015181840152602081019050620006f1565b838111156200071e576000848401525b50505050565b60006200073b6200073584620006b8565b62000699565b9050828152602081018484840111156200075a57620007596200061e565b5b62000767848285620006ee565b509392505050565b600082601f83011262000787576200078662000619565b5b81516200079984826020860162000724565b91505092915050565b60008060408385031215620007bc57620007bb6200060f565b5b600083015167ffffffffffffffff811115620007dd57620007dc62000614565b5b620007eb858286016200076f565b925050602083015167ffffffffffffffff8111156200080f576200080e62000614565b5b6200081d858286016200076f565b9150509250929050565b600073ffffffffffffffffffffffffffffffffffffffff82169050919050565b6000620008548262000827565b9050919050565b620008668162000847565b82525050565b60006020820190506200088360008301846200085b565b92915050565b600082825260208201905092915050565b7f455243313135353a206d696e7420746f20746865207a65726f2061646472657360008201527f7300000000000000000000000000000000000000000000000000000000000000602082015250565b6000620008f860218362000889565b915062000905826200089a565b604082019050919050565b600060208201905081810360008301526200092b81620008e9565b9050919050565b6000819050919050565b7f4e487b7100000000000000000000000000000000000000000000000000000000600052601160045260246000fd5b6000620009788262000932565b9150620009858362000932565b9250827fffffffffffffffffffffffffffffffffffffffffffffffffffffffffffffffff03821115620009bd57620009bc6200093c565b5b828201905092915050565b620009d38162000932565b82525050565b6000604082019050620009f06000830185620009c8565b620009ff6020830184620009c8565b9392505050565b7f4e487b7100000000000000000000000000000000000000000000000000000000600052603260045260246000fd5b600081519050919050565b600082825260208201905092915050565b600062000a5e8262000a35565b62000a6a818562000a40565b935062000a7c818560208601620006ee565b62000a878162000623565b840191505092915050565b600060a08201905062000aa960008301886200085b565b62000ab860208301876200085b565b62000ac76040830186620009c8565b62000ad66060830185620009c8565b818103608083015262000aea818462000a51565b90509695505050505050565b60007fffffffff0000000000000000000000000000000000000000000000000000000082169050919050565b62000b2d8162000af6565b811462000b3957600080fd5b50565b60008151905062000b4d8162000b22565b92915050565b60006020828403121562000b6c5762000b6b6200060f565b5b600062000b7c8482850162000b3c565b91505092915050565b60008160e01c9050919050565b600060033d111562000bb45760046000803e62000bb160005162000b85565b90505b90565b600060443d1062000c4f5762000bcc62000605565b60043d036004823e80513d602482011167ffffffffffffffff8211171562000bf657505062000c4f565b808201805167ffffffffffffffff81111562000c16575050505062000c4f565b80602083010160043d03850181111562000c3557505050505062000c4f565b62000c468260200185018662000663565b82955050505050505b90565b600081519050919050565b600062000c6a8262000c52565b62000c76818562000889565b935062000c88818560208601620006ee565b62000c938162000623565b840191505092915050565b6000602082019050818103600083015262000cba818462000c5d565b905092915050565b7f455243313135353a207472616e7366657220746f206e6f6e204552433131353560008201527f526563656976657220696d706c656d656e746572000000000000000000000000602082015250565b600062000d2060348362000889565b915062000d2d8262000cc2565b604082019050919050565b6000602082019050818103600083015262000d538162000d11565b9050919050565b7f455243313135353a204552433131353552656365697665722072656a6563746560008201527f6420746f6b656e73000000000000000000000000000000000000000000000000602082015250565b600062000db860288362000889565b915062000dc58262000d5a565b604082019050919050565b6000602082019050818103600083015262000deb8162000da9565b9050919050565b7f4e487b7100000000000000000000000000000000000000000000000000000000600052602260045260246000fd5b6000600282049050600182168062000e3a57607f821691505b60208210810362000e505762000e4f62000df2565b5b50919050565b6130af8062000e666000396000f3fe6080604052600436106100eb5760003560e01c80634e1273f41161008a578063cd31de7a11610059578063cd31de7a14610359578063e985e9c514610384578063f242432a146103c1578063f6554c3a146103ea576100f2565b80634e1273f4146102795780638f3c2090146102b6578063a22cb465146102f3578063c5956fe11461031c576100f2565b8063087f477a116100c6578063087f477a146101ab5780630e89341c146101d65780632eb2c2d6146102135780633a7d280c1461023c576100f2565b8062fdd58e146100f457806301ffc9a71461013157806305f8c8961461016e576100f2565b366100f257005b005b34801561010057600080fd5b5061011b60048036038101906101169190611baa565b610427565b6040516101289190611bf9565b60405180910390f35b34801561013d57600080fd5b5061015860048036038101906101539190611c6c565b6104ef565b6040516101659190611cb4565b60405180910390f35b34801561017a57600080fd5b5061019560048036038101906101909190611ccf565b6105d1565b6040516101a29190611cb4565b60405180910390f35b3480156101b757600080fd5b506101c06105fc565b6040516101cd9190611bf9565b60405180910390f35b3480156101e257600080fd5b506101fd60048036038101906101f89190611cfc565b61060e565b60405161020a9190611dc2565b60405180910390f35b34801561021f57600080fd5b5061023a60048036038101906102359190611fe1565b6106a2565b005b34801561024857600080fd5b50610263600480360381019061025e9190612151565b610743565b6040516102709190611cb4565b60405180910390f35b34801561028557600080fd5b506102a0600480360381019061029b919061225d565b6107b2565b6040516102ad9190612393565b60405180910390f35b3480156102c257600080fd5b506102dd60048036038101906102d89190612151565b6108cb565b6040516102ea9190611cb4565b60405180910390f35b3480156102ff57600080fd5b5061031a600480360381019061031591906123e1565b610955565b005b34801561032857600080fd5b50610343600480360381019061033e9190612151565b61096b565b6040516103509190611cb4565b60405180910390f35b34801561036557600080fd5b5061036e6109a8565b60405161037b9190611dc2565b60405180910390f35b34801561039057600080fd5b506103ab60048036038101906103a69190612421565b610a55565b6040516103b89190611cb4565b60405180910390f35b3480156103cd57600080fd5b506103e860048036038101906103e39190612461565b610ae9565b005b3480156103f657600080fd5b50610411600480360381019061040c91906124f8565b610b8a565b60405161041e9190611dc2565b60405180910390f35b60008073ffffffffffffffffffffffffffffffffffffffff168373ffffffffffffffffffffffffffffffffffffffff1603610497576040517f08c379a000000000000000000000000000000000000000000000000000000000815260040161048e906125aa565b60405180910390fd5b60008083815260200190815260200160002060008473ffffffffffffffffffffffffffffffffffffffff1673ffffffffffffffffffffffffffffffffffffffff16815260200190815260200160002054905092915050565b60007fd9b67a26000000000000000000000000000000000000000000000000000000007bffffffffffffffffffffffffffffffffffffffffffffffffffffffff1916827bffffffffffffffffffffffffffffffffffffffffffffffffffffffff191614806105ba57507f0e89341c000000000000000000000000000000000000000000000000000000007bffffffffffffffffffffffffffffffffffffffffffffffffffffffff1916827bffffffffffffffffffffffffffffffffffffffffffffffffffffffff1916145b806105ca57506105c982610be8565b5b9050919050565b6000600115156105e2836001610c52565b1515036105f257600190506105f7565b600090505b919050565b6000610609336000610427565b905090565b60606002805461061d906125f9565b80601f0160208091040260200160405190810160405280929190818152602001828054610649906125f9565b80156106965780601f1061066b57610100808354040283529160200191610696565b820191906000526020600020905b81548152906001019060200180831161067957829003601f168201915b50505050509050919050565b6106aa610c79565b73ffffffffffffffffffffffffffffffffffffffff168573ffffffffffffffffffffffffffffffffffffffff1614806106f057506106ef856106ea610c79565b610a55565b5b61072f576040517f08c379a00000000000000000000000000000000000000000000000000000000081526004016107269061269c565b60405180910390fd5b61073c8585858585610c81565b5050505050565b600061074d610f94565b60405160200161075d91906126f8565b604051602081830303815290604052805190602001208260405160200161078491906126f8565b60405160208183030381529060405280519060200120036107a857600190506107ad565b600090505b919050565b606081518351146107f8576040517f08c379a00000000000000000000000000000000000000000000000000000000081526004016107ef90612781565b60405180910390fd5b6000835167ffffffffffffffff81111561081557610814611de9565b5b6040519080825280602002602001820160405280156108435781602001602082028036833780820191505090505b50905060005b84518110156108c057610890858281518110610868576108676127a1565b5b6020026020010151858381518110610883576108826127a1565b5b6020026020010151610427565b8282815181106108a3576108a26127a1565b5b602002602001018181525050806108b9906127ff565b9050610849565b508091505092915050565b6000600115156108dc336001610c52565b1515146108e857600080fd5b816040516020016108f991906126f8565b604051602081830303815290604052805190602001206109176109a8565b60405160200161092791906126f8565b604051602081830303815290604052805190602001200361094b5760019050610950565b600090505b919050565b610967610960610c79565b8383611026565b5050565b60006001151561097c336003610c52565b15151461098857600080fd5b816003908051906020019061099e929190611a5f565b5060019050919050565b6060600115156109b9336003610c52565b1515146109c557600080fd5b600380546109d2906125f9565b80601f01602080910402602001604051908101604052809291908181526020018280546109fe906125f9565b8015610a4b5780601f10610a2057610100808354040283529160200191610a4b565b820191906000526020600020905b815481529060010190602001808311610a2e57829003601f168201915b5050505050905090565b6000600160008473ffffffffffffffffffffffffffffffffffffffff1673ffffffffffffffffffffffffffffffffffffffff16815260200190815260200160002060008373ffffffffffffffffffffffffffffffffffffffff1673ffffffffffffffffffffffffffffffffffffffff16815260200190815260200160002060009054906101000a900460ff16905092915050565b610af1610c79565b73ffffffffffffffffffffffffffffffffffffffff168573ffffffffffffffffffffffffffffffffffffffff161480610b375750610b3685610b31610c79565b610a55565b5b610b76576040517f08c379a0000000000000000000000000000000000000000000000000000000008152600401610b6d906128b9565b60405180910390fd5b610b838585858585611192565b5050505050565b606060011515610b9b336003610c52565b151514610ba757600080fd5b610bb48260045485611413565b60405180606001604052806033815260200161304760339139905092915050565b600080823b905060008111915050919050565b60007f01ffc9a7000000000000000000000000000000000000000000000000000000007bffffffffffffffffffffffffffffffffffffffffffffffffffffffff1916827bffffffffffffffffffffffffffffffffffffffffffffffffffffffff1916149050919050565b600081610c60846000610427565b10610c6e5760019050610c73565b600090505b92915050565b600033905090565b8151835114610cc5576040517f08c379a0000000000000000000000000000000000000000000000000000000008152600401610cbc9061294b565b60405180910390fd5b600073ffffffffffffffffffffffffffffffffffffffff168473ffffffffffffffffffffffffffffffffffffffff1603610d34576040517f08c379a0000000000000000000000000000000000000000000000000000000008152600401610d2b906129dd565b60405180910390fd5b6000610d3e610c79565b9050610d4e81878787878761162f565b60005b8451811015610eff576000858281518110610d6f57610d6e6127a1565b5b602002602001015190506000858381518110610d8e57610d8d6127a1565b5b60200260200101519050600080600084815260200190815260200160002060008b73ffffffffffffffffffffffffffffffffffffffff1673ffffffffffffffffffffffffffffffffffffffff16815260200190815260200160002054905081811015610e2f576040517f08c379a0000000000000000000000000000000000000000000000000000000008152600401610e2690612a6f565b60405180910390fd5b81810360008085815260200190815260200160002060008c73ffffffffffffffffffffffffffffffffffffffff1673ffffffffffffffffffffffffffffffffffffffff168152602001908152602001600020819055508160008085815260200190815260200160002060008b73ffffffffffffffffffffffffffffffffffffffff1673ffffffffffffffffffffffffffffffffffffffff1681526020019081526020016000206000828254610ee49190612a8f565b9250508190555050505080610ef8906127ff565b9050610d51565b508473ffffffffffffffffffffffffffffffffffffffff168673ffffffffffffffffffffffffffffffffffffffff168273ffffffffffffffffffffffffffffffffffffffff167f4a39dc06d4c0dbc64b70af90fd698a233a518aa5d07e595d983b8c0526c8f7fb8787604051610f76929190612ae5565b60405180910390a4610f8c818787878787611637565b505050505050565b606060038054610fa3906125f9565b80601f0160208091040260200160405190810160405280929190818152602001828054610fcf906125f9565b801561101c5780601f10610ff15761010080835404028352916020019161101c565b820191906000526020600020905b815481529060010190602001808311610fff57829003601f168201915b5050505050905090565b8173ffffffffffffffffffffffffffffffffffffffff168373ffffffffffffffffffffffffffffffffffffffff1603611094576040517f08c379a000000000000000000000000000000000000000000000000000000000815260040161108b90612b8e565b60405180910390fd5b80600160008573ffffffffffffffffffffffffffffffffffffffff1673ffffffffffffffffffffffffffffffffffffffff16815260200190815260200160002060008473ffffffffffffffffffffffffffffffffffffffff1673ffffffffffffffffffffffffffffffffffffffff16815260200190815260200160002060006101000a81548160ff0219169083151502179055508173ffffffffffffffffffffffffffffffffffffffff168373ffffffffffffffffffffffffffffffffffffffff167f17307eab39ab6107e8899845ad3d59bd9653f200f220920489ca2b5937696c31836040516111859190611cb4565b60405180910390a3505050565b600073ffffffffffffffffffffffffffffffffffffffff168473ffffffffffffffffffffffffffffffffffffffff1603611201576040517f08c379a00000000000000000000000000000000000000000000000000000000081526004016111f8906129dd565b60405180910390fd5b600061120b610c79565b905061122b81878761121c8861180e565b6112258861180e565b8761162f565b600080600086815260200190815260200160002060008873ffffffffffffffffffffffffffffffffffffffff1673ffffffffffffffffffffffffffffffffffffffff168152602001908152602001600020549050838110156112c2576040517f08c379a00000000000000000000000000000000000000000000000000000000081526004016112b990612a6f565b60405180910390fd5b83810360008087815260200190815260200160002060008973ffffffffffffffffffffffffffffffffffffffff1673ffffffffffffffffffffffffffffffffffffffff168152602001908152602001600020819055508360008087815260200190815260200160002060008873ffffffffffffffffffffffffffffffffffffffff1673ffffffffffffffffffffffffffffffffffffffff16815260200190815260200160002060008282546113779190612a8f565b925050819055508573ffffffffffffffffffffffffffffffffffffffff168773ffffffffffffffffffffffffffffffffffffffff168373ffffffffffffffffffffffffffffffffffffffff167fc3d58168c5ae7397731d063d5bbf3d657854427343f4c083240f7aacaa2d0f6288886040516113f4929190612bae565b60405180910390a461140a828888888888611888565b50505050505050565b600073ffffffffffffffffffffffffffffffffffffffff168373ffffffffffffffffffffffffffffffffffffffff1603611482576040517f08c379a000000000000000000000000000000000000000000000000000000000815260040161147990612c49565b60405180910390fd5b600061148c610c79565b90506114bc8185600061149e8761180e565b6114a78761180e565b6040518060200160405280600081525061162f565b600080600085815260200190815260200160002060008673ffffffffffffffffffffffffffffffffffffffff1673ffffffffffffffffffffffffffffffffffffffff16815260200190815260200160002054905082811015611553576040517f08c379a000000000000000000000000000000000000000000000000000000000815260040161154a90612cdb565b60405180910390fd5b82810360008086815260200190815260200160002060008773ffffffffffffffffffffffffffffffffffffffff1673ffffffffffffffffffffffffffffffffffffffff16815260200190815260200160002081905550600073ffffffffffffffffffffffffffffffffffffffff168573ffffffffffffffffffffffffffffffffffffffff168373ffffffffffffffffffffffffffffffffffffffff167fc3d58168c5ae7397731d063d5bbf3d657854427343f4c083240f7aacaa2d0f628787604051611620929190612bae565b60405180910390a45050505050565b505050505050565b6116568473ffffffffffffffffffffffffffffffffffffffff16610bd5565b15611806578373ffffffffffffffffffffffffffffffffffffffff1663bc197c8187878686866040518663ffffffff1660e01b815260040161169c959493929190612d5f565b6020604051808303816000875af19250505080156116d857506040513d601f19601f820116820180604052508101906116d59190612ddc565b60015b61177d576116e4612e16565b806308c379a00361174057506116f8612e38565b806117035750611742565b806040517f08c379a00000000000000000000000000000000000000000000000000000000081526004016117379190611dc2565b60405180910390fd5b505b6040517f08c379a000000000000000000000000000000000000000000000000000000000815260040161177490612f3a565b60405180910390fd5b63bc197c8160e01b7bffffffffffffffffffffffffffffffffffffffffffffffffffffffff1916817bffffffffffffffffffffffffffffffffffffffffffffffffffffffff191614611804576040517f08c379a00000000000000000000000000000000000000000000000000000000081526004016117fb90612fcc565b60405180910390fd5b505b505050505050565b60606000600167ffffffffffffffff81111561182d5761182c611de9565b5b60405190808252806020026020018201604052801561185b5781602001602082028036833780820191505090505b5090508281600081518110611873576118726127a1565b5b60200260200101818152505080915050919050565b6118a78473ffffffffffffffffffffffffffffffffffffffff16610bd5565b15611a57578373ffffffffffffffffffffffffffffffffffffffff1663f23a6e6187878686866040518663ffffffff1660e01b81526004016118ed959493929190612fec565b6020604051808303816000875af192505050801561192957506040513d601f19601f820116820180604052508101906119269190612ddc565b60015b6119ce57611935612e16565b806308c379a0036119915750611949612e38565b806119545750611993565b806040517f08c379a00000000000000000000000000000000000000000000000000000000081526004016119889190611dc2565b60405180910390fd5b505b6040517f08c379a00000000000000000000000000000000000000000000000000000000081526004016119c590612f3a565b60405180910390fd5b63f23a6e6160e01b7bffffffffffffffffffffffffffffffffffffffffffffffffffffffff1916817bffffffffffffffffffffffffffffffffffffffffffffffffffffffff191614611a55576040517f08c379a0000000000000000000000000000000000000000000000000000000008152600401611a4c90612fcc565b60405180910390fd5b505b505050505050565b828054611a6b906125f9565b90600052602060002090601f016020900481019282611a8d5760008555611ad4565b82601f10611aa657805160ff1916838001178555611ad4565b82800160010185558215611ad4579182015b82811115611ad3578251825591602001919060010190611ab8565b5b509050611ae19190611ae5565b5090565b5b80821115611afe576000816000905550600101611ae6565b5090565b6000604051905090565b600080fd5b600080fd5b600073ffffffffffffffffffffffffffffffffffffffff82169050919050565b6000611b4182611b16565b9050919050565b611b5181611b36565b8114611b5c57600080fd5b50565b600081359050611b6e81611b48565b92915050565b6000819050919050565b611b8781611b74565b8114611b9257600080fd5b50565b600081359050611ba481611b7e565b92915050565b60008060408385031215611bc157611bc0611b0c565b5b6000611bcf85828601611b5f565b9250506020611be085828601611b95565b9150509250929050565b611bf381611b74565b82525050565b6000602082019050611c0e6000830184611bea565b92915050565b60007fffffffff0000000000000000000000000000000000000000000000000000000082169050919050565b611c4981611c14565b8114611c5457600080fd5b50565b600081359050611c6681611c40565b92915050565b600060208284031215611c8257611c81611b0c565b5b6000611c9084828501611c57565b91505092915050565b60008115159050919050565b611cae81611c99565b82525050565b6000602082019050611cc96000830184611ca5565b92915050565b600060208284031215611ce557611ce4611b0c565b5b6000611cf384828501611b5f565b91505092915050565b600060208284031215611d1257611d11611b0c565b5b6000611d2084828501611b95565b91505092915050565b600081519050919050565b600082825260208201905092915050565b60005b83811015611d63578082015181840152602081019050611d48565b83811115611d72576000848401525b50505050565b6000601f19601f8301169050919050565b6000611d9482611d29565b611d9e8185611d34565b9350611dae818560208601611d45565b611db781611d78565b840191505092915050565b60006020820190508181036000830152611ddc8184611d89565b905092915050565b600080fd5b7f4e487b7100000000000000000000000000000000000000000000000000000000600052604160045260246000fd5b611e2182611d78565b810181811067ffffffffffffffff82111715611e4057611e3f611de9565b5b80604052505050565b6000611e53611b02565b9050611e5f8282611e18565b919050565b600067ffffffffffffffff821115611e7f57611e7e611de9565b5b602082029050602081019050919050565b600080fd5b6000611ea8611ea384611e64565b611e49565b90508083825260208201905060208402830185811115611ecb57611eca611e90565b5b835b81811015611ef45780611ee08882611b95565b845260208401935050602081019050611ecd565b5050509392505050565b600082601f830112611f1357611f12611de4565b5b8135611f23848260208601611e95565b91505092915050565b600080fd5b600067ffffffffffffffff821115611f4c57611f4b611de9565b5b611f5582611d78565b9050602081019050919050565b82818337600083830152505050565b6000611f84611f7f84611f31565b611e49565b905082815260208101848484011115611fa057611f9f611f2c565b5b611fab848285611f62565b509392505050565b600082601f830112611fc857611fc7611de4565b5b8135611fd8848260208601611f71565b91505092915050565b600080600080600060a08688031215611ffd57611ffc611b0c565b5b600061200b88828901611b5f565b955050602061201c88828901611b5f565b945050604086013567ffffffffffffffff81111561203d5761203c611b11565b5b61204988828901611efe565b935050606086013567ffffffffffffffff81111561206a57612069611b11565b5b61207688828901611efe565b925050608086013567ffffffffffffffff81111561209757612096611b11565b5b6120a388828901611fb3565b9150509295509295909350565b600067ffffffffffffffff8211156120cb576120ca611de9565b5b6120d482611d78565b9050602081019050919050565b60006120f46120ef846120b0565b611e49565b9050828152602081018484840111156121105761210f611f2c565b5b61211b848285611f62565b509392505050565b600082601f83011261213857612137611de4565b5b81356121488482602086016120e1565b91505092915050565b60006020828403121561216757612166611b0c565b5b600082013567ffffffffffffffff81111561218557612184611b11565b5b61219184828501612123565b91505092915050565b600067ffffffffffffffff8211156121b5576121b4611de9565b5b602082029050602081019050919050565b60006121d96121d48461219a565b611e49565b905080838252602082019050602084028301858111156121fc576121fb611e90565b5b835b8181101561222557806122118882611b5f565b8452602084019350506020810190506121fe565b5050509392505050565b600082601f83011261224457612243611de4565b5b81356122548482602086016121c6565b91505092915050565b6000806040838503121561227457612273611b0c565b5b600083013567ffffffffffffffff81111561229257612291611b11565b5b61229e8582860161222f565b925050602083013567ffffffffffffffff8111156122bf576122be611b11565b5b6122cb85828601611efe565b9150509250929050565b600081519050919050565b600082825260208201905092915050565b6000819050602082019050919050565b61230a81611b74565b82525050565b600061231c8383612301565b60208301905092915050565b6000602082019050919050565b6000612340826122d5565b61234a81856122e0565b9350612355836122f1565b8060005b8381101561238657815161236d8882612310565b975061237883612328565b925050600181019050612359565b5085935050505092915050565b600060208201905081810360008301526123ad8184612335565b905092915050565b6123be81611c99565b81146123c957600080fd5b50565b6000813590506123db816123b5565b92915050565b600080604083850312156123f8576123f7611b0c565b5b600061240685828601611b5f565b9250506020612417858286016123cc565b9150509250929050565b6000806040838503121561243857612437611b0c565b5b600061244685828601611b5f565b925050602061245785828601611b5f565b9150509250929050565b600080600080600060a0868803121561247d5761247c611b0c565b5b600061248b88828901611b5f565b955050602061249c88828901611b5f565b94505060406124ad88828901611b95565b93505060606124be88828901611b95565b925050608086013567ffffffffffffffff8111156124df576124de611b11565b5b6124eb88828901611fb3565b9150509295509295909350565b6000806040838503121561250f5761250e611b0c565b5b600061251d85828601611b95565b925050602061252e85828601611b5f565b9150509250929050565b7f455243313135353a2062616c616e636520717565727920666f7220746865207a60008201527f65726f2061646472657373000000000000000000000000000000000000000000602082015250565b6000612594602b83611d34565b915061259f82612538565b604082019050919050565b600060208201905081810360008301526125c381612587565b9050919050565b7f4e487b7100000000000000000000000000000000000000000000000000000000600052602260045260246000fd5b6000600282049050600182168061261157607f821691505b602082108103612624576126236125ca565b5b50919050565b7f455243313135353a207472616e736665722063616c6c6572206973206e6f742060008201527f6f776e6572206e6f7220617070726f7665640000000000000000000000000000602082015250565b6000612686603283611d34565b91506126918261262a565b604082019050919050565b600060208201905081810360008301526126b581612679565b9050919050565b600081905092915050565b60006126d282611d29565b6126dc81856126bc565b93506126ec818560208601611d45565b80840191505092915050565b600061270482846126c7565b915081905092915050565b7f455243313135353a206163636f756e747320616e6420696473206c656e67746860008201527f206d69736d617463680000000000000000000000000000000000000000000000602082015250565b600061276b602983611d34565b91506127768261270f565b604082019050919050565b6000602082019050818103600083015261279a8161275e565b9050919050565b7f4e487b7100000000000000000000000000000000000000000000000000000000600052603260045260246000fd5b7f4e487b7100000000000000000000000000000000000000000000000000000000600052601160045260246000fd5b600061280a82611b74565b91507fffffffffffffffffffffffffffffffffffffffffffffffffffffffffffffffff820361283c5761283b6127d0565b5b600182019050919050565b7f455243313135353a2063616c6c6572206973206e6f74206f776e6572206e6f7260008201527f20617070726f7665640000000000000000000000000000000000000000000000602082015250565b60006128a3602983611d34565b91506128ae82612847565b604082019050919050565b600060208201905081810360008301526128d281612896565b9050919050565b7f455243313135353a2069647320616e6420616d6f756e7473206c656e6774682060008201527f6d69736d61746368000000000000000000000000000000000000000000000000602082015250565b6000612935602883611d34565b9150612940826128d9565b604082019050919050565b6000602082019050818103600083015261296481612928565b9050919050565b7f455243313135353a207472616e7366657220746f20746865207a65726f20616460008201527f6472657373000000000000000000000000000000000000000000000000000000602082015250565b60006129c7602583611d34565b91506129d28261296b565b604082019050919050565b600060208201905081810360008301526129f6816129ba565b9050919050565b7f455243313135353a20696e73756666696369656e742062616c616e636520666f60008201527f72207472616e7366657200000000000000000000000000000000000000000000602082015250565b6000612a59602a83611d34565b9150612a64826129fd565b604082019050919050565b60006020820190508181036000830152612a8881612a4c565b9050919050565b6000612a9a82611b74565b9150612aa583611b74565b9250827fffffffffffffffffffffffffffffffffffffffffffffffffffffffffffffffff03821115612ada57612ad96127d0565b5b828201905092915050565b60006040820190508181036000830152612aff8185612335565b90508181036020830152612b138184612335565b90509392505050565b7f455243313135353a2073657474696e6720617070726f76616c2073746174757360008201527f20666f722073656c660000000000000000000000000000000000000000000000602082015250565b6000612b78602983611d34565b9150612b8382612b1c565b604082019050919050565b60006020820190508181036000830152612ba781612b6b565b9050919050565b6000604082019050612bc36000830185611bea565b612bd06020830184611bea565b9392505050565b7f455243313135353a206275726e2066726f6d20746865207a65726f206164647260008201527f6573730000000000000000000000000000000000000000000000000000000000602082015250565b6000612c33602383611d34565b9150612c3e82612bd7565b604082019050919050565b60006020820190508181036000830152612c6281612c26565b9050919050565b7f455243313135353a206275726e20616d6f756e7420657863656564732062616c60008201527f616e636500000000000000000000000000000000000000000000000000000000602082015250565b6000612cc5602483611d34565b9150612cd082612c69565b604082019050919050565b60006020820190508181036000830152612cf481612cb8565b9050919050565b612d0481611b36565b82525050565b600081519050919050565b600082825260208201905092915050565b6000612d3182612d0a565b612d3b8185612d15565b9350612d4b818560208601611d45565b612d5481611d78565b840191505092915050565b600060a082019050612d746000830188612cfb565b612d816020830187612cfb565b8181036040830152612d938186612335565b90508181036060830152612da78185612335565b90508181036080830152612dbb8184612d26565b90509695505050505050565b600081519050612dd681611c40565b92915050565b600060208284031215612df257612df1611b0c565b5b6000612e0084828501612dc7565b91505092915050565b60008160e01c9050919050565b600060033d1115612e355760046000803e612e32600051612e09565b90505b90565b600060443d10612ec557612e4a611b02565b60043d036004823e80513d602482011167ffffffffffffffff82111715612e72575050612ec5565b808201805167ffffffffffffffff811115612e905750505050612ec5565b80602083010160043d038501811115612ead575050505050612ec5565b612ebc82602001850186611e18565b82955050505050505b90565b7f455243313135353a207472616e7366657220746f206e6f6e204552433131353560008201527f526563656976657220696d706c656d656e746572000000000000000000000000602082015250565b6000612f24603483611d34565b9150612f2f82612ec8565b604082019050919050565b60006020820190508181036000830152612f5381612f17565b9050919050565b7f455243313135353a204552433131353552656365697665722072656a6563746560008201527f6420746f6b656e73000000000000000000000000000000000000000000000000602082015250565b6000612fb6602883611d34565b9150612fc182612f5a565b604082019050919050565b60006020820190508181036000830152612fe581612fa9565b9050919050565b600060a0820190506130016000830188612cfb565b61300e6020830187612cfb565b61301b6040830186611bea565b6130286060830185611bea565b818103608083015261303a8184612d26565b9050969550505050505056fe6275726e696e67207b5f616d6f756e747d2043726564656e7469616c20746f6b656e732066726f6d207b5f6163636f756e747da2646970667358221220cb2109b751c68078ff92f01c790ffe2e896dcacc3d7d901b5ce4cb698ca8c29e64736f6c634300080d0033",
			"opcodes": "PUSH1 0x80 PUSH1 0x40 MSTORE PUSH1 0x0 PUSH1 0x4 SSTORE PUSH1 0x5 DUP1 SSTORE CALLVALUE DUP1 ISZERO PUSH3 0x1A JUMPI PUSH1 0x0 DUP1 REVERT JUMPDEST POP PUSH1 0x40 MLOAD PUSH3 0x3F15 CODESIZE SUB DUP1 PUSH3 0x3F15 DUP4 CODECOPY DUP2 DUP2 ADD PUSH1 0x40 MSTORE DUP2 ADD SWAP1 PUSH3 0x40 SWAP2 SWAP1 PUSH3 0x7A2 JUMP JUMPDEST DUP2 DUP2 DUP1 PUSH3 0x54 DUP2 PUSH3 0xD8 PUSH1 0x20 SHL PUSH1 0x20 SHR JUMP JUMPDEST POP DUP2 PUSH1 0x3 SWAP1 DUP1 MLOAD SWAP1 PUSH1 0x20 ADD SWAP1 PUSH3 0x6D SWAP3 SWAP2 SWAP1 PUSH3 0x555 JUMP JUMPDEST POP PUSH3 0x95 CALLER PUSH1 0x4 SLOAD PUSH1 0x5 SLOAD PUSH1 0x40 MLOAD DUP1 PUSH1 0x20 ADD PUSH1 0x40 MSTORE DUP1 PUSH1 0x0 DUP2 MSTORE POP PUSH3 0xF4 PUSH1 0x20 SHL PUSH1 0x20 SHR JUMP JUMPDEST POP POP PUSH32 0x1A0F921CE3C6F2F0F6BE5B624A487BC1D5143E1FD1833154F39AB63E13D89755 ADDRESS PUSH1 0x40 MLOAD PUSH3 0xC8 SWAP2 SWAP1 PUSH3 0x86C JUMP JUMPDEST PUSH1 0x40 MLOAD DUP1 SWAP2 SUB SWAP1 LOG1 POP POP PUSH3 0xE56 JUMP JUMPDEST DUP1 PUSH1 0x2 SWAP1 DUP1 MLOAD SWAP1 PUSH1 0x20 ADD SWAP1 PUSH3 0xF0 SWAP3 SWAP2 SWAP1 PUSH3 0x555 JUMP JUMPDEST POP POP JUMP JUMPDEST PUSH1 0x0 PUSH20 0xFFFFFFFFFFFFFFFFFFFFFFFFFFFFFFFFFFFFFFFF AND DUP5 PUSH20 0xFFFFFFFFFFFFFFFFFFFFFFFFFFFFFFFFFFFFFFFF AND SUB PUSH3 0x166 JUMPI PUSH1 0x40 MLOAD PUSH32 0x8C379A000000000000000000000000000000000000000000000000000000000 DUP2 MSTORE PUSH1 0x4 ADD PUSH3 0x15D SWAP1 PUSH3 0x910 JUMP JUMPDEST PUSH1 0x40 MLOAD DUP1 SWAP2 SUB SWAP1 REVERT JUMPDEST PUSH1 0x0 PUSH3 0x178 PUSH3 0x2B8 PUSH1 0x20 SHL PUSH1 0x20 SHR JUMP JUMPDEST SWAP1 POP PUSH3 0x1B1 DUP2 PUSH1 0x0 DUP8 PUSH3 0x193 DUP9 PUSH3 0x2C0 PUSH1 0x20 SHL PUSH1 0x20 SHR JUMP JUMPDEST PUSH3 0x1A4 DUP9 PUSH3 0x2C0 PUSH1 0x20 SHL PUSH1 0x20 SHR JUMP JUMPDEST DUP8 PUSH3 0x341 PUSH1 0x20 SHL PUSH1 0x20 SHR JUMP JUMPDEST DUP3 PUSH1 0x0 DUP1 DUP7 DUP2 MSTORE PUSH1 0x20 ADD SWAP1 DUP2 MSTORE PUSH1 0x20 ADD PUSH1 0x0 KECCAK256 PUSH1 0x0 DUP8 PUSH20 0xFFFFFFFFFFFFFFFFFFFFFFFFFFFFFFFFFFFFFFFF AND PUSH20 0xFFFFFFFFFFFFFFFFFFFFFFFFFFFFFFFFFFFFFFFF AND DUP2 MSTORE PUSH1 0x20 ADD SWAP1 DUP2 MSTORE PUSH1 0x20 ADD PUSH1 0x0 KECCAK256 PUSH1 0x0 DUP3 DUP3 SLOAD PUSH3 0x212 SWAP2 SWAP1 PUSH3 0x96B JUMP JUMPDEST SWAP3 POP POP DUP2 SWAP1 SSTORE POP DUP5 PUSH20 0xFFFFFFFFFFFFFFFFFFFFFFFFFFFFFFFFFFFFFFFF AND PUSH1 0x0 PUSH20 0xFFFFFFFFFFFFFFFFFFFFFFFFFFFFFFFFFFFFFFFF AND DUP3 PUSH20 0xFFFFFFFFFFFFFFFFFFFFFFFFFFFFFFFFFFFFFFFF AND PUSH32 0xC3D58168C5AE7397731D063D5BBF3D657854427343F4C083240F7AACAA2D0F62 DUP8 DUP8 PUSH1 0x40 MLOAD PUSH3 0x292 SWAP3 SWAP2 SWAP1 PUSH3 0x9D9 JUMP JUMPDEST PUSH1 0x40 MLOAD DUP1 SWAP2 SUB SWAP1 LOG4 PUSH3 0x2B1 DUP2 PUSH1 0x0 DUP8 DUP8 DUP8 DUP8 PUSH3 0x349 PUSH1 0x20 SHL PUSH1 0x20 SHR JUMP JUMPDEST POP POP POP POP POP JUMP JUMPDEST PUSH1 0x0 CALLER SWAP1 POP SWAP1 JUMP JUMPDEST PUSH1 0x60 PUSH1 0x0 PUSH1 0x1 PUSH8 0xFFFFFFFFFFFFFFFF DUP2 GT ISZERO PUSH3 0x2E2 JUMPI PUSH3 0x2E1 PUSH3 0x634 JUMP JUMPDEST JUMPDEST PUSH1 0x40 MLOAD SWAP1 DUP1 DUP3 MSTORE DUP1 PUSH1 0x20 MUL PUSH1 0x20 ADD DUP3 ADD PUSH1 0x40 MSTORE DUP1 ISZERO PUSH3 0x311 JUMPI DUP2 PUSH1 0x20 ADD PUSH1 0x20 DUP3 MUL DUP1 CALLDATASIZE DUP4 CALLDATACOPY DUP1 DUP3 ADD SWAP2 POP POP SWAP1 POP JUMPDEST POP SWAP1 POP DUP3 DUP2 PUSH1 0x0 DUP2 MLOAD DUP2 LT PUSH3 0x32C JUMPI PUSH3 0x32B PUSH3 0xA06 JUMP JUMPDEST JUMPDEST PUSH1 0x20 MUL PUSH1 0x20 ADD ADD DUP2 DUP2 MSTORE POP POP DUP1 SWAP2 POP POP SWAP2 SWAP1 POP JUMP JUMPDEST POP POP POP POP POP POP JUMP JUMPDEST PUSH3 0x375 DUP5 PUSH20 0xFFFFFFFFFFFFFFFFFFFFFFFFFFFFFFFFFFFFFFFF AND PUSH3 0x542 PUSH1 0x20 SHL PUSH3 0xBD5 OR PUSH1 0x20 SHR JUMP JUMPDEST ISZERO PUSH3 0x53A JUMPI DUP4 PUSH20 0xFFFFFFFFFFFFFFFFFFFFFFFFFFFFFFFFFFFFFFFF AND PUSH4 0xF23A6E61 DUP8 DUP8 DUP7 DUP7 DUP7 PUSH1 0x40 MLOAD DUP7 PUSH4 0xFFFFFFFF AND PUSH1 0xE0 SHL DUP2 MSTORE PUSH1 0x4 ADD PUSH3 0x3BE SWAP6 SWAP5 SWAP4 SWAP3 SWAP2 SWAP1 PUSH3 0xA92 JUMP JUMPDEST PUSH1 0x20 PUSH1 0x40 MLOAD DUP1 DUP4 SUB DUP2 PUSH1 0x0 DUP8 GAS CALL SWAP3 POP POP POP DUP1 ISZERO PUSH3 0x3FD JUMPI POP PUSH1 0x40 MLOAD RETURNDATASIZE PUSH1 0x1F NOT PUSH1 0x1F DUP3 ADD AND DUP3 ADD DUP1 PUSH1 0x40 MSTORE POP DUP2 ADD SWAP1 PUSH3 0x3FA SWAP2 SWAP1 PUSH3 0xB53 JUMP JUMPDEST PUSH1 0x1 JUMPDEST PUSH3 0x4AE JUMPI PUSH3 0x40C PUSH3 0xB92 JUMP JUMPDEST DUP1 PUSH4 0x8C379A0 SUB PUSH3 0x46F JUMPI POP PUSH3 0x423 PUSH3 0xBB7 JUMP JUMPDEST DUP1 PUSH3 0x430 JUMPI POP PUSH3 0x471 JUMP JUMPDEST DUP1 PUSH1 0x40 MLOAD PUSH32 0x8C379A000000000000000000000000000000000000000000000000000000000 DUP2 MSTORE PUSH1 0x4 ADD PUSH3 0x466 SWAP2 SWAP1 PUSH3 0xC9E JUMP JUMPDEST PUSH1 0x40 MLOAD DUP1 SWAP2 SUB SWAP1 REVERT JUMPDEST POP JUMPDEST PUSH1 0x40 MLOAD PUSH32 0x8C379A000000000000000000000000000000000000000000000000000000000 DUP2 MSTORE PUSH1 0x4 ADD PUSH3 0x4A5 SWAP1 PUSH3 0xD38 JUMP JUMPDEST PUSH1 0x40 MLOAD DUP1 SWAP2 SUB SWAP1 REVERT JUMPDEST PUSH4 0xF23A6E61 PUSH1 0xE0 SHL PUSH28 0xFFFFFFFFFFFFFFFFFFFFFFFFFFFFFFFFFFFFFFFFFFFFFFFFFFFFFFFF NOT AND DUP2 PUSH28 0xFFFFFFFFFFFFFFFFFFFFFFFFFFFFFFFFFFFFFFFFFFFFFFFFFFFFFFFF NOT AND EQ PUSH3 0x538 JUMPI PUSH1 0x40 MLOAD PUSH32 0x8C379A000000000000000000000000000000000000000000000000000000000 DUP2 MSTORE PUSH1 0x4 ADD PUSH3 0x52F SWAP1 PUSH3 0xDD0 JUMP JUMPDEST PUSH1 0x40 MLOAD DUP1 SWAP2 SUB SWAP1 REVERT JUMPDEST POP JUMPDEST POP POP POP POP POP POP JUMP JUMPDEST PUSH1 0x0 DUP1 DUP3 EXTCODESIZE SWAP1 POP PUSH1 0x0 DUP2 GT SWAP2 POP POP SWAP2 SWAP1 POP JUMP JUMPDEST DUP3 DUP1 SLOAD PUSH3 0x563 SWAP1 PUSH3 0xE21 JUMP JUMPDEST SWAP1 PUSH1 0x0 MSTORE PUSH1 0x20 PUSH1 0x0 KECCAK256 SWAP1 PUSH1 0x1F ADD PUSH1 0x20 SWAP1 DIV DUP2 ADD SWAP3 DUP3 PUSH3 0x587 JUMPI PUSH1 0x0 DUP6 SSTORE PUSH3 0x5D3 JUMP JUMPDEST DUP3 PUSH1 0x1F LT PUSH3 0x5A2 JUMPI DUP1 MLOAD PUSH1 0xFF NOT AND DUP4 DUP1 ADD OR DUP6 SSTORE PUSH3 0x5D3 JUMP JUMPDEST DUP3 DUP1 ADD PUSH1 0x1 ADD DUP6 SSTORE DUP3 ISZERO PUSH3 0x5D3 JUMPI SWAP2 DUP3 ADD JUMPDEST DUP3 DUP2 GT ISZERO PUSH3 0x5D2 JUMPI DUP3 MLOAD DUP3 SSTORE SWAP2 PUSH1 0x20 ADD SWAP2 SWAP1 PUSH1 0x1 ADD SWAP1 PUSH3 0x5B5 JUMP JUMPDEST JUMPDEST POP SWAP1 POP PUSH3 0x5E2 SWAP2 SWAP1 PUSH3 0x5E6 JUMP JUMPDEST POP SWAP1 JUMP JUMPDEST JUMPDEST DUP1 DUP3 GT ISZERO PUSH3 0x601 JUMPI PUSH1 0x0 DUP2 PUSH1 0x0 SWAP1 SSTORE POP PUSH1 0x1 ADD PUSH3 0x5E7 JUMP JUMPDEST POP SWAP1 JUMP JUMPDEST PUSH1 0x0 PUSH1 0x40 MLOAD SWAP1 POP SWAP1 JUMP JUMPDEST PUSH1 0x0 DUP1 REVERT JUMPDEST PUSH1 0x0 DUP1 REVERT JUMPDEST PUSH1 0x0 DUP1 REVERT JUMPDEST PUSH1 0x0 DUP1 REVERT JUMPDEST PUSH1 0x0 PUSH1 0x1F NOT PUSH1 0x1F DUP4 ADD AND SWAP1 POP SWAP2 SWAP1 POP JUMP JUMPDEST PUSH32 0x4E487B7100000000000000000000000000000000000000000000000000000000 PUSH1 0x0 MSTORE PUSH1 0x41 PUSH1 0x4 MSTORE PUSH1 0x24 PUSH1 0x0 REVERT JUMPDEST PUSH3 0x66E DUP3 PUSH3 0x623 JUMP JUMPDEST DUP2 ADD DUP2 DUP2 LT PUSH8 0xFFFFFFFFFFFFFFFF DUP3 GT OR ISZERO PUSH3 0x690 JUMPI PUSH3 0x68F PUSH3 0x634 JUMP JUMPDEST JUMPDEST DUP1 PUSH1 0x40 MSTORE POP POP POP JUMP JUMPDEST PUSH1 0x0 PUSH3 0x6A5 PUSH3 0x605 JUMP JUMPDEST SWAP1 POP PUSH3 0x6B3 DUP3 DUP3 PUSH3 0x663 JUMP JUMPDEST SWAP2 SWAP1 POP JUMP JUMPDEST PUSH1 0x0 PUSH8 0xFFFFFFFFFFFFFFFF DUP3 GT ISZERO PUSH3 0x6D6 JUMPI PUSH3 0x6D5 PUSH3 0x634 JUMP JUMPDEST JUMPDEST PUSH3 0x6E1 DUP3 PUSH3 0x623 JUMP JUMPDEST SWAP1 POP PUSH1 0x20 DUP2 ADD SWAP1 POP SWAP2 SWAP1 POP JUMP JUMPDEST PUSH1 0x0 JUMPDEST DUP4 DUP2 LT ISZERO PUSH3 0x70E JUMPI DUP1 DUP3 ADD MLOAD DUP2 DUP5 ADD MSTORE PUSH1 0x20 DUP2 ADD SWAP1 POP PUSH3 0x6F1 JUMP JUMPDEST DUP4 DUP2 GT ISZERO PUSH3 0x71E JUMPI PUSH1 0x0 DUP5 DUP5 ADD MSTORE JUMPDEST POP POP POP POP JUMP JUMPDEST PUSH1 0x0 PUSH3 0x73B PUSH3 0x735 DUP5 PUSH3 0x6B8 JUMP JUMPDEST PUSH3 0x699 JUMP JUMPDEST SWAP1 POP DUP3 DUP2 MSTORE PUSH1 0x20 DUP2 ADD DUP5 DUP5 DUP5 ADD GT ISZERO PUSH3 0x75A JUMPI PUSH3 0x759 PUSH3 0x61E JUMP JUMPDEST JUMPDEST PUSH3 0x767 DUP5 DUP3 DUP6 PUSH3 0x6EE JUMP JUMPDEST POP SWAP4 SWAP3 POP POP POP JUMP JUMPDEST PUSH1 0x0 DUP3 PUSH1 0x1F DUP4 ADD SLT PUSH3 0x787 JUMPI PUSH3 0x786 PUSH3 0x619 JUMP JUMPDEST JUMPDEST DUP2 MLOAD PUSH3 0x799 DUP5 DUP3 PUSH1 0x20 DUP7 ADD PUSH3 0x724 JUMP JUMPDEST SWAP2 POP POP SWAP3 SWAP2 POP POP JUMP JUMPDEST PUSH1 0x0 DUP1 PUSH1 0x40 DUP4 DUP6 SUB SLT ISZERO PUSH3 0x7BC JUMPI PUSH3 0x7BB PUSH3 0x60F JUMP JUMPDEST JUMPDEST PUSH1 0x0 DUP4 ADD MLOAD PUSH8 0xFFFFFFFFFFFFFFFF DUP2 GT ISZERO PUSH3 0x7DD JUMPI PUSH3 0x7DC PUSH3 0x614 JUMP JUMPDEST JUMPDEST PUSH3 0x7EB DUP6 DUP3 DUP7 ADD PUSH3 0x76F JUMP JUMPDEST SWAP3 POP POP PUSH1 0x20 DUP4 ADD MLOAD PUSH8 0xFFFFFFFFFFFFFFFF DUP2 GT ISZERO PUSH3 0x80F JUMPI PUSH3 0x80E PUSH3 0x614 JUMP JUMPDEST JUMPDEST PUSH3 0x81D DUP6 DUP3 DUP7 ADD PUSH3 0x76F JUMP JUMPDEST SWAP2 POP POP SWAP3 POP SWAP3 SWAP1 POP JUMP JUMPDEST PUSH1 0x0 PUSH20 0xFFFFFFFFFFFFFFFFFFFFFFFFFFFFFFFFFFFFFFFF DUP3 AND SWAP1 POP SWAP2 SWAP1 POP JUMP JUMPDEST PUSH1 0x0 PUSH3 0x854 DUP3 PUSH3 0x827 JUMP JUMPDEST SWAP1 POP SWAP2 SWAP1 POP JUMP JUMPDEST PUSH3 0x866 DUP2 PUSH3 0x847 JUMP JUMPDEST DUP3 MSTORE POP POP JUMP JUMPDEST PUSH1 0x0 PUSH1 0x20 DUP3 ADD SWAP1 POP PUSH3 0x883 PUSH1 0x0 DUP4 ADD DUP5 PUSH3 0x85B JUMP JUMPDEST SWAP3 SWAP2 POP POP JUMP JUMPDEST PUSH1 0x0 DUP3 DUP3 MSTORE PUSH1 0x20 DUP3 ADD SWAP1 POP SWAP3 SWAP2 POP POP JUMP JUMPDEST PUSH32 0x455243313135353A206D696E7420746F20746865207A65726F20616464726573 PUSH1 0x0 DUP3 ADD MSTORE PUSH32 0x7300000000000000000000000000000000000000000000000000000000000000 PUSH1 0x20 DUP3 ADD MSTORE POP JUMP JUMPDEST PUSH1 0x0 PUSH3 0x8F8 PUSH1 0x21 DUP4 PUSH3 0x889 JUMP JUMPDEST SWAP2 POP PUSH3 0x905 DUP3 PUSH3 0x89A JUMP JUMPDEST PUSH1 0x40 DUP3 ADD SWAP1 POP SWAP2 SWAP1 POP JUMP JUMPDEST PUSH1 0x0 PUSH1 0x20 DUP3 ADD SWAP1 POP DUP2 DUP2 SUB PUSH1 0x0 DUP4 ADD MSTORE PUSH3 0x92B DUP2 PUSH3 0x8E9 JUMP JUMPDEST SWAP1 POP SWAP2 SWAP1 POP JUMP JUMPDEST PUSH1 0x0 DUP2 SWAP1 POP SWAP2 SWAP1 POP JUMP JUMPDEST PUSH32 0x4E487B7100000000000000000000000000000000000000000000000000000000 PUSH1 0x0 MSTORE PUSH1 0x11 PUSH1 0x4 MSTORE PUSH1 0x24 PUSH1 0x0 REVERT JUMPDEST PUSH1 0x0 PUSH3 0x978 DUP3 PUSH3 0x932 JUMP JUMPDEST SWAP2 POP PUSH3 0x985 DUP4 PUSH3 0x932 JUMP JUMPDEST SWAP3 POP DUP3 PUSH32 0xFFFFFFFFFFFFFFFFFFFFFFFFFFFFFFFFFFFFFFFFFFFFFFFFFFFFFFFFFFFFFFFF SUB DUP3 GT ISZERO PUSH3 0x9BD JUMPI PUSH3 0x9BC PUSH3 0x93C JUMP JUMPDEST JUMPDEST DUP3 DUP3 ADD SWAP1 POP SWAP3 SWAP2 POP POP JUMP JUMPDEST PUSH3 0x9D3 DUP2 PUSH3 0x932 JUMP JUMPDEST DUP3 MSTORE POP POP JUMP JUMPDEST PUSH1 0x0 PUSH1 0x40 DUP3 ADD SWAP1 POP PUSH3 0x9F0 PUSH1 0x0 DUP4 ADD DUP6 PUSH3 0x9C8 JUMP JUMPDEST PUSH3 0x9FF PUSH1 0x20 DUP4 ADD DUP5 PUSH3 0x9C8 JUMP JUMPDEST SWAP4 SWAP3 POP POP POP JUMP JUMPDEST PUSH32 0x4E487B7100000000000000000000000000000000000000000000000000000000 PUSH1 0x0 MSTORE PUSH1 0x32 PUSH1 0x4 MSTORE PUSH1 0x24 PUSH1 0x0 REVERT JUMPDEST PUSH1 0x0 DUP2 MLOAD SWAP1 POP SWAP2 SWAP1 POP JUMP JUMPDEST PUSH1 0x0 DUP3 DUP3 MSTORE PUSH1 0x20 DUP3 ADD SWAP1 POP SWAP3 SWAP2 POP POP JUMP JUMPDEST PUSH1 0x0 PUSH3 0xA5E DUP3 PUSH3 0xA35 JUMP JUMPDEST PUSH3 0xA6A DUP2 DUP6 PUSH3 0xA40 JUMP JUMPDEST SWAP4 POP PUSH3 0xA7C DUP2 DUP6 PUSH1 0x20 DUP7 ADD PUSH3 0x6EE JUMP JUMPDEST PUSH3 0xA87 DUP2 PUSH3 0x623 JUMP JUMPDEST DUP5 ADD SWAP2 POP POP SWAP3 SWAP2 POP POP JUMP JUMPDEST PUSH1 0x0 PUSH1 0xA0 DUP3 ADD SWAP1 POP PUSH3 0xAA9 PUSH1 0x0 DUP4 ADD DUP9 PUSH3 0x85B JUMP JUMPDEST PUSH3 0xAB8 PUSH1 0x20 DUP4 ADD DUP8 PUSH3 0x85B JUMP JUMPDEST PUSH3 0xAC7 PUSH1 0x40 DUP4 ADD DUP7 PUSH3 0x9C8 JUMP JUMPDEST PUSH3 0xAD6 PUSH1 0x60 DUP4 ADD DUP6 PUSH3 0x9C8 JUMP JUMPDEST DUP2 DUP2 SUB PUSH1 0x80 DUP4 ADD MSTORE PUSH3 0xAEA DUP2 DUP5 PUSH3 0xA51 JUMP JUMPDEST SWAP1 POP SWAP7 SWAP6 POP POP POP POP POP POP JUMP JUMPDEST PUSH1 0x0 PUSH32 0xFFFFFFFF00000000000000000000000000000000000000000000000000000000 DUP3 AND SWAP1 POP SWAP2 SWAP1 POP JUMP JUMPDEST PUSH3 0xB2D DUP2 PUSH3 0xAF6 JUMP JUMPDEST DUP2 EQ PUSH3 0xB39 JUMPI PUSH1 0x0 DUP1 REVERT JUMPDEST POP JUMP JUMPDEST PUSH1 0x0 DUP2 MLOAD SWAP1 POP PUSH3 0xB4D DUP2 PUSH3 0xB22 JUMP JUMPDEST SWAP3 SWAP2 POP POP JUMP JUMPDEST PUSH1 0x0 PUSH1 0x20 DUP3 DUP5 SUB SLT ISZERO PUSH3 0xB6C JUMPI PUSH3 0xB6B PUSH3 0x60F JUMP JUMPDEST JUMPDEST PUSH1 0x0 PUSH3 0xB7C DUP5 DUP3 DUP6 ADD PUSH3 0xB3C JUMP JUMPDEST SWAP2 POP POP SWAP3 SWAP2 POP POP JUMP JUMPDEST PUSH1 0x0 DUP2 PUSH1 0xE0 SHR SWAP1 POP SWAP2 SWAP1 POP JUMP JUMPDEST PUSH1 0x0 PUSH1 0x3 RETURNDATASIZE GT ISZERO PUSH3 0xBB4 JUMPI PUSH1 0x4 PUSH1 0x0 DUP1 RETURNDATACOPY PUSH3 0xBB1 PUSH1 0x0 MLOAD PUSH3 0xB85 JUMP JUMPDEST SWAP1 POP JUMPDEST SWAP1 JUMP JUMPDEST PUSH1 0x0 PUSH1 0x44 RETURNDATASIZE LT PUSH3 0xC4F JUMPI PUSH3 0xBCC PUSH3 0x605 JUMP JUMPDEST PUSH1 0x4 RETURNDATASIZE SUB PUSH1 0x4 DUP3 RETURNDATACOPY DUP1 MLOAD RETURNDATASIZE PUSH1 0x24 DUP3 ADD GT PUSH8 0xFFFFFFFFFFFFFFFF DUP3 GT OR ISZERO PUSH3 0xBF6 JUMPI POP POP PUSH3 0xC4F JUMP JUMPDEST DUP1 DUP3 ADD DUP1 MLOAD PUSH8 0xFFFFFFFFFFFFFFFF DUP2 GT ISZERO PUSH3 0xC16 JUMPI POP POP POP POP PUSH3 0xC4F JUMP JUMPDEST DUP1 PUSH1 0x20 DUP4 ADD ADD PUSH1 0x4 RETURNDATASIZE SUB DUP6 ADD DUP2 GT ISZERO PUSH3 0xC35 JUMPI POP POP POP POP POP PUSH3 0xC4F JUMP JUMPDEST PUSH3 0xC46 DUP3 PUSH1 0x20 ADD DUP6 ADD DUP7 PUSH3 0x663 JUMP JUMPDEST DUP3 SWAP6 POP POP POP POP POP POP JUMPDEST SWAP1 JUMP JUMPDEST PUSH1 0x0 DUP2 MLOAD SWAP1 POP SWAP2 SWAP1 POP JUMP JUMPDEST PUSH1 0x0 PUSH3 0xC6A DUP3 PUSH3 0xC52 JUMP JUMPDEST PUSH3 0xC76 DUP2 DUP6 PUSH3 0x889 JUMP JUMPDEST SWAP4 POP PUSH3 0xC88 DUP2 DUP6 PUSH1 0x20 DUP7 ADD PUSH3 0x6EE JUMP JUMPDEST PUSH3 0xC93 DUP2 PUSH3 0x623 JUMP JUMPDEST DUP5 ADD SWAP2 POP POP SWAP3 SWAP2 POP POP JUMP JUMPDEST PUSH1 0x0 PUSH1 0x20 DUP3 ADD SWAP1 POP DUP2 DUP2 SUB PUSH1 0x0 DUP4 ADD MSTORE PUSH3 0xCBA DUP2 DUP5 PUSH3 0xC5D JUMP JUMPDEST SWAP1 POP SWAP3 SWAP2 POP POP JUMP JUMPDEST PUSH32 0x455243313135353A207472616E7366657220746F206E6F6E2045524331313535 PUSH1 0x0 DUP3 ADD MSTORE PUSH32 0x526563656976657220696D706C656D656E746572000000000000000000000000 PUSH1 0x20 DUP3 ADD MSTORE POP JUMP JUMPDEST PUSH1 0x0 PUSH3 0xD20 PUSH1 0x34 DUP4 PUSH3 0x889 JUMP JUMPDEST SWAP2 POP PUSH3 0xD2D DUP3 PUSH3 0xCC2 JUMP JUMPDEST PUSH1 0x40 DUP3 ADD SWAP1 POP SWAP2 SWAP1 POP JUMP JUMPDEST PUSH1 0x0 PUSH1 0x20 DUP3 ADD SWAP1 POP DUP2 DUP2 SUB PUSH1 0x0 DUP4 ADD MSTORE PUSH3 0xD53 DUP2 PUSH3 0xD11 JUMP JUMPDEST SWAP1 POP SWAP2 SWAP1 POP JUMP JUMPDEST PUSH32 0x455243313135353A204552433131353552656365697665722072656A65637465 PUSH1 0x0 DUP3 ADD MSTORE PUSH32 0x6420746F6B656E73000000000000000000000000000000000000000000000000 PUSH1 0x20 DUP3 ADD MSTORE POP JUMP JUMPDEST PUSH1 0x0 PUSH3 0xDB8 PUSH1 0x28 DUP4 PUSH3 0x889 JUMP JUMPDEST SWAP2 POP PUSH3 0xDC5 DUP3 PUSH3 0xD5A JUMP JUMPDEST PUSH1 0x40 DUP3 ADD SWAP1 POP SWAP2 SWAP1 POP JUMP JUMPDEST PUSH1 0x0 PUSH1 0x20 DUP3 ADD SWAP1 POP DUP2 DUP2 SUB PUSH1 0x0 DUP4 ADD MSTORE PUSH3 0xDEB DUP2 PUSH3 0xDA9 JUMP JUMPDEST SWAP1 POP SWAP2 SWAP1 POP JUMP JUMPDEST PUSH32 0x4E487B7100000000000000000000000000000000000000000000000000000000 PUSH1 0x0 MSTORE PUSH1 0x22 PUSH1 0x4 MSTORE PUSH1 0x24 PUSH1 0x0 REVERT JUMPDEST PUSH1 0x0 PUSH1 0x2 DUP3 DIV SWAP1 POP PUSH1 0x1 DUP3 AND DUP1 PUSH3 0xE3A JUMPI PUSH1 0x7F DUP3 AND SWAP2 POP JUMPDEST PUSH1 0x20 DUP3 LT DUP2 SUB PUSH3 0xE50 JUMPI PUSH3 0xE4F PUSH3 0xDF2 JUMP JUMPDEST JUMPDEST POP SWAP2 SWAP1 POP JUMP JUMPDEST PUSH2 0x30AF DUP1 PUSH3 0xE66 PUSH1 0x0 CODECOPY PUSH1 0x0 RETURN INVALID PUSH1 0x80 PUSH1 0x40 MSTORE PUSH1 0x4 CALLDATASIZE LT PUSH2 0xEB JUMPI PUSH1 0x0 CALLDATALOAD PUSH1 0xE0 SHR DUP1 PUSH4 0x4E1273F4 GT PUSH2 0x8A JUMPI DUP1 PUSH4 0xCD31DE7A GT PUSH2 0x59 JUMPI DUP1 PUSH4 0xCD31DE7A EQ PUSH2 0x359 JUMPI DUP1 PUSH4 0xE985E9C5 EQ PUSH2 0x384 JUMPI DUP1 PUSH4 0xF242432A EQ PUSH2 0x3C1 JUMPI DUP1 PUSH4 0xF6554C3A EQ PUSH2 0x3EA JUMPI PUSH2 0xF2 JUMP JUMPDEST DUP1 PUSH4 0x4E1273F4 EQ PUSH2 0x279 JUMPI DUP1 PUSH4 0x8F3C2090 EQ PUSH2 0x2B6 JUMPI DUP1 PUSH4 0xA22CB465 EQ PUSH2 0x2F3 JUMPI DUP1 PUSH4 0xC5956FE1 EQ PUSH2 0x31C JUMPI PUSH2 0xF2 JUMP JUMPDEST DUP1 PUSH4 0x87F477A GT PUSH2 0xC6 JUMPI DUP1 PUSH4 0x87F477A EQ PUSH2 0x1AB JUMPI DUP1 PUSH4 0xE89341C EQ PUSH2 0x1D6 JUMPI DUP1 PUSH4 0x2EB2C2D6 EQ PUSH2 0x213 JUMPI DUP1 PUSH4 0x3A7D280C EQ PUSH2 0x23C JUMPI PUSH2 0xF2 JUMP JUMPDEST DUP1 PUSH3 0xFDD58E EQ PUSH2 0xF4 JUMPI DUP1 PUSH4 0x1FFC9A7 EQ PUSH2 0x131 JUMPI DUP1 PUSH4 0x5F8C896 EQ PUSH2 0x16E JUMPI PUSH2 0xF2 JUMP JUMPDEST CALLDATASIZE PUSH2 0xF2 JUMPI STOP JUMPDEST STOP JUMPDEST CALLVALUE DUP1 ISZERO PUSH2 0x100 JUMPI PUSH1 0x0 DUP1 REVERT JUMPDEST POP PUSH2 0x11B PUSH1 0x4 DUP1 CALLDATASIZE SUB DUP2 ADD SWAP1 PUSH2 0x116 SWAP2 SWAP1 PUSH2 0x1BAA JUMP JUMPDEST PUSH2 0x427 JUMP JUMPDEST PUSH1 0x40 MLOAD PUSH2 0x128 SWAP2 SWAP1 PUSH2 0x1BF9 JUMP JUMPDEST PUSH1 0x40 MLOAD DUP1 SWAP2 SUB SWAP1 RETURN JUMPDEST CALLVALUE DUP1 ISZERO PUSH2 0x13D JUMPI PUSH1 0x0 DUP1 REVERT JUMPDEST POP PUSH2 0x158 PUSH1 0x4 DUP1 CALLDATASIZE SUB DUP2 ADD SWAP1 PUSH2 0x153 SWAP2 SWAP1 PUSH2 0x1C6C JUMP JUMPDEST PUSH2 0x4EF JUMP JUMPDEST PUSH1 0x40 MLOAD PUSH2 0x165 SWAP2 SWAP1 PUSH2 0x1CB4 JUMP JUMPDEST PUSH1 0x40 MLOAD DUP1 SWAP2 SUB SWAP1 RETURN JUMPDEST CALLVALUE DUP1 ISZERO PUSH2 0x17A JUMPI PUSH1 0x0 DUP1 REVERT JUMPDEST POP PUSH2 0x195 PUSH1 0x4 DUP1 CALLDATASIZE SUB DUP2 ADD SWAP1 PUSH2 0x190 SWAP2 SWAP1 PUSH2 0x1CCF JUMP JUMPDEST PUSH2 0x5D1 JUMP JUMPDEST PUSH1 0x40 MLOAD PUSH2 0x1A2 SWAP2 SWAP1 PUSH2 0x1CB4 JUMP JUMPDEST PUSH1 0x40 MLOAD DUP1 SWAP2 SUB SWAP1 RETURN JUMPDEST CALLVALUE DUP1 ISZERO PUSH2 0x1B7 JUMPI PUSH1 0x0 DUP1 REVERT JUMPDEST POP PUSH2 0x1C0 PUSH2 0x5FC JUMP JUMPDEST PUSH1 0x40 MLOAD PUSH2 0x1CD SWAP2 SWAP1 PUSH2 0x1BF9 JUMP JUMPDEST PUSH1 0x40 MLOAD DUP1 SWAP2 SUB SWAP1 RETURN JUMPDEST CALLVALUE DUP1 ISZERO PUSH2 0x1E2 JUMPI PUSH1 0x0 DUP1 REVERT JUMPDEST POP PUSH2 0x1FD PUSH1 0x4 DUP1 CALLDATASIZE SUB DUP2 ADD SWAP1 PUSH2 0x1F8 SWAP2 SWAP1 PUSH2 0x1CFC JUMP JUMPDEST PUSH2 0x60E JUMP JUMPDEST PUSH1 0x40 MLOAD PUSH2 0x20A SWAP2 SWAP1 PUSH2 0x1DC2 JUMP JUMPDEST PUSH1 0x40 MLOAD DUP1 SWAP2 SUB SWAP1 RETURN JUMPDEST CALLVALUE DUP1 ISZERO PUSH2 0x21F JUMPI PUSH1 0x0 DUP1 REVERT JUMPDEST POP PUSH2 0x23A PUSH1 0x4 DUP1 CALLDATASIZE SUB DUP2 ADD SWAP1 PUSH2 0x235 SWAP2 SWAP1 PUSH2 0x1FE1 JUMP JUMPDEST PUSH2 0x6A2 JUMP JUMPDEST STOP JUMPDEST CALLVALUE DUP1 ISZERO PUSH2 0x248 JUMPI PUSH1 0x0 DUP1 REVERT JUMPDEST POP PUSH2 0x263 PUSH1 0x4 DUP1 CALLDATASIZE SUB DUP2 ADD SWAP1 PUSH2 0x25E SWAP2 SWAP1 PUSH2 0x2151 JUMP JUMPDEST PUSH2 0x743 JUMP JUMPDEST PUSH1 0x40 MLOAD PUSH2 0x270 SWAP2 SWAP1 PUSH2 0x1CB4 JUMP JUMPDEST PUSH1 0x40 MLOAD DUP1 SWAP2 SUB SWAP1 RETURN JUMPDEST CALLVALUE DUP1 ISZERO PUSH2 0x285 JUMPI PUSH1 0x0 DUP1 REVERT JUMPDEST POP PUSH2 0x2A0 PUSH1 0x4 DUP1 CALLDATASIZE SUB DUP2 ADD SWAP1 PUSH2 0x29B SWAP2 SWAP1 PUSH2 0x225D JUMP JUMPDEST PUSH2 0x7B2 JUMP JUMPDEST PUSH1 0x40 MLOAD PUSH2 0x2AD SWAP2 SWAP1 PUSH2 0x2393 JUMP JUMPDEST PUSH1 0x40 MLOAD DUP1 SWAP2 SUB SWAP1 RETURN JUMPDEST CALLVALUE DUP1 ISZERO PUSH2 0x2C2 JUMPI PUSH1 0x0 DUP1 REVERT JUMPDEST POP PUSH2 0x2DD PUSH1 0x4 DUP1 CALLDATASIZE SUB DUP2 ADD SWAP1 PUSH2 0x2D8 SWAP2 SWAP1 PUSH2 0x2151 JUMP JUMPDEST PUSH2 0x8CB JUMP JUMPDEST PUSH1 0x40 MLOAD PUSH2 0x2EA SWAP2 SWAP1 PUSH2 0x1CB4 JUMP JUMPDEST PUSH1 0x40 MLOAD DUP1 SWAP2 SUB SWAP1 RETURN JUMPDEST CALLVALUE DUP1 ISZERO PUSH2 0x2FF JUMPI PUSH1 0x0 DUP1 REVERT JUMPDEST POP PUSH2 0x31A PUSH1 0x4 DUP1 CALLDATASIZE SUB DUP2 ADD SWAP1 PUSH2 0x315 SWAP2 SWAP1 PUSH2 0x23E1 JUMP JUMPDEST PUSH2 0x955 JUMP JUMPDEST STOP JUMPDEST CALLVALUE DUP1 ISZERO PUSH2 0x328 JUMPI PUSH1 0x0 DUP1 REVERT JUMPDEST POP PUSH2 0x343 PUSH1 0x4 DUP1 CALLDATASIZE SUB DUP2 ADD SWAP1 PUSH2 0x33E SWAP2 SWAP1 PUSH2 0x2151 JUMP JUMPDEST PUSH2 0x96B JUMP JUMPDEST PUSH1 0x40 MLOAD PUSH2 0x350 SWAP2 SWAP1 PUSH2 0x1CB4 JUMP JUMPDEST PUSH1 0x40 MLOAD DUP1 SWAP2 SUB SWAP1 RETURN JUMPDEST CALLVALUE DUP1 ISZERO PUSH2 0x365 JUMPI PUSH1 0x0 DUP1 REVERT JUMPDEST POP PUSH2 0x36E PUSH2 0x9A8 JUMP JUMPDEST PUSH1 0x40 MLOAD PUSH2 0x37B SWAP2 SWAP1 PUSH2 0x1DC2 JUMP JUMPDEST PUSH1 0x40 MLOAD DUP1 SWAP2 SUB SWAP1 RETURN JUMPDEST CALLVALUE DUP1 ISZERO PUSH2 0x390 JUMPI PUSH1 0x0 DUP1 REVERT JUMPDEST POP PUSH2 0x3AB PUSH1 0x4 DUP1 CALLDATASIZE SUB DUP2 ADD SWAP1 PUSH2 0x3A6 SWAP2 SWAP1 PUSH2 0x2421 JUMP JUMPDEST PUSH2 0xA55 JUMP JUMPDEST PUSH1 0x40 MLOAD PUSH2 0x3B8 SWAP2 SWAP1 PUSH2 0x1CB4 JUMP JUMPDEST PUSH1 0x40 MLOAD DUP1 SWAP2 SUB SWAP1 RETURN JUMPDEST CALLVALUE DUP1 ISZERO PUSH2 0x3CD JUMPI PUSH1 0x0 DUP1 REVERT JUMPDEST POP PUSH2 0x3E8 PUSH1 0x4 DUP1 CALLDATASIZE SUB DUP2 ADD SWAP1 PUSH2 0x3E3 SWAP2 SWAP1 PUSH2 0x2461 JUMP JUMPDEST PUSH2 0xAE9 JUMP JUMPDEST STOP JUMPDEST CALLVALUE DUP1 ISZERO PUSH2 0x3F6 JUMPI PUSH1 0x0 DUP1 REVERT JUMPDEST POP PUSH2 0x411 PUSH1 0x4 DUP1 CALLDATASIZE SUB DUP2 ADD SWAP1 PUSH2 0x40C SWAP2 SWAP1 PUSH2 0x24F8 JUMP JUMPDEST PUSH2 0xB8A JUMP JUMPDEST PUSH1 0x40 MLOAD PUSH2 0x41E SWAP2 SWAP1 PUSH2 0x1DC2 JUMP JUMPDEST PUSH1 0x40 MLOAD DUP1 SWAP2 SUB SWAP1 RETURN JUMPDEST PUSH1 0x0 DUP1 PUSH20 0xFFFFFFFFFFFFFFFFFFFFFFFFFFFFFFFFFFFFFFFF AND DUP4 PUSH20 0xFFFFFFFFFFFFFFFFFFFFFFFFFFFFFFFFFFFFFFFF AND SUB PUSH2 0x497 JUMPI PUSH1 0x40 MLOAD PUSH32 0x8C379A000000000000000000000000000000000000000000000000000000000 DUP2 MSTORE PUSH1 0x4 ADD PUSH2 0x48E SWAP1 PUSH2 0x25AA JUMP JUMPDEST PUSH1 0x40 MLOAD DUP1 SWAP2 SUB SWAP1 REVERT JUMPDEST PUSH1 0x0 DUP1 DUP4 DUP2 MSTORE PUSH1 0x20 ADD SWAP1 DUP2 MSTORE PUSH1 0x20 ADD PUSH1 0x0 KECCAK256 PUSH1 0x0 DUP5 PUSH20 0xFFFFFFFFFFFFFFFFFFFFFFFFFFFFFFFFFFFFFFFF AND PUSH20 0xFFFFFFFFFFFFFFFFFFFFFFFFFFFFFFFFFFFFFFFF AND DUP2 MSTORE PUSH1 0x20 ADD SWAP1 DUP2 MSTORE PUSH1 0x20 ADD PUSH1 0x0 KECCAK256 SLOAD SWAP1 POP SWAP3 SWAP2 POP POP JUMP JUMPDEST PUSH1 0x0 PUSH32 0xD9B67A2600000000000000000000000000000000000000000000000000000000 PUSH28 0xFFFFFFFFFFFFFFFFFFFFFFFFFFFFFFFFFFFFFFFFFFFFFFFFFFFFFFFF NOT AND DUP3 PUSH28 0xFFFFFFFFFFFFFFFFFFFFFFFFFFFFFFFFFFFFFFFFFFFFFFFFFFFFFFFF NOT AND EQ DUP1 PUSH2 0x5BA JUMPI POP PUSH32 0xE89341C00000000000000000000000000000000000000000000000000000000 PUSH28 0xFFFFFFFFFFFFFFFFFFFFFFFFFFFFFFFFFFFFFFFFFFFFFFFFFFFFFFFF NOT AND DUP3 PUSH28 0xFFFFFFFFFFFFFFFFFFFFFFFFFFFFFFFFFFFFFFFFFFFFFFFFFFFFFFFF NOT AND EQ JUMPDEST DUP1 PUSH2 0x5CA JUMPI POP PUSH2 0x5C9 DUP3 PUSH2 0xBE8 JUMP JUMPDEST JUMPDEST SWAP1 POP SWAP2 SWAP1 POP JUMP JUMPDEST PUSH1 0x0 PUSH1 0x1 ISZERO ISZERO PUSH2 0x5E2 DUP4 PUSH1 0x1 PUSH2 0xC52 JUMP JUMPDEST ISZERO ISZERO SUB PUSH2 0x5F2 JUMPI PUSH1 0x1 SWAP1 POP PUSH2 0x5F7 JUMP JUMPDEST PUSH1 0x0 SWAP1 POP JUMPDEST SWAP2 SWAP1 POP JUMP JUMPDEST PUSH1 0x0 PUSH2 0x609 CALLER PUSH1 0x0 PUSH2 0x427 JUMP JUMPDEST SWAP1 POP SWAP1 JUMP JUMPDEST PUSH1 0x60 PUSH1 0x2 DUP1 SLOAD PUSH2 0x61D SWAP1 PUSH2 0x25F9 JUMP JUMPDEST DUP1 PUSH1 0x1F ADD PUSH1 0x20 DUP1 SWAP2 DIV MUL PUSH1 0x20 ADD PUSH1 0x40 MLOAD SWAP1 DUP2 ADD PUSH1 0x40 MSTORE DUP1 SWAP3 SWAP2 SWAP1 DUP2 DUP2 MSTORE PUSH1 0x20 ADD DUP3 DUP1 SLOAD PUSH2 0x649 SWAP1 PUSH2 0x25F9 JUMP JUMPDEST DUP1 ISZERO PUSH2 0x696 JUMPI DUP1 PUSH1 0x1F LT PUSH2 0x66B JUMPI PUSH2 0x100 DUP1 DUP4 SLOAD DIV MUL DUP4 MSTORE SWAP2 PUSH1 0x20 ADD SWAP2 PUSH2 0x696 JUMP JUMPDEST DUP3 ADD SWAP2 SWAP1 PUSH1 0x0 MSTORE PUSH1 0x20 PUSH1 0x0 KECCAK256 SWAP1 JUMPDEST DUP2 SLOAD DUP2 MSTORE SWAP1 PUSH1 0x1 ADD SWAP1 PUSH1 0x20 ADD DUP1 DUP4 GT PUSH2 0x679 JUMPI DUP3 SWAP1 SUB PUSH1 0x1F AND DUP3 ADD SWAP2 JUMPDEST POP POP POP POP POP SWAP1 POP SWAP2 SWAP1 POP JUMP JUMPDEST PUSH2 0x6AA PUSH2 0xC79 JUMP JUMPDEST PUSH20 0xFFFFFFFFFFFFFFFFFFFFFFFFFFFFFFFFFFFFFFFF AND DUP6 PUSH20 0xFFFFFFFFFFFFFFFFFFFFFFFFFFFFFFFFFFFFFFFF AND EQ DUP1 PUSH2 0x6F0 JUMPI POP PUSH2 0x6EF DUP6 PUSH2 0x6EA PUSH2 0xC79 JUMP JUMPDEST PUSH2 0xA55 JUMP JUMPDEST JUMPDEST PUSH2 0x72F JUMPI PUSH1 0x40 MLOAD PUSH32 0x8C379A000000000000000000000000000000000000000000000000000000000 DUP2 MSTORE PUSH1 0x4 ADD PUSH2 0x726 SWAP1 PUSH2 0x269C JUMP JUMPDEST PUSH1 0x40 MLOAD DUP1 SWAP2 SUB SWAP1 REVERT JUMPDEST PUSH2 0x73C DUP6 DUP6 DUP6 DUP6 DUP6 PUSH2 0xC81 JUMP JUMPDEST POP POP POP POP POP JUMP JUMPDEST PUSH1 0x0 PUSH2 0x74D PUSH2 0xF94 JUMP JUMPDEST PUSH1 0x40 MLOAD PUSH1 0x20 ADD PUSH2 0x75D SWAP2 SWAP1 PUSH2 0x26F8 JUMP JUMPDEST PUSH1 0x40 MLOAD PUSH1 0x20 DUP2 DUP4 SUB SUB DUP2 MSTORE SWAP1 PUSH1 0x40 MSTORE DUP1 MLOAD SWAP1 PUSH1 0x20 ADD KECCAK256 DUP3 PUSH1 0x40 MLOAD PUSH1 0x20 ADD PUSH2 0x784 SWAP2 SWAP1 PUSH2 0x26F8 JUMP JUMPDEST PUSH1 0x40 MLOAD PUSH1 0x20 DUP2 DUP4 SUB SUB DUP2 MSTORE SWAP1 PUSH1 0x40 MSTORE DUP1 MLOAD SWAP1 PUSH1 0x20 ADD KECCAK256 SUB PUSH2 0x7A8 JUMPI PUSH1 0x1 SWAP1 POP PUSH2 0x7AD JUMP JUMPDEST PUSH1 0x0 SWAP1 POP JUMPDEST SWAP2 SWAP1 POP JUMP JUMPDEST PUSH1 0x60 DUP2 MLOAD DUP4 MLOAD EQ PUSH2 0x7F8 JUMPI PUSH1 0x40 MLOAD PUSH32 0x8C379A000000000000000000000000000000000000000000000000000000000 DUP2 MSTORE PUSH1 0x4 ADD PUSH2 0x7EF SWAP1 PUSH2 0x2781 JUMP JUMPDEST PUSH1 0x40 MLOAD DUP1 SWAP2 SUB SWAP1 REVERT JUMPDEST PUSH1 0x0 DUP4 MLOAD PUSH8 0xFFFFFFFFFFFFFFFF DUP2 GT ISZERO PUSH2 0x815 JUMPI PUSH2 0x814 PUSH2 0x1DE9 JUMP JUMPDEST JUMPDEST PUSH1 0x40 MLOAD SWAP1 DUP1 DUP3 MSTORE DUP1 PUSH1 0x20 MUL PUSH1 0x20 ADD DUP3 ADD PUSH1 0x40 MSTORE DUP1 ISZERO PUSH2 0x843 JUMPI DUP2 PUSH1 0x20 ADD PUSH1 0x20 DUP3 MUL DUP1 CALLDATASIZE DUP4 CALLDATACOPY DUP1 DUP3 ADD SWAP2 POP POP SWAP1 POP JUMPDEST POP SWAP1 POP PUSH1 0x0 JUMPDEST DUP5 MLOAD DUP2 LT ISZERO PUSH2 0x8C0 JUMPI PUSH2 0x890 DUP6 DUP3 DUP2 MLOAD DUP2 LT PUSH2 0x868 JUMPI PUSH2 0x867 PUSH2 0x27A1 JUMP JUMPDEST JUMPDEST PUSH1 0x20 MUL PUSH1 0x20 ADD ADD MLOAD DUP6 DUP4 DUP2 MLOAD DUP2 LT PUSH2 0x883 JUMPI PUSH2 0x882 PUSH2 0x27A1 JUMP JUMPDEST JUMPDEST PUSH1 0x20 MUL PUSH1 0x20 ADD ADD MLOAD PUSH2 0x427 JUMP JUMPDEST DUP3 DUP3 DUP2 MLOAD DUP2 LT PUSH2 0x8A3 JUMPI PUSH2 0x8A2 PUSH2 0x27A1 JUMP JUMPDEST JUMPDEST PUSH1 0x20 MUL PUSH1 0x20 ADD ADD DUP2 DUP2 MSTORE POP POP DUP1 PUSH2 0x8B9 SWAP1 PUSH2 0x27FF JUMP JUMPDEST SWAP1 POP PUSH2 0x849 JUMP JUMPDEST POP DUP1 SWAP2 POP POP SWAP3 SWAP2 POP POP JUMP JUMPDEST PUSH1 0x0 PUSH1 0x1 ISZERO ISZERO PUSH2 0x8DC CALLER PUSH1 0x1 PUSH2 0xC52 JUMP JUMPDEST ISZERO ISZERO EQ PUSH2 0x8E8 JUMPI PUSH1 0x0 DUP1 REVERT JUMPDEST DUP2 PUSH1 0x40 MLOAD PUSH1 0x20 ADD PUSH2 0x8F9 SWAP2 SWAP1 PUSH2 0x26F8 JUMP JUMPDEST PUSH1 0x40 MLOAD PUSH1 0x20 DUP2 DUP4 SUB SUB DUP2 MSTORE SWAP1 PUSH1 0x40 MSTORE DUP1 MLOAD SWAP1 PUSH1 0x20 ADD KECCAK256 PUSH2 0x917 PUSH2 0x9A8 JUMP JUMPDEST PUSH1 0x40 MLOAD PUSH1 0x20 ADD PUSH2 0x927 SWAP2 SWAP1 PUSH2 0x26F8 JUMP JUMPDEST PUSH1 0x40 MLOAD PUSH1 0x20 DUP2 DUP4 SUB SUB DUP2 MSTORE SWAP1 PUSH1 0x40 MSTORE DUP1 MLOAD SWAP1 PUSH1 0x20 ADD KECCAK256 SUB PUSH2 0x94B JUMPI PUSH1 0x1 SWAP1 POP PUSH2 0x950 JUMP JUMPDEST PUSH1 0x0 SWAP1 POP JUMPDEST SWAP2 SWAP1 POP JUMP JUMPDEST PUSH2 0x967 PUSH2 0x960 PUSH2 0xC79 JUMP JUMPDEST DUP4 DUP4 PUSH2 0x1026 JUMP JUMPDEST POP POP JUMP JUMPDEST PUSH1 0x0 PUSH1 0x1 ISZERO ISZERO PUSH2 0x97C CALLER PUSH1 0x3 PUSH2 0xC52 JUMP JUMPDEST ISZERO ISZERO EQ PUSH2 0x988 JUMPI PUSH1 0x0 DUP1 REVERT JUMPDEST DUP2 PUSH1 0x3 SWAP1 DUP1 MLOAD SWAP1 PUSH1 0x20 ADD SWAP1 PUSH2 0x99E SWAP3 SWAP2 SWAP1 PUSH2 0x1A5F JUMP JUMPDEST POP PUSH1 0x1 SWAP1 POP SWAP2 SWAP1 POP JUMP JUMPDEST PUSH1 0x60 PUSH1 0x1 ISZERO ISZERO PUSH2 0x9B9 CALLER PUSH1 0x3 PUSH2 0xC52 JUMP JUMPDEST ISZERO ISZERO EQ PUSH2 0x9C5 JUMPI PUSH1 0x0 DUP1 REVERT JUMPDEST PUSH1 0x3 DUP1 SLOAD PUSH2 0x9D2 SWAP1 PUSH2 0x25F9 JUMP JUMPDEST DUP1 PUSH1 0x1F ADD PUSH1 0x20 DUP1 SWAP2 DIV MUL PUSH1 0x20 ADD PUSH1 0x40 MLOAD SWAP1 DUP2 ADD PUSH1 0x40 MSTORE DUP1 SWAP3 SWAP2 SWAP1 DUP2 DUP2 MSTORE PUSH1 0x20 ADD DUP3 DUP1 SLOAD PUSH2 0x9FE SWAP1 PUSH2 0x25F9 JUMP JUMPDEST DUP1 ISZERO PUSH2 0xA4B JUMPI DUP1 PUSH1 0x1F LT PUSH2 0xA20 JUMPI PUSH2 0x100 DUP1 DUP4 SLOAD DIV MUL DUP4 MSTORE SWAP2 PUSH1 0x20 ADD SWAP2 PUSH2 0xA4B JUMP JUMPDEST DUP3 ADD SWAP2 SWAP1 PUSH1 0x0 MSTORE PUSH1 0x20 PUSH1 0x0 KECCAK256 SWAP1 JUMPDEST DUP2 SLOAD DUP2 MSTORE SWAP1 PUSH1 0x1 ADD SWAP1 PUSH1 0x20 ADD DUP1 DUP4 GT PUSH2 0xA2E JUMPI DUP3 SWAP1 SUB PUSH1 0x1F AND DUP3 ADD SWAP2 JUMPDEST POP POP POP POP POP SWAP1 POP SWAP1 JUMP JUMPDEST PUSH1 0x0 PUSH1 0x1 PUSH1 0x0 DUP5 PUSH20 0xFFFFFFFFFFFFFFFFFFFFFFFFFFFFFFFFFFFFFFFF AND PUSH20 0xFFFFFFFFFFFFFFFFFFFFFFFFFFFFFFFFFFFFFFFF AND DUP2 MSTORE PUSH1 0x20 ADD SWAP1 DUP2 MSTORE PUSH1 0x20 ADD PUSH1 0x0 KECCAK256 PUSH1 0x0 DUP4 PUSH20 0xFFFFFFFFFFFFFFFFFFFFFFFFFFFFFFFFFFFFFFFF AND PUSH20 0xFFFFFFFFFFFFFFFFFFFFFFFFFFFFFFFFFFFFFFFF AND DUP2 MSTORE PUSH1 0x20 ADD SWAP1 DUP2 MSTORE PUSH1 0x20 ADD PUSH1 0x0 KECCAK256 PUSH1 0x0 SWAP1 SLOAD SWAP1 PUSH2 0x100 EXP SWAP1 DIV PUSH1 0xFF AND SWAP1 POP SWAP3 SWAP2 POP POP JUMP JUMPDEST PUSH2 0xAF1 PUSH2 0xC79 JUMP JUMPDEST PUSH20 0xFFFFFFFFFFFFFFFFFFFFFFFFFFFFFFFFFFFFFFFF AND DUP6 PUSH20 0xFFFFFFFFFFFFFFFFFFFFFFFFFFFFFFFFFFFFFFFF AND EQ DUP1 PUSH2 0xB37 JUMPI POP PUSH2 0xB36 DUP6 PUSH2 0xB31 PUSH2 0xC79 JUMP JUMPDEST PUSH2 0xA55 JUMP JUMPDEST JUMPDEST PUSH2 0xB76 JUMPI PUSH1 0x40 MLOAD PUSH32 0x8C379A000000000000000000000000000000000000000000000000000000000 DUP2 MSTORE PUSH1 0x4 ADD PUSH2 0xB6D SWAP1 PUSH2 0x28B9 JUMP JUMPDEST PUSH1 0x40 MLOAD DUP1 SWAP2 SUB SWAP1 REVERT JUMPDEST PUSH2 0xB83 DUP6 DUP6 DUP6 DUP6 DUP6 PUSH2 0x1192 JUMP JUMPDEST POP POP POP POP POP JUMP JUMPDEST PUSH1 0x60 PUSH1 0x1 ISZERO ISZERO PUSH2 0xB9B CALLER PUSH1 0x3 PUSH2 0xC52 JUMP JUMPDEST ISZERO ISZERO EQ PUSH2 0xBA7 JUMPI PUSH1 0x0 DUP1 REVERT JUMPDEST PUSH2 0xBB4 DUP3 PUSH1 0x4 SLOAD DUP6 PUSH2 0x1413 JUMP JUMPDEST PUSH1 0x40 MLOAD DUP1 PUSH1 0x60 ADD PUSH1 0x40 MSTORE DUP1 PUSH1 0x33 DUP2 MSTORE PUSH1 0x20 ADD PUSH2 0x3047 PUSH1 0x33 SWAP2 CODECOPY SWAP1 POP SWAP3 SWAP2 POP POP JUMP JUMPDEST PUSH1 0x0 DUP1 DUP3 EXTCODESIZE SWAP1 POP PUSH1 0x0 DUP2 GT SWAP2 POP POP SWAP2 SWAP1 POP JUMP JUMPDEST PUSH1 0x0 PUSH32 0x1FFC9A700000000000000000000000000000000000000000000000000000000 PUSH28 0xFFFFFFFFFFFFFFFFFFFFFFFFFFFFFFFFFFFFFFFFFFFFFFFFFFFFFFFF NOT AND DUP3 PUSH28 0xFFFFFFFFFFFFFFFFFFFFFFFFFFFFFFFFFFFFFFFFFFFFFFFFFFFFFFFF NOT AND EQ SWAP1 POP SWAP2 SWAP1 POP JUMP JUMPDEST PUSH1 0x0 DUP2 PUSH2 0xC60 DUP5 PUSH1 0x0 PUSH2 0x427 JUMP JUMPDEST LT PUSH2 0xC6E JUMPI PUSH1 0x1 SWAP1 POP PUSH2 0xC73 JUMP JUMPDEST PUSH1 0x0 SWAP1 POP JUMPDEST SWAP3 SWAP2 POP POP JUMP JUMPDEST PUSH1 0x0 CALLER SWAP1 POP SWAP1 JUMP JUMPDEST DUP2 MLOAD DUP4 MLOAD EQ PUSH2 0xCC5 JUMPI PUSH1 0x40 MLOAD PUSH32 0x8C379A000000000000000000000000000000000000000000000000000000000 DUP2 MSTORE PUSH1 0x4 ADD PUSH2 0xCBC SWAP1 PUSH2 0x294B JUMP JUMPDEST PUSH1 0x40 MLOAD DUP1 SWAP2 SUB SWAP1 REVERT JUMPDEST PUSH1 0x0 PUSH20 0xFFFFFFFFFFFFFFFFFFFFFFFFFFFFFFFFFFFFFFFF AND DUP5 PUSH20 0xFFFFFFFFFFFFFFFFFFFFFFFFFFFFFFFFFFFFFFFF AND SUB PUSH2 0xD34 JUMPI PUSH1 0x40 MLOAD PUSH32 0x8C379A000000000000000000000000000000000000000000000000000000000 DUP2 MSTORE PUSH1 0x4 ADD PUSH2 0xD2B SWAP1 PUSH2 0x29DD JUMP JUMPDEST PUSH1 0x40 MLOAD DUP1 SWAP2 SUB SWAP1 REVERT JUMPDEST PUSH1 0x0 PUSH2 0xD3E PUSH2 0xC79 JUMP JUMPDEST SWAP1 POP PUSH2 0xD4E DUP2 DUP8 DUP8 DUP8 DUP8 DUP8 PUSH2 0x162F JUMP JUMPDEST PUSH1 0x0 JUMPDEST DUP5 MLOAD DUP2 LT ISZERO PUSH2 0xEFF JUMPI PUSH1 0x0 DUP6 DUP3 DUP2 MLOAD DUP2 LT PUSH2 0xD6F JUMPI PUSH2 0xD6E PUSH2 0x27A1 JUMP JUMPDEST JUMPDEST PUSH1 0x20 MUL PUSH1 0x20 ADD ADD MLOAD SWAP1 POP PUSH1 0x0 DUP6 DUP4 DUP2 MLOAD DUP2 LT PUSH2 0xD8E JUMPI PUSH2 0xD8D PUSH2 0x27A1 JUMP JUMPDEST JUMPDEST PUSH1 0x20 MUL PUSH1 0x20 ADD ADD MLOAD SWAP1 POP PUSH1 0x0 DUP1 PUSH1 0x0 DUP5 DUP2 MSTORE PUSH1 0x20 ADD SWAP1 DUP2 MSTORE PUSH1 0x20 ADD PUSH1 0x0 KECCAK256 PUSH1 0x0 DUP12 PUSH20 0xFFFFFFFFFFFFFFFFFFFFFFFFFFFFFFFFFFFFFFFF AND PUSH20 0xFFFFFFFFFFFFFFFFFFFFFFFFFFFFFFFFFFFFFFFF AND DUP2 MSTORE PUSH1 0x20 ADD SWAP1 DUP2 MSTORE PUSH1 0x20 ADD PUSH1 0x0 KECCAK256 SLOAD SWAP1 POP DUP2 DUP2 LT ISZERO PUSH2 0xE2F JUMPI PUSH1 0x40 MLOAD PUSH32 0x8C379A000000000000000000000000000000000000000000000000000000000 DUP2 MSTORE PUSH1 0x4 ADD PUSH2 0xE26 SWAP1 PUSH2 0x2A6F JUMP JUMPDEST PUSH1 0x40 MLOAD DUP1 SWAP2 SUB SWAP1 REVERT JUMPDEST DUP2 DUP2 SUB PUSH1 0x0 DUP1 DUP6 DUP2 MSTORE PUSH1 0x20 ADD SWAP1 DUP2 MSTORE PUSH1 0x20 ADD PUSH1 0x0 KECCAK256 PUSH1 0x0 DUP13 PUSH20 0xFFFFFFFFFFFFFFFFFFFFFFFFFFFFFFFFFFFFFFFF AND PUSH20 0xFFFFFFFFFFFFFFFFFFFFFFFFFFFFFFFFFFFFFFFF AND DUP2 MSTORE PUSH1 0x20 ADD SWAP1 DUP2 MSTORE PUSH1 0x20 ADD PUSH1 0x0 KECCAK256 DUP2 SWAP1 SSTORE POP DUP2 PUSH1 0x0 DUP1 DUP6 DUP2 MSTORE PUSH1 0x20 ADD SWAP1 DUP2 MSTORE PUSH1 0x20 ADD PUSH1 0x0 KECCAK256 PUSH1 0x0 DUP12 PUSH20 0xFFFFFFFFFFFFFFFFFFFFFFFFFFFFFFFFFFFFFFFF AND PUSH20 0xFFFFFFFFFFFFFFFFFFFFFFFFFFFFFFFFFFFFFFFF AND DUP2 MSTORE PUSH1 0x20 ADD SWAP1 DUP2 MSTORE PUSH1 0x20 ADD PUSH1 0x0 KECCAK256 PUSH1 0x0 DUP3 DUP3 SLOAD PUSH2 0xEE4 SWAP2 SWAP1 PUSH2 0x2A8F JUMP JUMPDEST SWAP3 POP POP DUP2 SWAP1 SSTORE POP POP POP POP DUP1 PUSH2 0xEF8 SWAP1 PUSH2 0x27FF JUMP JUMPDEST SWAP1 POP PUSH2 0xD51 JUMP JUMPDEST POP DUP5 PUSH20 0xFFFFFFFFFFFFFFFFFFFFFFFFFFFFFFFFFFFFFFFF AND DUP7 PUSH20 0xFFFFFFFFFFFFFFFFFFFFFFFFFFFFFFFFFFFFFFFF AND DUP3 PUSH20 0xFFFFFFFFFFFFFFFFFFFFFFFFFFFFFFFFFFFFFFFF AND PUSH32 0x4A39DC06D4C0DBC64B70AF90FD698A233A518AA5D07E595D983B8C0526C8F7FB DUP8 DUP8 PUSH1 0x40 MLOAD PUSH2 0xF76 SWAP3 SWAP2 SWAP1 PUSH2 0x2AE5 JUMP JUMPDEST PUSH1 0x40 MLOAD DUP1 SWAP2 SUB SWAP1 LOG4 PUSH2 0xF8C DUP2 DUP8 DUP8 DUP8 DUP8 DUP8 PUSH2 0x1637 JUMP JUMPDEST POP POP POP POP POP POP JUMP JUMPDEST PUSH1 0x60 PUSH1 0x3 DUP1 SLOAD PUSH2 0xFA3 SWAP1 PUSH2 0x25F9 JUMP JUMPDEST DUP1 PUSH1 0x1F ADD PUSH1 0x20 DUP1 SWAP2 DIV MUL PUSH1 0x20 ADD PUSH1 0x40 MLOAD SWAP1 DUP2 ADD PUSH1 0x40 MSTORE DUP1 SWAP3 SWAP2 SWAP1 DUP2 DUP2 MSTORE PUSH1 0x20 ADD DUP3 DUP1 SLOAD PUSH2 0xFCF SWAP1 PUSH2 0x25F9 JUMP JUMPDEST DUP1 ISZERO PUSH2 0x101C JUMPI DUP1 PUSH1 0x1F LT PUSH2 0xFF1 JUMPI PUSH2 0x100 DUP1 DUP4 SLOAD DIV MUL DUP4 MSTORE SWAP2 PUSH1 0x20 ADD SWAP2 PUSH2 0x101C JUMP JUMPDEST DUP3 ADD SWAP2 SWAP1 PUSH1 0x0 MSTORE PUSH1 0x20 PUSH1 0x0 KECCAK256 SWAP1 JUMPDEST DUP2 SLOAD DUP2 MSTORE SWAP1 PUSH1 0x1 ADD SWAP1 PUSH1 0x20 ADD DUP1 DUP4 GT PUSH2 0xFFF JUMPI DUP3 SWAP1 SUB PUSH1 0x1F AND DUP3 ADD SWAP2 JUMPDEST POP POP POP POP POP SWAP1 POP SWAP1 JUMP JUMPDEST DUP2 PUSH20 0xFFFFFFFFFFFFFFFFFFFFFFFFFFFFFFFFFFFFFFFF AND DUP4 PUSH20 0xFFFFFFFFFFFFFFFFFFFFFFFFFFFFFFFFFFFFFFFF AND SUB PUSH2 0x1094 JUMPI PUSH1 0x40 MLOAD PUSH32 0x8C379A000000000000000000000000000000000000000000000000000000000 DUP2 MSTORE PUSH1 0x4 ADD PUSH2 0x108B SWAP1 PUSH2 0x2B8E JUMP JUMPDEST PUSH1 0x40 MLOAD DUP1 SWAP2 SUB SWAP1 REVERT JUMPDEST DUP1 PUSH1 0x1 PUSH1 0x0 DUP6 PUSH20 0xFFFFFFFFFFFFFFFFFFFFFFFFFFFFFFFFFFFFFFFF AND PUSH20 0xFFFFFFFFFFFFFFFFFFFFFFFFFFFFFFFFFFFFFFFF AND DUP2 MSTORE PUSH1 0x20 ADD SWAP1 DUP2 MSTORE PUSH1 0x20 ADD PUSH1 0x0 KECCAK256 PUSH1 0x0 DUP5 PUSH20 0xFFFFFFFFFFFFFFFFFFFFFFFFFFFFFFFFFFFFFFFF AND PUSH20 0xFFFFFFFFFFFFFFFFFFFFFFFFFFFFFFFFFFFFFFFF AND DUP2 MSTORE PUSH1 0x20 ADD SWAP1 DUP2 MSTORE PUSH1 0x20 ADD PUSH1 0x0 KECCAK256 PUSH1 0x0 PUSH2 0x100 EXP DUP2 SLOAD DUP2 PUSH1 0xFF MUL NOT AND SWAP1 DUP4 ISZERO ISZERO MUL OR SWAP1 SSTORE POP DUP2 PUSH20 0xFFFFFFFFFFFFFFFFFFFFFFFFFFFFFFFFFFFFFFFF AND DUP4 PUSH20 0xFFFFFFFFFFFFFFFFFFFFFFFFFFFFFFFFFFFFFFFF AND PUSH32 0x17307EAB39AB6107E8899845AD3D59BD9653F200F220920489CA2B5937696C31 DUP4 PUSH1 0x40 MLOAD PUSH2 0x1185 SWAP2 SWAP1 PUSH2 0x1CB4 JUMP JUMPDEST PUSH1 0x40 MLOAD DUP1 SWAP2 SUB SWAP1 LOG3 POP POP POP JUMP JUMPDEST PUSH1 0x0 PUSH20 0xFFFFFFFFFFFFFFFFFFFFFFFFFFFFFFFFFFFFFFFF AND DUP5 PUSH20 0xFFFFFFFFFFFFFFFFFFFFFFFFFFFFFFFFFFFFFFFF AND SUB PUSH2 0x1201 JUMPI PUSH1 0x40 MLOAD PUSH32 0x8C379A000000000000000000000000000000000000000000000000000000000 DUP2 MSTORE PUSH1 0x4 ADD PUSH2 0x11F8 SWAP1 PUSH2 0x29DD JUMP JUMPDEST PUSH1 0x40 MLOAD DUP1 SWAP2 SUB SWAP1 REVERT JUMPDEST PUSH1 0x0 PUSH2 0x120B PUSH2 0xC79 JUMP JUMPDEST SWAP1 POP PUSH2 0x122B DUP2 DUP8 DUP8 PUSH2 0x121C DUP9 PUSH2 0x180E JUMP JUMPDEST PUSH2 0x1225 DUP9 PUSH2 0x180E JUMP JUMPDEST DUP8 PUSH2 0x162F JUMP JUMPDEST PUSH1 0x0 DUP1 PUSH1 0x0 DUP7 DUP2 MSTORE PUSH1 0x20 ADD SWAP1 DUP2 MSTORE PUSH1 0x20 ADD PUSH1 0x0 KECCAK256 PUSH1 0x0 DUP9 PUSH20 0xFFFFFFFFFFFFFFFFFFFFFFFFFFFFFFFFFFFFFFFF AND PUSH20 0xFFFFFFFFFFFFFFFFFFFFFFFFFFFFFFFFFFFFFFFF AND DUP2 MSTORE PUSH1 0x20 ADD SWAP1 DUP2 MSTORE PUSH1 0x20 ADD PUSH1 0x0 KECCAK256 SLOAD SWAP1 POP DUP4 DUP2 LT ISZERO PUSH2 0x12C2 JUMPI PUSH1 0x40 MLOAD PUSH32 0x8C379A000000000000000000000000000000000000000000000000000000000 DUP2 MSTORE PUSH1 0x4 ADD PUSH2 0x12B9 SWAP1 PUSH2 0x2A6F JUMP JUMPDEST PUSH1 0x40 MLOAD DUP1 SWAP2 SUB SWAP1 REVERT JUMPDEST DUP4 DUP2 SUB PUSH1 0x0 DUP1 DUP8 DUP2 MSTORE PUSH1 0x20 ADD SWAP1 DUP2 MSTORE PUSH1 0x20 ADD PUSH1 0x0 KECCAK256 PUSH1 0x0 DUP10 PUSH20 0xFFFFFFFFFFFFFFFFFFFFFFFFFFFFFFFFFFFFFFFF AND PUSH20 0xFFFFFFFFFFFFFFFFFFFFFFFFFFFFFFFFFFFFFFFF AND DUP2 MSTORE PUSH1 0x20 ADD SWAP1 DUP2 MSTORE PUSH1 0x20 ADD PUSH1 0x0 KECCAK256 DUP2 SWAP1 SSTORE POP DUP4 PUSH1 0x0 DUP1 DUP8 DUP2 MSTORE PUSH1 0x20 ADD SWAP1 DUP2 MSTORE PUSH1 0x20 ADD PUSH1 0x0 KECCAK256 PUSH1 0x0 DUP9 PUSH20 0xFFFFFFFFFFFFFFFFFFFFFFFFFFFFFFFFFFFFFFFF AND PUSH20 0xFFFFFFFFFFFFFFFFFFFFFFFFFFFFFFFFFFFFFFFF AND DUP2 MSTORE PUSH1 0x20 ADD SWAP1 DUP2 MSTORE PUSH1 0x20 ADD PUSH1 0x0 KECCAK256 PUSH1 0x0 DUP3 DUP3 SLOAD PUSH2 0x1377 SWAP2 SWAP1 PUSH2 0x2A8F JUMP JUMPDEST SWAP3 POP POP DUP2 SWAP1 SSTORE POP DUP6 PUSH20 0xFFFFFFFFFFFFFFFFFFFFFFFFFFFFFFFFFFFFFFFF AND DUP8 PUSH20 0xFFFFFFFFFFFFFFFFFFFFFFFFFFFFFFFFFFFFFFFF AND DUP4 PUSH20 0xFFFFFFFFFFFFFFFFFFFFFFFFFFFFFFFFFFFFFFFF AND PUSH32 0xC3D58168C5AE7397731D063D5BBF3D657854427343F4C083240F7AACAA2D0F62 DUP9 DUP9 PUSH1 0x40 MLOAD PUSH2 0x13F4 SWAP3 SWAP2 SWAP1 PUSH2 0x2BAE JUMP JUMPDEST PUSH1 0x40 MLOAD DUP1 SWAP2 SUB SWAP1 LOG4 PUSH2 0x140A DUP3 DUP9 DUP9 DUP9 DUP9 DUP9 PUSH2 0x1888 JUMP JUMPDEST POP POP POP POP POP POP POP JUMP JUMPDEST PUSH1 0x0 PUSH20 0xFFFFFFFFFFFFFFFFFFFFFFFFFFFFFFFFFFFFFFFF AND DUP4 PUSH20 0xFFFFFFFFFFFFFFFFFFFFFFFFFFFFFFFFFFFFFFFF AND SUB PUSH2 0x1482 JUMPI PUSH1 0x40 MLOAD PUSH32 0x8C379A000000000000000000000000000000000000000000000000000000000 DUP2 MSTORE PUSH1 0x4 ADD PUSH2 0x1479 SWAP1 PUSH2 0x2C49 JUMP JUMPDEST PUSH1 0x40 MLOAD DUP1 SWAP2 SUB SWAP1 REVERT JUMPDEST PUSH1 0x0 PUSH2 0x148C PUSH2 0xC79 JUMP JUMPDEST SWAP1 POP PUSH2 0x14BC DUP2 DUP6 PUSH1 0x0 PUSH2 0x149E DUP8 PUSH2 0x180E JUMP JUMPDEST PUSH2 0x14A7 DUP8 PUSH2 0x180E JUMP JUMPDEST PUSH1 0x40 MLOAD DUP1 PUSH1 0x20 ADD PUSH1 0x40 MSTORE DUP1 PUSH1 0x0 DUP2 MSTORE POP PUSH2 0x162F JUMP JUMPDEST PUSH1 0x0 DUP1 PUSH1 0x0 DUP6 DUP2 MSTORE PUSH1 0x20 ADD SWAP1 DUP2 MSTORE PUSH1 0x20 ADD PUSH1 0x0 KECCAK256 PUSH1 0x0 DUP7 PUSH20 0xFFFFFFFFFFFFFFFFFFFFFFFFFFFFFFFFFFFFFFFF AND PUSH20 0xFFFFFFFFFFFFFFFFFFFFFFFFFFFFFFFFFFFFFFFF AND DUP2 MSTORE PUSH1 0x20 ADD SWAP1 DUP2 MSTORE PUSH1 0x20 ADD PUSH1 0x0 KECCAK256 SLOAD SWAP1 POP DUP3 DUP2 LT ISZERO PUSH2 0x1553 JUMPI PUSH1 0x40 MLOAD PUSH32 0x8C379A000000000000000000000000000000000000000000000000000000000 DUP2 MSTORE PUSH1 0x4 ADD PUSH2 0x154A SWAP1 PUSH2 0x2CDB JUMP JUMPDEST PUSH1 0x40 MLOAD DUP1 SWAP2 SUB SWAP1 REVERT JUMPDEST DUP3 DUP2 SUB PUSH1 0x0 DUP1 DUP7 DUP2 MSTORE PUSH1 0x20 ADD SWAP1 DUP2 MSTORE PUSH1 0x20 ADD PUSH1 0x0 KECCAK256 PUSH1 0x0 DUP8 PUSH20 0xFFFFFFFFFFFFFFFFFFFFFFFFFFFFFFFFFFFFFFFF AND PUSH20 0xFFFFFFFFFFFFFFFFFFFFFFFFFFFFFFFFFFFFFFFF AND DUP2 MSTORE PUSH1 0x20 ADD SWAP1 DUP2 MSTORE PUSH1 0x20 ADD PUSH1 0x0 KECCAK256 DUP2 SWAP1 SSTORE POP PUSH1 0x0 PUSH20 0xFFFFFFFFFFFFFFFFFFFFFFFFFFFFFFFFFFFFFFFF AND DUP6 PUSH20 0xFFFFFFFFFFFFFFFFFFFFFFFFFFFFFFFFFFFFFFFF AND DUP4 PUSH20 0xFFFFFFFFFFFFFFFFFFFFFFFFFFFFFFFFFFFFFFFF AND PUSH32 0xC3D58168C5AE7397731D063D5BBF3D657854427343F4C083240F7AACAA2D0F62 DUP8 DUP8 PUSH1 0x40 MLOAD PUSH2 0x1620 SWAP3 SWAP2 SWAP1 PUSH2 0x2BAE JUMP JUMPDEST PUSH1 0x40 MLOAD DUP1 SWAP2 SUB SWAP1 LOG4 POP POP POP POP POP JUMP JUMPDEST POP POP POP POP POP POP JUMP JUMPDEST PUSH2 0x1656 DUP5 PUSH20 0xFFFFFFFFFFFFFFFFFFFFFFFFFFFFFFFFFFFFFFFF AND PUSH2 0xBD5 JUMP JUMPDEST ISZERO PUSH2 0x1806 JUMPI DUP4 PUSH20 0xFFFFFFFFFFFFFFFFFFFFFFFFFFFFFFFFFFFFFFFF AND PUSH4 0xBC197C81 DUP8 DUP8 DUP7 DUP7 DUP7 PUSH1 0x40 MLOAD DUP7 PUSH4 0xFFFFFFFF AND PUSH1 0xE0 SHL DUP2 MSTORE PUSH1 0x4 ADD PUSH2 0x169C SWAP6 SWAP5 SWAP4 SWAP3 SWAP2 SWAP1 PUSH2 0x2D5F JUMP JUMPDEST PUSH1 0x20 PUSH1 0x40 MLOAD DUP1 DUP4 SUB DUP2 PUSH1 0x0 DUP8 GAS CALL SWAP3 POP POP POP DUP1 ISZERO PUSH2 0x16D8 JUMPI POP PUSH1 0x40 MLOAD RETURNDATASIZE PUSH1 0x1F NOT PUSH1 0x1F DUP3 ADD AND DUP3 ADD DUP1 PUSH1 0x40 MSTORE POP DUP2 ADD SWAP1 PUSH2 0x16D5 SWAP2 SWAP1 PUSH2 0x2DDC JUMP JUMPDEST PUSH1 0x1 JUMPDEST PUSH2 0x177D JUMPI PUSH2 0x16E4 PUSH2 0x2E16 JUMP JUMPDEST DUP1 PUSH4 0x8C379A0 SUB PUSH2 0x1740 JUMPI POP PUSH2 0x16F8 PUSH2 0x2E38 JUMP JUMPDEST DUP1 PUSH2 0x1703 JUMPI POP PUSH2 0x1742 JUMP JUMPDEST DUP1 PUSH1 0x40 MLOAD PUSH32 0x8C379A000000000000000000000000000000000000000000000000000000000 DUP2 MSTORE PUSH1 0x4 ADD PUSH2 0x1737 SWAP2 SWAP1 PUSH2 0x1DC2 JUMP JUMPDEST PUSH1 0x40 MLOAD DUP1 SWAP2 SUB SWAP1 REVERT JUMPDEST POP JUMPDEST PUSH1 0x40 MLOAD PUSH32 0x8C379A000000000000000000000000000000000000000000000000000000000 DUP2 MSTORE PUSH1 0x4 ADD PUSH2 0x1774 SWAP1 PUSH2 0x2F3A JUMP JUMPDEST PUSH1 0x40 MLOAD DUP1 SWAP2 SUB SWAP1 REVERT JUMPDEST PUSH4 0xBC197C81 PUSH1 0xE0 SHL PUSH28 0xFFFFFFFFFFFFFFFFFFFFFFFFFFFFFFFFFFFFFFFFFFFFFFFFFFFFFFFF NOT AND DUP2 PUSH28 0xFFFFFFFFFFFFFFFFFFFFFFFFFFFFFFFFFFFFFFFFFFFFFFFFFFFFFFFF NOT AND EQ PUSH2 0x1804 JUMPI PUSH1 0x40 MLOAD PUSH32 0x8C379A000000000000000000000000000000000000000000000000000000000 DUP2 MSTORE PUSH1 0x4 ADD PUSH2 0x17FB SWAP1 PUSH2 0x2FCC JUMP JUMPDEST PUSH1 0x40 MLOAD DUP1 SWAP2 SUB SWAP1 REVERT JUMPDEST POP JUMPDEST POP POP POP POP POP POP JUMP JUMPDEST PUSH1 0x60 PUSH1 0x0 PUSH1 0x1 PUSH8 0xFFFFFFFFFFFFFFFF DUP2 GT ISZERO PUSH2 0x182D JUMPI PUSH2 0x182C PUSH2 0x1DE9 JUMP JUMPDEST JUMPDEST PUSH1 0x40 MLOAD SWAP1 DUP1 DUP3 MSTORE DUP1 PUSH1 0x20 MUL PUSH1 0x20 ADD DUP3 ADD PUSH1 0x40 MSTORE DUP1 ISZERO PUSH2 0x185B JUMPI DUP2 PUSH1 0x20 ADD PUSH1 0x20 DUP3 MUL DUP1 CALLDATASIZE DUP4 CALLDATACOPY DUP1 DUP3 ADD SWAP2 POP POP SWAP1 POP JUMPDEST POP SWAP1 POP DUP3 DUP2 PUSH1 0x0 DUP2 MLOAD DUP2 LT PUSH2 0x1873 JUMPI PUSH2 0x1872 PUSH2 0x27A1 JUMP JUMPDEST JUMPDEST PUSH1 0x20 MUL PUSH1 0x20 ADD ADD DUP2 DUP2 MSTORE POP POP DUP1 SWAP2 POP POP SWAP2 SWAP1 POP JUMP JUMPDEST PUSH2 0x18A7 DUP5 PUSH20 0xFFFFFFFFFFFFFFFFFFFFFFFFFFFFFFFFFFFFFFFF AND PUSH2 0xBD5 JUMP JUMPDEST ISZERO PUSH2 0x1A57 JUMPI DUP4 PUSH20 0xFFFFFFFFFFFFFFFFFFFFFFFFFFFFFFFFFFFFFFFF AND PUSH4 0xF23A6E61 DUP8 DUP8 DUP7 DUP7 DUP7 PUSH1 0x40 MLOAD DUP7 PUSH4 0xFFFFFFFF AND PUSH1 0xE0 SHL DUP2 MSTORE PUSH1 0x4 ADD PUSH2 0x18ED SWAP6 SWAP5 SWAP4 SWAP3 SWAP2 SWAP1 PUSH2 0x2FEC JUMP JUMPDEST PUSH1 0x20 PUSH1 0x40 MLOAD DUP1 DUP4 SUB DUP2 PUSH1 0x0 DUP8 GAS CALL SWAP3 POP POP POP DUP1 ISZERO PUSH2 0x1929 JUMPI POP PUSH1 0x40 MLOAD RETURNDATASIZE PUSH1 0x1F NOT PUSH1 0x1F DUP3 ADD AND DUP3 ADD DUP1 PUSH1 0x40 MSTORE POP DUP2 ADD SWAP1 PUSH2 0x1926 SWAP2 SWAP1 PUSH2 0x2DDC JUMP JUMPDEST PUSH1 0x1 JUMPDEST PUSH2 0x19CE JUMPI PUSH2 0x1935 PUSH2 0x2E16 JUMP JUMPDEST DUP1 PUSH4 0x8C379A0 SUB PUSH2 0x1991 JUMPI POP PUSH2 0x1949 PUSH2 0x2E38 JUMP JUMPDEST DUP1 PUSH2 0x1954 JUMPI POP PUSH2 0x1993 JUMP JUMPDEST DUP1 PUSH1 0x40 MLOAD PUSH32 0x8C379A000000000000000000000000000000000000000000000000000000000 DUP2 MSTORE PUSH1 0x4 ADD PUSH2 0x1988 SWAP2 SWAP1 PUSH2 0x1DC2 JUMP JUMPDEST PUSH1 0x40 MLOAD DUP1 SWAP2 SUB SWAP1 REVERT JUMPDEST POP JUMPDEST PUSH1 0x40 MLOAD PUSH32 0x8C379A000000000000000000000000000000000000000000000000000000000 DUP2 MSTORE PUSH1 0x4 ADD PUSH2 0x19C5 SWAP1 PUSH2 0x2F3A JUMP JUMPDEST PUSH1 0x40 MLOAD DUP1 SWAP2 SUB SWAP1 REVERT JUMPDEST PUSH4 0xF23A6E61 PUSH1 0xE0 SHL PUSH28 0xFFFFFFFFFFFFFFFFFFFFFFFFFFFFFFFFFFFFFFFFFFFFFFFFFFFFFFFF NOT AND DUP2 PUSH28 0xFFFFFFFFFFFFFFFFFFFFFFFFFFFFFFFFFFFFFFFFFFFFFFFFFFFFFFFF NOT AND EQ PUSH2 0x1A55 JUMPI PUSH1 0x40 MLOAD PUSH32 0x8C379A000000000000000000000000000000000000000000000000000000000 DUP2 MSTORE PUSH1 0x4 ADD PUSH2 0x1A4C SWAP1 PUSH2 0x2FCC JUMP JUMPDEST PUSH1 0x40 MLOAD DUP1 SWAP2 SUB SWAP1 REVERT JUMPDEST POP JUMPDEST POP POP POP POP POP POP JUMP JUMPDEST DUP3 DUP1 SLOAD PUSH2 0x1A6B SWAP1 PUSH2 0x25F9 JUMP JUMPDEST SWAP1 PUSH1 0x0 MSTORE PUSH1 0x20 PUSH1 0x0 KECCAK256 SWAP1 PUSH1 0x1F ADD PUSH1 0x20 SWAP1 DIV DUP2 ADD SWAP3 DUP3 PUSH2 0x1A8D JUMPI PUSH1 0x0 DUP6 SSTORE PUSH2 0x1AD4 JUMP JUMPDEST DUP3 PUSH1 0x1F LT PUSH2 0x1AA6 JUMPI DUP1 MLOAD PUSH1 0xFF NOT AND DUP4 DUP1 ADD OR DUP6 SSTORE PUSH2 0x1AD4 JUMP JUMPDEST DUP3 DUP1 ADD PUSH1 0x1 ADD DUP6 SSTORE DUP3 ISZERO PUSH2 0x1AD4 JUMPI SWAP2 DUP3 ADD JUMPDEST DUP3 DUP2 GT ISZERO PUSH2 0x1AD3 JUMPI DUP3 MLOAD DUP3 SSTORE SWAP2 PUSH1 0x20 ADD SWAP2 SWAP1 PUSH1 0x1 ADD SWAP1 PUSH2 0x1AB8 JUMP JUMPDEST JUMPDEST POP SWAP1 POP PUSH2 0x1AE1 SWAP2 SWAP1 PUSH2 0x1AE5 JUMP JUMPDEST POP SWAP1 JUMP JUMPDEST JUMPDEST DUP1 DUP3 GT ISZERO PUSH2 0x1AFE JUMPI PUSH1 0x0 DUP2 PUSH1 0x0 SWAP1 SSTORE POP PUSH1 0x1 ADD PUSH2 0x1AE6 JUMP JUMPDEST POP SWAP1 JUMP JUMPDEST PUSH1 0x0 PUSH1 0x40 MLOAD SWAP1 POP SWAP1 JUMP JUMPDEST PUSH1 0x0 DUP1 REVERT JUMPDEST PUSH1 0x0 DUP1 REVERT JUMPDEST PUSH1 0x0 PUSH20 0xFFFFFFFFFFFFFFFFFFFFFFFFFFFFFFFFFFFFFFFF DUP3 AND SWAP1 POP SWAP2 SWAP1 POP JUMP JUMPDEST PUSH1 0x0 PUSH2 0x1B41 DUP3 PUSH2 0x1B16 JUMP JUMPDEST SWAP1 POP SWAP2 SWAP1 POP JUMP JUMPDEST PUSH2 0x1B51 DUP2 PUSH2 0x1B36 JUMP JUMPDEST DUP2 EQ PUSH2 0x1B5C JUMPI PUSH1 0x0 DUP1 REVERT JUMPDEST POP JUMP JUMPDEST PUSH1 0x0 DUP2 CALLDATALOAD SWAP1 POP PUSH2 0x1B6E DUP2 PUSH2 0x1B48 JUMP JUMPDEST SWAP3 SWAP2 POP POP JUMP JUMPDEST PUSH1 0x0 DUP2 SWAP1 POP SWAP2 SWAP1 POP JUMP JUMPDEST PUSH2 0x1B87 DUP2 PUSH2 0x1B74 JUMP JUMPDEST DUP2 EQ PUSH2 0x1B92 JUMPI PUSH1 0x0 DUP1 REVERT JUMPDEST POP JUMP JUMPDEST PUSH1 0x0 DUP2 CALLDATALOAD SWAP1 POP PUSH2 0x1BA4 DUP2 PUSH2 0x1B7E JUMP JUMPDEST SWAP3 SWAP2 POP POP JUMP JUMPDEST PUSH1 0x0 DUP1 PUSH1 0x40 DUP4 DUP6 SUB SLT ISZERO PUSH2 0x1BC1 JUMPI PUSH2 0x1BC0 PUSH2 0x1B0C JUMP JUMPDEST JUMPDEST PUSH1 0x0 PUSH2 0x1BCF DUP6 DUP3 DUP7 ADD PUSH2 0x1B5F JUMP JUMPDEST SWAP3 POP POP PUSH1 0x20 PUSH2 0x1BE0 DUP6 DUP3 DUP7 ADD PUSH2 0x1B95 JUMP JUMPDEST SWAP2 POP POP SWAP3 POP SWAP3 SWAP1 POP JUMP JUMPDEST PUSH2 0x1BF3 DUP2 PUSH2 0x1B74 JUMP JUMPDEST DUP3 MSTORE POP POP JUMP JUMPDEST PUSH1 0x0 PUSH1 0x20 DUP3 ADD SWAP1 POP PUSH2 0x1C0E PUSH1 0x0 DUP4 ADD DUP5 PUSH2 0x1BEA JUMP JUMPDEST SWAP3 SWAP2 POP POP JUMP JUMPDEST PUSH1 0x0 PUSH32 0xFFFFFFFF00000000000000000000000000000000000000000000000000000000 DUP3 AND SWAP1 POP SWAP2 SWAP1 POP JUMP JUMPDEST PUSH2 0x1C49 DUP2 PUSH2 0x1C14 JUMP JUMPDEST DUP2 EQ PUSH2 0x1C54 JUMPI PUSH1 0x0 DUP1 REVERT JUMPDEST POP JUMP JUMPDEST PUSH1 0x0 DUP2 CALLDATALOAD SWAP1 POP PUSH2 0x1C66 DUP2 PUSH2 0x1C40 JUMP JUMPDEST SWAP3 SWAP2 POP POP JUMP JUMPDEST PUSH1 0x0 PUSH1 0x20 DUP3 DUP5 SUB SLT ISZERO PUSH2 0x1C82 JUMPI PUSH2 0x1C81 PUSH2 0x1B0C JUMP JUMPDEST JUMPDEST PUSH1 0x0 PUSH2 0x1C90 DUP5 DUP3 DUP6 ADD PUSH2 0x1C57 JUMP JUMPDEST SWAP2 POP POP SWAP3 SWAP2 POP POP JUMP JUMPDEST PUSH1 0x0 DUP2 ISZERO ISZERO SWAP1 POP SWAP2 SWAP1 POP JUMP JUMPDEST PUSH2 0x1CAE DUP2 PUSH2 0x1C99 JUMP JUMPDEST DUP3 MSTORE POP POP JUMP JUMPDEST PUSH1 0x0 PUSH1 0x20 DUP3 ADD SWAP1 POP PUSH2 0x1CC9 PUSH1 0x0 DUP4 ADD DUP5 PUSH2 0x1CA5 JUMP JUMPDEST SWAP3 SWAP2 POP POP JUMP JUMPDEST PUSH1 0x0 PUSH1 0x20 DUP3 DUP5 SUB SLT ISZERO PUSH2 0x1CE5 JUMPI PUSH2 0x1CE4 PUSH2 0x1B0C JUMP JUMPDEST JUMPDEST PUSH1 0x0 PUSH2 0x1CF3 DUP5 DUP3 DUP6 ADD PUSH2 0x1B5F JUMP JUMPDEST SWAP2 POP POP SWAP3 SWAP2 POP POP JUMP JUMPDEST PUSH1 0x0 PUSH1 0x20 DUP3 DUP5 SUB SLT ISZERO PUSH2 0x1D12 JUMPI PUSH2 0x1D11 PUSH2 0x1B0C JUMP JUMPDEST JUMPDEST PUSH1 0x0 PUSH2 0x1D20 DUP5 DUP3 DUP6 ADD PUSH2 0x1B95 JUMP JUMPDEST SWAP2 POP POP SWAP3 SWAP2 POP POP JUMP JUMPDEST PUSH1 0x0 DUP2 MLOAD SWAP1 POP SWAP2 SWAP1 POP JUMP JUMPDEST PUSH1 0x0 DUP3 DUP3 MSTORE PUSH1 0x20 DUP3 ADD SWAP1 POP SWAP3 SWAP2 POP POP JUMP JUMPDEST PUSH1 0x0 JUMPDEST DUP4 DUP2 LT ISZERO PUSH2 0x1D63 JUMPI DUP1 DUP3 ADD MLOAD DUP2 DUP5 ADD MSTORE PUSH1 0x20 DUP2 ADD SWAP1 POP PUSH2 0x1D48 JUMP JUMPDEST DUP4 DUP2 GT ISZERO PUSH2 0x1D72 JUMPI PUSH1 0x0 DUP5 DUP5 ADD MSTORE JUMPDEST POP POP POP POP JUMP JUMPDEST PUSH1 0x0 PUSH1 0x1F NOT PUSH1 0x1F DUP4 ADD AND SWAP1 POP SWAP2 SWAP1 POP JUMP JUMPDEST PUSH1 0x0 PUSH2 0x1D94 DUP3 PUSH2 0x1D29 JUMP JUMPDEST PUSH2 0x1D9E DUP2 DUP6 PUSH2 0x1D34 JUMP JUMPDEST SWAP4 POP PUSH2 0x1DAE DUP2 DUP6 PUSH1 0x20 DUP7 ADD PUSH2 0x1D45 JUMP JUMPDEST PUSH2 0x1DB7 DUP2 PUSH2 0x1D78 JUMP JUMPDEST DUP5 ADD SWAP2 POP POP SWAP3 SWAP2 POP POP JUMP JUMPDEST PUSH1 0x0 PUSH1 0x20 DUP3 ADD SWAP1 POP DUP2 DUP2 SUB PUSH1 0x0 DUP4 ADD MSTORE PUSH2 0x1DDC DUP2 DUP5 PUSH2 0x1D89 JUMP JUMPDEST SWAP1 POP SWAP3 SWAP2 POP POP JUMP JUMPDEST PUSH1 0x0 DUP1 REVERT JUMPDEST PUSH32 0x4E487B7100000000000000000000000000000000000000000000000000000000 PUSH1 0x0 MSTORE PUSH1 0x41 PUSH1 0x4 MSTORE PUSH1 0x24 PUSH1 0x0 REVERT JUMPDEST PUSH2 0x1E21 DUP3 PUSH2 0x1D78 JUMP JUMPDEST DUP2 ADD DUP2 DUP2 LT PUSH8 0xFFFFFFFFFFFFFFFF DUP3 GT OR ISZERO PUSH2 0x1E40 JUMPI PUSH2 0x1E3F PUSH2 0x1DE9 JUMP JUMPDEST JUMPDEST DUP1 PUSH1 0x40 MSTORE POP POP POP JUMP JUMPDEST PUSH1 0x0 PUSH2 0x1E53 PUSH2 0x1B02 JUMP JUMPDEST SWAP1 POP PUSH2 0x1E5F DUP3 DUP3 PUSH2 0x1E18 JUMP JUMPDEST SWAP2 SWAP1 POP JUMP JUMPDEST PUSH1 0x0 PUSH8 0xFFFFFFFFFFFFFFFF DUP3 GT ISZERO PUSH2 0x1E7F JUMPI PUSH2 0x1E7E PUSH2 0x1DE9 JUMP JUMPDEST JUMPDEST PUSH1 0x20 DUP3 MUL SWAP1 POP PUSH1 0x20 DUP2 ADD SWAP1 POP SWAP2 SWAP1 POP JUMP JUMPDEST PUSH1 0x0 DUP1 REVERT JUMPDEST PUSH1 0x0 PUSH2 0x1EA8 PUSH2 0x1EA3 DUP5 PUSH2 0x1E64 JUMP JUMPDEST PUSH2 0x1E49 JUMP JUMPDEST SWAP1 POP DUP1 DUP4 DUP3 MSTORE PUSH1 0x20 DUP3 ADD SWAP1 POP PUSH1 0x20 DUP5 MUL DUP4 ADD DUP6 DUP2 GT ISZERO PUSH2 0x1ECB JUMPI PUSH2 0x1ECA PUSH2 0x1E90 JUMP JUMPDEST JUMPDEST DUP4 JUMPDEST DUP2 DUP2 LT ISZERO PUSH2 0x1EF4 JUMPI DUP1 PUSH2 0x1EE0 DUP9 DUP3 PUSH2 0x1B95 JUMP JUMPDEST DUP5 MSTORE PUSH1 0x20 DUP5 ADD SWAP4 POP POP PUSH1 0x20 DUP2 ADD SWAP1 POP PUSH2 0x1ECD JUMP JUMPDEST POP POP POP SWAP4 SWAP3 POP POP POP JUMP JUMPDEST PUSH1 0x0 DUP3 PUSH1 0x1F DUP4 ADD SLT PUSH2 0x1F13 JUMPI PUSH2 0x1F12 PUSH2 0x1DE4 JUMP JUMPDEST JUMPDEST DUP2 CALLDATALOAD PUSH2 0x1F23 DUP5 DUP3 PUSH1 0x20 DUP7 ADD PUSH2 0x1E95 JUMP JUMPDEST SWAP2 POP POP SWAP3 SWAP2 POP POP JUMP JUMPDEST PUSH1 0x0 DUP1 REVERT JUMPDEST PUSH1 0x0 PUSH8 0xFFFFFFFFFFFFFFFF DUP3 GT ISZERO PUSH2 0x1F4C JUMPI PUSH2 0x1F4B PUSH2 0x1DE9 JUMP JUMPDEST JUMPDEST PUSH2 0x1F55 DUP3 PUSH2 0x1D78 JUMP JUMPDEST SWAP1 POP PUSH1 0x20 DUP2 ADD SWAP1 POP SWAP2 SWAP1 POP JUMP JUMPDEST DUP3 DUP2 DUP4 CALLDATACOPY PUSH1 0x0 DUP4 DUP4 ADD MSTORE POP POP POP JUMP JUMPDEST PUSH1 0x0 PUSH2 0x1F84 PUSH2 0x1F7F DUP5 PUSH2 0x1F31 JUMP JUMPDEST PUSH2 0x1E49 JUMP JUMPDEST SWAP1 POP DUP3 DUP2 MSTORE PUSH1 0x20 DUP2 ADD DUP5 DUP5 DUP5 ADD GT ISZERO PUSH2 0x1FA0 JUMPI PUSH2 0x1F9F PUSH2 0x1F2C JUMP JUMPDEST JUMPDEST PUSH2 0x1FAB DUP5 DUP3 DUP6 PUSH2 0x1F62 JUMP JUMPDEST POP SWAP4 SWAP3 POP POP POP JUMP JUMPDEST PUSH1 0x0 DUP3 PUSH1 0x1F DUP4 ADD SLT PUSH2 0x1FC8 JUMPI PUSH2 0x1FC7 PUSH2 0x1DE4 JUMP JUMPDEST JUMPDEST DUP2 CALLDATALOAD PUSH2 0x1FD8 DUP5 DUP3 PUSH1 0x20 DUP7 ADD PUSH2 0x1F71 JUMP JUMPDEST SWAP2 POP POP SWAP3 SWAP2 POP POP JUMP JUMPDEST PUSH1 0x0 DUP1 PUSH1 0x0 DUP1 PUSH1 0x0 PUSH1 0xA0 DUP7 DUP9 SUB SLT ISZERO PUSH2 0x1FFD JUMPI PUSH2 0x1FFC PUSH2 0x1B0C JUMP JUMPDEST JUMPDEST PUSH1 0x0 PUSH2 0x200B DUP9 DUP3 DUP10 ADD PUSH2 0x1B5F JUMP JUMPDEST SWAP6 POP POP PUSH1 0x20 PUSH2 0x201C DUP9 DUP3 DUP10 ADD PUSH2 0x1B5F JUMP JUMPDEST SWAP5 POP POP PUSH1 0x40 DUP7 ADD CALLDATALOAD PUSH8 0xFFFFFFFFFFFFFFFF DUP2 GT ISZERO PUSH2 0x203D JUMPI PUSH2 0x203C PUSH2 0x1B11 JUMP JUMPDEST JUMPDEST PUSH2 0x2049 DUP9 DUP3 DUP10 ADD PUSH2 0x1EFE JUMP JUMPDEST SWAP4 POP POP PUSH1 0x60 DUP7 ADD CALLDATALOAD PUSH8 0xFFFFFFFFFFFFFFFF DUP2 GT ISZERO PUSH2 0x206A JUMPI PUSH2 0x2069 PUSH2 0x1B11 JUMP JUMPDEST JUMPDEST PUSH2 0x2076 DUP9 DUP3 DUP10 ADD PUSH2 0x1EFE JUMP JUMPDEST SWAP3 POP POP PUSH1 0x80 DUP7 ADD CALLDATALOAD PUSH8 0xFFFFFFFFFFFFFFFF DUP2 GT ISZERO PUSH2 0x2097 JUMPI PUSH2 0x2096 PUSH2 0x1B11 JUMP JUMPDEST JUMPDEST PUSH2 0x20A3 DUP9 DUP3 DUP10 ADD PUSH2 0x1FB3 JUMP JUMPDEST SWAP2 POP POP SWAP3 SWAP6 POP SWAP3 SWAP6 SWAP1 SWAP4 POP JUMP JUMPDEST PUSH1 0x0 PUSH8 0xFFFFFFFFFFFFFFFF DUP3 GT ISZERO PUSH2 0x20CB JUMPI PUSH2 0x20CA PUSH2 0x1DE9 JUMP JUMPDEST JUMPDEST PUSH2 0x20D4 DUP3 PUSH2 0x1D78 JUMP JUMPDEST SWAP1 POP PUSH1 0x20 DUP2 ADD SWAP1 POP SWAP2 SWAP1 POP JUMP JUMPDEST PUSH1 0x0 PUSH2 0x20F4 PUSH2 0x20EF DUP5 PUSH2 0x20B0 JUMP JUMPDEST PUSH2 0x1E49 JUMP JUMPDEST SWAP1 POP DUP3 DUP2 MSTORE PUSH1 0x20 DUP2 ADD DUP5 DUP5 DUP5 ADD GT ISZERO PUSH2 0x2110 JUMPI PUSH2 0x210F PUSH2 0x1F2C JUMP JUMPDEST JUMPDEST PUSH2 0x211B DUP5 DUP3 DUP6 PUSH2 0x1F62 JUMP JUMPDEST POP SWAP4 SWAP3 POP POP POP JUMP JUMPDEST PUSH1 0x0 DUP3 PUSH1 0x1F DUP4 ADD SLT PUSH2 0x2138 JUMPI PUSH2 0x2137 PUSH2 0x1DE4 JUMP JUMPDEST JUMPDEST DUP2 CALLDATALOAD PUSH2 0x2148 DUP5 DUP3 PUSH1 0x20 DUP7 ADD PUSH2 0x20E1 JUMP JUMPDEST SWAP2 POP POP SWAP3 SWAP2 POP POP JUMP JUMPDEST PUSH1 0x0 PUSH1 0x20 DUP3 DUP5 SUB SLT ISZERO PUSH2 0x2167 JUMPI PUSH2 0x2166 PUSH2 0x1B0C JUMP JUMPDEST JUMPDEST PUSH1 0x0 DUP3 ADD CALLDATALOAD PUSH8 0xFFFFFFFFFFFFFFFF DUP2 GT ISZERO PUSH2 0x2185 JUMPI PUSH2 0x2184 PUSH2 0x1B11 JUMP JUMPDEST JUMPDEST PUSH2 0x2191 DUP5 DUP3 DUP6 ADD PUSH2 0x2123 JUMP JUMPDEST SWAP2 POP POP SWAP3 SWAP2 POP POP JUMP JUMPDEST PUSH1 0x0 PUSH8 0xFFFFFFFFFFFFFFFF DUP3 GT ISZERO PUSH2 0x21B5 JUMPI PUSH2 0x21B4 PUSH2 0x1DE9 JUMP JUMPDEST JUMPDEST PUSH1 0x20 DUP3 MUL SWAP1 POP PUSH1 0x20 DUP2 ADD SWAP1 POP SWAP2 SWAP1 POP JUMP JUMPDEST PUSH1 0x0 PUSH2 0x21D9 PUSH2 0x21D4 DUP5 PUSH2 0x219A JUMP JUMPDEST PUSH2 0x1E49 JUMP JUMPDEST SWAP1 POP DUP1 DUP4 DUP3 MSTORE PUSH1 0x20 DUP3 ADD SWAP1 POP PUSH1 0x20 DUP5 MUL DUP4 ADD DUP6 DUP2 GT ISZERO PUSH2 0x21FC JUMPI PUSH2 0x21FB PUSH2 0x1E90 JUMP JUMPDEST JUMPDEST DUP4 JUMPDEST DUP2 DUP2 LT ISZERO PUSH2 0x2225 JUMPI DUP1 PUSH2 0x2211 DUP9 DUP3 PUSH2 0x1B5F JUMP JUMPDEST DUP5 MSTORE PUSH1 0x20 DUP5 ADD SWAP4 POP POP PUSH1 0x20 DUP2 ADD SWAP1 POP PUSH2 0x21FE JUMP JUMPDEST POP POP POP SWAP4 SWAP3 POP POP POP JUMP JUMPDEST PUSH1 0x0 DUP3 PUSH1 0x1F DUP4 ADD SLT PUSH2 0x2244 JUMPI PUSH2 0x2243 PUSH2 0x1DE4 JUMP JUMPDEST JUMPDEST DUP2 CALLDATALOAD PUSH2 0x2254 DUP5 DUP3 PUSH1 0x20 DUP7 ADD PUSH2 0x21C6 JUMP JUMPDEST SWAP2 POP POP SWAP3 SWAP2 POP POP JUMP JUMPDEST PUSH1 0x0 DUP1 PUSH1 0x40 DUP4 DUP6 SUB SLT ISZERO PUSH2 0x2274 JUMPI PUSH2 0x2273 PUSH2 0x1B0C JUMP JUMPDEST JUMPDEST PUSH1 0x0 DUP4 ADD CALLDATALOAD PUSH8 0xFFFFFFFFFFFFFFFF DUP2 GT ISZERO PUSH2 0x2292 JUMPI PUSH2 0x2291 PUSH2 0x1B11 JUMP JUMPDEST JUMPDEST PUSH2 0x229E DUP6 DUP3 DUP7 ADD PUSH2 0x222F JUMP JUMPDEST SWAP3 POP POP PUSH1 0x20 DUP4 ADD CALLDATALOAD PUSH8 0xFFFFFFFFFFFFFFFF DUP2 GT ISZERO PUSH2 0x22BF JUMPI PUSH2 0x22BE PUSH2 0x1B11 JUMP JUMPDEST JUMPDEST PUSH2 0x22CB DUP6 DUP3 DUP7 ADD PUSH2 0x1EFE JUMP JUMPDEST SWAP2 POP POP SWAP3 POP SWAP3 SWAP1 POP JUMP JUMPDEST PUSH1 0x0 DUP2 MLOAD SWAP1 POP SWAP2 SWAP1 POP JUMP JUMPDEST PUSH1 0x0 DUP3 DUP3 MSTORE PUSH1 0x20 DUP3 ADD SWAP1 POP SWAP3 SWAP2 POP POP JUMP JUMPDEST PUSH1 0x0 DUP2 SWAP1 POP PUSH1 0x20 DUP3 ADD SWAP1 POP SWAP2 SWAP1 POP JUMP JUMPDEST PUSH2 0x230A DUP2 PUSH2 0x1B74 JUMP JUMPDEST DUP3 MSTORE POP POP JUMP JUMPDEST PUSH1 0x0 PUSH2 0x231C DUP4 DUP4 PUSH2 0x2301 JUMP JUMPDEST PUSH1 0x20 DUP4 ADD SWAP1 POP SWAP3 SWAP2 POP POP JUMP JUMPDEST PUSH1 0x0 PUSH1 0x20 DUP3 ADD SWAP1 POP SWAP2 SWAP1 POP JUMP JUMPDEST PUSH1 0x0 PUSH2 0x2340 DUP3 PUSH2 0x22D5 JUMP JUMPDEST PUSH2 0x234A DUP2 DUP6 PUSH2 0x22E0 JUMP JUMPDEST SWAP4 POP PUSH2 0x2355 DUP4 PUSH2 0x22F1 JUMP JUMPDEST DUP1 PUSH1 0x0 JUMPDEST DUP4 DUP2 LT ISZERO PUSH2 0x2386 JUMPI DUP2 MLOAD PUSH2 0x236D DUP9 DUP3 PUSH2 0x2310 JUMP JUMPDEST SWAP8 POP PUSH2 0x2378 DUP4 PUSH2 0x2328 JUMP JUMPDEST SWAP3 POP POP PUSH1 0x1 DUP2 ADD SWAP1 POP PUSH2 0x2359 JUMP JUMPDEST POP DUP6 SWAP4 POP POP POP POP SWAP3 SWAP2 POP POP JUMP JUMPDEST PUSH1 0x0 PUSH1 0x20 DUP3 ADD SWAP1 POP DUP2 DUP2 SUB PUSH1 0x0 DUP4 ADD MSTORE PUSH2 0x23AD DUP2 DUP5 PUSH2 0x2335 JUMP JUMPDEST SWAP1 POP SWAP3 SWAP2 POP POP JUMP JUMPDEST PUSH2 0x23BE DUP2 PUSH2 0x1C99 JUMP JUMPDEST DUP2 EQ PUSH2 0x23C9 JUMPI PUSH1 0x0 DUP1 REVERT JUMPDEST POP JUMP JUMPDEST PUSH1 0x0 DUP2 CALLDATALOAD SWAP1 POP PUSH2 0x23DB DUP2 PUSH2 0x23B5 JUMP JUMPDEST SWAP3 SWAP2 POP POP JUMP JUMPDEST PUSH1 0x0 DUP1 PUSH1 0x40 DUP4 DUP6 SUB SLT ISZERO PUSH2 0x23F8 JUMPI PUSH2 0x23F7 PUSH2 0x1B0C JUMP JUMPDEST JUMPDEST PUSH1 0x0 PUSH2 0x2406 DUP6 DUP3 DUP7 ADD PUSH2 0x1B5F JUMP JUMPDEST SWAP3 POP POP PUSH1 0x20 PUSH2 0x2417 DUP6 DUP3 DUP7 ADD PUSH2 0x23CC JUMP JUMPDEST SWAP2 POP POP SWAP3 POP SWAP3 SWAP1 POP JUMP JUMPDEST PUSH1 0x0 DUP1 PUSH1 0x40 DUP4 DUP6 SUB SLT ISZERO PUSH2 0x2438 JUMPI PUSH2 0x2437 PUSH2 0x1B0C JUMP JUMPDEST JUMPDEST PUSH1 0x0 PUSH2 0x2446 DUP6 DUP3 DUP7 ADD PUSH2 0x1B5F JUMP JUMPDEST SWAP3 POP POP PUSH1 0x20 PUSH2 0x2457 DUP6 DUP3 DUP7 ADD PUSH2 0x1B5F JUMP JUMPDEST SWAP2 POP POP SWAP3 POP SWAP3 SWAP1 POP JUMP JUMPDEST PUSH1 0x0 DUP1 PUSH1 0x0 DUP1 PUSH1 0x0 PUSH1 0xA0 DUP7 DUP9 SUB SLT ISZERO PUSH2 0x247D JUMPI PUSH2 0x247C PUSH2 0x1B0C JUMP JUMPDEST JUMPDEST PUSH1 0x0 PUSH2 0x248B DUP9 DUP3 DUP10 ADD PUSH2 0x1B5F JUMP JUMPDEST SWAP6 POP POP PUSH1 0x20 PUSH2 0x249C DUP9 DUP3 DUP10 ADD PUSH2 0x1B5F JUMP JUMPDEST SWAP5 POP POP PUSH1 0x40 PUSH2 0x24AD DUP9 DUP3 DUP10 ADD PUSH2 0x1B95 JUMP JUMPDEST SWAP4 POP POP PUSH1 0x60 PUSH2 0x24BE DUP9 DUP3 DUP10 ADD PUSH2 0x1B95 JUMP JUMPDEST SWAP3 POP POP PUSH1 0x80 DUP7 ADD CALLDATALOAD PUSH8 0xFFFFFFFFFFFFFFFF DUP2 GT ISZERO PUSH2 0x24DF JUMPI PUSH2 0x24DE PUSH2 0x1B11 JUMP JUMPDEST JUMPDEST PUSH2 0x24EB DUP9 DUP3 DUP10 ADD PUSH2 0x1FB3 JUMP JUMPDEST SWAP2 POP POP SWAP3 SWAP6 POP SWAP3 SWAP6 SWAP1 SWAP4 POP JUMP JUMPDEST PUSH1 0x0 DUP1 PUSH1 0x40 DUP4 DUP6 SUB SLT ISZERO PUSH2 0x250F JUMPI PUSH2 0x250E PUSH2 0x1B0C JUMP JUMPDEST JUMPDEST PUSH1 0x0 PUSH2 0x251D DUP6 DUP3 DUP7 ADD PUSH2 0x1B95 JUMP JUMPDEST SWAP3 POP POP PUSH1 0x20 PUSH2 0x252E DUP6 DUP3 DUP7 ADD PUSH2 0x1B5F JUMP JUMPDEST SWAP2 POP POP SWAP3 POP SWAP3 SWAP1 POP JUMP JUMPDEST PUSH32 0x455243313135353A2062616C616E636520717565727920666F7220746865207A PUSH1 0x0 DUP3 ADD MSTORE PUSH32 0x65726F2061646472657373000000000000000000000000000000000000000000 PUSH1 0x20 DUP3 ADD MSTORE POP JUMP JUMPDEST PUSH1 0x0 PUSH2 0x2594 PUSH1 0x2B DUP4 PUSH2 0x1D34 JUMP JUMPDEST SWAP2 POP PUSH2 0x259F DUP3 PUSH2 0x2538 JUMP JUMPDEST PUSH1 0x40 DUP3 ADD SWAP1 POP SWAP2 SWAP1 POP JUMP JUMPDEST PUSH1 0x0 PUSH1 0x20 DUP3 ADD SWAP1 POP DUP2 DUP2 SUB PUSH1 0x0 DUP4 ADD MSTORE PUSH2 0x25C3 DUP2 PUSH2 0x2587 JUMP JUMPDEST SWAP1 POP SWAP2 SWAP1 POP JUMP JUMPDEST PUSH32 0x4E487B7100000000000000000000000000000000000000000000000000000000 PUSH1 0x0 MSTORE PUSH1 0x22 PUSH1 0x4 MSTORE PUSH1 0x24 PUSH1 0x0 REVERT JUMPDEST PUSH1 0x0 PUSH1 0x2 DUP3 DIV SWAP1 POP PUSH1 0x1 DUP3 AND DUP1 PUSH2 0x2611 JUMPI PUSH1 0x7F DUP3 AND SWAP2 POP JUMPDEST PUSH1 0x20 DUP3 LT DUP2 SUB PUSH2 0x2624 JUMPI PUSH2 0x2623 PUSH2 0x25CA JUMP JUMPDEST JUMPDEST POP SWAP2 SWAP1 POP JUMP JUMPDEST PUSH32 0x455243313135353A207472616E736665722063616C6C6572206973206E6F7420 PUSH1 0x0 DUP3 ADD MSTORE PUSH32 0x6F776E6572206E6F7220617070726F7665640000000000000000000000000000 PUSH1 0x20 DUP3 ADD MSTORE POP JUMP JUMPDEST PUSH1 0x0 PUSH2 0x2686 PUSH1 0x32 DUP4 PUSH2 0x1D34 JUMP JUMPDEST SWAP2 POP PUSH2 0x2691 DUP3 PUSH2 0x262A JUMP JUMPDEST PUSH1 0x40 DUP3 ADD SWAP1 POP SWAP2 SWAP1 POP JUMP JUMPDEST PUSH1 0x0 PUSH1 0x20 DUP3 ADD SWAP1 POP DUP2 DUP2 SUB PUSH1 0x0 DUP4 ADD MSTORE PUSH2 0x26B5 DUP2 PUSH2 0x2679 JUMP JUMPDEST SWAP1 POP SWAP2 SWAP1 POP JUMP JUMPDEST PUSH1 0x0 DUP2 SWAP1 POP SWAP3 SWAP2 POP POP JUMP JUMPDEST PUSH1 0x0 PUSH2 0x26D2 DUP3 PUSH2 0x1D29 JUMP JUMPDEST PUSH2 0x26DC DUP2 DUP6 PUSH2 0x26BC JUMP JUMPDEST SWAP4 POP PUSH2 0x26EC DUP2 DUP6 PUSH1 0x20 DUP7 ADD PUSH2 0x1D45 JUMP JUMPDEST DUP1 DUP5 ADD SWAP2 POP POP SWAP3 SWAP2 POP POP JUMP JUMPDEST PUSH1 0x0 PUSH2 0x2704 DUP3 DUP5 PUSH2 0x26C7 JUMP JUMPDEST SWAP2 POP DUP2 SWAP1 POP SWAP3 SWAP2 POP POP JUMP JUMPDEST PUSH32 0x455243313135353A206163636F756E747320616E6420696473206C656E677468 PUSH1 0x0 DUP3 ADD MSTORE PUSH32 0x206D69736D617463680000000000000000000000000000000000000000000000 PUSH1 0x20 DUP3 ADD MSTORE POP JUMP JUMPDEST PUSH1 0x0 PUSH2 0x276B PUSH1 0x29 DUP4 PUSH2 0x1D34 JUMP JUMPDEST SWAP2 POP PUSH2 0x2776 DUP3 PUSH2 0x270F JUMP JUMPDEST PUSH1 0x40 DUP3 ADD SWAP1 POP SWAP2 SWAP1 POP JUMP JUMPDEST PUSH1 0x0 PUSH1 0x20 DUP3 ADD SWAP1 POP DUP2 DUP2 SUB PUSH1 0x0 DUP4 ADD MSTORE PUSH2 0x279A DUP2 PUSH2 0x275E JUMP JUMPDEST SWAP1 POP SWAP2 SWAP1 POP JUMP JUMPDEST PUSH32 0x4E487B7100000000000000000000000000000000000000000000000000000000 PUSH1 0x0 MSTORE PUSH1 0x32 PUSH1 0x4 MSTORE PUSH1 0x24 PUSH1 0x0 REVERT JUMPDEST PUSH32 0x4E487B7100000000000000000000000000000000000000000000000000000000 PUSH1 0x0 MSTORE PUSH1 0x11 PUSH1 0x4 MSTORE PUSH1 0x24 PUSH1 0x0 REVERT JUMPDEST PUSH1 0x0 PUSH2 0x280A DUP3 PUSH2 0x1B74 JUMP JUMPDEST SWAP2 POP PUSH32 0xFFFFFFFFFFFFFFFFFFFFFFFFFFFFFFFFFFFFFFFFFFFFFFFFFFFFFFFFFFFFFFFF DUP3 SUB PUSH2 0x283C JUMPI PUSH2 0x283B PUSH2 0x27D0 JUMP JUMPDEST JUMPDEST PUSH1 0x1 DUP3 ADD SWAP1 POP SWAP2 SWAP1 POP JUMP JUMPDEST PUSH32 0x455243313135353A2063616C6C6572206973206E6F74206F776E6572206E6F72 PUSH1 0x0 DUP3 ADD MSTORE PUSH32 0x20617070726F7665640000000000000000000000000000000000000000000000 PUSH1 0x20 DUP3 ADD MSTORE POP JUMP JUMPDEST PUSH1 0x0 PUSH2 0x28A3 PUSH1 0x29 DUP4 PUSH2 0x1D34 JUMP JUMPDEST SWAP2 POP PUSH2 0x28AE DUP3 PUSH2 0x2847 JUMP JUMPDEST PUSH1 0x40 DUP3 ADD SWAP1 POP SWAP2 SWAP1 POP JUMP JUMPDEST PUSH1 0x0 PUSH1 0x20 DUP3 ADD SWAP1 POP DUP2 DUP2 SUB PUSH1 0x0 DUP4 ADD MSTORE PUSH2 0x28D2 DUP2 PUSH2 0x2896 JUMP JUMPDEST SWAP1 POP SWAP2 SWAP1 POP JUMP JUMPDEST PUSH32 0x455243313135353A2069647320616E6420616D6F756E7473206C656E67746820 PUSH1 0x0 DUP3 ADD MSTORE PUSH32 0x6D69736D61746368000000000000000000000000000000000000000000000000 PUSH1 0x20 DUP3 ADD MSTORE POP JUMP JUMPDEST PUSH1 0x0 PUSH2 0x2935 PUSH1 0x28 DUP4 PUSH2 0x1D34 JUMP JUMPDEST SWAP2 POP PUSH2 0x2940 DUP3 PUSH2 0x28D9 JUMP JUMPDEST PUSH1 0x40 DUP3 ADD SWAP1 POP SWAP2 SWAP1 POP JUMP JUMPDEST PUSH1 0x0 PUSH1 0x20 DUP3 ADD SWAP1 POP DUP2 DUP2 SUB PUSH1 0x0 DUP4 ADD MSTORE PUSH2 0x2964 DUP2 PUSH2 0x2928 JUMP JUMPDEST SWAP1 POP SWAP2 SWAP1 POP JUMP JUMPDEST PUSH32 0x455243313135353A207472616E7366657220746F20746865207A65726F206164 PUSH1 0x0 DUP3 ADD MSTORE PUSH32 0x6472657373000000000000000000000000000000000000000000000000000000 PUSH1 0x20 DUP3 ADD MSTORE POP JUMP JUMPDEST PUSH1 0x0 PUSH2 0x29C7 PUSH1 0x25 DUP4 PUSH2 0x1D34 JUMP JUMPDEST SWAP2 POP PUSH2 0x29D2 DUP3 PUSH2 0x296B JUMP JUMPDEST PUSH1 0x40 DUP3 ADD SWAP1 POP SWAP2 SWAP1 POP JUMP JUMPDEST PUSH1 0x0 PUSH1 0x20 DUP3 ADD SWAP1 POP DUP2 DUP2 SUB PUSH1 0x0 DUP4 ADD MSTORE PUSH2 0x29F6 DUP2 PUSH2 0x29BA JUMP JUMPDEST SWAP1 POP SWAP2 SWAP1 POP JUMP JUMPDEST PUSH32 0x455243313135353A20696E73756666696369656E742062616C616E636520666F PUSH1 0x0 DUP3 ADD MSTORE PUSH32 0x72207472616E7366657200000000000000000000000000000000000000000000 PUSH1 0x20 DUP3 ADD MSTORE POP JUMP JUMPDEST PUSH1 0x0 PUSH2 0x2A59 PUSH1 0x2A DUP4 PUSH2 0x1D34 JUMP JUMPDEST SWAP2 POP PUSH2 0x2A64 DUP3 PUSH2 0x29FD JUMP JUMPDEST PUSH1 0x40 DUP3 ADD SWAP1 POP SWAP2 SWAP1 POP JUMP JUMPDEST PUSH1 0x0 PUSH1 0x20 DUP3 ADD SWAP1 POP DUP2 DUP2 SUB PUSH1 0x0 DUP4 ADD MSTORE PUSH2 0x2A88 DUP2 PUSH2 0x2A4C JUMP JUMPDEST SWAP1 POP SWAP2 SWAP1 POP JUMP JUMPDEST PUSH1 0x0 PUSH2 0x2A9A DUP3 PUSH2 0x1B74 JUMP JUMPDEST SWAP2 POP PUSH2 0x2AA5 DUP4 PUSH2 0x1B74 JUMP JUMPDEST SWAP3 POP DUP3 PUSH32 0xFFFFFFFFFFFFFFFFFFFFFFFFFFFFFFFFFFFFFFFFFFFFFFFFFFFFFFFFFFFFFFFF SUB DUP3 GT ISZERO PUSH2 0x2ADA JUMPI PUSH2 0x2AD9 PUSH2 0x27D0 JUMP JUMPDEST JUMPDEST DUP3 DUP3 ADD SWAP1 POP SWAP3 SWAP2 POP POP JUMP JUMPDEST PUSH1 0x0 PUSH1 0x40 DUP3 ADD SWAP1 POP DUP2 DUP2 SUB PUSH1 0x0 DUP4 ADD MSTORE PUSH2 0x2AFF DUP2 DUP6 PUSH2 0x2335 JUMP JUMPDEST SWAP1 POP DUP2 DUP2 SUB PUSH1 0x20 DUP4 ADD MSTORE PUSH2 0x2B13 DUP2 DUP5 PUSH2 0x2335 JUMP JUMPDEST SWAP1 POP SWAP4 SWAP3 POP POP POP JUMP JUMPDEST PUSH32 0x455243313135353A2073657474696E6720617070726F76616C20737461747573 PUSH1 0x0 DUP3 ADD MSTORE PUSH32 0x20666F722073656C660000000000000000000000000000000000000000000000 PUSH1 0x20 DUP3 ADD MSTORE POP JUMP JUMPDEST PUSH1 0x0 PUSH2 0x2B78 PUSH1 0x29 DUP4 PUSH2 0x1D34 JUMP JUMPDEST SWAP2 POP PUSH2 0x2B83 DUP3 PUSH2 0x2B1C JUMP JUMPDEST PUSH1 0x40 DUP3 ADD SWAP1 POP SWAP2 SWAP1 POP JUMP JUMPDEST PUSH1 0x0 PUSH1 0x20 DUP3 ADD SWAP1 POP DUP2 DUP2 SUB PUSH1 0x0 DUP4 ADD MSTORE PUSH2 0x2BA7 DUP2 PUSH2 0x2B6B JUMP JUMPDEST SWAP1 POP SWAP2 SWAP1 POP JUMP JUMPDEST PUSH1 0x0 PUSH1 0x40 DUP3 ADD SWAP1 POP PUSH2 0x2BC3 PUSH1 0x0 DUP4 ADD DUP6 PUSH2 0x1BEA JUMP JUMPDEST PUSH2 0x2BD0 PUSH1 0x20 DUP4 ADD DUP5 PUSH2 0x1BEA JUMP JUMPDEST SWAP4 SWAP3 POP POP POP JUMP JUMPDEST PUSH32 0x455243313135353A206275726E2066726F6D20746865207A65726F2061646472 PUSH1 0x0 DUP3 ADD MSTORE PUSH32 0x6573730000000000000000000000000000000000000000000000000000000000 PUSH1 0x20 DUP3 ADD MSTORE POP JUMP JUMPDEST PUSH1 0x0 PUSH2 0x2C33 PUSH1 0x23 DUP4 PUSH2 0x1D34 JUMP JUMPDEST SWAP2 POP PUSH2 0x2C3E DUP3 PUSH2 0x2BD7 JUMP JUMPDEST PUSH1 0x40 DUP3 ADD SWAP1 POP SWAP2 SWAP1 POP JUMP JUMPDEST PUSH1 0x0 PUSH1 0x20 DUP3 ADD SWAP1 POP DUP2 DUP2 SUB PUSH1 0x0 DUP4 ADD MSTORE PUSH2 0x2C62 DUP2 PUSH2 0x2C26 JUMP JUMPDEST SWAP1 POP SWAP2 SWAP1 POP JUMP JUMPDEST PUSH32 0x455243313135353A206275726E20616D6F756E7420657863656564732062616C PUSH1 0x0 DUP3 ADD MSTORE PUSH32 0x616E636500000000000000000000000000000000000000000000000000000000 PUSH1 0x20 DUP3 ADD MSTORE POP JUMP JUMPDEST PUSH1 0x0 PUSH2 0x2CC5 PUSH1 0x24 DUP4 PUSH2 0x1D34 JUMP JUMPDEST SWAP2 POP PUSH2 0x2CD0 DUP3 PUSH2 0x2C69 JUMP JUMPDEST PUSH1 0x40 DUP3 ADD SWAP1 POP SWAP2 SWAP1 POP JUMP JUMPDEST PUSH1 0x0 PUSH1 0x20 DUP3 ADD SWAP1 POP DUP2 DUP2 SUB PUSH1 0x0 DUP4 ADD MSTORE PUSH2 0x2CF4 DUP2 PUSH2 0x2CB8 JUMP JUMPDEST SWAP1 POP SWAP2 SWAP1 POP JUMP JUMPDEST PUSH2 0x2D04 DUP2 PUSH2 0x1B36 JUMP JUMPDEST DUP3 MSTORE POP POP JUMP JUMPDEST PUSH1 0x0 DUP2 MLOAD SWAP1 POP SWAP2 SWAP1 POP JUMP JUMPDEST PUSH1 0x0 DUP3 DUP3 MSTORE PUSH1 0x20 DUP3 ADD SWAP1 POP SWAP3 SWAP2 POP POP JUMP JUMPDEST PUSH1 0x0 PUSH2 0x2D31 DUP3 PUSH2 0x2D0A JUMP JUMPDEST PUSH2 0x2D3B DUP2 DUP6 PUSH2 0x2D15 JUMP JUMPDEST SWAP4 POP PUSH2 0x2D4B DUP2 DUP6 PUSH1 0x20 DUP7 ADD PUSH2 0x1D45 JUMP JUMPDEST PUSH2 0x2D54 DUP2 PUSH2 0x1D78 JUMP JUMPDEST DUP5 ADD SWAP2 POP POP SWAP3 SWAP2 POP POP JUMP JUMPDEST PUSH1 0x0 PUSH1 0xA0 DUP3 ADD SWAP1 POP PUSH2 0x2D74 PUSH1 0x0 DUP4 ADD DUP9 PUSH2 0x2CFB JUMP JUMPDEST PUSH2 0x2D81 PUSH1 0x20 DUP4 ADD DUP8 PUSH2 0x2CFB JUMP JUMPDEST DUP2 DUP2 SUB PUSH1 0x40 DUP4 ADD MSTORE PUSH2 0x2D93 DUP2 DUP7 PUSH2 0x2335 JUMP JUMPDEST SWAP1 POP DUP2 DUP2 SUB PUSH1 0x60 DUP4 ADD MSTORE PUSH2 0x2DA7 DUP2 DUP6 PUSH2 0x2335 JUMP JUMPDEST SWAP1 POP DUP2 DUP2 SUB PUSH1 0x80 DUP4 ADD MSTORE PUSH2 0x2DBB DUP2 DUP5 PUSH2 0x2D26 JUMP JUMPDEST SWAP1 POP SWAP7 SWAP6 POP POP POP POP POP POP JUMP JUMPDEST PUSH1 0x0 DUP2 MLOAD SWAP1 POP PUSH2 0x2DD6 DUP2 PUSH2 0x1C40 JUMP JUMPDEST SWAP3 SWAP2 POP POP JUMP JUMPDEST PUSH1 0x0 PUSH1 0x20 DUP3 DUP5 SUB SLT ISZERO PUSH2 0x2DF2 JUMPI PUSH2 0x2DF1 PUSH2 0x1B0C JUMP JUMPDEST JUMPDEST PUSH1 0x0 PUSH2 0x2E00 DUP5 DUP3 DUP6 ADD PUSH2 0x2DC7 JUMP JUMPDEST SWAP2 POP POP SWAP3 SWAP2 POP POP JUMP JUMPDEST PUSH1 0x0 DUP2 PUSH1 0xE0 SHR SWAP1 POP SWAP2 SWAP1 POP JUMP JUMPDEST PUSH1 0x0 PUSH1 0x3 RETURNDATASIZE GT ISZERO PUSH2 0x2E35 JUMPI PUSH1 0x4 PUSH1 0x0 DUP1 RETURNDATACOPY PUSH2 0x2E32 PUSH1 0x0 MLOAD PUSH2 0x2E09 JUMP JUMPDEST SWAP1 POP JUMPDEST SWAP1 JUMP JUMPDEST PUSH1 0x0 PUSH1 0x44 RETURNDATASIZE LT PUSH2 0x2EC5 JUMPI PUSH2 0x2E4A PUSH2 0x1B02 JUMP JUMPDEST PUSH1 0x4 RETURNDATASIZE SUB PUSH1 0x4 DUP3 RETURNDATACOPY DUP1 MLOAD RETURNDATASIZE PUSH1 0x24 DUP3 ADD GT PUSH8 0xFFFFFFFFFFFFFFFF DUP3 GT OR ISZERO PUSH2 0x2E72 JUMPI POP POP PUSH2 0x2EC5 JUMP JUMPDEST DUP1 DUP3 ADD DUP1 MLOAD PUSH8 0xFFFFFFFFFFFFFFFF DUP2 GT ISZERO PUSH2 0x2E90 JUMPI POP POP POP POP PUSH2 0x2EC5 JUMP JUMPDEST DUP1 PUSH1 0x20 DUP4 ADD ADD PUSH1 0x4 RETURNDATASIZE SUB DUP6 ADD DUP2 GT ISZERO PUSH2 0x2EAD JUMPI POP POP POP POP POP PUSH2 0x2EC5 JUMP JUMPDEST PUSH2 0x2EBC DUP3 PUSH1 0x20 ADD DUP6 ADD DUP7 PUSH2 0x1E18 JUMP JUMPDEST DUP3 SWAP6 POP POP POP POP POP POP JUMPDEST SWAP1 JUMP JUMPDEST PUSH32 0x455243313135353A207472616E7366657220746F206E6F6E2045524331313535 PUSH1 0x0 DUP3 ADD MSTORE PUSH32 0x526563656976657220696D706C656D656E746572000000000000000000000000 PUSH1 0x20 DUP3 ADD MSTORE POP JUMP JUMPDEST PUSH1 0x0 PUSH2 0x2F24 PUSH1 0x34 DUP4 PUSH2 0x1D34 JUMP JUMPDEST SWAP2 POP PUSH2 0x2F2F DUP3 PUSH2 0x2EC8 JUMP JUMPDEST PUSH1 0x40 DUP3 ADD SWAP1 POP SWAP2 SWAP1 POP JUMP JUMPDEST PUSH1 0x0 PUSH1 0x20 DUP3 ADD SWAP1 POP DUP2 DUP2 SUB PUSH1 0x0 DUP4 ADD MSTORE PUSH2 0x2F53 DUP2 PUSH2 0x2F17 JUMP JUMPDEST SWAP1 POP SWAP2 SWAP1 POP JUMP JUMPDEST PUSH32 0x455243313135353A204552433131353552656365697665722072656A65637465 PUSH1 0x0 DUP3 ADD MSTORE PUSH32 0x6420746F6B656E73000000000000000000000000000000000000000000000000 PUSH1 0x20 DUP3 ADD MSTORE POP JUMP JUMPDEST PUSH1 0x0 PUSH2 0x2FB6 PUSH1 0x28 DUP4 PUSH2 0x1D34 JUMP JUMPDEST SWAP2 POP PUSH2 0x2FC1 DUP3 PUSH2 0x2F5A JUMP JUMPDEST PUSH1 0x40 DUP3 ADD SWAP1 POP SWAP2 SWAP1 POP JUMP JUMPDEST PUSH1 0x0 PUSH1 0x20 DUP3 ADD SWAP1 POP DUP2 DUP2 SUB PUSH1 0x0 DUP4 ADD MSTORE PUSH2 0x2FE5 DUP2 PUSH2 0x2FA9 JUMP JUMPDEST SWAP1 POP SWAP2 SWAP1 POP JUMP JUMPDEST PUSH1 0x0 PUSH1 0xA0 DUP3 ADD SWAP1 POP PUSH2 0x3001 PUSH1 0x0 DUP4 ADD DUP9 PUSH2 0x2CFB JUMP JUMPDEST PUSH2 0x300E PUSH1 0x20 DUP4 ADD DUP8 PUSH2 0x2CFB JUMP JUMPDEST PUSH2 0x301B PUSH1 0x40 DUP4 ADD DUP7 PUSH2 0x1BEA JUMP JUMPDEST PUSH2 0x3028 PUSH1 0x60 DUP4 ADD DUP6 PUSH2 0x1BEA JUMP JUMPDEST DUP2 DUP2 SUB PUSH1 0x80 DUP4 ADD MSTORE PUSH2 0x303A DUP2 DUP5 PUSH2 0x2D26 JUMP JUMPDEST SWAP1 POP SWAP7 SWAP6 POP POP POP POP POP POP JUMP INVALID PUSH3 0x75726E PUSH10 0x6E67207B5F616D6F756E PUSH21 0x7D2043726564656E7469616C20746F6B656E732066 PUSH19 0x6F6D207B5F6163636F756E747DA26469706673 PC 0x22 SLT KECCAK256 0xCB 0x21 MULMOD 0xB7 MLOAD 0xC6 DUP1 PUSH25 0xFF92F01C790FFE2E896DCACC3D7D901B5CE4CB698CA8C29E64 PUSH20 0x6F6C634300080D00330000000000000000000000 "
		},
		"gasEstimates": {
			"creation": {
				"codeDepositCost": "2492600",
				"executionCost": "infinite",
				"totalCost": "infinite"
			},
			"external": {
				"": "175",
				"Burn(uint256,address)": "infinite",
				"CheckUserCreds(address)": "3204",
				"Edit(string)": "infinite",
				"User_Login(string)": "infinite",
				"ViewData()": "infinite",
				"ViewStatus()": "2710",
				"balanceOf(address,uint256)": "infinite",
				"balanceOfBatch(address[],uint256[])": "infinite",
				"isApprovedForAll(address,address)": "infinite",
				"login(string)": "infinite",
				"safeBatchTransferFrom(address,address,uint256[],uint256[],bytes)": "infinite",
				"safeTransferFrom(address,address,uint256,uint256,bytes)": "infinite",
				"setApprovalForAll(address,bool)": "infinite",
				"supportsInterface(bytes4)": "819",
				"uri(uint256)": "infinite"
			}
		},
		"methodIdentifiers": {
			"Burn(uint256,address)": "f6554c3a",
			"CheckUserCreds(address)": "05f8c896",
			"Edit(string)": "c5956fe1",
			"User_Login(string)": "8f3c2090",
			"ViewData()": "cd31de7a",
			"ViewStatus()": "087f477a",
			"balanceOf(address,uint256)": "00fdd58e",
			"balanceOfBatch(address[],uint256[])": "4e1273f4",
			"isApprovedForAll(address,address)": "e985e9c5",
			"login(string)": "3a7d280c",
			"safeBatchTransferFrom(address,address,uint256[],uint256[],bytes)": "2eb2c2d6",
			"safeTransferFrom(address,address,uint256,uint256,bytes)": "f242432a",
			"setApprovalForAll(address,bool)": "a22cb465",
			"supportsInterface(bytes4)": "01ffc9a7",
			"uri(uint256)": "0e89341c"
		}
	},
	"abi": [
		{
			"inputs": [
				{
					"internalType": "string",
					"name": "_Pass",
					"type": "string"
				},
				{
					"internalType": "string",
					"name": "_URI",
					"type": "string"
				}
			],
			"stateMutability": "nonpayable",
			"type": "constructor"
		},
		{
			"anonymous": false,
			"inputs": [
				{
					"indexed": true,
					"internalType": "address",
					"name": "account",
					"type": "address"
				},
				{
					"indexed": true,
					"internalType": "address",
					"name": "operator",
					"type": "address"
				},
				{
					"indexed": false,
					"internalType": "bool",
					"name": "approved",
					"type": "bool"
				}
			],
			"name": "ApprovalForAll",
			"type": "event"
		},
		{
			"anonymous": false,
			"inputs": [
				{
					"indexed": false,
					"internalType": "address",
					"name": "_ContractSelf",
					"type": "address"
				}
			],
			"name": "ContractAddress",
			"type": "event"
		},
		{
			"anonymous": false,
			"inputs": [
				{
					"indexed": true,
					"internalType": "address",
					"name": "operator",
					"type": "address"
				},
				{
					"indexed": true,
					"internalType": "address",
					"name": "from",
					"type": "address"
				},
				{
					"indexed": true,
					"internalType": "address",
					"name": "to",
					"type": "address"
				},
				{
					"indexed": false,
					"internalType": "uint256[]",
					"name": "ids",
					"type": "uint256[]"
				},
				{
					"indexed": false,
					"internalType": "uint256[]",
					"name": "values",
					"type": "uint256[]"
				}
			],
			"name": "TransferBatch",
			"type": "event"
		},
		{
			"anonymous": false,
			"inputs": [
				{
					"indexed": true,
					"internalType": "address",
					"name": "operator",
					"type": "address"
				},
				{
					"indexed": true,
					"internalType": "address",
					"name": "from",
					"type": "address"
				},
				{
					"indexed": true,
					"internalType": "address",
					"name": "to",
					"type": "address"
				},
				{
					"indexed": false,
					"internalType": "uint256",
					"name": "id",
					"type": "uint256"
				},
				{
					"indexed": false,
					"internalType": "uint256",
					"name": "value",
					"type": "uint256"
				}
			],
			"name": "TransferSingle",
			"type": "event"
		},
		{
			"anonymous": false,
			"inputs": [
				{
					"indexed": false,
					"internalType": "string",
					"name": "value",
					"type": "string"
				},
				{
					"indexed": true,
					"internalType": "uint256",
					"name": "id",
					"type": "uint256"
				}
			],
			"name": "URI",
			"type": "event"
		},
		{
			"stateMutability": "payable",
			"type": "fallback"
		},
		{
			"inputs": [
				{
					"internalType": "uint256",
					"name": "_amount",
					"type": "uint256"
				},
				{
					"internalType": "address",
					"name": "_account",
					"type": "address"
				}
			],
			"name": "Burn",
			"outputs": [
				{
					"internalType": "string",
					"name": "",
					"type": "string"
				}
			],
			"stateMutability": "nonpayable",
			"type": "function"
		},
		{
			"inputs": [
				{
					"internalType": "address",
					"name": "_user",
					"type": "address"
				}
			],
			"name": "CheckUserCreds",
			"outputs": [
				{
					"internalType": "bool",
					"name": "",
					"type": "bool"
				}
			],
			"stateMutability": "view",
			"type": "function"
		},
		{
			"inputs": [
				{
					"internalType": "string",
					"name": "_newData",
					"type": "string"
				}
			],
			"name": "Edit",
			"outputs": [
				{
					"internalType": "bool",
					"name": "",
					"type": "bool"
				}
			],
			"stateMutability": "nonpayable",
			"type": "function"
		},
		{
			"inputs": [
				{
					"internalType": "string",
					"name": "_enterPass",
					"type": "string"
				}
			],
			"name": "User_Login",
			"outputs": [
				{
					"internalType": "bool",
					"name": "",
					"type": "bool"
				}
			],
			"stateMutability": "view",
			"type": "function"
		},
		{
			"inputs": [],
			"name": "ViewData",
			"outputs": [
				{
					"internalType": "string",
					"name": "",
					"type": "string"
				}
			],
			"stateMutability": "view",
			"type": "function"
		},
		{
			"inputs": [],
			"name": "ViewStatus",
			"outputs": [
				{
					"internalType": "uint256",
					"name": "",
					"type": "uint256"
				}
			],
			"stateMutability": "view",
			"type": "function"
		},
		{
			"inputs": [
				{
					"internalType": "address",
					"name": "account",
					"type": "address"
				},
				{
					"internalType": "uint256",
					"name": "id",
					"type": "uint256"
				}
			],
			"name": "balanceOf",
			"outputs": [
				{
					"internalType": "uint256",
					"name": "",
					"type": "uint256"
				}
			],
			"stateMutability": "view",
			"type": "function"
		},
		{
			"inputs": [
				{
					"internalType": "address[]",
					"name": "accounts",
					"type": "address[]"
				},
				{
					"internalType": "uint256[]",
					"name": "ids",
					"type": "uint256[]"
				}
			],
			"name": "balanceOfBatch",
			"outputs": [
				{
					"internalType": "uint256[]",
					"name": "",
					"type": "uint256[]"
				}
			],
			"stateMutability": "view",
			"type": "function"
		},
		{
			"inputs": [
				{
					"internalType": "address",
					"name": "account",
					"type": "address"
				},
				{
					"internalType": "address",
					"name": "operator",
					"type": "address"
				}
			],
			"name": "isApprovedForAll",
			"outputs": [
				{
					"internalType": "bool",
					"name": "",
					"type": "bool"
				}
			],
			"stateMutability": "view",
			"type": "function"
		},
		{
			"inputs": [
				{
					"internalType": "string",
					"name": "_enterPass",
					"type": "string"
				}
			],
			"name": "login",
			"outputs": [
				{
					"internalType": "bool",
					"name": "",
					"type": "bool"
				}
			],
			"stateMutability": "view",
			"type": "function"
		},
		{
			"inputs": [
				{
					"internalType": "address",
					"name": "from",
					"type": "address"
				},
				{
					"internalType": "address",
					"name": "to",
					"type": "address"
				},
				{
					"internalType": "uint256[]",
					"name": "ids",
					"type": "uint256[]"
				},
				{
					"internalType": "uint256[]",
					"name": "amounts",
					"type": "uint256[]"
				},
				{
					"internalType": "bytes",
					"name": "data",
					"type": "bytes"
				}
			],
			"name": "safeBatchTransferFrom",
			"outputs": [],
			"stateMutability": "nonpayable",
			"type": "function"
		},
		{
			"inputs": [
				{
					"internalType": "address",
					"name": "from",
					"type": "address"
				},
				{
					"internalType": "address",
					"name": "to",
					"type": "address"
				},
				{
					"internalType": "uint256",
					"name": "id",
					"type": "uint256"
				},
				{
					"internalType": "uint256",
					"name": "amount",
					"type": "uint256"
				},
				{
					"internalType": "bytes",
					"name": "data",
					"type": "bytes"
				}
			],
			"name": "safeTransferFrom",
			"outputs": [],
			"stateMutability": "nonpayable",
			"type": "function"
		},
		{
			"inputs": [
				{
					"internalType": "address",
					"name": "operator",
					"type": "address"
				},
				{
					"internalType": "bool",
					"name": "approved",
					"type": "bool"
				}
			],
			"name": "setApprovalForAll",
			"outputs": [],
			"stateMutability": "nonpayable",
			"type": "function"
		},
		{
			"inputs": [
				{
					"internalType": "bytes4",
					"name": "interfaceId",
					"type": "bytes4"
				}
			],
			"name": "supportsInterface",
			"outputs": [
				{
					"internalType": "bool",
					"name": "",
					"type": "bool"
				}
			],
			"stateMutability": "view",
			"type": "function"
		},
		{
			"inputs": [
				{
					"internalType": "uint256",
					"name": "",
					"type": "uint256"
				}
			],
			"name": "uri",
			"outputs": [
				{
					"internalType": "string",
					"name": "",
					"type": "string"
				}
			],
			"stateMutability": "view",
			"type": "function"
		},
		{
			"stateMutability": "payable",
			"type": "receive"
		}
	]
}