{
  "contractName": "DAppLoginContract",
  "abi": [
    {
      "inputs": [],
      "stateMutability": "nonpayable",
      "type": "constructor"
    },
    {
      "inputs": [
        {
          "internalType": "address",
          "name": "_LoginContract",
          "type": "address"
        }
      ],
      "name": "Register",
      "outputs": [
        {
          "internalType": "bool",
          "name": "",
          "type": "bool"
        }
      ],
      "stateMutability": "nonpayable",
      "type": "function"
    },
    {
      "inputs": [
        {
          "internalType": "address",
          "name": "_LoginContract",
          "type": "address"
        }
      ],
      "name": "LoginStatus",
      "outputs": [
        {
          "internalType": "bool",
          "name": "",
          "type": "bool"
        }
      ],
      "stateMutability": "view",
      "type": "function",
      "constant": true
    },
    {
      "inputs": [
        {
          "internalType": "address",
          "name": "_LoginContract",
          "type": "address"
        },
        {
          "internalType": "address",
          "name": "_user",
          "type": "address"
        }
      ],
      "name": "Logout",
      "outputs": [
        {
          "internalType": "string",
          "name": "",
          "type": "string"
        }
      ],
      "stateMutability": "payable",
      "type": "function",
      "payable": true
    },
    {
      "inputs": [
        {
          "internalType": "address",
          "name": "_LoginContract",
          "type": "address"
        },
        {
          "internalType": "string",
          "name": "_enterPass",
          "type": "string"
        }
      ],
      "name": "userLogin",
      "outputs": [
        {
          "internalType": "string",
          "name": "",
          "type": "string"
        }
      ],
      "stateMutability": "payable",
      "type": "function",
      "payable": true
    },
    {
      "inputs": [
        {
          "internalType": "address",
          "name": "_LoginContract",
          "type": "address"
        },
        {
          "internalType": "address",
          "name": "_user",
          "type": "address"
        }
      ],
      "name": "CredToken",
      "outputs": [
        {
          "internalType": "bool",
          "name": "",
          "type": "bool"
        }
      ],
      "stateMutability": "view",
      "type": "function",
      "constant": true
    }
  ],
  "bytecode": "0x60806040526000805534801561001457600080fd5b50610b8a806100246000396000f3fe60806040526004361061004a5760003560e01c8063362760b51461004f578063b3db08bf1461007f578063ba275631146100af578063dff0f208146100ec578063eeda149c14610129575b600080fd5b61006960048036038101906100649190610760565b610166565b6040516100769190610839565b60405180910390f35b61009960048036038101906100949190610990565b61028b565b6040516100a69190610839565b60405180910390f35b3480156100bb57600080fd5b506100d660048036038101906100d19190610760565b6104e7565b6040516100e39190610a07565b60405180910390f35b3480156100f857600080fd5b50610113600480360381019061010e9190610a22565b610570565b6040516101209190610a07565b60405180910390f35b34801561013557600080fd5b50610150600480360381019061014b9190610a22565b6105c9565b60405161015d9190610a07565b60405180910390f35b6060600115158373ffffffffffffffffffffffffffffffffffffffff166305f8c896846040518263ffffffff1660e01b81526004016101a59190610a5e565b602060405180830381865afa1580156101c2573d6000803e3d6000fd5b505050506040513d601f19601f820116820180604052508101906101e69190610aa5565b1515146101f257600080fd5b6000600160008573ffffffffffffffffffffffffffffffffffffffff1673ffffffffffffffffffffffffffffffffffffffff16815260200190815260200160002060000160016101000a81548160ff0219169083151502179055506040518060400160405280600a81526020017f4c6f67676564206f757400000000000000000000000000000000000000000000815250905092915050565b606060011515600160008573ffffffffffffffffffffffffffffffffffffffff1673ffffffffffffffffffffffffffffffffffffffff16815260200190815260200160002060000160009054906101000a900460ff161515146102ed57600080fd5b600033905060008473ffffffffffffffffffffffffffffffffffffffff16630b2d8924856040518263ffffffff1660e01b815260040161032d9190610839565b602060405180830381865afa15801561034a573d6000803e3d6000fd5b505050506040513d601f19601f8201168201806040525081019061036e9190610aa5565b905060008573ffffffffffffffffffffffffffffffffffffffff166305f8c896846040518263ffffffff1660e01b81526004016103ab9190610a5e565b602060405180830381865afa1580156103c8573d6000803e3d6000fd5b505050506040513d601f19601f820116820180604052508101906103ec9190610aa5565b905060011515811515148015610406575060011515821515145b156104a55760018060008873ffffffffffffffffffffffffffffffffffffffff1673ffffffffffffffffffffffffffffffffffffffff16815260200190815260200160002060000160016101000a81548160ff0219169083151502179055506040518060400160405280600581526020017f4c6f67696e00000000000000000000000000000000000000000000000000000081525093505050506104e1565b6040518060400160405280600f81526020017f556e61626c6520746f204c6f67696e000000000000000000000000000000000081525093505050505b92915050565b6000808373ffffffffffffffffffffffffffffffffffffffff166305f8c896846040518263ffffffff1660e01b81526004016105239190610a5e565b602060405180830381865afa158015610540573d6000803e3d6000fd5b505050506040513d601f19601f820116820180604052508101906105649190610aa5565b90508091505092915050565b6000600160008373ffffffffffffffffffffffffffffffffffffffff1673ffffffffffffffffffffffffffffffffffffffff16815260200190815260200160002060000160019054906101000a900460ff169050919050565b600060011515600160008473ffffffffffffffffffffffffffffffffffffffff1673ffffffffffffffffffffffffffffffffffffffff16815260200190815260200160002060000160009054906101000a900460ff161515141561063057600090506106e9565b604051806040016040528060011515815260200160001515815250600160008473ffffffffffffffffffffffffffffffffffffffff1673ffffffffffffffffffffffffffffffffffffffff16815260200190815260200160002060008201518160000160006101000a81548160ff02191690831515021790555060208201518160000160016101000a81548160ff0219169083151502179055509050506000808154809291906106df90610b0b565b9190505550600190505b919050565b6000604051905090565b600080fd5b600080fd5b600073ffffffffffffffffffffffffffffffffffffffff82169050919050565b600061072d82610702565b9050919050565b61073d81610722565b811461074857600080fd5b50565b60008135905061075a81610734565b92915050565b60008060408385031215610777576107766106f8565b5b60006107858582860161074b565b92505060206107968582860161074b565b9150509250929050565b600081519050919050565b600082825260208201905092915050565b60005b838110156107da5780820151818401526020810190506107bf565b838111156107e9576000848401525b50505050565b6000601f19601f8301169050919050565b600061080b826107a0565b61081581856107ab565b93506108258185602086016107bc565b61082e816107ef565b840191505092915050565b600060208201905081810360008301526108538184610800565b905092915050565b600080fd5b600080fd5b7f4e487b7100000000000000000000000000000000000000000000000000000000600052604160045260246000fd5b61089d826107ef565b810181811067ffffffffffffffff821117156108bc576108bb610865565b5b80604052505050565b60006108cf6106ee565b90506108db8282610894565b919050565b600067ffffffffffffffff8211156108fb576108fa610865565b5b610904826107ef565b9050602081019050919050565b82818337600083830152505050565b600061093361092e846108e0565b6108c5565b90508281526020810184848401111561094f5761094e610860565b5b61095a848285610911565b509392505050565b600082601f8301126109775761097661085b565b5b8135610987848260208601610920565b91505092915050565b600080604083850312156109a7576109a66106f8565b5b60006109b58582860161074b565b925050602083013567ffffffffffffffff8111156109d6576109d56106fd565b5b6109e285828601610962565b9150509250929050565b60008115159050919050565b610a01816109ec565b82525050565b6000602082019050610a1c60008301846109f8565b92915050565b600060208284031215610a3857610a376106f8565b5b6000610a468482850161074b565b91505092915050565b610a5881610722565b82525050565b6000602082019050610a736000830184610a4f565b92915050565b610a82816109ec565b8114610a8d57600080fd5b50565b600081519050610a9f81610a79565b92915050565b600060208284031215610abb57610aba6106f8565b5b6000610ac984828501610a90565b91505092915050565b7f4e487b7100000000000000000000000000000000000000000000000000000000600052601160045260246000fd5b6000819050919050565b6000610b1682610b01565b91507fffffffffffffffffffffffffffffffffffffffffffffffffffffffffffffffff821415610b4957610b48610ad2565b5b60018201905091905056fea2646970667358221220b6b8022cce354fa40555cdf90832af21558bac185044b08da0bb8e478a955a6a64736f6c634300080a0033",
  "immutableReferences": {},
  "source": "pragma solidity ^0.8.10;\n// SPDX-License-Identifier: MIT\nimport \"@openzeppelin/contracts/token/ERC1155/ERC1155.sol\";\nimport \"./PrivateAccessToken.sol\";\n\n//interface for other contract to read status\ninterface LoginContract_Interface{\n    function Login(string memory _enterPass)external view returns(bool);\n    function CheckUserCreds(address _user)external view returns(bool);\n}\ncontract LoginContract is PrivateAccessToken,LoginContract_Interface{\n    //new token that will allow for a smart contract to check credentials \n    string private Login_Pass;\n    event ContractAddress(address indexed _ContractSelf);\n\n\n    //lauch Login contract with PrivateAccessToken Contract as dependancy\n    constructor(string memory _Pass ,string memory _URI)PrivateAccessToken(_Pass,_URI){\n        emit ContractAddress(address(this));\n    }\n\n    //Dapp Contracts can check passwords\n    function Login(string memory _enterPass)external view returns(bool){\n        if(keccak256(abi.encodePacked(ViewData())) == keccak256(abi.encodePacked(_enterPass))){\n            return true;\n        } else{\n            return false;\n        }\n    }\n    //I can grab the OnlyToken modifier from the Inherited contract\n    function User_Login(string memory _enterPass)public view OnlyToken returns(bool){\n        if(keccak256(abi.encodePacked(ViewData())) == keccak256(abi.encodePacked(_enterPass))){\n            return true;\n        } else{\n            return false;\n        }\n    }\n    // external source can check if user data holds correct token\n    function CheckUserCreds(address _user)public view returns(bool){\n        if(PrivateAccessToken.OnlyIf(_user,1) == true){\n            return true;\n        } else {\n            return false;\n        }\n    }\n}\n//DApps can have this contract be the login contract for users to use this application\ncontract DAppLoginContract{\n    uint TotalAccounts =0;\n    constructor(){}\n    \n    mapping(address => Logins) logins;\n    //Keeps list of Login Contracts\n    struct Logins{\n        bool exist;\n        bool status;\n    }\n    //User can add their login contract to this DApp so this Daap can check their credentials in reference to the logincontract\n    function Register(address _LoginContract)public returns(bool){\n        if(logins[_LoginContract].exist == true){\n            return false;\n        }else{\n            logins[_LoginContract] =Logins(true,false);\n            TotalAccounts++;\n            return true;\n        }\n    }\n    //Checks Current Users Login Contracts\n    function LoginStatus(address _LoginContract) public view returns(bool){\n        return logins[_LoginContract].status;\n    }\n    //user Changes Login status\n    function Logout(address _LoginContract,address _user)public payable returns(string memory){\n        require(LoginContract_Interface(_LoginContract).CheckUserCreds(_user) == true);\n        logins[_LoginContract].status= false;\n        return \"Logged out\";\n    }\n    //user can login and have DApp check login COntract for validity\n    // contract address & password to login\n    function userLogin(address _LoginContract,string memory _enterPass)public payable returns(string memory){\n        require(logins[_LoginContract].exist==true);\n        address _self = msg.sender;\n        bool Password = LoginContract_Interface(_LoginContract).Login(_enterPass);  //Has correct Password\n        bool Creds = LoginContract_Interface(_LoginContract).CheckUserCreds(_self); //Has correct Credential Token\n        //Check Login Contract and Registration\n        if(Creds==true && Password==true){\n            logins[_LoginContract].status=true;\n            return \"Login\";  //user successfully logs in!\n        } else{\n            return \"Unable to Login\"; //User fails to have correct NFT access or incorect password\n        }\n    }\n    //check user\n    function CredToken(address _LoginContract,address _user)public view returns(bool){\n        bool Creds = LoginContract_Interface(_LoginContract).CheckUserCreds(_user);\n        return Creds;\n    }\n}\n//- Dev: Quincy J\n",
  "sourcePath": "/Users/Q/Documents/GitHub/LoginContract/contracts/LoginContract.sol",
  "compiler": {
    "name": "solc",
    "version": "0.8.10+commit.fc410830.Emscripten.clang"
  },
  "schemaVersion": "3.4.3",
  "updatedAt": "2022-02-21T19:46:13.537Z",
  "networkType": "ethereum",
  "devdoc": {
    "kind": "dev",
    "methods": {},
    "version": 1
  },
  "userdoc": {
    "kind": "user",
    "methods": {},
    "version": 1
  }
}