{
  "contractName": "DAppLoginContract",
  "abi": [
    {
      "inputs": [],
      "stateMutability": "nonpayable",
      "type": "constructor"
    },
    {
      "inputs": [
        {
          "internalType": "address",
          "name": "_LoginContract",
          "type": "address"
        }
      ],
      "name": "Register",
      "outputs": [
        {
          "internalType": "bool",
          "name": "",
          "type": "bool"
        }
      ],
      "stateMutability": "nonpayable",
      "type": "function"
    },
    {
      "inputs": [
        {
          "internalType": "address",
          "name": "_LoginContract",
          "type": "address"
        }
      ],
      "name": "LoginStatus",
      "outputs": [
        {
          "internalType": "bool",
          "name": "",
          "type": "bool"
        }
      ],
      "stateMutability": "view",
      "type": "function"
    },
    {
      "inputs": [
        {
          "internalType": "address",
          "name": "_LoginContract",
          "type": "address"
        },
        {
          "internalType": "address",
          "name": "_user",
          "type": "address"
        }
      ],
      "name": "Logout",
      "outputs": [
        {
          "internalType": "string",
          "name": "",
          "type": "string"
        }
      ],
      "stateMutability": "nonpayable",
      "type": "function"
    },
    {
      "inputs": [
        {
          "internalType": "address",
          "name": "_LoginContract",
          "type": "address"
        },
        {
          "internalType": "string",
          "name": "_enterPass",
          "type": "string"
        }
      ],
      "name": "userLogin",
      "outputs": [
        {
          "internalType": "bool",
          "name": "",
          "type": "bool"
        }
      ],
      "stateMutability": "nonpayable",
      "type": "function"
    },
    {
      "inputs": [
        {
          "internalType": "address",
          "name": "_LoginContract",
          "type": "address"
        },
        {
          "internalType": "address",
          "name": "_user",
          "type": "address"
        }
      ],
      "name": "CredToken",
      "outputs": [
        {
          "internalType": "bool",
          "name": "",
          "type": "bool"
        }
      ],
      "stateMutability": "view",
      "type": "function"
    }
  ],
  "bytecode": "0x60806040526000805534801561001457600080fd5b50610afa806100246000396000f3fe608060405234801561001057600080fd5b50600436106100575760003560e01c8063362760b51461005c578063b3db08bf1461008c578063ba275631146100bc578063dff0f208146100ec578063eeda149c1461011c575b600080fd5b610076600480360381019061007191906106d1565b61014c565b60405161008391906107aa565b60405180910390f35b6100a660048036038101906100a19190610901565b610271565b6040516100b39190610978565b60405180910390f35b6100d660048036038101906100d191906106d1565b61045e565b6040516100e39190610978565b60405180910390f35b61010660048036038101906101019190610993565b6104e2565b6040516101139190610978565b60405180910390f35b61013660048036038101906101319190610993565b61053b565b6040516101439190610978565b60405180910390f35b6060600115158373ffffffffffffffffffffffffffffffffffffffff166305f8c896846040518263ffffffff1660e01b815260040161018b91906109cf565b602060405180830381865afa1580156101a8573d6000803e3d6000fd5b505050506040513d601f19601f820116820180604052508101906101cc9190610a16565b1515146101d857600080fd5b6000600160008573ffffffffffffffffffffffffffffffffffffffff1673ffffffffffffffffffffffffffffffffffffffff16815260200190815260200160002060000160016101000a81548160ff0219169083151502179055506040518060400160405280600a81526020017f4c6f67676564206f757400000000000000000000000000000000000000000000815250905092915050565b600060011515600160008573ffffffffffffffffffffffffffffffffffffffff1673ffffffffffffffffffffffffffffffffffffffff16815260200190815260200160002060000160009054906101000a900460ff161515146102d357600080fd5b60008373ffffffffffffffffffffffffffffffffffffffff16633a7d280c846040518263ffffffff1660e01b815260040161030e91906107aa565b602060405180830381865afa15801561032b573d6000803e3d6000fd5b505050506040513d601f19601f8201168201806040525081019061034f9190610a16565b905060008473ffffffffffffffffffffffffffffffffffffffff166305f8c896336040518263ffffffff1660e01b815260040161038c91906109cf565b602060405180830381865afa1580156103a9573d6000803e3d6000fd5b505050506040513d601f19601f820116820180604052508101906103cd9190610a16565b9050600115158115151480156103e7575060011515821515145b156104515760018060008773ffffffffffffffffffffffffffffffffffffffff1673ffffffffffffffffffffffffffffffffffffffff16815260200190815260200160002060000160016101000a81548160ff021916908315150217905550600192505050610458565b6000925050505b92915050565b60008273ffffffffffffffffffffffffffffffffffffffff166305f8c896836040518263ffffffff1660e01b815260040161049991906109cf565b602060405180830381865afa1580156104b6573d6000803e3d6000fd5b505050506040513d601f19601f820116820180604052508101906104da9190610a16565b905092915050565b6000600160008373ffffffffffffffffffffffffffffffffffffffff1673ffffffffffffffffffffffffffffffffffffffff16815260200190815260200160002060000160019054906101000a900460ff169050919050565b600060011515600160008473ffffffffffffffffffffffffffffffffffffffff1673ffffffffffffffffffffffffffffffffffffffff16815260200190815260200160002060000160009054906101000a900460ff161515036105a1576000905061065a565b604051806040016040528060011515815260200160001515815250600160008473ffffffffffffffffffffffffffffffffffffffff1673ffffffffffffffffffffffffffffffffffffffff16815260200190815260200160002060008201518160000160006101000a81548160ff02191690831515021790555060208201518160000160016101000a81548160ff02191690831515021790555090505060008081548092919061065090610a7c565b9190505550600190505b919050565b6000604051905090565b600080fd5b600080fd5b600073ffffffffffffffffffffffffffffffffffffffff82169050919050565b600061069e82610673565b9050919050565b6106ae81610693565b81146106b957600080fd5b50565b6000813590506106cb816106a5565b92915050565b600080604083850312156106e8576106e7610669565b5b60006106f6858286016106bc565b9250506020610707858286016106bc565b9150509250929050565b600081519050919050565b600082825260208201905092915050565b60005b8381101561074b578082015181840152602081019050610730565b8381111561075a576000848401525b50505050565b6000601f19601f8301169050919050565b600061077c82610711565b610786818561071c565b935061079681856020860161072d565b61079f81610760565b840191505092915050565b600060208201905081810360008301526107c48184610771565b905092915050565b600080fd5b600080fd5b7f4e487b7100000000000000000000000000000000000000000000000000000000600052604160045260246000fd5b61080e82610760565b810181811067ffffffffffffffff8211171561082d5761082c6107d6565b5b80604052505050565b600061084061065f565b905061084c8282610805565b919050565b600067ffffffffffffffff82111561086c5761086b6107d6565b5b61087582610760565b9050602081019050919050565b82818337600083830152505050565b60006108a461089f84610851565b610836565b9050828152602081018484840111156108c0576108bf6107d1565b5b6108cb848285610882565b509392505050565b600082601f8301126108e8576108e76107cc565b5b81356108f8848260208601610891565b91505092915050565b6000806040838503121561091857610917610669565b5b6000610926858286016106bc565b925050602083013567ffffffffffffffff8111156109475761094661066e565b5b610953858286016108d3565b9150509250929050565b60008115159050919050565b6109728161095d565b82525050565b600060208201905061098d6000830184610969565b92915050565b6000602082840312156109a9576109a8610669565b5b60006109b7848285016106bc565b91505092915050565b6109c981610693565b82525050565b60006020820190506109e460008301846109c0565b92915050565b6109f38161095d565b81146109fe57600080fd5b50565b600081519050610a10816109ea565b92915050565b600060208284031215610a2c57610a2b610669565b5b6000610a3a84828501610a01565b91505092915050565b7f4e487b7100000000000000000000000000000000000000000000000000000000600052601160045260246000fd5b6000819050919050565b6000610a8782610a72565b91507fffffffffffffffffffffffffffffffffffffffffffffffffffffffffffffffff8203610ab957610ab8610a43565b5b60018201905091905056fea2646970667358221220748b506cca4c31a518041525bad03e034d9295ff722d4367732b77bc15fb041e64736f6c634300080f0033",
  "immutableReferences": {},
  "source": "pragma solidity ^0.8.10;\n// SPDX-License-Identifier: MIT\nimport \"@openzeppelin/contracts/token/ERC1155/ERC1155.sol\";\nimport \"./PrivateAccessToken.sol\";\n\n//interface for other contract to read status\ninterface LoginContract_Interface{\n    function CheckUserCreds(address _user)external view returns(bool);\n    function login(string memory _y)external view returns(bool);\n}\ncontract LoginContract is PrivateAccessToken,LoginContract_Interface{\n    //new token that will allow for a smart contract to check credentials \n    event ContractAddress(address _ContractSelf);\n\n\n    //lauch Login contract with PrivateAccessToken Contract as dependancy\n    constructor(string memory _Pass ,string memory _URI)PrivateAccessToken(_Pass,_URI){\n        emit ContractAddress(address(this));\n    }\n\n\n    //I can grab the OnlyToken modifier from the Inherited contract\n    function User_Login(string memory _enterPass)public view OnlyToken returns(bool){\n        if(keccak256(abi.encodePacked(ViewData())) == keccak256(abi.encodePacked(_enterPass))){\n            return true;\n        } else{\n            return false;\n        }\n    }\n    // external source can check if user data holds correct token\n    function CheckUserCreds(address _user)public view returns(bool){\n        if(PrivateAccessToken.OnlyIf(_user,1) == true){\n            return true;\n        } else {\n            return false;\n        }\n    }\n    //Dapp Contracts can check passwords\n    function login(string memory _enterPass)external view returns(bool){\n        if(keccak256(abi.encodePacked(_enterPass)) == keccak256(abi.encodePacked(PrivateViewData()))){\n            return true;\n        }else{\n            return false;\n        }\n    }\n}\ninterface DAppLogin_Interface{\n    function userLogin(address _LoginContract,string memory _enterPass)external returns(bool);\n    function CredToken(address _LoginContract,address _user)external view returns(bool);\n    function Logout(address _LoginContract,address _user)external returns(string memory);\n    function LoginStatus(address _LoginContract) external view returns(bool);\n    function Register(address _LoginContract)external returns(bool);\n}\n//DApps can have this contract be the login contract for users to use this application\ncontract DAppLoginContract is DAppLogin_Interface{\n    uint TotalAccounts =0;\n    constructor(){}\n    \n    mapping(address => Logins) logins;\n    //Keeps list of Login Contracts\n    struct Logins{\n        bool exist;\n        bool status;\n    }\n    //User can add their login contract to this DApp so this Daap can check their credentials in reference to the logincontract\n    function Register(address _LoginContract)public returns(bool){\n        if(logins[_LoginContract].exist == true){\n            return false;\n        }else{\n            logins[_LoginContract] =Logins(true,false);\n            TotalAccounts++;\n            return true;\n        }\n    }\n    //Checks Current Users Login Contracts\n    function LoginStatus(address _LoginContract) public view returns(bool){\n        return logins[_LoginContract].status;\n    }\n    //user Changes Login status\n    function Logout(address _LoginContract,address _user)public returns(string memory){\n        require(LoginContract_Interface(_LoginContract).CheckUserCreds(_user) == true);\n        logins[_LoginContract].status= false;\n        return \"Logged out\";\n    }\n    //user can login and have DApp check login COntract for validity\n    // contract address & password to login\n    function userLogin(address _LoginContract,string memory _enterPass)public returns(bool){\n        require(logins[_LoginContract].exist==true);\n        bool Password = LoginContract_Interface(_LoginContract).login(_enterPass);  //Has correct Password\n        bool Creds = LoginContract_Interface(_LoginContract).CheckUserCreds(msg.sender); //Has correct Credential Token\n        //Check Login Contract and Registration\n        if(Creds==true && Password==true){\n            logins[_LoginContract].status=true;\n            return true;  //user successfully logs in!\n        } else{\n            return false; //User fails to have correct NFT access or incorect password\n        }\n    }\n    //check user\n    function CredToken(address _LoginContract,address _user)public view returns(bool){\n        return LoginContract_Interface(_LoginContract).CheckUserCreds(_user);\n    }\n}\n//- Dev: Quincy J\n",
  "sourcePath": "/Users/quincyjones/Documents/GitHub/LoginContract/contracts/PrivateLoginContract.sol",
  "compiler": {
    "name": "solc",
    "version": "0.8.15+commit.e14f2714.Emscripten.clang"
  },
  "schemaVersion": "3.4.8",
  "updatedAt": "2022-08-12T16:48:10.952Z",
  "devdoc": {
    "kind": "dev",
    "methods": {},
    "version": 1
  },
  "userdoc": {
    "kind": "user",
    "methods": {},
    "version": 1
  }
}