{
  "contractName": "DAppLoginContract",
  "abi": [
    {
      "inputs": [],
      "stateMutability": "nonpayable",
      "type": "constructor"
    },
    {
      "inputs": [
        {
          "internalType": "address",
          "name": "_LoginContract",
          "type": "address"
        }
      ],
      "name": "AddPasswordContract",
      "outputs": [],
      "stateMutability": "nonpayable",
      "type": "function"
    },
    {
      "inputs": [
        {
          "internalType": "address",
          "name": "_LoginContract",
          "type": "address"
        },
        {
          "internalType": "string",
          "name": "_enterPass",
          "type": "string"
        }
      ],
      "name": "userLogin",
      "outputs": [
        {
          "internalType": "bool",
          "name": "",
          "type": "bool"
        }
      ],
      "stateMutability": "view",
      "type": "function"
    }
  ],
  "bytecode": "0x60806040526000805534801561001457600080fd5b5061072b806100246000396000f3fe608060405234801561001057600080fd5b50600436106100365760003560e01c8063b3db08bf1461003b578063e011ce251461006b575b600080fd5b61005560048036038101906100509190610487565b610087565b60405161006291906104fe565b60405180910390f35b61008560048036038101906100809190610519565b610218565b005b6000808373ffffffffffffffffffffffffffffffffffffffff16630b2d8924846040518263ffffffff1660e01b81526004016100c391906105ce565b602060405180830381865afa1580156100e0573d6000803e3d6000fd5b505050506040513d601f19601f82011682018060405250810190610104919061061c565b905060008473ffffffffffffffffffffffffffffffffffffffff166305f8c896336040518263ffffffff1660e01b81526004016101419190610658565b602060405180830381865afa15801561015e573d6000803e3d6000fd5b505050506040513d601f19601f82011682018060405250810190610182919061061c565b90506001151582151514801561019c575060011515811515145b80156101fb575060011515600160008773ffffffffffffffffffffffffffffffffffffffff1673ffffffffffffffffffffffffffffffffffffffff16815260200190815260200160002060000160009054906101000a900460ff161515145b1561020b57600192505050610212565b6000925050505b92915050565b604051806040016040528060011515815260200160011515815250600160008373ffffffffffffffffffffffffffffffffffffffff1673ffffffffffffffffffffffffffffffffffffffff16815260200190815260200160002060008201518160000160006101000a81548160ff02191690831515021790555060208201518160000160016101000a81548160ff0219169083151502179055509050506000808154809291906102c7906106ac565b919050555050565b6000604051905090565b600080fd5b600080fd5b600073ffffffffffffffffffffffffffffffffffffffff82169050919050565b600061030e826102e3565b9050919050565b61031e81610303565b811461032957600080fd5b50565b60008135905061033b81610315565b92915050565b600080fd5b600080fd5b6000601f19601f8301169050919050565b7f4e487b7100000000000000000000000000000000000000000000000000000000600052604160045260246000fd5b6103948261034b565b810181811067ffffffffffffffff821117156103b3576103b261035c565b5b80604052505050565b60006103c66102cf565b90506103d2828261038b565b919050565b600067ffffffffffffffff8211156103f2576103f161035c565b5b6103fb8261034b565b9050602081019050919050565b82818337600083830152505050565b600061042a610425846103d7565b6103bc565b90508281526020810184848401111561044657610445610346565b5b610451848285610408565b509392505050565b600082601f83011261046e5761046d610341565b5b813561047e848260208601610417565b91505092915050565b6000806040838503121561049e5761049d6102d9565b5b60006104ac8582860161032c565b925050602083013567ffffffffffffffff8111156104cd576104cc6102de565b5b6104d985828601610459565b9150509250929050565b60008115159050919050565b6104f8816104e3565b82525050565b600060208201905061051360008301846104ef565b92915050565b60006020828403121561052f5761052e6102d9565b5b600061053d8482850161032c565b91505092915050565b600081519050919050565b600082825260208201905092915050565b60005b83811015610580578082015181840152602081019050610565565b8381111561058f576000848401525b50505050565b60006105a082610546565b6105aa8185610551565b93506105ba818560208601610562565b6105c38161034b565b840191505092915050565b600060208201905081810360008301526105e88184610595565b905092915050565b6105f9816104e3565b811461060457600080fd5b50565b600081519050610616816105f0565b92915050565b600060208284031215610632576106316102d9565b5b600061064084828501610607565b91505092915050565b61065281610303565b82525050565b600060208201905061066d6000830184610649565b92915050565b7f4e487b7100000000000000000000000000000000000000000000000000000000600052601160045260246000fd5b6000819050919050565b60006106b7826106a2565b91507fffffffffffffffffffffffffffffffffffffffffffffffffffffffffffffffff8214156106ea576106e9610673565b5b60018201905091905056fea2646970667358221220c9bfa58a676adfd6abf266cf9a76fdb595dfa21eb777322de73ff35b84768fbd64736f6c634300080a0033",
  "immutableReferences": {},
  "source": "pragma solidity ^0.8.10;\n// SPDX-License-Identifier: MIT\nimport \"@openzeppelin/contracts/token/ERC1155/ERC1155.sol\";\nimport \"./PrivateAccessToken.sol\";\n\n//interface for other contract to read status\ninterface LoginContract_Interface{\n    function Login(string memory _enterPass)external view returns(bool);\n    function CheckUserCreds(address _user)external view returns(bool);\n}\ncontract LoginContract is PrivateAccessToken,LoginContract_Interface{\n    //new token that will allow for a smart contract to check credentials \n    uint PermissionToken =1;\n    string private Login_Pass;\n    event ContractAddress(address indexed _ContractSelf);\n\n\n    //lauch Login contract with PrivateAccessToken Contract as dependancy\n    constructor(string memory _Pass ,string memory _URI)PrivateAccessToken(_Pass,_URI){\n        emit ContractAddress(address(this));\n    }\n\n    //I can grab the OnlyToken modifier from the Inherited contract to only allow to token holder to mint permission tokens\n    function Login(string memory _enterPass)public view OnlyToken returns(bool){\n        if(keccak256(abi.encodePacked(ViewData())) == keccak256(abi.encodePacked(_enterPass))){\n            return true;\n        } else{\n            return false;\n        }\n    }\n    // external source can check if user data holds correct token\n    function CheckUserCreds(address _user)public view returns(bool){\n        if(PrivateAccessToken.OnlyIf(_user) == true){\n            return true;\n        } else {\n            return false;\n        }\n    }\n}\n//DApps can have this contract be the login contract for users to use this application\ncontract DAppLoginContract{\n    uint LoginCount =0;\n    constructor(){}\n    \n    mapping(address => Logins) logins;\n    //Keeps list of Login Contracts\n    struct Logins{\n        bool exist;\n        bool status;\n    }\n    //User can add their login contract to this DApp so this Daap can check their credentials in reference to the logincontract\n    function AddPasswordContract(address _LoginContract)public{\n        logins[_LoginContract] =Logins(true,true);\n        LoginCount++;\n    }\n    //user can login and have DApp check login COntract for validity\n    // contract address & password to login\n    function userLogin(address _LoginContract,string memory _enterPass)public view returns(bool){\n        bool Pass = LoginContract_Interface(_LoginContract).Login(_enterPass);  //Has correct Password\n        bool Creds = LoginContract_Interface(_LoginContract).CheckUserCreds(msg.sender); //Has correct Credential Token\n        //Check Login Contract and Registration\n        if( Pass==true &&Creds==true &&logins[_LoginContract].exist==true){\n            return true;  //user successfully logs in!\n        }else{\n            return false; //User fails to have correct NFT access or incorect password\n        }\n    }\n    function DAppLogin(address _LoginContract,address _user)internal view returns(bool){\n        bool Creds = LoginContract_Interface(_LoginContract).CheckUserCreds(_user);\n        return Creds;\n    }\n}\n//- Dev: Quincy J\n",
  "sourcePath": "/Users/Q/Documents/GitHub/LoginContract/contracts/LoginContract.sol",
  "compiler": {
    "name": "solc",
    "version": "0.8.10+commit.fc410830.Emscripten.clang"
  },
  "schemaVersion": "3.4.3",
  "updatedAt": "2022-02-15T19:08:31.857Z",
  "devdoc": {
    "kind": "dev",
    "methods": {},
    "version": 1
  },
  "userdoc": {
    "kind": "user",
    "methods": {},
    "version": 1
  }
}