{
  "contractName": "DAppLoginContract",
  "abi": [
    {
      "inputs": [],
      "stateMutability": "nonpayable",
      "type": "constructor"
    },
    {
      "inputs": [
        {
          "internalType": "address",
          "name": "_LoginContract",
          "type": "address"
        }
      ],
      "name": "Register",
      "outputs": [
        {
          "internalType": "bool",
          "name": "",
          "type": "bool"
        }
      ],
      "stateMutability": "nonpayable",
      "type": "function"
    },
    {
      "inputs": [
        {
          "internalType": "address",
          "name": "_LoginContract",
          "type": "address"
        }
      ],
      "name": "LoginStatus",
      "outputs": [
        {
          "internalType": "bool",
          "name": "",
          "type": "bool"
        }
      ],
      "stateMutability": "view",
      "type": "function",
      "constant": true
    },
    {
      "inputs": [
        {
          "internalType": "address",
          "name": "_LoginContract",
          "type": "address"
        },
        {
          "internalType": "address",
          "name": "_user",
          "type": "address"
        }
      ],
      "name": "Logout",
      "outputs": [
        {
          "internalType": "string",
          "name": "",
          "type": "string"
        }
      ],
      "stateMutability": "payable",
      "type": "function",
      "payable": true
    },
    {
      "inputs": [
        {
          "internalType": "address",
          "name": "_LoginContract",
          "type": "address"
        },
        {
          "internalType": "string",
          "name": "_enterPass",
          "type": "string"
        }
      ],
      "name": "userLogin",
      "outputs": [
        {
          "internalType": "string",
          "name": "",
          "type": "string"
        }
      ],
      "stateMutability": "payable",
      "type": "function",
      "payable": true
    },
    {
      "inputs": [
        {
          "internalType": "address",
          "name": "_LoginContract",
          "type": "address"
        },
        {
          "internalType": "string",
          "name": "_enterPass",
          "type": "string"
        }
      ],
      "name": "test",
      "outputs": [
        {
          "internalType": "bool",
          "name": "",
          "type": "bool"
        }
      ],
      "stateMutability": "view",
      "type": "function",
      "constant": true
    },
    {
      "inputs": [
        {
          "internalType": "address",
          "name": "_LoginContract",
          "type": "address"
        },
        {
          "internalType": "address",
          "name": "_user",
          "type": "address"
        }
      ],
      "name": "CredToken",
      "outputs": [
        {
          "internalType": "bool",
          "name": "",
          "type": "bool"
        }
      ],
      "stateMutability": "view",
      "type": "function",
      "constant": true
    }
  ],
  "bytecode": "0x60806040526000805534801561001457600080fd5b50610bc4806100246000396000f3fe6080604052600436106100555760003560e01c8063362760b51461005a5780636fe1b4241461008a578063b3db08bf146100c7578063ba275631146100f7578063dff0f20814610134578063eeda149c14610171575b600080fd5b610074600480360381019061006f919061079a565b6101ae565b6040516100819190610873565b60405180910390f35b34801561009657600080fd5b506100b160048036038101906100ac91906109ca565b6102d3565b6040516100be9190610a41565b60405180910390f35b6100e160048036038101906100dc91906109ca565b61035c565b6040516100ee9190610873565b60405180910390f35b34801561010357600080fd5b5061011e6004803603810190610119919061079a565b610521565b60405161012b9190610a41565b60405180910390f35b34801561014057600080fd5b5061015b60048036038101906101569190610a5c565b6105aa565b6040516101689190610a41565b60405180910390f35b34801561017d57600080fd5b5061019860048036038101906101939190610a5c565b610603565b6040516101a59190610a41565b60405180910390f35b6060600115158373ffffffffffffffffffffffffffffffffffffffff166305f8c896846040518263ffffffff1660e01b81526004016101ed9190610a98565b602060405180830381865afa15801561020a573d6000803e3d6000fd5b505050506040513d601f19601f8201168201806040525081019061022e9190610adf565b15151461023a57600080fd5b6000600160008573ffffffffffffffffffffffffffffffffffffffff1673ffffffffffffffffffffffffffffffffffffffff16815260200190815260200160002060000160016101000a81548160ff0219169083151502179055506040518060400160405280600a81526020017f4c6f67676564206f757400000000000000000000000000000000000000000000815250905092915050565b6000808373ffffffffffffffffffffffffffffffffffffffff16630b2d8924846040518263ffffffff1660e01b815260040161030f9190610873565b602060405180830381865afa15801561032c573d6000803e3d6000fd5b505050506040513d601f19601f820116820180604052508101906103509190610adf565b90508091505092915050565b606060011515600160008573ffffffffffffffffffffffffffffffffffffffff1673ffffffffffffffffffffffffffffffffffffffff16815260200190815260200160002060000160009054906101000a900460ff161515146103be57600080fd5b60008373ffffffffffffffffffffffffffffffffffffffff166305f8c896336040518263ffffffff1660e01b81526004016103f99190610a98565b602060405180830381865afa158015610416573d6000803e3d6000fd5b505050506040513d601f19601f8201168201806040525081019061043a9190610adf565b90506001151581151514156104e15760018060008673ffffffffffffffffffffffffffffffffffffffff1673ffffffffffffffffffffffffffffffffffffffff16815260200190815260200160002060000160016101000a81548160ff0219169083151502179055506040518060400160405280600581526020017f4c6f67696e00000000000000000000000000000000000000000000000000000081525091505061051b565b6040518060400160405280600f81526020017f556e61626c6520746f204c6f67696e00000000000000000000000000000000008152509150505b92915050565b6000808373ffffffffffffffffffffffffffffffffffffffff166305f8c896846040518263ffffffff1660e01b815260040161055d9190610a98565b602060405180830381865afa15801561057a573d6000803e3d6000fd5b505050506040513d601f19601f8201168201806040525081019061059e9190610adf565b90508091505092915050565b6000600160008373ffffffffffffffffffffffffffffffffffffffff1673ffffffffffffffffffffffffffffffffffffffff16815260200190815260200160002060000160019054906101000a900460ff169050919050565b600060011515600160008473ffffffffffffffffffffffffffffffffffffffff1673ffffffffffffffffffffffffffffffffffffffff16815260200190815260200160002060000160009054906101000a900460ff161515141561066a5760009050610723565b604051806040016040528060011515815260200160001515815250600160008473ffffffffffffffffffffffffffffffffffffffff1673ffffffffffffffffffffffffffffffffffffffff16815260200190815260200160002060008201518160000160006101000a81548160ff02191690831515021790555060208201518160000160016101000a81548160ff02191690831515021790555090505060008081548092919061071990610b45565b9190505550600190505b919050565b6000604051905090565b600080fd5b600080fd5b600073ffffffffffffffffffffffffffffffffffffffff82169050919050565b60006107678261073c565b9050919050565b6107778161075c565b811461078257600080fd5b50565b6000813590506107948161076e565b92915050565b600080604083850312156107b1576107b0610732565b5b60006107bf85828601610785565b92505060206107d085828601610785565b9150509250929050565b600081519050919050565b600082825260208201905092915050565b60005b838110156108145780820151818401526020810190506107f9565b83811115610823576000848401525b50505050565b6000601f19601f8301169050919050565b6000610845826107da565b61084f81856107e5565b935061085f8185602086016107f6565b61086881610829565b840191505092915050565b6000602082019050818103600083015261088d818461083a565b905092915050565b600080fd5b600080fd5b7f4e487b7100000000000000000000000000000000000000000000000000000000600052604160045260246000fd5b6108d782610829565b810181811067ffffffffffffffff821117156108f6576108f561089f565b5b80604052505050565b6000610909610728565b905061091582826108ce565b919050565b600067ffffffffffffffff8211156109355761093461089f565b5b61093e82610829565b9050602081019050919050565b82818337600083830152505050565b600061096d6109688461091a565b6108ff565b9050828152602081018484840111156109895761098861089a565b5b61099484828561094b565b509392505050565b600082601f8301126109b1576109b0610895565b5b81356109c184826020860161095a565b91505092915050565b600080604083850312156109e1576109e0610732565b5b60006109ef85828601610785565b925050602083013567ffffffffffffffff811115610a1057610a0f610737565b5b610a1c8582860161099c565b9150509250929050565b60008115159050919050565b610a3b81610a26565b82525050565b6000602082019050610a566000830184610a32565b92915050565b600060208284031215610a7257610a71610732565b5b6000610a8084828501610785565b91505092915050565b610a928161075c565b82525050565b6000602082019050610aad6000830184610a89565b92915050565b610abc81610a26565b8114610ac757600080fd5b50565b600081519050610ad981610ab3565b92915050565b600060208284031215610af557610af4610732565b5b6000610b0384828501610aca565b91505092915050565b7f4e487b7100000000000000000000000000000000000000000000000000000000600052601160045260246000fd5b6000819050919050565b6000610b5082610b3b565b91507fffffffffffffffffffffffffffffffffffffffffffffffffffffffffffffffff821415610b8357610b82610b0c565b5b60018201905091905056fea2646970667358221220eea9dcb307002127814774a874311d28e9b3da34693568c611a16a4eec16eabb64736f6c634300080a0033",
  "immutableReferences": {},
  "source": "pragma solidity ^0.8.10;\n// SPDX-License-Identifier: MIT\nimport \"@openzeppelin/contracts/token/ERC1155/ERC1155.sol\";\nimport \"./PrivateAccessToken.sol\";\n\n//interface for other contract to read status\ninterface LoginContract_Interface{\n    function Login(string memory _enterPass)external view returns(bool);\n    function CheckUserCreds(address _user)external view returns(bool);\n}\ncontract LoginContract is PrivateAccessToken,LoginContract_Interface{\n    //new token that will allow for a smart contract to check credentials \n    string private Login_Pass;\n    event ContractAddress(address indexed _ContractSelf);\n\n\n    //lauch Login contract with PrivateAccessToken Contract as dependancy\n    constructor(string memory _Pass ,string memory _URI)PrivateAccessToken(_Pass,_URI){\n        emit ContractAddress(address(this));\n    }\n\n    //Dapp Contracts can check passwords\n    function Login(string memory _enterPass)external view returns(bool){\n        if(keccak256(abi.encodePacked(ViewData())) == keccak256(abi.encodePacked(_enterPass))){\n            return true;\n        } else{\n            return false;\n        }\n    }\n    //I can grab the OnlyToken modifier from the Inherited contract\n    function User_Login(string memory _enterPass)public view OnlyToken returns(bool){\n        if(keccak256(abi.encodePacked(ViewData())) == keccak256(abi.encodePacked(_enterPass))){\n            return true;\n        } else{\n            return false;\n        }\n    }\n    // external source can check if user data holds correct token\n    function CheckUserCreds(address _user)public view returns(bool){\n        if(PrivateAccessToken.OnlyIf(_user,1) == true){\n            return true;\n        } else {\n            return false;\n        }\n    }\n}\n//DApps can have this contract be the login contract for users to use this application\ncontract DAppLoginContract{\n    uint TotalAccounts =0;\n    constructor(){}\n    \n    mapping(address => Logins) logins;\n    //Keeps list of Login Contracts\n    struct Logins{\n        bool exist;\n        bool status;\n    }\n    //User can add their login contract to this DApp so this Daap can check their credentials in reference to the logincontract\n    function Register(address _LoginContract)public returns(bool){\n        if(logins[_LoginContract].exist == true){\n            return false;\n        }else{\n            logins[_LoginContract] =Logins(true,false);\n            TotalAccounts++;\n            return true;\n        }\n    }\n    //Checks Current Users Login Contracts\n    function LoginStatus(address _LoginContract) public view returns(bool){\n        return logins[_LoginContract].status;\n    }\n    //user Changes Login status\n    function Logout(address _LoginContract,address _user)public payable returns(string memory){\n        require(LoginContract_Interface(_LoginContract).CheckUserCreds(_user) == true);\n        logins[_LoginContract].status= false;\n        return \"Logged out\";\n    }\n    //user can login and have DApp check login COntract for validity\n    // contract address & password to login\n    function userLogin(address _LoginContract,string memory _enterPass)public payable returns(string memory){\n        require(logins[_LoginContract].exist==true);\n        //bool Password = LoginContract_Interface(_LoginContract).Login(_enterPass);  //Has correct Password\n        bool Creds = LoginContract_Interface(_LoginContract).CheckUserCreds(msg.sender); //Has correct Credential Token\n        //Check Login Contract and Registration\n        if(Creds==true){\n            logins[_LoginContract].status=true;\n            return \"Login\";  //user successfully logs in!\n        } else{\n            return \"Unable to Login\"; //User fails to have correct NFT access or incorect password\n        }\n    }\n    function test(address _LoginContract,string memory _enterPass)public view returns(bool){\n        bool Password = LoginContract_Interface(_LoginContract).Login(_enterPass);  //Has correct Password\n        return Password;\n    }\n    //check user\n    function CredToken(address _LoginContract,address _user)public view returns(bool){\n        bool Creds = LoginContract_Interface(_LoginContract).CheckUserCreds(_user);\n        return Creds;\n    }\n}\n//- Dev: Quincy J\n",
  "sourcePath": "/Users/Q/Documents/GitHub/LoginContract/contracts/LoginContract.sol",
  "compiler": {
    "name": "solc",
    "version": "0.8.10+commit.fc410830.Emscripten.clang"
  },
  "schemaVersion": "3.4.3",
  "updatedAt": "2022-02-17T20:28:26.217Z",
  "networkType": "ethereum",
  "devdoc": {
    "kind": "dev",
    "methods": {},
    "version": 1
  },
  "userdoc": {
    "kind": "user",
    "methods": {},
    "version": 1
  }
}