{
  "contractName": "LoginContract",
  "abi": [
    {
      "inputs": [
        {
          "internalType": "string",
          "name": "_Pass",
          "type": "string"
        },
        {
          "internalType": "string",
          "name": "_URI",
          "type": "string"
        }
      ],
      "stateMutability": "nonpayable",
      "type": "constructor"
    },
    {
      "anonymous": false,
      "inputs": [
        {
          "indexed": true,
          "internalType": "address",
          "name": "account",
          "type": "address"
        },
        {
          "indexed": true,
          "internalType": "address",
          "name": "operator",
          "type": "address"
        },
        {
          "indexed": false,
          "internalType": "bool",
          "name": "approved",
          "type": "bool"
        }
      ],
      "name": "ApprovalForAll",
      "type": "event"
    },
    {
      "anonymous": false,
      "inputs": [
        {
          "indexed": true,
          "internalType": "address",
          "name": "_ContractSelf",
          "type": "address"
        }
      ],
      "name": "ContractAddress",
      "type": "event"
    },
    {
      "anonymous": false,
      "inputs": [
        {
          "indexed": true,
          "internalType": "address",
          "name": "operator",
          "type": "address"
        },
        {
          "indexed": true,
          "internalType": "address",
          "name": "from",
          "type": "address"
        },
        {
          "indexed": true,
          "internalType": "address",
          "name": "to",
          "type": "address"
        },
        {
          "indexed": false,
          "internalType": "uint256[]",
          "name": "ids",
          "type": "uint256[]"
        },
        {
          "indexed": false,
          "internalType": "uint256[]",
          "name": "values",
          "type": "uint256[]"
        }
      ],
      "name": "TransferBatch",
      "type": "event"
    },
    {
      "anonymous": false,
      "inputs": [
        {
          "indexed": true,
          "internalType": "address",
          "name": "operator",
          "type": "address"
        },
        {
          "indexed": true,
          "internalType": "address",
          "name": "from",
          "type": "address"
        },
        {
          "indexed": true,
          "internalType": "address",
          "name": "to",
          "type": "address"
        },
        {
          "indexed": false,
          "internalType": "uint256",
          "name": "id",
          "type": "uint256"
        },
        {
          "indexed": false,
          "internalType": "uint256",
          "name": "value",
          "type": "uint256"
        }
      ],
      "name": "TransferSingle",
      "type": "event"
    },
    {
      "anonymous": false,
      "inputs": [
        {
          "indexed": false,
          "internalType": "string",
          "name": "value",
          "type": "string"
        },
        {
          "indexed": true,
          "internalType": "uint256",
          "name": "id",
          "type": "uint256"
        }
      ],
      "name": "URI",
      "type": "event"
    },
    {
      "inputs": [],
      "name": "ViewData",
      "outputs": [
        {
          "internalType": "string",
          "name": "",
          "type": "string"
        }
      ],
      "stateMutability": "view",
      "type": "function"
    },
    {
      "inputs": [],
      "name": "ViewStatus",
      "outputs": [
        {
          "internalType": "uint256",
          "name": "",
          "type": "uint256"
        }
      ],
      "stateMutability": "view",
      "type": "function"
    },
    {
      "inputs": [
        {
          "internalType": "address",
          "name": "account",
          "type": "address"
        },
        {
          "internalType": "uint256",
          "name": "id",
          "type": "uint256"
        }
      ],
      "name": "balanceOf",
      "outputs": [
        {
          "internalType": "uint256",
          "name": "",
          "type": "uint256"
        }
      ],
      "stateMutability": "view",
      "type": "function"
    },
    {
      "inputs": [
        {
          "internalType": "address[]",
          "name": "accounts",
          "type": "address[]"
        },
        {
          "internalType": "uint256[]",
          "name": "ids",
          "type": "uint256[]"
        }
      ],
      "name": "balanceOfBatch",
      "outputs": [
        {
          "internalType": "uint256[]",
          "name": "",
          "type": "uint256[]"
        }
      ],
      "stateMutability": "view",
      "type": "function"
    },
    {
      "inputs": [
        {
          "internalType": "address",
          "name": "account",
          "type": "address"
        },
        {
          "internalType": "address",
          "name": "operator",
          "type": "address"
        }
      ],
      "name": "isApprovedForAll",
      "outputs": [
        {
          "internalType": "bool",
          "name": "",
          "type": "bool"
        }
      ],
      "stateMutability": "view",
      "type": "function"
    },
    {
      "inputs": [
        {
          "internalType": "address",
          "name": "from",
          "type": "address"
        },
        {
          "internalType": "address",
          "name": "to",
          "type": "address"
        },
        {
          "internalType": "uint256[]",
          "name": "ids",
          "type": "uint256[]"
        },
        {
          "internalType": "uint256[]",
          "name": "amounts",
          "type": "uint256[]"
        },
        {
          "internalType": "bytes",
          "name": "data",
          "type": "bytes"
        }
      ],
      "name": "safeBatchTransferFrom",
      "outputs": [],
      "stateMutability": "nonpayable",
      "type": "function"
    },
    {
      "inputs": [
        {
          "internalType": "address",
          "name": "from",
          "type": "address"
        },
        {
          "internalType": "address",
          "name": "to",
          "type": "address"
        },
        {
          "internalType": "uint256",
          "name": "id",
          "type": "uint256"
        },
        {
          "internalType": "uint256",
          "name": "amount",
          "type": "uint256"
        },
        {
          "internalType": "bytes",
          "name": "data",
          "type": "bytes"
        }
      ],
      "name": "safeTransferFrom",
      "outputs": [],
      "stateMutability": "nonpayable",
      "type": "function"
    },
    {
      "inputs": [
        {
          "internalType": "address",
          "name": "operator",
          "type": "address"
        },
        {
          "internalType": "bool",
          "name": "approved",
          "type": "bool"
        }
      ],
      "name": "setApprovalForAll",
      "outputs": [],
      "stateMutability": "nonpayable",
      "type": "function"
    },
    {
      "inputs": [
        {
          "internalType": "bytes4",
          "name": "interfaceId",
          "type": "bytes4"
        }
      ],
      "name": "supportsInterface",
      "outputs": [
        {
          "internalType": "bool",
          "name": "",
          "type": "bool"
        }
      ],
      "stateMutability": "view",
      "type": "function"
    },
    {
      "inputs": [
        {
          "internalType": "uint256",
          "name": "",
          "type": "uint256"
        }
      ],
      "name": "uri",
      "outputs": [
        {
          "internalType": "string",
          "name": "",
          "type": "string"
        }
      ],
      "stateMutability": "view",
      "type": "function"
    },
    {
      "inputs": [
        {
          "internalType": "string",
          "name": "_enterPass",
          "type": "string"
        }
      ],
      "name": "Login",
      "outputs": [
        {
          "internalType": "bool",
          "name": "",
          "type": "bool"
        }
      ],
      "stateMutability": "view",
      "type": "function"
    },
    {
      "inputs": [
        {
          "internalType": "address",
          "name": "_user",
          "type": "address"
        }
      ],
      "name": "CheckUserCreds",
      "outputs": [
        {
          "internalType": "bool",
          "name": "",
          "type": "bool"
        }
      ],
      "stateMutability": "view",
      "type": "function"
    }
  ],
  "bytecode": "0x6080604052600060045560016005553480156200001b57600080fd5b50604051620037a9380380620037a98339818101604052810190620000419190620007ae565b8181806200005581620000e260201b60201c565b5081600390805190602001906200006e92919062000561565b506200009533600454600160405180602001604052806000815250620000fe60201b60201c565b50503073ffffffffffffffffffffffffffffffffffffffff167f1a0f921ce3c6f2f0f6be5b624a487bc1d5143e1fd1833154f39ab63e13d8975560405160405180910390a2505062000e4d565b8060029080519060200190620000fa92919062000561565b5050565b600073ffffffffffffffffffffffffffffffffffffffff168473ffffffffffffffffffffffffffffffffffffffff16141562000171576040517f08c379a00000000000000000000000000000000000000000000000000000000081526004016200016890620008ba565b60405180910390fd5b600062000183620002c360201b60201c565b9050620001bc816000876200019e88620002cb60201b60201c565b620001af88620002cb60201b60201c565b876200034c60201b60201c565b8260008086815260200190815260200160002060008773ffffffffffffffffffffffffffffffffffffffff1673ffffffffffffffffffffffffffffffffffffffff16815260200190815260200160002060008282546200021d919062000915565b925050819055508473ffffffffffffffffffffffffffffffffffffffff16600073ffffffffffffffffffffffffffffffffffffffff168273ffffffffffffffffffffffffffffffffffffffff167fc3d58168c5ae7397731d063d5bbf3d657854427343f4c083240f7aacaa2d0f6287876040516200029d92919062000983565b60405180910390a4620002bc816000878787876200035460201b60201c565b5050505050565b600033905090565b60606000600167ffffffffffffffff811115620002ed57620002ec62000640565b5b6040519080825280602002602001820160405280156200031c5781602001602082028036833780820191505090505b5090508281600081518110620003375762000336620009b0565b5b60200260200101818152505080915050919050565b505050505050565b620003808473ffffffffffffffffffffffffffffffffffffffff166200054e60201b6200094c1760201c565b1562000546578373ffffffffffffffffffffffffffffffffffffffff1663f23a6e6187878686866040518663ffffffff1660e01b8152600401620003c995949392919062000a81565b6020604051808303816000875af19250505080156200040857506040513d601f19601f8201168201806040525081019062000405919062000b42565b60015b620004ba576200041762000b81565b806308c379a014156200047b57506200042f62000ba6565b806200043c57506200047d565b806040517f08c379a000000000000000000000000000000000000000000000000000000000815260040162000472919062000c94565b60405180910390fd5b505b6040517f08c379a0000000000000000000000000000000000000000000000000000000008152600401620004b19062000d2e565b60405180910390fd5b63f23a6e6160e01b7bffffffffffffffffffffffffffffffffffffffffffffffffffffffff1916817bffffffffffffffffffffffffffffffffffffffffffffffffffffffff19161462000544576040517f08c379a00000000000000000000000000000000000000000000000000000000081526004016200053b9062000dc6565b60405180910390fd5b505b505050505050565b600080823b905060008111915050919050565b8280546200056f9062000e17565b90600052602060002090601f016020900481019282620005935760008555620005df565b82601f10620005ae57805160ff1916838001178555620005df565b82800160010185558215620005df579182015b82811115620005de578251825591602001919060010190620005c1565b5b509050620005ee9190620005f2565b5090565b5b808211156200060d576000816000905550600101620005f3565b5090565b6000604051905090565b600080fd5b600080fd5b600080fd5b600080fd5b6000601f19601f8301169050919050565b7f4e487b7100000000000000000000000000000000000000000000000000000000600052604160045260246000fd5b6200067a826200062f565b810181811067ffffffffffffffff821117156200069c576200069b62000640565b5b80604052505050565b6000620006b162000611565b9050620006bf82826200066f565b919050565b600067ffffffffffffffff821115620006e257620006e162000640565b5b620006ed826200062f565b9050602081019050919050565b60005b838110156200071a578082015181840152602081019050620006fd565b838111156200072a576000848401525b50505050565b6000620007476200074184620006c4565b620006a5565b9050828152602081018484840111156200076657620007656200062a565b5b62000773848285620006fa565b509392505050565b600082601f83011262000793576200079262000625565b5b8151620007a584826020860162000730565b91505092915050565b60008060408385031215620007c857620007c76200061b565b5b600083015167ffffffffffffffff811115620007e957620007e862000620565b5b620007f7858286016200077b565b925050602083015167ffffffffffffffff8111156200081b576200081a62000620565b5b62000829858286016200077b565b9150509250929050565b600082825260208201905092915050565b7f455243313135353a206d696e7420746f20746865207a65726f2061646472657360008201527f7300000000000000000000000000000000000000000000000000000000000000602082015250565b6000620008a260218362000833565b9150620008af8262000844565b604082019050919050565b60006020820190508181036000830152620008d58162000893565b9050919050565b6000819050919050565b7f4e487b7100000000000000000000000000000000000000000000000000000000600052601160045260246000fd5b60006200092282620008dc565b91506200092f83620008dc565b9250827fffffffffffffffffffffffffffffffffffffffffffffffffffffffffffffffff03821115620009675762000966620008e6565b5b828201905092915050565b6200097d81620008dc565b82525050565b60006040820190506200099a600083018562000972565b620009a9602083018462000972565b9392505050565b7f4e487b7100000000000000000000000000000000000000000000000000000000600052603260045260246000fd5b600073ffffffffffffffffffffffffffffffffffffffff82169050919050565b600062000a0c82620009df565b9050919050565b62000a1e81620009ff565b82525050565b600081519050919050565b600082825260208201905092915050565b600062000a4d8262000a24565b62000a59818562000a2f565b935062000a6b818560208601620006fa565b62000a76816200062f565b840191505092915050565b600060a08201905062000a98600083018862000a13565b62000aa7602083018762000a13565b62000ab6604083018662000972565b62000ac5606083018562000972565b818103608083015262000ad9818462000a40565b90509695505050505050565b60007fffffffff0000000000000000000000000000000000000000000000000000000082169050919050565b62000b1c8162000ae5565b811462000b2857600080fd5b50565b60008151905062000b3c8162000b11565b92915050565b60006020828403121562000b5b5762000b5a6200061b565b5b600062000b6b8482850162000b2b565b91505092915050565b60008160e01c9050919050565b600060033d111562000ba35760046000803e62000ba060005162000b74565b90505b90565b600060443d101562000bb85762000c45565b62000bc262000611565b60043d036004823e80513d602482011167ffffffffffffffff8211171562000bec57505062000c45565b808201805167ffffffffffffffff81111562000c0c575050505062000c45565b80602083010160043d03850181111562000c2b57505050505062000c45565b62000c3c826020018501866200066f565b82955050505050505b90565b600081519050919050565b600062000c608262000c48565b62000c6c818562000833565b935062000c7e818560208601620006fa565b62000c89816200062f565b840191505092915050565b6000602082019050818103600083015262000cb0818462000c53565b905092915050565b7f455243313135353a207472616e7366657220746f206e6f6e204552433131353560008201527f526563656976657220696d706c656d656e746572000000000000000000000000602082015250565b600062000d1660348362000833565b915062000d238262000cb8565b604082019050919050565b6000602082019050818103600083015262000d498162000d07565b9050919050565b7f455243313135353a204552433131353552656365697665722072656a6563746560008201527f6420746f6b656e73000000000000000000000000000000000000000000000000602082015250565b600062000dae60288362000833565b915062000dbb8262000d50565b604082019050919050565b6000602082019050818103600083015262000de18162000d9f565b9050919050565b7f4e487b7100000000000000000000000000000000000000000000000000000000600052602260045260246000fd5b6000600282049050600182168062000e3057607f821691505b6020821081141562000e475762000e4662000de8565b5b50919050565b61294c8062000e5d6000396000f3fe608060405234801561001057600080fd5b50600436106100b35760003560e01c80632eb2c2d6116100715780632eb2c2d6146101c65780634e1273f4146101e2578063a22cb46514610212578063cd31de7a1461022e578063e985e9c51461024c578063f242432a1461027c576100b3565b8062fdd58e146100b857806301ffc9a7146100e857806305f8c89614610118578063087f477a146101485780630b2d8924146101665780630e89341c14610196575b600080fd5b6100d260048036038101906100cd91906115d6565b610298565b6040516100df9190611625565b60405180910390f35b61010260048036038101906100fd9190611698565b610361565b60405161010f91906116e0565b60405180910390f35b610132600480360381019061012d91906116fb565b610443565b60405161013f91906116e0565b60405180910390f35b61015061046d565b60405161015d9190611625565b60405180910390f35b610180600480360381019061017b919061186e565b61047f565b60405161018d91906116e0565b60405180910390f35b6101b060048036038101906101ab91906118b7565b610508565b6040516101bd919061196c565b60405180910390f35b6101e060048036038101906101db9190611af7565b61059c565b005b6101fc60048036038101906101f79190611c89565b61063d565b6040516102099190611dbf565b60405180910390f35b61022c60048036038101906102279190611e0d565b610756565b005b61023661076c565b604051610243919061196c565b60405180910390f35b61026660048036038101906102619190611e4d565b610817565b60405161027391906116e0565b60405180910390f35b61029660048036038101906102919190611e8d565b6108ab565b005b60008073ffffffffffffffffffffffffffffffffffffffff168373ffffffffffffffffffffffffffffffffffffffff161415610309576040517f08c379a000000000000000000000000000000000000000000000000000000000815260040161030090611f96565b60405180910390fd5b60008083815260200190815260200160002060008473ffffffffffffffffffffffffffffffffffffffff1673ffffffffffffffffffffffffffffffffffffffff16815260200190815260200160002054905092915050565b60007fd9b67a26000000000000000000000000000000000000000000000000000000007bffffffffffffffffffffffffffffffffffffffffffffffffffffffff1916827bffffffffffffffffffffffffffffffffffffffffffffffffffffffff1916148061042c57507f0e89341c000000000000000000000000000000000000000000000000000000007bffffffffffffffffffffffffffffffffffffffffffffffffffffffff1916827bffffffffffffffffffffffffffffffffffffffffffffffffffffffff1916145b8061043c575061043b8261095f565b5b9050919050565b600060011515610452836109c9565b151514156104635760019050610468565b600090505b919050565b600061047a336000610298565b905090565b60006001151561048e336109c9565b15151461049a57600080fd5b816040516020016104ab9190611ff2565b604051602081830303815290604052805190602001206104c961076c565b6040516020016104d99190611ff2565b6040516020818303038152906040528051906020012014156104fe5760019050610503565b600090505b919050565b60606002805461051790612038565b80601f016020809104026020016040519081016040528092919081815260200182805461054390612038565b80156105905780601f1061056557610100808354040283529160200191610590565b820191906000526020600020905b81548152906001019060200180831161057357829003601f168201915b50505050509050919050565b6105a46109f1565b73ffffffffffffffffffffffffffffffffffffffff168573ffffffffffffffffffffffffffffffffffffffff1614806105ea57506105e9856105e46109f1565b610817565b5b610629576040517f08c379a0000000000000000000000000000000000000000000000000000000008152600401610620906120dc565b60405180910390fd5b61063685858585856109f9565b5050505050565b60608151835114610683576040517f08c379a000000000000000000000000000000000000000000000000000000000815260040161067a9061216e565b60405180910390fd5b6000835167ffffffffffffffff8111156106a05761069f611743565b5b6040519080825280602002602001820160405280156106ce5781602001602082028036833780820191505090505b50905060005b845181101561074b5761071b8582815181106106f3576106f261218e565b5b602002602001015185838151811061070e5761070d61218e565b5b6020026020010151610298565b82828151811061072e5761072d61218e565b5b60200260200101818152505080610744906121ec565b90506106d4565b508091505092915050565b6107686107616109f1565b8383610d0d565b5050565b60606001151561077b336109c9565b15151461078757600080fd5b6003805461079490612038565b80601f01602080910402602001604051908101604052809291908181526020018280546107c090612038565b801561080d5780601f106107e25761010080835404028352916020019161080d565b820191906000526020600020905b8154815290600101906020018083116107f057829003601f168201915b5050505050905090565b6000600160008473ffffffffffffffffffffffffffffffffffffffff1673ffffffffffffffffffffffffffffffffffffffff16815260200190815260200160002060008373ffffffffffffffffffffffffffffffffffffffff1673ffffffffffffffffffffffffffffffffffffffff16815260200190815260200160002060009054906101000a900460ff16905092915050565b6108b36109f1565b73ffffffffffffffffffffffffffffffffffffffff168573ffffffffffffffffffffffffffffffffffffffff1614806108f957506108f8856108f36109f1565b610817565b5b610938576040517f08c379a000000000000000000000000000000000000000000000000000000000815260040161092f906122a7565b60405180910390fd5b6109458585858585610e7a565b5050505050565b600080823b905060008111915050919050565b60007f01ffc9a7000000000000000000000000000000000000000000000000000000007bffffffffffffffffffffffffffffffffffffffffffffffffffffffff1916827bffffffffffffffffffffffffffffffffffffffffffffffffffffffff1916149050919050565b600060016109d8836000610298565b14156109e757600190506109ec565b600090505b919050565b600033905090565b8151835114610a3d576040517f08c379a0000000000000000000000000000000000000000000000000000000008152600401610a3490612339565b60405180910390fd5b600073ffffffffffffffffffffffffffffffffffffffff168473ffffffffffffffffffffffffffffffffffffffff161415610aad576040517f08c379a0000000000000000000000000000000000000000000000000000000008152600401610aa4906123cb565b60405180910390fd5b6000610ab76109f1565b9050610ac78187878787876110fc565b60005b8451811015610c78576000858281518110610ae857610ae761218e565b5b602002602001015190506000858381518110610b0757610b0661218e565b5b60200260200101519050600080600084815260200190815260200160002060008b73ffffffffffffffffffffffffffffffffffffffff1673ffffffffffffffffffffffffffffffffffffffff16815260200190815260200160002054905081811015610ba8576040517f08c379a0000000000000000000000000000000000000000000000000000000008152600401610b9f9061245d565b60405180910390fd5b81810360008085815260200190815260200160002060008c73ffffffffffffffffffffffffffffffffffffffff1673ffffffffffffffffffffffffffffffffffffffff168152602001908152602001600020819055508160008085815260200190815260200160002060008b73ffffffffffffffffffffffffffffffffffffffff1673ffffffffffffffffffffffffffffffffffffffff1681526020019081526020016000206000828254610c5d919061247d565b9250508190555050505080610c71906121ec565b9050610aca565b508473ffffffffffffffffffffffffffffffffffffffff168673ffffffffffffffffffffffffffffffffffffffff168273ffffffffffffffffffffffffffffffffffffffff167f4a39dc06d4c0dbc64b70af90fd698a233a518aa5d07e595d983b8c0526c8f7fb8787604051610cef9291906124d3565b60405180910390a4610d05818787878787611104565b505050505050565b8173ffffffffffffffffffffffffffffffffffffffff168373ffffffffffffffffffffffffffffffffffffffff161415610d7c576040517f08c379a0000000000000000000000000000000000000000000000000000000008152600401610d739061257c565b60405180910390fd5b80600160008573ffffffffffffffffffffffffffffffffffffffff1673ffffffffffffffffffffffffffffffffffffffff16815260200190815260200160002060008473ffffffffffffffffffffffffffffffffffffffff1673ffffffffffffffffffffffffffffffffffffffff16815260200190815260200160002060006101000a81548160ff0219169083151502179055508173ffffffffffffffffffffffffffffffffffffffff168373ffffffffffffffffffffffffffffffffffffffff167f17307eab39ab6107e8899845ad3d59bd9653f200f220920489ca2b5937696c3183604051610e6d91906116e0565b60405180910390a3505050565b600073ffffffffffffffffffffffffffffffffffffffff168473ffffffffffffffffffffffffffffffffffffffff161415610eea576040517f08c379a0000000000000000000000000000000000000000000000000000000008152600401610ee1906123cb565b60405180910390fd5b6000610ef46109f1565b9050610f14818787610f05886112dc565b610f0e886112dc565b876110fc565b600080600086815260200190815260200160002060008873ffffffffffffffffffffffffffffffffffffffff1673ffffffffffffffffffffffffffffffffffffffff16815260200190815260200160002054905083811015610fab576040517f08c379a0000000000000000000000000000000000000000000000000000000008152600401610fa29061245d565b60405180910390fd5b83810360008087815260200190815260200160002060008973ffffffffffffffffffffffffffffffffffffffff1673ffffffffffffffffffffffffffffffffffffffff168152602001908152602001600020819055508360008087815260200190815260200160002060008873ffffffffffffffffffffffffffffffffffffffff1673ffffffffffffffffffffffffffffffffffffffff1681526020019081526020016000206000828254611060919061247d565b925050819055508573ffffffffffffffffffffffffffffffffffffffff168773ffffffffffffffffffffffffffffffffffffffff168373ffffffffffffffffffffffffffffffffffffffff167fc3d58168c5ae7397731d063d5bbf3d657854427343f4c083240f7aacaa2d0f6288886040516110dd92919061259c565b60405180910390a46110f3828888888888611356565b50505050505050565b505050505050565b6111238473ffffffffffffffffffffffffffffffffffffffff1661094c565b156112d4578373ffffffffffffffffffffffffffffffffffffffff1663bc197c8187878686866040518663ffffffff1660e01b8152600401611169959493929190612629565b6020604051808303816000875af19250505080156111a557506040513d601f19601f820116820180604052508101906111a291906126a6565b60015b61124b576111b16126e0565b806308c379a0141561120e57506111c6612702565b806111d15750611210565b806040517f08c379a0000000000000000000000000000000000000000000000000000000008152600401611205919061196c565b60405180910390fd5b505b6040517f08c379a00000000000000000000000000000000000000000000000000000000081526004016112429061280a565b60405180910390fd5b63bc197c8160e01b7bffffffffffffffffffffffffffffffffffffffffffffffffffffffff1916817bffffffffffffffffffffffffffffffffffffffffffffffffffffffff1916146112d2576040517f08c379a00000000000000000000000000000000000000000000000000000000081526004016112c99061289c565b60405180910390fd5b505b505050505050565b60606000600167ffffffffffffffff8111156112fb576112fa611743565b5b6040519080825280602002602001820160405280156113295781602001602082028036833780820191505090505b50905082816000815181106113415761134061218e565b5b60200260200101818152505080915050919050565b6113758473ffffffffffffffffffffffffffffffffffffffff1661094c565b15611526578373ffffffffffffffffffffffffffffffffffffffff1663f23a6e6187878686866040518663ffffffff1660e01b81526004016113bb9594939291906128bc565b6020604051808303816000875af19250505080156113f757506040513d601f19601f820116820180604052508101906113f491906126a6565b60015b61149d576114036126e0565b806308c379a014156114605750611418612702565b806114235750611462565b806040517f08c379a0000000000000000000000000000000000000000000000000000000008152600401611457919061196c565b60405180910390fd5b505b6040517f08c379a00000000000000000000000000000000000000000000000000000000081526004016114949061280a565b60405180910390fd5b63f23a6e6160e01b7bffffffffffffffffffffffffffffffffffffffffffffffffffffffff1916817bffffffffffffffffffffffffffffffffffffffffffffffffffffffff191614611524576040517f08c379a000000000000000000000000000000000000000000000000000000000815260040161151b9061289c565b60405180910390fd5b505b505050505050565b6000604051905090565b600080fd5b600080fd5b600073ffffffffffffffffffffffffffffffffffffffff82169050919050565b600061156d82611542565b9050919050565b61157d81611562565b811461158857600080fd5b50565b60008135905061159a81611574565b92915050565b6000819050919050565b6115b3816115a0565b81146115be57600080fd5b50565b6000813590506115d0816115aa565b92915050565b600080604083850312156115ed576115ec611538565b5b60006115fb8582860161158b565b925050602061160c858286016115c1565b9150509250929050565b61161f816115a0565b82525050565b600060208201905061163a6000830184611616565b92915050565b60007fffffffff0000000000000000000000000000000000000000000000000000000082169050919050565b61167581611640565b811461168057600080fd5b50565b6000813590506116928161166c565b92915050565b6000602082840312156116ae576116ad611538565b5b60006116bc84828501611683565b91505092915050565b60008115159050919050565b6116da816116c5565b82525050565b60006020820190506116f560008301846116d1565b92915050565b60006020828403121561171157611710611538565b5b600061171f8482850161158b565b91505092915050565b600080fd5b600080fd5b6000601f19601f8301169050919050565b7f4e487b7100000000000000000000000000000000000000000000000000000000600052604160045260246000fd5b61177b82611732565b810181811067ffffffffffffffff8211171561179a57611799611743565b5b80604052505050565b60006117ad61152e565b90506117b98282611772565b919050565b600067ffffffffffffffff8211156117d9576117d8611743565b5b6117e282611732565b9050602081019050919050565b82818337600083830152505050565b600061181161180c846117be565b6117a3565b90508281526020810184848401111561182d5761182c61172d565b5b6118388482856117ef565b509392505050565b600082601f83011261185557611854611728565b5b81356118658482602086016117fe565b91505092915050565b60006020828403121561188457611883611538565b5b600082013567ffffffffffffffff8111156118a2576118a161153d565b5b6118ae84828501611840565b91505092915050565b6000602082840312156118cd576118cc611538565b5b60006118db848285016115c1565b91505092915050565b600081519050919050565b600082825260208201905092915050565b60005b8381101561191e578082015181840152602081019050611903565b8381111561192d576000848401525b50505050565b600061193e826118e4565b61194881856118ef565b9350611958818560208601611900565b61196181611732565b840191505092915050565b600060208201905081810360008301526119868184611933565b905092915050565b600067ffffffffffffffff8211156119a9576119a8611743565b5b602082029050602081019050919050565b600080fd5b60006119d26119cd8461198e565b6117a3565b905080838252602082019050602084028301858111156119f5576119f46119ba565b5b835b81811015611a1e5780611a0a88826115c1565b8452602084019350506020810190506119f7565b5050509392505050565b600082601f830112611a3d57611a3c611728565b5b8135611a4d8482602086016119bf565b91505092915050565b600067ffffffffffffffff821115611a7157611a70611743565b5b611a7a82611732565b9050602081019050919050565b6000611a9a611a9584611a56565b6117a3565b905082815260208101848484011115611ab657611ab561172d565b5b611ac18482856117ef565b509392505050565b600082601f830112611ade57611add611728565b5b8135611aee848260208601611a87565b91505092915050565b600080600080600060a08688031215611b1357611b12611538565b5b6000611b218882890161158b565b9550506020611b328882890161158b565b945050604086013567ffffffffffffffff811115611b5357611b5261153d565b5b611b5f88828901611a28565b935050606086013567ffffffffffffffff811115611b8057611b7f61153d565b5b611b8c88828901611a28565b925050608086013567ffffffffffffffff811115611bad57611bac61153d565b5b611bb988828901611ac9565b9150509295509295909350565b600067ffffffffffffffff821115611be157611be0611743565b5b602082029050602081019050919050565b6000611c05611c0084611bc6565b6117a3565b90508083825260208201905060208402830185811115611c2857611c276119ba565b5b835b81811015611c515780611c3d888261158b565b845260208401935050602081019050611c2a565b5050509392505050565b600082601f830112611c7057611c6f611728565b5b8135611c80848260208601611bf2565b91505092915050565b60008060408385031215611ca057611c9f611538565b5b600083013567ffffffffffffffff811115611cbe57611cbd61153d565b5b611cca85828601611c5b565b925050602083013567ffffffffffffffff811115611ceb57611cea61153d565b5b611cf785828601611a28565b9150509250929050565b600081519050919050565b600082825260208201905092915050565b6000819050602082019050919050565b611d36816115a0565b82525050565b6000611d488383611d2d565b60208301905092915050565b6000602082019050919050565b6000611d6c82611d01565b611d768185611d0c565b9350611d8183611d1d565b8060005b83811015611db2578151611d998882611d3c565b9750611da483611d54565b925050600181019050611d85565b5085935050505092915050565b60006020820190508181036000830152611dd98184611d61565b905092915050565b611dea816116c5565b8114611df557600080fd5b50565b600081359050611e0781611de1565b92915050565b60008060408385031215611e2457611e23611538565b5b6000611e328582860161158b565b9250506020611e4385828601611df8565b9150509250929050565b60008060408385031215611e6457611e63611538565b5b6000611e728582860161158b565b9250506020611e838582860161158b565b9150509250929050565b600080600080600060a08688031215611ea957611ea8611538565b5b6000611eb78882890161158b565b9550506020611ec88882890161158b565b9450506040611ed9888289016115c1565b9350506060611eea888289016115c1565b925050608086013567ffffffffffffffff811115611f0b57611f0a61153d565b5b611f1788828901611ac9565b9150509295509295909350565b7f455243313135353a2062616c616e636520717565727920666f7220746865207a60008201527f65726f2061646472657373000000000000000000000000000000000000000000602082015250565b6000611f80602b836118ef565b9150611f8b82611f24565b604082019050919050565b60006020820190508181036000830152611faf81611f73565b9050919050565b600081905092915050565b6000611fcc826118e4565b611fd68185611fb6565b9350611fe6818560208601611900565b80840191505092915050565b6000611ffe8284611fc1565b915081905092915050565b7f4e487b7100000000000000000000000000000000000000000000000000000000600052602260045260246000fd5b6000600282049050600182168061205057607f821691505b6020821081141561206457612063612009565b5b50919050565b7f455243313135353a207472616e736665722063616c6c6572206973206e6f742060008201527f6f776e6572206e6f7220617070726f7665640000000000000000000000000000602082015250565b60006120c66032836118ef565b91506120d18261206a565b604082019050919050565b600060208201905081810360008301526120f5816120b9565b9050919050565b7f455243313135353a206163636f756e747320616e6420696473206c656e67746860008201527f206d69736d617463680000000000000000000000000000000000000000000000602082015250565b60006121586029836118ef565b9150612163826120fc565b604082019050919050565b600060208201905081810360008301526121878161214b565b9050919050565b7f4e487b7100000000000000000000000000000000000000000000000000000000600052603260045260246000fd5b7f4e487b7100000000000000000000000000000000000000000000000000000000600052601160045260246000fd5b60006121f7826115a0565b91507fffffffffffffffffffffffffffffffffffffffffffffffffffffffffffffffff82141561222a576122296121bd565b5b600182019050919050565b7f455243313135353a2063616c6c6572206973206e6f74206f776e6572206e6f7260008201527f20617070726f7665640000000000000000000000000000000000000000000000602082015250565b60006122916029836118ef565b915061229c82612235565b604082019050919050565b600060208201905081810360008301526122c081612284565b9050919050565b7f455243313135353a2069647320616e6420616d6f756e7473206c656e6774682060008201527f6d69736d61746368000000000000000000000000000000000000000000000000602082015250565b60006123236028836118ef565b915061232e826122c7565b604082019050919050565b6000602082019050818103600083015261235281612316565b9050919050565b7f455243313135353a207472616e7366657220746f20746865207a65726f20616460008201527f6472657373000000000000000000000000000000000000000000000000000000602082015250565b60006123b56025836118ef565b91506123c082612359565b604082019050919050565b600060208201905081810360008301526123e4816123a8565b9050919050565b7f455243313135353a20696e73756666696369656e742062616c616e636520666f60008201527f72207472616e7366657200000000000000000000000000000000000000000000602082015250565b6000612447602a836118ef565b9150612452826123eb565b604082019050919050565b600060208201905081810360008301526124768161243a565b9050919050565b6000612488826115a0565b9150612493836115a0565b9250827fffffffffffffffffffffffffffffffffffffffffffffffffffffffffffffffff038211156124c8576124c76121bd565b5b828201905092915050565b600060408201905081810360008301526124ed8185611d61565b905081810360208301526125018184611d61565b90509392505050565b7f455243313135353a2073657474696e6720617070726f76616c2073746174757360008201527f20666f722073656c660000000000000000000000000000000000000000000000602082015250565b60006125666029836118ef565b91506125718261250a565b604082019050919050565b6000602082019050818103600083015261259581612559565b9050919050565b60006040820190506125b16000830185611616565b6125be6020830184611616565b9392505050565b6125ce81611562565b82525050565b600081519050919050565b600082825260208201905092915050565b60006125fb826125d4565b61260581856125df565b9350612615818560208601611900565b61261e81611732565b840191505092915050565b600060a08201905061263e60008301886125c5565b61264b60208301876125c5565b818103604083015261265d8186611d61565b905081810360608301526126718185611d61565b9050818103608083015261268581846125f0565b90509695505050505050565b6000815190506126a08161166c565b92915050565b6000602082840312156126bc576126bb611538565b5b60006126ca84828501612691565b91505092915050565b60008160e01c9050919050565b600060033d11156126ff5760046000803e6126fc6000516126d3565b90505b90565b600060443d101561271257612795565b61271a61152e565b60043d036004823e80513d602482011167ffffffffffffffff82111715612742575050612795565b808201805167ffffffffffffffff8111156127605750505050612795565b80602083010160043d03850181111561277d575050505050612795565b61278c82602001850186611772565b82955050505050505b90565b7f455243313135353a207472616e7366657220746f206e6f6e204552433131353560008201527f526563656976657220696d706c656d656e746572000000000000000000000000602082015250565b60006127f46034836118ef565b91506127ff82612798565b604082019050919050565b60006020820190508181036000830152612823816127e7565b9050919050565b7f455243313135353a204552433131353552656365697665722072656a6563746560008201527f6420746f6b656e73000000000000000000000000000000000000000000000000602082015250565b60006128866028836118ef565b91506128918261282a565b604082019050919050565b600060208201905081810360008301526128b581612879565b9050919050565b600060a0820190506128d160008301886125c5565b6128de60208301876125c5565b6128eb6040830186611616565b6128f86060830185611616565b818103608083015261290a81846125f0565b9050969550505050505056fea2646970667358221220406f1d40ff56fce5db3907b1d24a93045623d124c130825e92fafa777834a29164736f6c634300080a0033",
  "immutableReferences": {},
  "source": "pragma solidity ^0.8.10;\n// SPDX-License-Identifier: MIT\nimport \"@openzeppelin/contracts/token/ERC1155/ERC1155.sol\";\nimport \"./PrivateAccessToken.sol\";\n\n//interface for other contract to read status\ninterface LoginContract_Interface{\n    function Login(string memory _enterPass)external view returns(bool);\n    function CheckUserCreds(address _user)external view returns(bool);\n}\ncontract LoginContract is PrivateAccessToken,LoginContract_Interface{\n    //new token that will allow for a smart contract to check credentials \n    uint PermissionToken =1;\n    string private Login_Pass;\n    event ContractAddress(address indexed _ContractSelf);\n\n\n    //lauch Login contract with PrivateAccessToken Contract as dependancy\n    constructor(string memory _Pass ,string memory _URI)PrivateAccessToken(_Pass,_URI){\n        emit ContractAddress(address(this));\n    }\n\n    //I can grab the OnlyToken modifier from the Inherited contract to only allow to token holder to mint permission tokens\n    function Login(string memory _enterPass)public view OnlyToken returns(bool){\n        if(keccak256(abi.encodePacked(ViewData())) == keccak256(abi.encodePacked(_enterPass))){\n            return true;\n        } else{\n            return false;\n        }\n    }\n    // external source can check if user data holds correct token\n    function CheckUserCreds(address _user)public view returns(bool){\n        if(PrivateAccessToken.OnlyIf(_user) == true){\n            return true;\n        } else {\n            return false;\n        }\n    }\n}\n//DApps can have this contract be the login contract for users to use this application\ncontract DAppLoginContract{\n    uint TotalAccounts =0;\n    constructor(){}\n    \n    mapping(address => Logins) logins;\n    //Keeps list of Login Contracts\n    struct Logins{\n        bool exist;\n        bool status;\n    }\n    //User can add their login contract to this DApp so this Daap can check their credentials in reference to the logincontract\n    function Register(address _LoginContract)public returns(bool){\n        if(logins[_LoginContract].exist == true){\n            return false;\n        }else{\n            logins[_LoginContract] =Logins(true,true);\n            TotalAccounts++;\n            return true;\n        }\n    }\n    //Checks Current Users Login Contracts\n    function LoginStatus(address _LoginContract) public view returns(bool){\n        return logins[_LoginContract].status;\n    }\n    //user Changes Login status\n    function Logout(address _LoginContract,address _user)public returns(bool){\n        require(LoginContract_Interface(_LoginContract).CheckUserCreds(_user) == true);\n        logins[_LoginContract].status==false;\n    }\n    //user can login and have DApp check login COntract for validity\n    // contract address & password to login\n    function userLogin(address _LoginContract,string memory _enterPass)public view returns(bool){\n        //require(logins[_LoginContract].exist==true);\n        bool Pass = LoginContract_Interface(_LoginContract).Login(_enterPass);  //Has correct Password\n        bool Creds = LoginContract_Interface(_LoginContract).CheckUserCreds(msg.sender); //Has correct Credential Token\n        //Check Login Contract and Registration\n        if( Pass==true && Creds==true){\n            logins[_LoginContract].status==true;\n            return true;  //user successfully logs in!\n        }else{\n            return false; //User fails to have correct NFT access or incorect password\n        }\n    }\n    //check user\n    function CredToken(address _LoginContract,address _user)public view returns(bool){\n        bool Creds = LoginContract_Interface(_LoginContract).CheckUserCreds(_user);\n        return Creds;\n    }\n}\n//- Dev: Quincy J\n",
  "sourcePath": "/Users/Q/Documents/GitHub/LoginContract/contracts/LoginContract.sol",
  "compiler": {
    "name": "solc",
    "version": "0.8.10+commit.fc410830.Emscripten.clang"
  },
  "schemaVersion": "3.4.3",
  "updatedAt": "2022-02-16T07:36:53.586Z",
  "devdoc": {
    "kind": "dev",
    "methods": {
      "balanceOf(address,uint256)": {
        "details": "See {IERC1155-balanceOf}. Requirements: - `account` cannot be the zero address."
      },
      "balanceOfBatch(address[],uint256[])": {
        "details": "See {IERC1155-balanceOfBatch}. Requirements: - `accounts` and `ids` must have the same length."
      },
      "isApprovedForAll(address,address)": {
        "details": "See {IERC1155-isApprovedForAll}."
      },
      "safeBatchTransferFrom(address,address,uint256[],uint256[],bytes)": {
        "details": "See {IERC1155-safeBatchTransferFrom}."
      },
      "safeTransferFrom(address,address,uint256,uint256,bytes)": {
        "details": "See {IERC1155-safeTransferFrom}."
      },
      "setApprovalForAll(address,bool)": {
        "details": "See {IERC1155-setApprovalForAll}."
      },
      "supportsInterface(bytes4)": {
        "details": "See {IERC165-supportsInterface}."
      },
      "uri(uint256)": {
        "details": "See {IERC1155MetadataURI-uri}. This implementation returns the same URI for *all* token types. It relies on the token type ID substitution mechanism https://eips.ethereum.org/EIPS/eip-1155#metadata[defined in the EIP]. Clients calling this function must replace the `\\{id\\}` substring with the actual token type ID."
      }
    },
    "version": 1
  },
  "userdoc": {
    "kind": "user",
    "methods": {},
    "version": 1
  }
}