{
  "contractName": "LoginContract",
  "abi": [
    {
      "inputs": [
        {
          "internalType": "string",
          "name": "_Pass",
          "type": "string"
        },
        {
          "internalType": "string",
          "name": "_URI",
          "type": "string"
        }
      ],
      "stateMutability": "nonpayable",
      "type": "constructor"
    },
    {
      "anonymous": false,
      "inputs": [
        {
          "indexed": true,
          "internalType": "address",
          "name": "account",
          "type": "address"
        },
        {
          "indexed": true,
          "internalType": "address",
          "name": "operator",
          "type": "address"
        },
        {
          "indexed": false,
          "internalType": "bool",
          "name": "approved",
          "type": "bool"
        }
      ],
      "name": "ApprovalForAll",
      "type": "event"
    },
    {
      "anonymous": false,
      "inputs": [
        {
          "indexed": true,
          "internalType": "address",
          "name": "_ContractSelf",
          "type": "address"
        }
      ],
      "name": "ContractAddress",
      "type": "event"
    },
    {
      "anonymous": false,
      "inputs": [
        {
          "indexed": true,
          "internalType": "address",
          "name": "operator",
          "type": "address"
        },
        {
          "indexed": true,
          "internalType": "address",
          "name": "from",
          "type": "address"
        },
        {
          "indexed": true,
          "internalType": "address",
          "name": "to",
          "type": "address"
        },
        {
          "indexed": false,
          "internalType": "uint256[]",
          "name": "ids",
          "type": "uint256[]"
        },
        {
          "indexed": false,
          "internalType": "uint256[]",
          "name": "values",
          "type": "uint256[]"
        }
      ],
      "name": "TransferBatch",
      "type": "event"
    },
    {
      "anonymous": false,
      "inputs": [
        {
          "indexed": true,
          "internalType": "address",
          "name": "operator",
          "type": "address"
        },
        {
          "indexed": true,
          "internalType": "address",
          "name": "from",
          "type": "address"
        },
        {
          "indexed": true,
          "internalType": "address",
          "name": "to",
          "type": "address"
        },
        {
          "indexed": false,
          "internalType": "uint256",
          "name": "id",
          "type": "uint256"
        },
        {
          "indexed": false,
          "internalType": "uint256",
          "name": "value",
          "type": "uint256"
        }
      ],
      "name": "TransferSingle",
      "type": "event"
    },
    {
      "anonymous": false,
      "inputs": [
        {
          "indexed": false,
          "internalType": "string",
          "name": "value",
          "type": "string"
        },
        {
          "indexed": true,
          "internalType": "uint256",
          "name": "id",
          "type": "uint256"
        }
      ],
      "name": "URI",
      "type": "event"
    },
    {
      "inputs": [
        {
          "internalType": "uint256",
          "name": "_amount",
          "type": "uint256"
        },
        {
          "internalType": "address",
          "name": "_account",
          "type": "address"
        }
      ],
      "name": "Burn",
      "outputs": [
        {
          "internalType": "string",
          "name": "",
          "type": "string"
        }
      ],
      "stateMutability": "nonpayable",
      "type": "function"
    },
    {
      "inputs": [
        {
          "internalType": "string",
          "name": "_newData",
          "type": "string"
        }
      ],
      "name": "Edit",
      "outputs": [
        {
          "internalType": "bool",
          "name": "",
          "type": "bool"
        }
      ],
      "stateMutability": "nonpayable",
      "type": "function"
    },
    {
      "inputs": [],
      "name": "ViewData",
      "outputs": [
        {
          "internalType": "string",
          "name": "",
          "type": "string"
        }
      ],
      "stateMutability": "view",
      "type": "function",
      "constant": true
    },
    {
      "inputs": [],
      "name": "ViewStatus",
      "outputs": [
        {
          "internalType": "uint256",
          "name": "",
          "type": "uint256"
        }
      ],
      "stateMutability": "view",
      "type": "function",
      "constant": true
    },
    {
      "inputs": [
        {
          "internalType": "address",
          "name": "account",
          "type": "address"
        },
        {
          "internalType": "uint256",
          "name": "id",
          "type": "uint256"
        }
      ],
      "name": "balanceOf",
      "outputs": [
        {
          "internalType": "uint256",
          "name": "",
          "type": "uint256"
        }
      ],
      "stateMutability": "view",
      "type": "function",
      "constant": true
    },
    {
      "inputs": [
        {
          "internalType": "address[]",
          "name": "accounts",
          "type": "address[]"
        },
        {
          "internalType": "uint256[]",
          "name": "ids",
          "type": "uint256[]"
        }
      ],
      "name": "balanceOfBatch",
      "outputs": [
        {
          "internalType": "uint256[]",
          "name": "",
          "type": "uint256[]"
        }
      ],
      "stateMutability": "view",
      "type": "function",
      "constant": true
    },
    {
      "inputs": [
        {
          "internalType": "address",
          "name": "account",
          "type": "address"
        },
        {
          "internalType": "address",
          "name": "operator",
          "type": "address"
        }
      ],
      "name": "isApprovedForAll",
      "outputs": [
        {
          "internalType": "bool",
          "name": "",
          "type": "bool"
        }
      ],
      "stateMutability": "view",
      "type": "function",
      "constant": true
    },
    {
      "inputs": [
        {
          "internalType": "address",
          "name": "from",
          "type": "address"
        },
        {
          "internalType": "address",
          "name": "to",
          "type": "address"
        },
        {
          "internalType": "uint256[]",
          "name": "ids",
          "type": "uint256[]"
        },
        {
          "internalType": "uint256[]",
          "name": "amounts",
          "type": "uint256[]"
        },
        {
          "internalType": "bytes",
          "name": "data",
          "type": "bytes"
        }
      ],
      "name": "safeBatchTransferFrom",
      "outputs": [],
      "stateMutability": "nonpayable",
      "type": "function"
    },
    {
      "inputs": [
        {
          "internalType": "address",
          "name": "from",
          "type": "address"
        },
        {
          "internalType": "address",
          "name": "to",
          "type": "address"
        },
        {
          "internalType": "uint256",
          "name": "id",
          "type": "uint256"
        },
        {
          "internalType": "uint256",
          "name": "amount",
          "type": "uint256"
        },
        {
          "internalType": "bytes",
          "name": "data",
          "type": "bytes"
        }
      ],
      "name": "safeTransferFrom",
      "outputs": [],
      "stateMutability": "nonpayable",
      "type": "function"
    },
    {
      "inputs": [
        {
          "internalType": "address",
          "name": "operator",
          "type": "address"
        },
        {
          "internalType": "bool",
          "name": "approved",
          "type": "bool"
        }
      ],
      "name": "setApprovalForAll",
      "outputs": [],
      "stateMutability": "nonpayable",
      "type": "function"
    },
    {
      "inputs": [
        {
          "internalType": "bytes4",
          "name": "interfaceId",
          "type": "bytes4"
        }
      ],
      "name": "supportsInterface",
      "outputs": [
        {
          "internalType": "bool",
          "name": "",
          "type": "bool"
        }
      ],
      "stateMutability": "view",
      "type": "function",
      "constant": true
    },
    {
      "inputs": [
        {
          "internalType": "uint256",
          "name": "",
          "type": "uint256"
        }
      ],
      "name": "uri",
      "outputs": [
        {
          "internalType": "string",
          "name": "",
          "type": "string"
        }
      ],
      "stateMutability": "view",
      "type": "function",
      "constant": true
    },
    {
      "inputs": [
        {
          "internalType": "string",
          "name": "_enterPass",
          "type": "string"
        }
      ],
      "name": "Login",
      "outputs": [
        {
          "internalType": "bool",
          "name": "",
          "type": "bool"
        }
      ],
      "stateMutability": "view",
      "type": "function",
      "constant": true
    },
    {
      "inputs": [
        {
          "internalType": "string",
          "name": "_enterPass",
          "type": "string"
        }
      ],
      "name": "User_Login",
      "outputs": [
        {
          "internalType": "bool",
          "name": "",
          "type": "bool"
        }
      ],
      "stateMutability": "view",
      "type": "function",
      "constant": true
    },
    {
      "inputs": [
        {
          "internalType": "address",
          "name": "_user",
          "type": "address"
        }
      ],
      "name": "CheckUserCreds",
      "outputs": [
        {
          "internalType": "bool",
          "name": "",
          "type": "bool"
        }
      ],
      "stateMutability": "view",
      "type": "function",
      "constant": true
    }
  ],
  "bytecode": "0x60806040526000600455600580553480156200001a57600080fd5b5060405162003dce38038062003dce8339818101604052810190620000409190620007ae565b8181806200005481620000e260201b60201c565b5081600390805190602001906200006d92919062000561565b50620000953360045460055460405180602001604052806000815250620000fe60201b60201c565b50503073ffffffffffffffffffffffffffffffffffffffff167f1a0f921ce3c6f2f0f6be5b624a487bc1d5143e1fd1833154f39ab63e13d8975560405160405180910390a2505062000e4d565b8060029080519060200190620000fa92919062000561565b5050565b600073ffffffffffffffffffffffffffffffffffffffff168473ffffffffffffffffffffffffffffffffffffffff16141562000171576040517f08c379a00000000000000000000000000000000000000000000000000000000081526004016200016890620008ba565b60405180910390fd5b600062000183620002c360201b60201c565b9050620001bc816000876200019e88620002cb60201b60201c565b620001af88620002cb60201b60201c565b876200034c60201b60201c565b8260008086815260200190815260200160002060008773ffffffffffffffffffffffffffffffffffffffff1673ffffffffffffffffffffffffffffffffffffffff16815260200190815260200160002060008282546200021d919062000915565b925050819055508473ffffffffffffffffffffffffffffffffffffffff16600073ffffffffffffffffffffffffffffffffffffffff168273ffffffffffffffffffffffffffffffffffffffff167fc3d58168c5ae7397731d063d5bbf3d657854427343f4c083240f7aacaa2d0f6287876040516200029d92919062000983565b60405180910390a4620002bc816000878787876200035460201b60201c565b5050505050565b600033905090565b60606000600167ffffffffffffffff811115620002ed57620002ec62000640565b5b6040519080825280602002602001820160405280156200031c5781602001602082028036833780820191505090505b5090508281600081518110620003375762000336620009b0565b5b60200260200101818152505080915050919050565b505050505050565b620003808473ffffffffffffffffffffffffffffffffffffffff166200054e60201b62000b1b1760201c565b1562000546578373ffffffffffffffffffffffffffffffffffffffff1663f23a6e6187878686866040518663ffffffff1660e01b8152600401620003c995949392919062000a81565b6020604051808303816000875af19250505080156200040857506040513d601f19601f8201168201806040525081019062000405919062000b42565b60015b620004ba576200041762000b81565b806308c379a014156200047b57506200042f62000ba6565b806200043c57506200047d565b806040517f08c379a000000000000000000000000000000000000000000000000000000000815260040162000472919062000c94565b60405180910390fd5b505b6040517f08c379a0000000000000000000000000000000000000000000000000000000008152600401620004b19062000d2e565b60405180910390fd5b63f23a6e6160e01b7bffffffffffffffffffffffffffffffffffffffffffffffffffffffff1916817bffffffffffffffffffffffffffffffffffffffffffffffffffffffff19161462000544576040517f08c379a00000000000000000000000000000000000000000000000000000000081526004016200053b9062000dc6565b60405180910390fd5b505b505050505050565b600080823b905060008111915050919050565b8280546200056f9062000e17565b90600052602060002090601f016020900481019282620005935760008555620005df565b82601f10620005ae57805160ff1916838001178555620005df565b82800160010185558215620005df579182015b82811115620005de578251825591602001919060010190620005c1565b5b509050620005ee9190620005f2565b5090565b5b808211156200060d576000816000905550600101620005f3565b5090565b6000604051905090565b600080fd5b600080fd5b600080fd5b600080fd5b6000601f19601f8301169050919050565b7f4e487b7100000000000000000000000000000000000000000000000000000000600052604160045260246000fd5b6200067a826200062f565b810181811067ffffffffffffffff821117156200069c576200069b62000640565b5b80604052505050565b6000620006b162000611565b9050620006bf82826200066f565b919050565b600067ffffffffffffffff821115620006e257620006e162000640565b5b620006ed826200062f565b9050602081019050919050565b60005b838110156200071a578082015181840152602081019050620006fd565b838111156200072a576000848401525b50505050565b6000620007476200074184620006c4565b620006a5565b9050828152602081018484840111156200076657620007656200062a565b5b62000773848285620006fa565b509392505050565b600082601f83011262000793576200079262000625565b5b8151620007a584826020860162000730565b91505092915050565b60008060408385031215620007c857620007c76200061b565b5b600083015167ffffffffffffffff811115620007e957620007e862000620565b5b620007f7858286016200077b565b925050602083015167ffffffffffffffff8111156200081b576200081a62000620565b5b62000829858286016200077b565b9150509250929050565b600082825260208201905092915050565b7f455243313135353a206d696e7420746f20746865207a65726f2061646472657360008201527f7300000000000000000000000000000000000000000000000000000000000000602082015250565b6000620008a260218362000833565b9150620008af8262000844565b604082019050919050565b60006020820190508181036000830152620008d58162000893565b9050919050565b6000819050919050565b7f4e487b7100000000000000000000000000000000000000000000000000000000600052601160045260246000fd5b60006200092282620008dc565b91506200092f83620008dc565b9250827fffffffffffffffffffffffffffffffffffffffffffffffffffffffffffffffff03821115620009675762000966620008e6565b5b828201905092915050565b6200097d81620008dc565b82525050565b60006040820190506200099a600083018562000972565b620009a9602083018462000972565b9392505050565b7f4e487b7100000000000000000000000000000000000000000000000000000000600052603260045260246000fd5b600073ffffffffffffffffffffffffffffffffffffffff82169050919050565b600062000a0c82620009df565b9050919050565b62000a1e81620009ff565b82525050565b600081519050919050565b600082825260208201905092915050565b600062000a4d8262000a24565b62000a59818562000a2f565b935062000a6b818560208601620006fa565b62000a76816200062f565b840191505092915050565b600060a08201905062000a98600083018862000a13565b62000aa7602083018762000a13565b62000ab6604083018662000972565b62000ac5606083018562000972565b818103608083015262000ad9818462000a40565b90509695505050505050565b60007fffffffff0000000000000000000000000000000000000000000000000000000082169050919050565b62000b1c8162000ae5565b811462000b2857600080fd5b50565b60008151905062000b3c8162000b11565b92915050565b60006020828403121562000b5b5762000b5a6200061b565b5b600062000b6b8482850162000b2b565b91505092915050565b60008160e01c9050919050565b600060033d111562000ba35760046000803e62000ba060005162000b74565b90505b90565b600060443d101562000bb85762000c45565b62000bc262000611565b60043d036004823e80513d602482011167ffffffffffffffff8211171562000bec57505062000c45565b808201805167ffffffffffffffff81111562000c0c575050505062000c45565b80602083010160043d03850181111562000c2b57505050505062000c45565b62000c3c826020018501866200066f565b82955050505050505b90565b600081519050919050565b600062000c608262000c48565b62000c6c818562000833565b935062000c7e818560208601620006fa565b62000c89816200062f565b840191505092915050565b6000602082019050818103600083015262000cb0818462000c53565b905092915050565b7f455243313135353a207472616e7366657220746f206e6f6e204552433131353560008201527f526563656976657220696d706c656d656e746572000000000000000000000000602082015250565b600062000d1660348362000833565b915062000d238262000cb8565b604082019050919050565b6000602082019050818103600083015262000d498162000d07565b9050919050565b7f455243313135353a204552433131353552656365697665722072656a6563746560008201527f6420746f6b656e73000000000000000000000000000000000000000000000000602082015250565b600062000dae60288362000833565b915062000dbb8262000d50565b604082019050919050565b6000602082019050818103600083015262000de18162000d9f565b9050919050565b7f4e487b7100000000000000000000000000000000000000000000000000000000600052602260045260246000fd5b6000600282049050600182168062000e3057607f821691505b6020821081141562000e475762000e4662000de8565b5b50919050565b612f718062000e5d6000396000f3fe608060405234801561001057600080fd5b50600436106100f45760003560e01c80634e1273f411610097578063cd31de7a11610066578063cd31de7a146102cf578063e985e9c5146102ed578063f242432a1461031d578063f6554c3a14610339576100f4565b80634e1273f4146102235780638f3c209014610253578063a22cb46514610283578063c5956fe11461029f576100f4565b8063087f477a116100d3578063087f477a146101895780630b2d8924146101a75780630e89341c146101d75780632eb2c2d614610207576100f4565b8062fdd58e146100f957806301ffc9a71461012957806305f8c89614610159575b600080fd5b610113600480360381019061010e9190611a64565b610369565b6040516101209190611ab3565b60405180910390f35b610143600480360381019061013e9190611b26565b610432565b6040516101509190611b6e565b60405180910390f35b610173600480360381019061016e9190611b89565b610514565b6040516101809190611b6e565b60405180910390f35b610191610540565b60405161019e9190611ab3565b60405180910390f35b6101c160048036038101906101bc9190611cfc565b610552565b6040516101ce9190611b6e565b60405180910390f35b6101f160048036038101906101ec9190611d45565b6105c2565b6040516101fe9190611dfa565b60405180910390f35b610221600480360381019061021c9190611f85565b610656565b005b61023d60048036038101906102389190612117565b6106f7565b60405161024a919061224d565b60405180910390f35b61026d60048036038101906102689190611cfc565b610810565b60405161027a9190611b6e565b60405180910390f35b61029d6004803603810190610298919061229b565b61089b565b005b6102b960048036038101906102b49190611cfc565b6108b1565b6040516102c69190611b6e565b60405180910390f35b6102d76108ee565b6040516102e49190611dfa565b60405180910390f35b610307600480360381019061030291906122db565b61099b565b6040516103149190611b6e565b60405180910390f35b6103376004803603810190610332919061231b565b610a2f565b005b610353600480360381019061034e91906123b2565b610ad0565b6040516103609190611dfa565b60405180910390f35b60008073ffffffffffffffffffffffffffffffffffffffff168373ffffffffffffffffffffffffffffffffffffffff1614156103da576040517f08c379a00000000000000000000000000000000000000000000000000000000081526004016103d190612464565b60405180910390fd5b60008083815260200190815260200160002060008473ffffffffffffffffffffffffffffffffffffffff1673ffffffffffffffffffffffffffffffffffffffff16815260200190815260200160002054905092915050565b60007fd9b67a26000000000000000000000000000000000000000000000000000000007bffffffffffffffffffffffffffffffffffffffffffffffffffffffff1916827bffffffffffffffffffffffffffffffffffffffffffffffffffffffff191614806104fd57507f0e89341c000000000000000000000000000000000000000000000000000000007bffffffffffffffffffffffffffffffffffffffffffffffffffffffff1916827bffffffffffffffffffffffffffffffffffffffffffffffffffffffff1916145b8061050d575061050c82610b2e565b5b9050919050565b600060011515610525836001610b98565b15151415610536576001905061053b565b600090505b919050565b600061054d336000610369565b905090565b60008160405160200161056591906124c0565b604051602081830303815290604052805190602001206105836108ee565b60405160200161059391906124c0565b6040516020818303038152906040528051906020012014156105b857600190506105bd565b600090505b919050565b6060600280546105d190612506565b80601f01602080910402602001604051908101604052809291908181526020018280546105fd90612506565b801561064a5780601f1061061f5761010080835404028352916020019161064a565b820191906000526020600020905b81548152906001019060200180831161062d57829003601f168201915b50505050509050919050565b61065e610bbf565b73ffffffffffffffffffffffffffffffffffffffff168573ffffffffffffffffffffffffffffffffffffffff1614806106a457506106a38561069e610bbf565b61099b565b5b6106e3576040517f08c379a00000000000000000000000000000000000000000000000000000000081526004016106da906125aa565b60405180910390fd5b6106f08585858585610bc7565b5050505050565b6060815183511461073d576040517f08c379a00000000000000000000000000000000000000000000000000000000081526004016107349061263c565b60405180910390fd5b6000835167ffffffffffffffff81111561075a57610759611bd1565b5b6040519080825280602002602001820160405280156107885781602001602082028036833780820191505090505b50905060005b8451811015610805576107d58582815181106107ad576107ac61265c565b5b60200260200101518583815181106107c8576107c761265c565b5b6020026020010151610369565b8282815181106107e8576107e761265c565b5b602002602001018181525050806107fe906126ba565b905061078e565b508091505092915050565b600060011515610821336001610b98565b15151461082d57600080fd5b8160405160200161083e91906124c0565b6040516020818303038152906040528051906020012061085c6108ee565b60405160200161086c91906124c0565b6040516020818303038152906040528051906020012014156108915760019050610896565b600090505b919050565b6108ad6108a6610bbf565b8383610edb565b5050565b6000600115156108c2336003610b98565b1515146108ce57600080fd5b81600390805190602001906108e4929190611919565b5060019050919050565b6060600115156108ff336003610b98565b15151461090b57600080fd5b6003805461091890612506565b80601f016020809104026020016040519081016040528092919081815260200182805461094490612506565b80156109915780601f1061096657610100808354040283529160200191610991565b820191906000526020600020905b81548152906001019060200180831161097457829003601f168201915b5050505050905090565b6000600160008473ffffffffffffffffffffffffffffffffffffffff1673ffffffffffffffffffffffffffffffffffffffff16815260200190815260200160002060008373ffffffffffffffffffffffffffffffffffffffff1673ffffffffffffffffffffffffffffffffffffffff16815260200190815260200160002060009054906101000a900460ff16905092915050565b610a37610bbf565b73ffffffffffffffffffffffffffffffffffffffff168573ffffffffffffffffffffffffffffffffffffffff161480610a7d5750610a7c85610a77610bbf565b61099b565b5b610abc576040517f08c379a0000000000000000000000000000000000000000000000000000000008152600401610ab390612775565b60405180910390fd5b610ac98585858585611048565b5050505050565b606060011515610ae1336003610b98565b151514610aed57600080fd5b610afa82600454856112ca565b604051806060016040528060338152602001612f0960339139905092915050565b600080823b905060008111915050919050565b60007f01ffc9a7000000000000000000000000000000000000000000000000000000007bffffffffffffffffffffffffffffffffffffffffffffffffffffffff1916827bffffffffffffffffffffffffffffffffffffffffffffffffffffffff1916149050919050565b600081610ba6846000610369565b10610bb45760019050610bb9565b600090505b92915050565b600033905090565b8151835114610c0b576040517f08c379a0000000000000000000000000000000000000000000000000000000008152600401610c0290612807565b60405180910390fd5b600073ffffffffffffffffffffffffffffffffffffffff168473ffffffffffffffffffffffffffffffffffffffff161415610c7b576040517f08c379a0000000000000000000000000000000000000000000000000000000008152600401610c7290612899565b60405180910390fd5b6000610c85610bbf565b9050610c958187878787876114e7565b60005b8451811015610e46576000858281518110610cb657610cb561265c565b5b602002602001015190506000858381518110610cd557610cd461265c565b5b60200260200101519050600080600084815260200190815260200160002060008b73ffffffffffffffffffffffffffffffffffffffff1673ffffffffffffffffffffffffffffffffffffffff16815260200190815260200160002054905081811015610d76576040517f08c379a0000000000000000000000000000000000000000000000000000000008152600401610d6d9061292b565b60405180910390fd5b81810360008085815260200190815260200160002060008c73ffffffffffffffffffffffffffffffffffffffff1673ffffffffffffffffffffffffffffffffffffffff168152602001908152602001600020819055508160008085815260200190815260200160002060008b73ffffffffffffffffffffffffffffffffffffffff1673ffffffffffffffffffffffffffffffffffffffff1681526020019081526020016000206000828254610e2b919061294b565b9250508190555050505080610e3f906126ba565b9050610c98565b508473ffffffffffffffffffffffffffffffffffffffff168673ffffffffffffffffffffffffffffffffffffffff168273ffffffffffffffffffffffffffffffffffffffff167f4a39dc06d4c0dbc64b70af90fd698a233a518aa5d07e595d983b8c0526c8f7fb8787604051610ebd9291906129a1565b60405180910390a4610ed38187878787876114ef565b505050505050565b8173ffffffffffffffffffffffffffffffffffffffff168373ffffffffffffffffffffffffffffffffffffffff161415610f4a576040517f08c379a0000000000000000000000000000000000000000000000000000000008152600401610f4190612a4a565b60405180910390fd5b80600160008573ffffffffffffffffffffffffffffffffffffffff1673ffffffffffffffffffffffffffffffffffffffff16815260200190815260200160002060008473ffffffffffffffffffffffffffffffffffffffff1673ffffffffffffffffffffffffffffffffffffffff16815260200190815260200160002060006101000a81548160ff0219169083151502179055508173ffffffffffffffffffffffffffffffffffffffff168373ffffffffffffffffffffffffffffffffffffffff167f17307eab39ab6107e8899845ad3d59bd9653f200f220920489ca2b5937696c318360405161103b9190611b6e565b60405180910390a3505050565b600073ffffffffffffffffffffffffffffffffffffffff168473ffffffffffffffffffffffffffffffffffffffff1614156110b8576040517f08c379a00000000000000000000000000000000000000000000000000000000081526004016110af90612899565b60405180910390fd5b60006110c2610bbf565b90506110e28187876110d3886116c7565b6110dc886116c7565b876114e7565b600080600086815260200190815260200160002060008873ffffffffffffffffffffffffffffffffffffffff1673ffffffffffffffffffffffffffffffffffffffff16815260200190815260200160002054905083811015611179576040517f08c379a00000000000000000000000000000000000000000000000000000000081526004016111709061292b565b60405180910390fd5b83810360008087815260200190815260200160002060008973ffffffffffffffffffffffffffffffffffffffff1673ffffffffffffffffffffffffffffffffffffffff168152602001908152602001600020819055508360008087815260200190815260200160002060008873ffffffffffffffffffffffffffffffffffffffff1673ffffffffffffffffffffffffffffffffffffffff168152602001908152602001600020600082825461122e919061294b565b925050819055508573ffffffffffffffffffffffffffffffffffffffff168773ffffffffffffffffffffffffffffffffffffffff168373ffffffffffffffffffffffffffffffffffffffff167fc3d58168c5ae7397731d063d5bbf3d657854427343f4c083240f7aacaa2d0f6288886040516112ab929190612a6a565b60405180910390a46112c1828888888888611741565b50505050505050565b600073ffffffffffffffffffffffffffffffffffffffff168373ffffffffffffffffffffffffffffffffffffffff16141561133a576040517f08c379a000000000000000000000000000000000000000000000000000000000815260040161133190612b05565b60405180910390fd5b6000611344610bbf565b905061137481856000611356876116c7565b61135f876116c7565b604051806020016040528060008152506114e7565b600080600085815260200190815260200160002060008673ffffffffffffffffffffffffffffffffffffffff1673ffffffffffffffffffffffffffffffffffffffff1681526020019081526020016000205490508281101561140b576040517f08c379a000000000000000000000000000000000000000000000000000000000815260040161140290612b97565b60405180910390fd5b82810360008086815260200190815260200160002060008773ffffffffffffffffffffffffffffffffffffffff1673ffffffffffffffffffffffffffffffffffffffff16815260200190815260200160002081905550600073ffffffffffffffffffffffffffffffffffffffff168573ffffffffffffffffffffffffffffffffffffffff168373ffffffffffffffffffffffffffffffffffffffff167fc3d58168c5ae7397731d063d5bbf3d657854427343f4c083240f7aacaa2d0f6287876040516114d8929190612a6a565b60405180910390a45050505050565b505050505050565b61150e8473ffffffffffffffffffffffffffffffffffffffff16610b1b565b156116bf578373ffffffffffffffffffffffffffffffffffffffff1663bc197c8187878686866040518663ffffffff1660e01b8152600401611554959493929190612c1b565b6020604051808303816000875af192505050801561159057506040513d601f19601f8201168201806040525081019061158d9190612c98565b60015b6116365761159c612cd2565b806308c379a014156115f957506115b1612cf4565b806115bc57506115fb565b806040517f08c379a00000000000000000000000000000000000000000000000000000000081526004016115f09190611dfa565b60405180910390fd5b505b6040517f08c379a000000000000000000000000000000000000000000000000000000000815260040161162d90612dfc565b60405180910390fd5b63bc197c8160e01b7bffffffffffffffffffffffffffffffffffffffffffffffffffffffff1916817bffffffffffffffffffffffffffffffffffffffffffffffffffffffff1916146116bd576040517f08c379a00000000000000000000000000000000000000000000000000000000081526004016116b490612e8e565b60405180910390fd5b505b505050505050565b60606000600167ffffffffffffffff8111156116e6576116e5611bd1565b5b6040519080825280602002602001820160405280156117145781602001602082028036833780820191505090505b509050828160008151811061172c5761172b61265c565b5b60200260200101818152505080915050919050565b6117608473ffffffffffffffffffffffffffffffffffffffff16610b1b565b15611911578373ffffffffffffffffffffffffffffffffffffffff1663f23a6e6187878686866040518663ffffffff1660e01b81526004016117a6959493929190612eae565b6020604051808303816000875af19250505080156117e257506040513d601f19601f820116820180604052508101906117df9190612c98565b60015b611888576117ee612cd2565b806308c379a0141561184b5750611803612cf4565b8061180e575061184d565b806040517f08c379a00000000000000000000000000000000000000000000000000000000081526004016118429190611dfa565b60405180910390fd5b505b6040517f08c379a000000000000000000000000000000000000000000000000000000000815260040161187f90612dfc565b60405180910390fd5b63f23a6e6160e01b7bffffffffffffffffffffffffffffffffffffffffffffffffffffffff1916817bffffffffffffffffffffffffffffffffffffffffffffffffffffffff19161461190f576040517f08c379a000000000000000000000000000000000000000000000000000000000815260040161190690612e8e565b60405180910390fd5b505b505050505050565b82805461192590612506565b90600052602060002090601f016020900481019282611947576000855561198e565b82601f1061196057805160ff191683800117855561198e565b8280016001018555821561198e579182015b8281111561198d578251825591602001919060010190611972565b5b50905061199b919061199f565b5090565b5b808211156119b85760008160009055506001016119a0565b5090565b6000604051905090565b600080fd5b600080fd5b600073ffffffffffffffffffffffffffffffffffffffff82169050919050565b60006119fb826119d0565b9050919050565b611a0b816119f0565b8114611a1657600080fd5b50565b600081359050611a2881611a02565b92915050565b6000819050919050565b611a4181611a2e565b8114611a4c57600080fd5b50565b600081359050611a5e81611a38565b92915050565b60008060408385031215611a7b57611a7a6119c6565b5b6000611a8985828601611a19565b9250506020611a9a85828601611a4f565b9150509250929050565b611aad81611a2e565b82525050565b6000602082019050611ac86000830184611aa4565b92915050565b60007fffffffff0000000000000000000000000000000000000000000000000000000082169050919050565b611b0381611ace565b8114611b0e57600080fd5b50565b600081359050611b2081611afa565b92915050565b600060208284031215611b3c57611b3b6119c6565b5b6000611b4a84828501611b11565b91505092915050565b60008115159050919050565b611b6881611b53565b82525050565b6000602082019050611b836000830184611b5f565b92915050565b600060208284031215611b9f57611b9e6119c6565b5b6000611bad84828501611a19565b91505092915050565b600080fd5b600080fd5b6000601f19601f8301169050919050565b7f4e487b7100000000000000000000000000000000000000000000000000000000600052604160045260246000fd5b611c0982611bc0565b810181811067ffffffffffffffff82111715611c2857611c27611bd1565b5b80604052505050565b6000611c3b6119bc565b9050611c478282611c00565b919050565b600067ffffffffffffffff821115611c6757611c66611bd1565b5b611c7082611bc0565b9050602081019050919050565b82818337600083830152505050565b6000611c9f611c9a84611c4c565b611c31565b905082815260208101848484011115611cbb57611cba611bbb565b5b611cc6848285611c7d565b509392505050565b600082601f830112611ce357611ce2611bb6565b5b8135611cf3848260208601611c8c565b91505092915050565b600060208284031215611d1257611d116119c6565b5b600082013567ffffffffffffffff811115611d3057611d2f6119cb565b5b611d3c84828501611cce565b91505092915050565b600060208284031215611d5b57611d5a6119c6565b5b6000611d6984828501611a4f565b91505092915050565b600081519050919050565b600082825260208201905092915050565b60005b83811015611dac578082015181840152602081019050611d91565b83811115611dbb576000848401525b50505050565b6000611dcc82611d72565b611dd68185611d7d565b9350611de6818560208601611d8e565b611def81611bc0565b840191505092915050565b60006020820190508181036000830152611e148184611dc1565b905092915050565b600067ffffffffffffffff821115611e3757611e36611bd1565b5b602082029050602081019050919050565b600080fd5b6000611e60611e5b84611e1c565b611c31565b90508083825260208201905060208402830185811115611e8357611e82611e48565b5b835b81811015611eac5780611e988882611a4f565b845260208401935050602081019050611e85565b5050509392505050565b600082601f830112611ecb57611eca611bb6565b5b8135611edb848260208601611e4d565b91505092915050565b600067ffffffffffffffff821115611eff57611efe611bd1565b5b611f0882611bc0565b9050602081019050919050565b6000611f28611f2384611ee4565b611c31565b905082815260208101848484011115611f4457611f43611bbb565b5b611f4f848285611c7d565b509392505050565b600082601f830112611f6c57611f6b611bb6565b5b8135611f7c848260208601611f15565b91505092915050565b600080600080600060a08688031215611fa157611fa06119c6565b5b6000611faf88828901611a19565b9550506020611fc088828901611a19565b945050604086013567ffffffffffffffff811115611fe157611fe06119cb565b5b611fed88828901611eb6565b935050606086013567ffffffffffffffff81111561200e5761200d6119cb565b5b61201a88828901611eb6565b925050608086013567ffffffffffffffff81111561203b5761203a6119cb565b5b61204788828901611f57565b9150509295509295909350565b600067ffffffffffffffff82111561206f5761206e611bd1565b5b602082029050602081019050919050565b600061209361208e84612054565b611c31565b905080838252602082019050602084028301858111156120b6576120b5611e48565b5b835b818110156120df57806120cb8882611a19565b8452602084019350506020810190506120b8565b5050509392505050565b600082601f8301126120fe576120fd611bb6565b5b813561210e848260208601612080565b91505092915050565b6000806040838503121561212e5761212d6119c6565b5b600083013567ffffffffffffffff81111561214c5761214b6119cb565b5b612158858286016120e9565b925050602083013567ffffffffffffffff811115612179576121786119cb565b5b61218585828601611eb6565b9150509250929050565b600081519050919050565b600082825260208201905092915050565b6000819050602082019050919050565b6121c481611a2e565b82525050565b60006121d683836121bb565b60208301905092915050565b6000602082019050919050565b60006121fa8261218f565b612204818561219a565b935061220f836121ab565b8060005b8381101561224057815161222788826121ca565b9750612232836121e2565b925050600181019050612213565b5085935050505092915050565b6000602082019050818103600083015261226781846121ef565b905092915050565b61227881611b53565b811461228357600080fd5b50565b6000813590506122958161226f565b92915050565b600080604083850312156122b2576122b16119c6565b5b60006122c085828601611a19565b92505060206122d185828601612286565b9150509250929050565b600080604083850312156122f2576122f16119c6565b5b600061230085828601611a19565b925050602061231185828601611a19565b9150509250929050565b600080600080600060a08688031215612337576123366119c6565b5b600061234588828901611a19565b955050602061235688828901611a19565b945050604061236788828901611a4f565b935050606061237888828901611a4f565b925050608086013567ffffffffffffffff811115612399576123986119cb565b5b6123a588828901611f57565b9150509295509295909350565b600080604083850312156123c9576123c86119c6565b5b60006123d785828601611a4f565b92505060206123e885828601611a19565b9150509250929050565b7f455243313135353a2062616c616e636520717565727920666f7220746865207a60008201527f65726f2061646472657373000000000000000000000000000000000000000000602082015250565b600061244e602b83611d7d565b9150612459826123f2565b604082019050919050565b6000602082019050818103600083015261247d81612441565b9050919050565b600081905092915050565b600061249a82611d72565b6124a48185612484565b93506124b4818560208601611d8e565b80840191505092915050565b60006124cc828461248f565b915081905092915050565b7f4e487b7100000000000000000000000000000000000000000000000000000000600052602260045260246000fd5b6000600282049050600182168061251e57607f821691505b60208210811415612532576125316124d7565b5b50919050565b7f455243313135353a207472616e736665722063616c6c6572206973206e6f742060008201527f6f776e6572206e6f7220617070726f7665640000000000000000000000000000602082015250565b6000612594603283611d7d565b915061259f82612538565b604082019050919050565b600060208201905081810360008301526125c381612587565b9050919050565b7f455243313135353a206163636f756e747320616e6420696473206c656e67746860008201527f206d69736d617463680000000000000000000000000000000000000000000000602082015250565b6000612626602983611d7d565b9150612631826125ca565b604082019050919050565b6000602082019050818103600083015261265581612619565b9050919050565b7f4e487b7100000000000000000000000000000000000000000000000000000000600052603260045260246000fd5b7f4e487b7100000000000000000000000000000000000000000000000000000000600052601160045260246000fd5b60006126c582611a2e565b91507fffffffffffffffffffffffffffffffffffffffffffffffffffffffffffffffff8214156126f8576126f761268b565b5b600182019050919050565b7f455243313135353a2063616c6c6572206973206e6f74206f776e6572206e6f7260008201527f20617070726f7665640000000000000000000000000000000000000000000000602082015250565b600061275f602983611d7d565b915061276a82612703565b604082019050919050565b6000602082019050818103600083015261278e81612752565b9050919050565b7f455243313135353a2069647320616e6420616d6f756e7473206c656e6774682060008201527f6d69736d61746368000000000000000000000000000000000000000000000000602082015250565b60006127f1602883611d7d565b91506127fc82612795565b604082019050919050565b60006020820190508181036000830152612820816127e4565b9050919050565b7f455243313135353a207472616e7366657220746f20746865207a65726f20616460008201527f6472657373000000000000000000000000000000000000000000000000000000602082015250565b6000612883602583611d7d565b915061288e82612827565b604082019050919050565b600060208201905081810360008301526128b281612876565b9050919050565b7f455243313135353a20696e73756666696369656e742062616c616e636520666f60008201527f72207472616e7366657200000000000000000000000000000000000000000000602082015250565b6000612915602a83611d7d565b9150612920826128b9565b604082019050919050565b6000602082019050818103600083015261294481612908565b9050919050565b600061295682611a2e565b915061296183611a2e565b9250827fffffffffffffffffffffffffffffffffffffffffffffffffffffffffffffffff038211156129965761299561268b565b5b828201905092915050565b600060408201905081810360008301526129bb81856121ef565b905081810360208301526129cf81846121ef565b90509392505050565b7f455243313135353a2073657474696e6720617070726f76616c2073746174757360008201527f20666f722073656c660000000000000000000000000000000000000000000000602082015250565b6000612a34602983611d7d565b9150612a3f826129d8565b604082019050919050565b60006020820190508181036000830152612a6381612a27565b9050919050565b6000604082019050612a7f6000830185611aa4565b612a8c6020830184611aa4565b9392505050565b7f455243313135353a206275726e2066726f6d20746865207a65726f206164647260008201527f6573730000000000000000000000000000000000000000000000000000000000602082015250565b6000612aef602383611d7d565b9150612afa82612a93565b604082019050919050565b60006020820190508181036000830152612b1e81612ae2565b9050919050565b7f455243313135353a206275726e20616d6f756e7420657863656564732062616c60008201527f616e636500000000000000000000000000000000000000000000000000000000602082015250565b6000612b81602483611d7d565b9150612b8c82612b25565b604082019050919050565b60006020820190508181036000830152612bb081612b74565b9050919050565b612bc0816119f0565b82525050565b600081519050919050565b600082825260208201905092915050565b6000612bed82612bc6565b612bf78185612bd1565b9350612c07818560208601611d8e565b612c1081611bc0565b840191505092915050565b600060a082019050612c306000830188612bb7565b612c3d6020830187612bb7565b8181036040830152612c4f81866121ef565b90508181036060830152612c6381856121ef565b90508181036080830152612c778184612be2565b90509695505050505050565b600081519050612c9281611afa565b92915050565b600060208284031215612cae57612cad6119c6565b5b6000612cbc84828501612c83565b91505092915050565b60008160e01c9050919050565b600060033d1115612cf15760046000803e612cee600051612cc5565b90505b90565b600060443d1015612d0457612d87565b612d0c6119bc565b60043d036004823e80513d602482011167ffffffffffffffff82111715612d34575050612d87565b808201805167ffffffffffffffff811115612d525750505050612d87565b80602083010160043d038501811115612d6f575050505050612d87565b612d7e82602001850186611c00565b82955050505050505b90565b7f455243313135353a207472616e7366657220746f206e6f6e204552433131353560008201527f526563656976657220696d706c656d656e746572000000000000000000000000602082015250565b6000612de6603483611d7d565b9150612df182612d8a565b604082019050919050565b60006020820190508181036000830152612e1581612dd9565b9050919050565b7f455243313135353a204552433131353552656365697665722072656a6563746560008201527f6420746f6b656e73000000000000000000000000000000000000000000000000602082015250565b6000612e78602883611d7d565b9150612e8382612e1c565b604082019050919050565b60006020820190508181036000830152612ea781612e6b565b9050919050565b600060a082019050612ec36000830188612bb7565b612ed06020830187612bb7565b612edd6040830186611aa4565b612eea6060830185611aa4565b8181036080830152612efc8184612be2565b9050969550505050505056fe6275726e696e67207b5f616d6f756e747d2043726564656e7469616c20746f6b656e732066726f6d207b5f6163636f756e747da26469706673582212203edff75661e7637cdcdb4141fd817334121faee56e8d5053c5f12ae245f3112764736f6c634300080a0033",
  "immutableReferences": {},
  "source": "pragma solidity ^0.8.10;\n// SPDX-License-Identifier: MIT\nimport \"@openzeppelin/contracts/token/ERC1155/ERC1155.sol\";\nimport \"./PrivateAccessToken.sol\";\n\n//interface for other contract to read status\ninterface LoginContract_Interface{\n    function Login(string memory _enterPass)external view returns(bool);\n    function CheckUserCreds(address _user)external view returns(bool);\n}\ncontract LoginContract is PrivateAccessToken,LoginContract_Interface{\n    //new token that will allow for a smart contract to check credentials \n    string private Login_Pass;\n    event ContractAddress(address indexed _ContractSelf);\n\n\n    //lauch Login contract with PrivateAccessToken Contract as dependancy\n    constructor(string memory _Pass ,string memory _URI)PrivateAccessToken(_Pass,_URI){\n        emit ContractAddress(address(this));\n    }\n\n    //Dapp Contracts can check passwords\n    function Login(string memory _enterPass)external view returns(bool){\n        if(keccak256(abi.encodePacked(ViewData())) == keccak256(abi.encodePacked(_enterPass))){\n            return true;\n        } else{\n            return false;\n        }\n    }\n    //I can grab the OnlyToken modifier from the Inherited contract\n    function User_Login(string memory _enterPass)public view OnlyToken returns(bool){\n        if(keccak256(abi.encodePacked(ViewData())) == keccak256(abi.encodePacked(_enterPass))){\n            return true;\n        } else{\n            return false;\n        }\n    }\n    // external source can check if user data holds correct token\n    function CheckUserCreds(address _user)public view returns(bool){\n        if(PrivateAccessToken.OnlyIf(_user,1) == true){\n            return true;\n        } else {\n            return false;\n        }\n    }\n}\n//DApps can have this contract be the login contract for users to use this application\ncontract DAppLoginContract{\n    uint TotalAccounts =0;\n    constructor(){}\n    \n    mapping(address => Logins) logins;\n    //Keeps list of Login Contracts\n    struct Logins{\n        bool exist;\n        bool status;\n    }\n    //User can add their login contract to this DApp so this Daap can check their credentials in reference to the logincontract\n    function Register(address _LoginContract)public returns(bool){\n        if(logins[_LoginContract].exist == true){\n            return false;\n        }else{\n            logins[_LoginContract] =Logins(true,false);\n            TotalAccounts++;\n            return true;\n        }\n    }\n    //Checks Current Users Login Contracts\n    function LoginStatus(address _LoginContract) public view returns(bool){\n        return logins[_LoginContract].status;\n    }\n    //user Changes Login status\n    function Logout(address _LoginContract,address _user)public payable returns(string memory){\n        require(LoginContract_Interface(_LoginContract).CheckUserCreds(_user) == true);\n        logins[_LoginContract].status= false;\n        return \"Logged out\";\n    }\n    //user can login and have DApp check login COntract for validity\n    // contract address & password to login\n    function userLogin(address _LoginContract,string memory _enterPass)public payable returns(string memory){\n        require(logins[_LoginContract].exist==true);\n        address _self = msg.sender;\n        bool Password = LoginContract_Interface(_LoginContract).Login(_enterPass);  //Has correct Password\n        bool Creds = LoginContract_Interface(_LoginContract).CheckUserCreds(_self); //Has correct Credential Token\n        //Check Login Contract and Registration\n        if(Creds==true && Password==true){\n            logins[_LoginContract].status=true;\n            return \"Login\";  //user successfully logs in!\n        } else{\n            return \"Unable to Login\"; //User fails to have correct NFT access or incorect password\n        }\n    }\n    //check user\n    function CredToken(address _LoginContract,address _user)public view returns(bool){\n        bool Creds = LoginContract_Interface(_LoginContract).CheckUserCreds(_user);\n        return Creds;\n    }\n}\n//- Dev: Quincy J\n",
  "sourcePath": "/Users/Q/Documents/GitHub/LoginContract/contracts/LoginContract.sol",
  "compiler": {
    "name": "solc",
    "version": "0.8.10+commit.fc410830.Emscripten.clang"
  },
  "schemaVersion": "3.4.3",
  "updatedAt": "2022-02-21T19:46:11.550Z",
  "networkType": "ethereum",
  "devdoc": {
    "kind": "dev",
    "methods": {
      "balanceOf(address,uint256)": {
        "details": "See {IERC1155-balanceOf}. Requirements: - `account` cannot be the zero address."
      },
      "balanceOfBatch(address[],uint256[])": {
        "details": "See {IERC1155-balanceOfBatch}. Requirements: - `accounts` and `ids` must have the same length."
      },
      "isApprovedForAll(address,address)": {
        "details": "See {IERC1155-isApprovedForAll}."
      },
      "safeBatchTransferFrom(address,address,uint256[],uint256[],bytes)": {
        "details": "See {IERC1155-safeBatchTransferFrom}."
      },
      "safeTransferFrom(address,address,uint256,uint256,bytes)": {
        "details": "See {IERC1155-safeTransferFrom}."
      },
      "setApprovalForAll(address,bool)": {
        "details": "See {IERC1155-setApprovalForAll}."
      },
      "supportsInterface(bytes4)": {
        "details": "See {IERC165-supportsInterface}."
      },
      "uri(uint256)": {
        "details": "See {IERC1155MetadataURI-uri}. This implementation returns the same URI for *all* token types. It relies on the token type ID substitution mechanism https://eips.ethereum.org/EIPS/eip-1155#metadata[defined in the EIP]. Clients calling this function must replace the `\\{id\\}` substring with the actual token type ID."
      }
    },
    "version": 1
  },
  "userdoc": {
    "kind": "user",
    "methods": {},
    "version": 1
  }
}