{
  "contractName": "LoginContract",
  "abi": [
    {
      "inputs": [
        {
          "internalType": "string",
          "name": "_Pass",
          "type": "string"
        },
        {
          "internalType": "string",
          "name": "_URI",
          "type": "string"
        }
      ],
      "stateMutability": "nonpayable",
      "type": "constructor"
    },
    {
      "anonymous": false,
      "inputs": [
        {
          "indexed": true,
          "internalType": "address",
          "name": "account",
          "type": "address"
        },
        {
          "indexed": true,
          "internalType": "address",
          "name": "operator",
          "type": "address"
        },
        {
          "indexed": false,
          "internalType": "bool",
          "name": "approved",
          "type": "bool"
        }
      ],
      "name": "ApprovalForAll",
      "type": "event"
    },
    {
      "anonymous": false,
      "inputs": [
        {
          "indexed": true,
          "internalType": "address",
          "name": "_ContractSelf",
          "type": "address"
        }
      ],
      "name": "ContractAddress",
      "type": "event"
    },
    {
      "anonymous": false,
      "inputs": [
        {
          "indexed": true,
          "internalType": "address",
          "name": "operator",
          "type": "address"
        },
        {
          "indexed": true,
          "internalType": "address",
          "name": "from",
          "type": "address"
        },
        {
          "indexed": true,
          "internalType": "address",
          "name": "to",
          "type": "address"
        },
        {
          "indexed": false,
          "internalType": "uint256[]",
          "name": "ids",
          "type": "uint256[]"
        },
        {
          "indexed": false,
          "internalType": "uint256[]",
          "name": "values",
          "type": "uint256[]"
        }
      ],
      "name": "TransferBatch",
      "type": "event"
    },
    {
      "anonymous": false,
      "inputs": [
        {
          "indexed": true,
          "internalType": "address",
          "name": "operator",
          "type": "address"
        },
        {
          "indexed": true,
          "internalType": "address",
          "name": "from",
          "type": "address"
        },
        {
          "indexed": true,
          "internalType": "address",
          "name": "to",
          "type": "address"
        },
        {
          "indexed": false,
          "internalType": "uint256",
          "name": "id",
          "type": "uint256"
        },
        {
          "indexed": false,
          "internalType": "uint256",
          "name": "value",
          "type": "uint256"
        }
      ],
      "name": "TransferSingle",
      "type": "event"
    },
    {
      "anonymous": false,
      "inputs": [
        {
          "indexed": false,
          "internalType": "string",
          "name": "value",
          "type": "string"
        },
        {
          "indexed": true,
          "internalType": "uint256",
          "name": "id",
          "type": "uint256"
        }
      ],
      "name": "URI",
      "type": "event"
    },
    {
      "inputs": [
        {
          "internalType": "bool",
          "name": "_mint",
          "type": "bool"
        },
        {
          "internalType": "uint256",
          "name": "_amount",
          "type": "uint256"
        },
        {
          "internalType": "address",
          "name": "_account",
          "type": "address"
        }
      ],
      "name": "Burn",
      "outputs": [
        {
          "internalType": "string",
          "name": "",
          "type": "string"
        }
      ],
      "stateMutability": "nonpayable",
      "type": "function"
    },
    {
      "inputs": [
        {
          "internalType": "string",
          "name": "_newData",
          "type": "string"
        }
      ],
      "name": "Edit",
      "outputs": [
        {
          "internalType": "bool",
          "name": "",
          "type": "bool"
        }
      ],
      "stateMutability": "nonpayable",
      "type": "function"
    },
    {
      "inputs": [],
      "name": "ViewData",
      "outputs": [
        {
          "internalType": "string",
          "name": "",
          "type": "string"
        }
      ],
      "stateMutability": "view",
      "type": "function"
    },
    {
      "inputs": [],
      "name": "ViewStatus",
      "outputs": [
        {
          "internalType": "uint256",
          "name": "",
          "type": "uint256"
        }
      ],
      "stateMutability": "view",
      "type": "function"
    },
    {
      "inputs": [
        {
          "internalType": "address",
          "name": "account",
          "type": "address"
        },
        {
          "internalType": "uint256",
          "name": "id",
          "type": "uint256"
        }
      ],
      "name": "balanceOf",
      "outputs": [
        {
          "internalType": "uint256",
          "name": "",
          "type": "uint256"
        }
      ],
      "stateMutability": "view",
      "type": "function"
    },
    {
      "inputs": [
        {
          "internalType": "address[]",
          "name": "accounts",
          "type": "address[]"
        },
        {
          "internalType": "uint256[]",
          "name": "ids",
          "type": "uint256[]"
        }
      ],
      "name": "balanceOfBatch",
      "outputs": [
        {
          "internalType": "uint256[]",
          "name": "",
          "type": "uint256[]"
        }
      ],
      "stateMutability": "view",
      "type": "function"
    },
    {
      "inputs": [
        {
          "internalType": "address",
          "name": "account",
          "type": "address"
        },
        {
          "internalType": "address",
          "name": "operator",
          "type": "address"
        }
      ],
      "name": "isApprovedForAll",
      "outputs": [
        {
          "internalType": "bool",
          "name": "",
          "type": "bool"
        }
      ],
      "stateMutability": "view",
      "type": "function"
    },
    {
      "inputs": [
        {
          "internalType": "address",
          "name": "from",
          "type": "address"
        },
        {
          "internalType": "address",
          "name": "to",
          "type": "address"
        },
        {
          "internalType": "uint256[]",
          "name": "ids",
          "type": "uint256[]"
        },
        {
          "internalType": "uint256[]",
          "name": "amounts",
          "type": "uint256[]"
        },
        {
          "internalType": "bytes",
          "name": "data",
          "type": "bytes"
        }
      ],
      "name": "safeBatchTransferFrom",
      "outputs": [],
      "stateMutability": "nonpayable",
      "type": "function"
    },
    {
      "inputs": [
        {
          "internalType": "address",
          "name": "from",
          "type": "address"
        },
        {
          "internalType": "address",
          "name": "to",
          "type": "address"
        },
        {
          "internalType": "uint256",
          "name": "id",
          "type": "uint256"
        },
        {
          "internalType": "uint256",
          "name": "amount",
          "type": "uint256"
        },
        {
          "internalType": "bytes",
          "name": "data",
          "type": "bytes"
        }
      ],
      "name": "safeTransferFrom",
      "outputs": [],
      "stateMutability": "nonpayable",
      "type": "function"
    },
    {
      "inputs": [
        {
          "internalType": "address",
          "name": "operator",
          "type": "address"
        },
        {
          "internalType": "bool",
          "name": "approved",
          "type": "bool"
        }
      ],
      "name": "setApprovalForAll",
      "outputs": [],
      "stateMutability": "nonpayable",
      "type": "function"
    },
    {
      "inputs": [
        {
          "internalType": "bytes4",
          "name": "interfaceId",
          "type": "bytes4"
        }
      ],
      "name": "supportsInterface",
      "outputs": [
        {
          "internalType": "bool",
          "name": "",
          "type": "bool"
        }
      ],
      "stateMutability": "view",
      "type": "function"
    },
    {
      "inputs": [
        {
          "internalType": "uint256",
          "name": "",
          "type": "uint256"
        }
      ],
      "name": "uri",
      "outputs": [
        {
          "internalType": "string",
          "name": "",
          "type": "string"
        }
      ],
      "stateMutability": "view",
      "type": "function"
    },
    {
      "inputs": [
        {
          "internalType": "string",
          "name": "_enterPass",
          "type": "string"
        }
      ],
      "name": "Login",
      "outputs": [
        {
          "internalType": "bool",
          "name": "",
          "type": "bool"
        }
      ],
      "stateMutability": "view",
      "type": "function"
    },
    {
      "inputs": [
        {
          "internalType": "address",
          "name": "_user",
          "type": "address"
        }
      ],
      "name": "CheckUserCreds",
      "outputs": [
        {
          "internalType": "bool",
          "name": "",
          "type": "bool"
        }
      ],
      "stateMutability": "view",
      "type": "function"
    }
  ],
  "bytecode": "0x60806040526000600455600a6005553480156200001b57600080fd5b5060405162003d3838038062003d388339818101604052810190620000419190620007af565b8181806200005581620000e360201b60201c565b5081600390805190602001906200006e92919062000562565b50620000963360045460055460405180602001604052806000815250620000ff60201b60201c565b50503073ffffffffffffffffffffffffffffffffffffffff167f1a0f921ce3c6f2f0f6be5b624a487bc1d5143e1fd1833154f39ab63e13d8975560405160405180910390a2505062000e4e565b8060029080519060200190620000fb92919062000562565b5050565b600073ffffffffffffffffffffffffffffffffffffffff168473ffffffffffffffffffffffffffffffffffffffff16141562000172576040517f08c379a00000000000000000000000000000000000000000000000000000000081526004016200016990620008bb565b60405180910390fd5b600062000184620002c460201b60201c565b9050620001bd816000876200019f88620002cc60201b60201c565b620001b088620002cc60201b60201c565b876200034d60201b60201c565b8260008086815260200190815260200160002060008773ffffffffffffffffffffffffffffffffffffffff1673ffffffffffffffffffffffffffffffffffffffff16815260200190815260200160002060008282546200021e919062000916565b925050819055508473ffffffffffffffffffffffffffffffffffffffff16600073ffffffffffffffffffffffffffffffffffffffff168273ffffffffffffffffffffffffffffffffffffffff167fc3d58168c5ae7397731d063d5bbf3d657854427343f4c083240f7aacaa2d0f6287876040516200029e92919062000984565b60405180910390a4620002bd816000878787876200035560201b60201c565b5050505050565b600033905090565b60606000600167ffffffffffffffff811115620002ee57620002ed62000641565b5b6040519080825280602002602001820160405280156200031d5781602001602082028036833780820191505090505b5090508281600081518110620003385762000337620009b1565b5b60200260200101818152505080915050919050565b505050505050565b620003818473ffffffffffffffffffffffffffffffffffffffff166200054f60201b62000a711760201c565b1562000547578373ffffffffffffffffffffffffffffffffffffffff1663f23a6e6187878686866040518663ffffffff1660e01b8152600401620003ca95949392919062000a82565b6020604051808303816000875af19250505080156200040957506040513d601f19601f8201168201806040525081019062000406919062000b43565b60015b620004bb576200041862000b82565b806308c379a014156200047c57506200043062000ba7565b806200043d57506200047e565b806040517f08c379a000000000000000000000000000000000000000000000000000000000815260040162000473919062000c95565b60405180910390fd5b505b6040517f08c379a0000000000000000000000000000000000000000000000000000000008152600401620004b29062000d2f565b60405180910390fd5b63f23a6e6160e01b7bffffffffffffffffffffffffffffffffffffffffffffffffffffffff1916817bffffffffffffffffffffffffffffffffffffffffffffffffffffffff19161462000545576040517f08c379a00000000000000000000000000000000000000000000000000000000081526004016200053c9062000dc7565b60405180910390fd5b505b505050505050565b600080823b905060008111915050919050565b828054620005709062000e18565b90600052602060002090601f016020900481019282620005945760008555620005e0565b82601f10620005af57805160ff1916838001178555620005e0565b82800160010185558215620005e0579182015b82811115620005df578251825591602001919060010190620005c2565b5b509050620005ef9190620005f3565b5090565b5b808211156200060e576000816000905550600101620005f4565b5090565b6000604051905090565b600080fd5b600080fd5b600080fd5b600080fd5b6000601f19601f8301169050919050565b7f4e487b7100000000000000000000000000000000000000000000000000000000600052604160045260246000fd5b6200067b8262000630565b810181811067ffffffffffffffff821117156200069d576200069c62000641565b5b80604052505050565b6000620006b262000612565b9050620006c0828262000670565b919050565b600067ffffffffffffffff821115620006e357620006e262000641565b5b620006ee8262000630565b9050602081019050919050565b60005b838110156200071b578082015181840152602081019050620006fe565b838111156200072b576000848401525b50505050565b6000620007486200074284620006c5565b620006a6565b9050828152602081018484840111156200076757620007666200062b565b5b62000774848285620006fb565b509392505050565b600082601f83011262000794576200079362000626565b5b8151620007a684826020860162000731565b91505092915050565b60008060408385031215620007c957620007c86200061c565b5b600083015167ffffffffffffffff811115620007ea57620007e962000621565b5b620007f8858286016200077c565b925050602083015167ffffffffffffffff8111156200081c576200081b62000621565b5b6200082a858286016200077c565b9150509250929050565b600082825260208201905092915050565b7f455243313135353a206d696e7420746f20746865207a65726f2061646472657360008201527f7300000000000000000000000000000000000000000000000000000000000000602082015250565b6000620008a360218362000834565b9150620008b08262000845565b604082019050919050565b60006020820190508181036000830152620008d68162000894565b9050919050565b6000819050919050565b7f4e487b7100000000000000000000000000000000000000000000000000000000600052601160045260246000fd5b60006200092382620008dd565b91506200093083620008dd565b9250827fffffffffffffffffffffffffffffffffffffffffffffffffffffffffffffffff03821115620009685762000967620008e7565b5b828201905092915050565b6200097e81620008dd565b82525050565b60006040820190506200099b600083018562000973565b620009aa602083018462000973565b9392505050565b7f4e487b7100000000000000000000000000000000000000000000000000000000600052603260045260246000fd5b600073ffffffffffffffffffffffffffffffffffffffff82169050919050565b600062000a0d82620009e0565b9050919050565b62000a1f8162000a00565b82525050565b600081519050919050565b600082825260208201905092915050565b600062000a4e8262000a25565b62000a5a818562000a30565b935062000a6c818560208601620006fb565b62000a778162000630565b840191505092915050565b600060a08201905062000a99600083018862000a14565b62000aa8602083018762000a14565b62000ab7604083018662000973565b62000ac6606083018562000973565b818103608083015262000ada818462000a41565b90509695505050505050565b60007fffffffff0000000000000000000000000000000000000000000000000000000082169050919050565b62000b1d8162000ae6565b811462000b2957600080fd5b50565b60008151905062000b3d8162000b12565b92915050565b60006020828403121562000b5c5762000b5b6200061c565b5b600062000b6c8482850162000b2c565b91505092915050565b60008160e01c9050919050565b600060033d111562000ba45760046000803e62000ba160005162000b75565b90505b90565b600060443d101562000bb95762000c46565b62000bc362000612565b60043d036004823e80513d602482011167ffffffffffffffff8211171562000bed57505062000c46565b808201805167ffffffffffffffff81111562000c0d575050505062000c46565b80602083010160043d03850181111562000c2c57505050505062000c46565b62000c3d8260200185018662000670565b82955050505050505b90565b600081519050919050565b600062000c618262000c49565b62000c6d818562000834565b935062000c7f818560208601620006fb565b62000c8a8162000630565b840191505092915050565b6000602082019050818103600083015262000cb1818462000c54565b905092915050565b7f455243313135353a207472616e7366657220746f206e6f6e204552433131353560008201527f526563656976657220696d706c656d656e746572000000000000000000000000602082015250565b600062000d1760348362000834565b915062000d248262000cb9565b604082019050919050565b6000602082019050818103600083015262000d4a8162000d08565b9050919050565b7f455243313135353a204552433131353552656365697665722072656a6563746560008201527f6420746f6b656e73000000000000000000000000000000000000000000000000602082015250565b600062000daf60288362000834565b915062000dbc8262000d51565b604082019050919050565b6000602082019050818103600083015262000de28162000da0565b9050919050565b7f4e487b7100000000000000000000000000000000000000000000000000000000600052602260045260246000fd5b6000600282049050600182168062000e3157607f821691505b6020821081141562000e485762000e4762000de9565b5b50919050565b612eda8062000e5e6000396000f3fe608060405234801561001057600080fd5b50600436106100e95760003560e01c80632eb2c2d61161008c578063c5956fe111610066578063c5956fe114610294578063cd31de7a146102c4578063e985e9c5146102e2578063f242432a14610312576100e9565b80632eb2c2d61461022c5780634e1273f414610248578063a22cb46514610278576100e9565b8063087f477a116100c8578063087f477a1461017e5780630b2d89241461019c5780630e89341c146101cc57806315fbd4bd146101fc576100e9565b8062fdd58e146100ee57806301ffc9a71461011e57806305f8c8961461014e575b600080fd5b610108600480360381019061010391906119ba565b61032e565b6040516101159190611a09565b60405180910390f35b61013860048036038101906101339190611a7c565b6103f7565b6040516101459190611ac4565b60405180910390f35b61016860048036038101906101639190611adf565b6104d9565b6040516101759190611ac4565b60405180910390f35b610186610505565b6040516101939190611a09565b60405180910390f35b6101b660048036038101906101b19190611c52565b610517565b6040516101c39190611ac4565b60405180910390f35b6101e660048036038101906101e19190611c9b565b6105a2565b6040516101f39190611d50565b60405180910390f35b61021660048036038101906102119190611d9e565b610636565b6040516102239190611d50565b60405180910390f35b61024660048036038101906102419190611f5a565b610682565b005b610262600480360381019061025d91906120ec565b610723565b60405161026f9190612222565b60405180910390f35b610292600480360381019061028d9190612244565b61083c565b005b6102ae60048036038101906102a99190611c52565b610852565b6040516102bb9190611ac4565b60405180910390f35b6102cc61088f565b6040516102d99190611d50565b60405180910390f35b6102fc60048036038101906102f79190612284565b61093c565b6040516103099190611ac4565b60405180910390f35b61032c600480360381019061032791906122c4565b6109d0565b005b60008073ffffffffffffffffffffffffffffffffffffffff168373ffffffffffffffffffffffffffffffffffffffff16141561039f576040517f08c379a0000000000000000000000000000000000000000000000000000000008152600401610396906123cd565b60405180910390fd5b60008083815260200190815260200160002060008473ffffffffffffffffffffffffffffffffffffffff1673ffffffffffffffffffffffffffffffffffffffff16815260200190815260200160002054905092915050565b60007fd9b67a26000000000000000000000000000000000000000000000000000000007bffffffffffffffffffffffffffffffffffffffffffffffffffffffff1916827bffffffffffffffffffffffffffffffffffffffffffffffffffffffff191614806104c257507f0e89341c000000000000000000000000000000000000000000000000000000007bffffffffffffffffffffffffffffffffffffffffffffffffffffffff1916827bffffffffffffffffffffffffffffffffffffffffffffffffffffffff1916145b806104d257506104d182610a84565b5b9050919050565b6000600115156104ea836001610aee565b151514156104fb5760019050610500565b600090505b919050565b600061051233600061032e565b905090565b600060011515610528336001610aee565b15151461053457600080fd5b816040516020016105459190612429565b6040516020818303038152906040528051906020012061056361088f565b6040516020016105739190612429565b604051602081830303815290604052805190602001201415610598576001905061059d565b600090505b919050565b6060600280546105b19061246f565b80601f01602080910402602001604051908101604052809291908181526020018280546105dd9061246f565b801561062a5780601f106105ff5761010080835404028352916020019161062a565b820191906000526020600020905b81548152906001019060200180831161060d57829003601f168201915b50505050509050919050565b606060011515610647336003610aee565b15151461065357600080fd5b6106608260045485610b15565b604051806060016040528060338152602001612e726033913990509392505050565b61068a610d32565b73ffffffffffffffffffffffffffffffffffffffff168573ffffffffffffffffffffffffffffffffffffffff1614806106d057506106cf856106ca610d32565b61093c565b5b61070f576040517f08c379a000000000000000000000000000000000000000000000000000000000815260040161070690612513565b60405180910390fd5b61071c8585858585610d3a565b5050505050565b60608151835114610769576040517f08c379a0000000000000000000000000000000000000000000000000000000008152600401610760906125a5565b60405180910390fd5b6000835167ffffffffffffffff81111561078657610785611b27565b5b6040519080825280602002602001820160405280156107b45781602001602082028036833780820191505090505b50905060005b8451811015610831576108018582815181106107d9576107d86125c5565b5b60200260200101518583815181106107f4576107f36125c5565b5b602002602001015161032e565b828281518110610814576108136125c5565b5b6020026020010181815250508061082a90612623565b90506107ba565b508091505092915050565b61084e610847610d32565b838361104e565b5050565b600060011515610863336003610aee565b15151461086f57600080fd5b816003908051906020019061088592919061186f565b5060019050919050565b6060600115156108a0336003610aee565b1515146108ac57600080fd5b600380546108b99061246f565b80601f01602080910402602001604051908101604052809291908181526020018280546108e59061246f565b80156109325780601f1061090757610100808354040283529160200191610932565b820191906000526020600020905b81548152906001019060200180831161091557829003601f168201915b5050505050905090565b6000600160008473ffffffffffffffffffffffffffffffffffffffff1673ffffffffffffffffffffffffffffffffffffffff16815260200190815260200160002060008373ffffffffffffffffffffffffffffffffffffffff1673ffffffffffffffffffffffffffffffffffffffff16815260200190815260200160002060009054906101000a900460ff16905092915050565b6109d8610d32565b73ffffffffffffffffffffffffffffffffffffffff168573ffffffffffffffffffffffffffffffffffffffff161480610a1e5750610a1d85610a18610d32565b61093c565b5b610a5d576040517f08c379a0000000000000000000000000000000000000000000000000000000008152600401610a54906126de565b60405180910390fd5b610a6a85858585856111bb565b5050505050565b600080823b905060008111915050919050565b60007f01ffc9a7000000000000000000000000000000000000000000000000000000007bffffffffffffffffffffffffffffffffffffffffffffffffffffffff1916827bffffffffffffffffffffffffffffffffffffffffffffffffffffffff1916149050919050565b600081610afc84600061032e565b10610b0a5760019050610b0f565b600090505b92915050565b600073ffffffffffffffffffffffffffffffffffffffff168373ffffffffffffffffffffffffffffffffffffffff161415610b85576040517f08c379a0000000000000000000000000000000000000000000000000000000008152600401610b7c90612770565b60405180910390fd5b6000610b8f610d32565b9050610bbf81856000610ba18761143d565b610baa8761143d565b604051806020016040528060008152506114b7565b600080600085815260200190815260200160002060008673ffffffffffffffffffffffffffffffffffffffff1673ffffffffffffffffffffffffffffffffffffffff16815260200190815260200160002054905082811015610c56576040517f08c379a0000000000000000000000000000000000000000000000000000000008152600401610c4d90612802565b60405180910390fd5b82810360008086815260200190815260200160002060008773ffffffffffffffffffffffffffffffffffffffff1673ffffffffffffffffffffffffffffffffffffffff16815260200190815260200160002081905550600073ffffffffffffffffffffffffffffffffffffffff168573ffffffffffffffffffffffffffffffffffffffff168373ffffffffffffffffffffffffffffffffffffffff167fc3d58168c5ae7397731d063d5bbf3d657854427343f4c083240f7aacaa2d0f628787604051610d23929190612822565b60405180910390a45050505050565b600033905090565b8151835114610d7e576040517f08c379a0000000000000000000000000000000000000000000000000000000008152600401610d75906128bd565b60405180910390fd5b600073ffffffffffffffffffffffffffffffffffffffff168473ffffffffffffffffffffffffffffffffffffffff161415610dee576040517f08c379a0000000000000000000000000000000000000000000000000000000008152600401610de59061294f565b60405180910390fd5b6000610df8610d32565b9050610e088187878787876114b7565b60005b8451811015610fb9576000858281518110610e2957610e286125c5565b5b602002602001015190506000858381518110610e4857610e476125c5565b5b60200260200101519050600080600084815260200190815260200160002060008b73ffffffffffffffffffffffffffffffffffffffff1673ffffffffffffffffffffffffffffffffffffffff16815260200190815260200160002054905081811015610ee9576040517f08c379a0000000000000000000000000000000000000000000000000000000008152600401610ee0906129e1565b60405180910390fd5b81810360008085815260200190815260200160002060008c73ffffffffffffffffffffffffffffffffffffffff1673ffffffffffffffffffffffffffffffffffffffff168152602001908152602001600020819055508160008085815260200190815260200160002060008b73ffffffffffffffffffffffffffffffffffffffff1673ffffffffffffffffffffffffffffffffffffffff1681526020019081526020016000206000828254610f9e9190612a01565b9250508190555050505080610fb290612623565b9050610e0b565b508473ffffffffffffffffffffffffffffffffffffffff168673ffffffffffffffffffffffffffffffffffffffff168273ffffffffffffffffffffffffffffffffffffffff167f4a39dc06d4c0dbc64b70af90fd698a233a518aa5d07e595d983b8c0526c8f7fb8787604051611030929190612a57565b60405180910390a46110468187878787876114bf565b505050505050565b8173ffffffffffffffffffffffffffffffffffffffff168373ffffffffffffffffffffffffffffffffffffffff1614156110bd576040517f08c379a00000000000000000000000000000000000000000000000000000000081526004016110b490612b00565b60405180910390fd5b80600160008573ffffffffffffffffffffffffffffffffffffffff1673ffffffffffffffffffffffffffffffffffffffff16815260200190815260200160002060008473ffffffffffffffffffffffffffffffffffffffff1673ffffffffffffffffffffffffffffffffffffffff16815260200190815260200160002060006101000a81548160ff0219169083151502179055508173ffffffffffffffffffffffffffffffffffffffff168373ffffffffffffffffffffffffffffffffffffffff167f17307eab39ab6107e8899845ad3d59bd9653f200f220920489ca2b5937696c31836040516111ae9190611ac4565b60405180910390a3505050565b600073ffffffffffffffffffffffffffffffffffffffff168473ffffffffffffffffffffffffffffffffffffffff16141561122b576040517f08c379a00000000000000000000000000000000000000000000000000000000081526004016112229061294f565b60405180910390fd5b6000611235610d32565b90506112558187876112468861143d565b61124f8861143d565b876114b7565b600080600086815260200190815260200160002060008873ffffffffffffffffffffffffffffffffffffffff1673ffffffffffffffffffffffffffffffffffffffff168152602001908152602001600020549050838110156112ec576040517f08c379a00000000000000000000000000000000000000000000000000000000081526004016112e3906129e1565b60405180910390fd5b83810360008087815260200190815260200160002060008973ffffffffffffffffffffffffffffffffffffffff1673ffffffffffffffffffffffffffffffffffffffff168152602001908152602001600020819055508360008087815260200190815260200160002060008873ffffffffffffffffffffffffffffffffffffffff1673ffffffffffffffffffffffffffffffffffffffff16815260200190815260200160002060008282546113a19190612a01565b925050819055508573ffffffffffffffffffffffffffffffffffffffff168773ffffffffffffffffffffffffffffffffffffffff168373ffffffffffffffffffffffffffffffffffffffff167fc3d58168c5ae7397731d063d5bbf3d657854427343f4c083240f7aacaa2d0f62888860405161141e929190612822565b60405180910390a4611434828888888888611697565b50505050505050565b60606000600167ffffffffffffffff81111561145c5761145b611b27565b5b60405190808252806020026020018201604052801561148a5781602001602082028036833780820191505090505b50905082816000815181106114a2576114a16125c5565b5b60200260200101818152505080915050919050565b505050505050565b6114de8473ffffffffffffffffffffffffffffffffffffffff16610a71565b1561168f578373ffffffffffffffffffffffffffffffffffffffff1663bc197c8187878686866040518663ffffffff1660e01b8152600401611524959493929190612b84565b6020604051808303816000875af192505050801561156057506040513d601f19601f8201168201806040525081019061155d9190612c01565b60015b6116065761156c612c3b565b806308c379a014156115c95750611581612c5d565b8061158c57506115cb565b806040517f08c379a00000000000000000000000000000000000000000000000000000000081526004016115c09190611d50565b60405180910390fd5b505b6040517f08c379a00000000000000000000000000000000000000000000000000000000081526004016115fd90612d65565b60405180910390fd5b63bc197c8160e01b7bffffffffffffffffffffffffffffffffffffffffffffffffffffffff1916817bffffffffffffffffffffffffffffffffffffffffffffffffffffffff19161461168d576040517f08c379a000000000000000000000000000000000000000000000000000000000815260040161168490612df7565b60405180910390fd5b505b505050505050565b6116b68473ffffffffffffffffffffffffffffffffffffffff16610a71565b15611867578373ffffffffffffffffffffffffffffffffffffffff1663f23a6e6187878686866040518663ffffffff1660e01b81526004016116fc959493929190612e17565b6020604051808303816000875af192505050801561173857506040513d601f19601f820116820180604052508101906117359190612c01565b60015b6117de57611744612c3b565b806308c379a014156117a15750611759612c5d565b8061176457506117a3565b806040517f08c379a00000000000000000000000000000000000000000000000000000000081526004016117989190611d50565b60405180910390fd5b505b6040517f08c379a00000000000000000000000000000000000000000000000000000000081526004016117d590612d65565b60405180910390fd5b63f23a6e6160e01b7bffffffffffffffffffffffffffffffffffffffffffffffffffffffff1916817bffffffffffffffffffffffffffffffffffffffffffffffffffffffff191614611865576040517f08c379a000000000000000000000000000000000000000000000000000000000815260040161185c90612df7565b60405180910390fd5b505b505050505050565b82805461187b9061246f565b90600052602060002090601f01602090048101928261189d57600085556118e4565b82601f106118b657805160ff19168380011785556118e4565b828001600101855582156118e4579182015b828111156118e35782518255916020019190600101906118c8565b5b5090506118f191906118f5565b5090565b5b8082111561190e5760008160009055506001016118f6565b5090565b6000604051905090565b600080fd5b600080fd5b600073ffffffffffffffffffffffffffffffffffffffff82169050919050565b600061195182611926565b9050919050565b61196181611946565b811461196c57600080fd5b50565b60008135905061197e81611958565b92915050565b6000819050919050565b61199781611984565b81146119a257600080fd5b50565b6000813590506119b48161198e565b92915050565b600080604083850312156119d1576119d061191c565b5b60006119df8582860161196f565b92505060206119f0858286016119a5565b9150509250929050565b611a0381611984565b82525050565b6000602082019050611a1e60008301846119fa565b92915050565b60007fffffffff0000000000000000000000000000000000000000000000000000000082169050919050565b611a5981611a24565b8114611a6457600080fd5b50565b600081359050611a7681611a50565b92915050565b600060208284031215611a9257611a9161191c565b5b6000611aa084828501611a67565b91505092915050565b60008115159050919050565b611abe81611aa9565b82525050565b6000602082019050611ad96000830184611ab5565b92915050565b600060208284031215611af557611af461191c565b5b6000611b038482850161196f565b91505092915050565b600080fd5b600080fd5b6000601f19601f8301169050919050565b7f4e487b7100000000000000000000000000000000000000000000000000000000600052604160045260246000fd5b611b5f82611b16565b810181811067ffffffffffffffff82111715611b7e57611b7d611b27565b5b80604052505050565b6000611b91611912565b9050611b9d8282611b56565b919050565b600067ffffffffffffffff821115611bbd57611bbc611b27565b5b611bc682611b16565b9050602081019050919050565b82818337600083830152505050565b6000611bf5611bf084611ba2565b611b87565b905082815260208101848484011115611c1157611c10611b11565b5b611c1c848285611bd3565b509392505050565b600082601f830112611c3957611c38611b0c565b5b8135611c49848260208601611be2565b91505092915050565b600060208284031215611c6857611c6761191c565b5b600082013567ffffffffffffffff811115611c8657611c85611921565b5b611c9284828501611c24565b91505092915050565b600060208284031215611cb157611cb061191c565b5b6000611cbf848285016119a5565b91505092915050565b600081519050919050565b600082825260208201905092915050565b60005b83811015611d02578082015181840152602081019050611ce7565b83811115611d11576000848401525b50505050565b6000611d2282611cc8565b611d2c8185611cd3565b9350611d3c818560208601611ce4565b611d4581611b16565b840191505092915050565b60006020820190508181036000830152611d6a8184611d17565b905092915050565b611d7b81611aa9565b8114611d8657600080fd5b50565b600081359050611d9881611d72565b92915050565b600080600060608486031215611db757611db661191c565b5b6000611dc586828701611d89565b9350506020611dd6868287016119a5565b9250506040611de78682870161196f565b9150509250925092565b600067ffffffffffffffff821115611e0c57611e0b611b27565b5b602082029050602081019050919050565b600080fd5b6000611e35611e3084611df1565b611b87565b90508083825260208201905060208402830185811115611e5857611e57611e1d565b5b835b81811015611e815780611e6d88826119a5565b845260208401935050602081019050611e5a565b5050509392505050565b600082601f830112611ea057611e9f611b0c565b5b8135611eb0848260208601611e22565b91505092915050565b600067ffffffffffffffff821115611ed457611ed3611b27565b5b611edd82611b16565b9050602081019050919050565b6000611efd611ef884611eb9565b611b87565b905082815260208101848484011115611f1957611f18611b11565b5b611f24848285611bd3565b509392505050565b600082601f830112611f4157611f40611b0c565b5b8135611f51848260208601611eea565b91505092915050565b600080600080600060a08688031215611f7657611f7561191c565b5b6000611f848882890161196f565b9550506020611f958882890161196f565b945050604086013567ffffffffffffffff811115611fb657611fb5611921565b5b611fc288828901611e8b565b935050606086013567ffffffffffffffff811115611fe357611fe2611921565b5b611fef88828901611e8b565b925050608086013567ffffffffffffffff8111156120105761200f611921565b5b61201c88828901611f2c565b9150509295509295909350565b600067ffffffffffffffff82111561204457612043611b27565b5b602082029050602081019050919050565b600061206861206384612029565b611b87565b9050808382526020820190506020840283018581111561208b5761208a611e1d565b5b835b818110156120b457806120a0888261196f565b84526020840193505060208101905061208d565b5050509392505050565b600082601f8301126120d3576120d2611b0c565b5b81356120e3848260208601612055565b91505092915050565b600080604083850312156121035761210261191c565b5b600083013567ffffffffffffffff81111561212157612120611921565b5b61212d858286016120be565b925050602083013567ffffffffffffffff81111561214e5761214d611921565b5b61215a85828601611e8b565b9150509250929050565b600081519050919050565b600082825260208201905092915050565b6000819050602082019050919050565b61219981611984565b82525050565b60006121ab8383612190565b60208301905092915050565b6000602082019050919050565b60006121cf82612164565b6121d9818561216f565b93506121e483612180565b8060005b838110156122155781516121fc888261219f565b9750612207836121b7565b9250506001810190506121e8565b5085935050505092915050565b6000602082019050818103600083015261223c81846121c4565b905092915050565b6000806040838503121561225b5761225a61191c565b5b60006122698582860161196f565b925050602061227a85828601611d89565b9150509250929050565b6000806040838503121561229b5761229a61191c565b5b60006122a98582860161196f565b92505060206122ba8582860161196f565b9150509250929050565b600080600080600060a086880312156122e0576122df61191c565b5b60006122ee8882890161196f565b95505060206122ff8882890161196f565b9450506040612310888289016119a5565b9350506060612321888289016119a5565b925050608086013567ffffffffffffffff81111561234257612341611921565b5b61234e88828901611f2c565b9150509295509295909350565b7f455243313135353a2062616c616e636520717565727920666f7220746865207a60008201527f65726f2061646472657373000000000000000000000000000000000000000000602082015250565b60006123b7602b83611cd3565b91506123c28261235b565b604082019050919050565b600060208201905081810360008301526123e6816123aa565b9050919050565b600081905092915050565b600061240382611cc8565b61240d81856123ed565b935061241d818560208601611ce4565b80840191505092915050565b600061243582846123f8565b915081905092915050565b7f4e487b7100000000000000000000000000000000000000000000000000000000600052602260045260246000fd5b6000600282049050600182168061248757607f821691505b6020821081141561249b5761249a612440565b5b50919050565b7f455243313135353a207472616e736665722063616c6c6572206973206e6f742060008201527f6f776e6572206e6f7220617070726f7665640000000000000000000000000000602082015250565b60006124fd603283611cd3565b9150612508826124a1565b604082019050919050565b6000602082019050818103600083015261252c816124f0565b9050919050565b7f455243313135353a206163636f756e747320616e6420696473206c656e67746860008201527f206d69736d617463680000000000000000000000000000000000000000000000602082015250565b600061258f602983611cd3565b915061259a82612533565b604082019050919050565b600060208201905081810360008301526125be81612582565b9050919050565b7f4e487b7100000000000000000000000000000000000000000000000000000000600052603260045260246000fd5b7f4e487b7100000000000000000000000000000000000000000000000000000000600052601160045260246000fd5b600061262e82611984565b91507fffffffffffffffffffffffffffffffffffffffffffffffffffffffffffffffff821415612661576126606125f4565b5b600182019050919050565b7f455243313135353a2063616c6c6572206973206e6f74206f776e6572206e6f7260008201527f20617070726f7665640000000000000000000000000000000000000000000000602082015250565b60006126c8602983611cd3565b91506126d38261266c565b604082019050919050565b600060208201905081810360008301526126f7816126bb565b9050919050565b7f455243313135353a206275726e2066726f6d20746865207a65726f206164647260008201527f6573730000000000000000000000000000000000000000000000000000000000602082015250565b600061275a602383611cd3565b9150612765826126fe565b604082019050919050565b600060208201905081810360008301526127898161274d565b9050919050565b7f455243313135353a206275726e20616d6f756e7420657863656564732062616c60008201527f616e636500000000000000000000000000000000000000000000000000000000602082015250565b60006127ec602483611cd3565b91506127f782612790565b604082019050919050565b6000602082019050818103600083015261281b816127df565b9050919050565b600060408201905061283760008301856119fa565b61284460208301846119fa565b9392505050565b7f455243313135353a2069647320616e6420616d6f756e7473206c656e6774682060008201527f6d69736d61746368000000000000000000000000000000000000000000000000602082015250565b60006128a7602883611cd3565b91506128b28261284b565b604082019050919050565b600060208201905081810360008301526128d68161289a565b9050919050565b7f455243313135353a207472616e7366657220746f20746865207a65726f20616460008201527f6472657373000000000000000000000000000000000000000000000000000000602082015250565b6000612939602583611cd3565b9150612944826128dd565b604082019050919050565b600060208201905081810360008301526129688161292c565b9050919050565b7f455243313135353a20696e73756666696369656e742062616c616e636520666f60008201527f72207472616e7366657200000000000000000000000000000000000000000000602082015250565b60006129cb602a83611cd3565b91506129d68261296f565b604082019050919050565b600060208201905081810360008301526129fa816129be565b9050919050565b6000612a0c82611984565b9150612a1783611984565b9250827fffffffffffffffffffffffffffffffffffffffffffffffffffffffffffffffff03821115612a4c57612a4b6125f4565b5b828201905092915050565b60006040820190508181036000830152612a7181856121c4565b90508181036020830152612a8581846121c4565b90509392505050565b7f455243313135353a2073657474696e6720617070726f76616c2073746174757360008201527f20666f722073656c660000000000000000000000000000000000000000000000602082015250565b6000612aea602983611cd3565b9150612af582612a8e565b604082019050919050565b60006020820190508181036000830152612b1981612add565b9050919050565b612b2981611946565b82525050565b600081519050919050565b600082825260208201905092915050565b6000612b5682612b2f565b612b608185612b3a565b9350612b70818560208601611ce4565b612b7981611b16565b840191505092915050565b600060a082019050612b996000830188612b20565b612ba66020830187612b20565b8181036040830152612bb881866121c4565b90508181036060830152612bcc81856121c4565b90508181036080830152612be08184612b4b565b90509695505050505050565b600081519050612bfb81611a50565b92915050565b600060208284031215612c1757612c1661191c565b5b6000612c2584828501612bec565b91505092915050565b60008160e01c9050919050565b600060033d1115612c5a5760046000803e612c57600051612c2e565b90505b90565b600060443d1015612c6d57612cf0565b612c75611912565b60043d036004823e80513d602482011167ffffffffffffffff82111715612c9d575050612cf0565b808201805167ffffffffffffffff811115612cbb5750505050612cf0565b80602083010160043d038501811115612cd8575050505050612cf0565b612ce782602001850186611b56565b82955050505050505b90565b7f455243313135353a207472616e7366657220746f206e6f6e204552433131353560008201527f526563656976657220696d706c656d656e746572000000000000000000000000602082015250565b6000612d4f603483611cd3565b9150612d5a82612cf3565b604082019050919050565b60006020820190508181036000830152612d7e81612d42565b9050919050565b7f455243313135353a204552433131353552656365697665722072656a6563746560008201527f6420746f6b656e73000000000000000000000000000000000000000000000000602082015250565b6000612de1602883611cd3565b9150612dec82612d85565b604082019050919050565b60006020820190508181036000830152612e1081612dd4565b9050919050565b600060a082019050612e2c6000830188612b20565b612e396020830187612b20565b612e4660408301866119fa565b612e5360608301856119fa565b8181036080830152612e658184612b4b565b9050969550505050505056fe6275726e696e67207b5f616d6f756e747d2043726564656e7469616c20746f6b656e732066726f6d207b5f6163636f756e747da26469706673582212203295a08c6168a468c4ae550d730e32616d7842ac24e083de63f49177a8b3ebae64736f6c634300080a0033",
  "immutableReferences": {},
  "source": "pragma solidity ^0.8.10;\n// SPDX-License-Identifier: MIT\nimport \"@openzeppelin/contracts/token/ERC1155/ERC1155.sol\";\nimport \"./PrivateAccessToken.sol\";\n\n//interface for other contract to read status\ninterface LoginContract_Interface{\n    function Login(string memory _enterPass)external view returns(bool);\n    function CheckUserCreds(address _user)external view returns(bool);\n}\ncontract LoginContract is PrivateAccessToken,LoginContract_Interface{\n    //new token that will allow for a smart contract to check credentials \n    string private Login_Pass;\n    event ContractAddress(address indexed _ContractSelf);\n\n\n    //lauch Login contract with PrivateAccessToken Contract as dependancy\n    constructor(string memory _Pass ,string memory _URI)PrivateAccessToken(_Pass,_URI){\n        emit ContractAddress(address(this));\n    }\n\n    //I can grab the OnlyToken modifier from the Inherited contract to only allow to token holder to mint permission tokens\n    function Login(string memory _enterPass)public view OnlyToken returns(bool){\n        if(keccak256(abi.encodePacked(ViewData())) == keccak256(abi.encodePacked(_enterPass))){\n            return true;\n        } else{\n            return false;\n        }\n    }\n    // external source can check if user data holds correct token\n    function CheckUserCreds(address _user)public view returns(bool){\n        if(PrivateAccessToken.OnlyIf(_user,1) == true){\n            return true;\n        } else {\n            return false;\n        }\n    }\n}\n//DApps can have this contract be the login contract for users to use this application\ncontract DAppLoginContract{\n    uint TotalAccounts =0;\n    constructor(){}\n    \n    mapping(address => Logins) logins;\n    //Keeps list of Login Contracts\n    struct Logins{\n        bool exist;\n        bool status;\n    }\n    //User can add their login contract to this DApp so this Daap can check their credentials in reference to the logincontract\n    function Register(address _LoginContract)public returns(bool){\n        if(logins[_LoginContract].exist == true){\n            return false;\n        }else{\n            logins[_LoginContract] =Logins(true,false);\n            TotalAccounts++;\n            return true;\n        }\n    }\n    //Checks Current Users Login Contracts\n    function LoginStatus(address _LoginContract) public view returns(bool){\n        return logins[_LoginContract].status;\n    }\n    //user Changes Login status\n    function Logout(address _LoginContract,address _user)public view returns(bool){\n        require(LoginContract_Interface(_LoginContract).CheckUserCreds(_user) == true);\n        logins[_LoginContract].status==false;\n        return true;\n    }\n    //user can login and have DApp check login COntract for validity\n    // contract address & password to login\n    function userLogin(address _LoginContract,string memory _enterPass)public view returns(bool){\n        //require(logins[_LoginContract].exist==true);\n        bool Pass = LoginContract_Interface(_LoginContract).Login(_enterPass);  //Has correct Password\n        bool Creds = LoginContract_Interface(_LoginContract).CheckUserCreds(msg.sender); //Has correct Credential Token\n        //Check Login Contract and Registration\n        if( Pass==true && Creds==true){\n            logins[_LoginContract].status==true;\n            return true;  //user successfully logs in!\n        }else{\n            return false; //User fails to have correct NFT access or incorect password\n        }\n    }\n    //check user\n    function CredToken(address _LoginContract,address _user)public view returns(bool){\n        bool Creds = LoginContract_Interface(_LoginContract).CheckUserCreds(_user);\n        return Creds;\n    }\n}\n//- Dev: Quincy J\n",
  "sourcePath": "/Users/Q/Documents/GitHub/LoginContract/contracts/LoginContract.sol",
  "compiler": {
    "name": "solc",
    "version": "0.8.10+commit.fc410830.Emscripten.clang"
  },
  "schemaVersion": "3.4.3",
  "updatedAt": "2022-02-16T19:43:03.901Z",
  "devdoc": {
    "kind": "dev",
    "methods": {
      "balanceOf(address,uint256)": {
        "details": "See {IERC1155-balanceOf}. Requirements: - `account` cannot be the zero address."
      },
      "balanceOfBatch(address[],uint256[])": {
        "details": "See {IERC1155-balanceOfBatch}. Requirements: - `accounts` and `ids` must have the same length."
      },
      "isApprovedForAll(address,address)": {
        "details": "See {IERC1155-isApprovedForAll}."
      },
      "safeBatchTransferFrom(address,address,uint256[],uint256[],bytes)": {
        "details": "See {IERC1155-safeBatchTransferFrom}."
      },
      "safeTransferFrom(address,address,uint256,uint256,bytes)": {
        "details": "See {IERC1155-safeTransferFrom}."
      },
      "setApprovalForAll(address,bool)": {
        "details": "See {IERC1155-setApprovalForAll}."
      },
      "supportsInterface(bytes4)": {
        "details": "See {IERC165-supportsInterface}."
      },
      "uri(uint256)": {
        "details": "See {IERC1155MetadataURI-uri}. This implementation returns the same URI for *all* token types. It relies on the token type ID substitution mechanism https://eips.ethereum.org/EIPS/eip-1155#metadata[defined in the EIP]. Clients calling this function must replace the `\\{id\\}` substring with the actual token type ID."
      }
    },
    "version": 1
  },
  "userdoc": {
    "kind": "user",
    "methods": {},
    "version": 1
  }
}