{
  "contractName": "LoginContract",
  "abi": [
    {
      "inputs": [
        {
          "internalType": "string",
          "name": "_Pass",
          "type": "string"
        },
        {
          "internalType": "string",
          "name": "_URI",
          "type": "string"
        }
      ],
      "stateMutability": "nonpayable",
      "type": "constructor"
    },
    {
      "anonymous": false,
      "inputs": [
        {
          "indexed": true,
          "internalType": "address",
          "name": "account",
          "type": "address"
        },
        {
          "indexed": true,
          "internalType": "address",
          "name": "operator",
          "type": "address"
        },
        {
          "indexed": false,
          "internalType": "bool",
          "name": "approved",
          "type": "bool"
        }
      ],
      "name": "ApprovalForAll",
      "type": "event"
    },
    {
      "anonymous": false,
      "inputs": [
        {
          "indexed": true,
          "internalType": "address",
          "name": "_ContractSelf",
          "type": "address"
        }
      ],
      "name": "ContractAddress",
      "type": "event"
    },
    {
      "anonymous": false,
      "inputs": [
        {
          "indexed": true,
          "internalType": "address",
          "name": "operator",
          "type": "address"
        },
        {
          "indexed": true,
          "internalType": "address",
          "name": "from",
          "type": "address"
        },
        {
          "indexed": true,
          "internalType": "address",
          "name": "to",
          "type": "address"
        },
        {
          "indexed": false,
          "internalType": "uint256[]",
          "name": "ids",
          "type": "uint256[]"
        },
        {
          "indexed": false,
          "internalType": "uint256[]",
          "name": "values",
          "type": "uint256[]"
        }
      ],
      "name": "TransferBatch",
      "type": "event"
    },
    {
      "anonymous": false,
      "inputs": [
        {
          "indexed": true,
          "internalType": "address",
          "name": "operator",
          "type": "address"
        },
        {
          "indexed": true,
          "internalType": "address",
          "name": "from",
          "type": "address"
        },
        {
          "indexed": true,
          "internalType": "address",
          "name": "to",
          "type": "address"
        },
        {
          "indexed": false,
          "internalType": "uint256",
          "name": "id",
          "type": "uint256"
        },
        {
          "indexed": false,
          "internalType": "uint256",
          "name": "value",
          "type": "uint256"
        }
      ],
      "name": "TransferSingle",
      "type": "event"
    },
    {
      "anonymous": false,
      "inputs": [
        {
          "indexed": false,
          "internalType": "string",
          "name": "value",
          "type": "string"
        },
        {
          "indexed": true,
          "internalType": "uint256",
          "name": "id",
          "type": "uint256"
        }
      ],
      "name": "URI",
      "type": "event"
    },
    {
      "inputs": [
        {
          "internalType": "uint256",
          "name": "_amount",
          "type": "uint256"
        },
        {
          "internalType": "address",
          "name": "_account",
          "type": "address"
        }
      ],
      "name": "Burn",
      "outputs": [
        {
          "internalType": "string",
          "name": "",
          "type": "string"
        }
      ],
      "stateMutability": "nonpayable",
      "type": "function"
    },
    {
      "inputs": [
        {
          "internalType": "string",
          "name": "_newData",
          "type": "string"
        }
      ],
      "name": "Edit",
      "outputs": [
        {
          "internalType": "bool",
          "name": "",
          "type": "bool"
        }
      ],
      "stateMutability": "nonpayable",
      "type": "function"
    },
    {
      "inputs": [],
      "name": "ViewData",
      "outputs": [
        {
          "internalType": "string",
          "name": "",
          "type": "string"
        }
      ],
      "stateMutability": "view",
      "type": "function"
    },
    {
      "inputs": [],
      "name": "ViewStatus",
      "outputs": [
        {
          "internalType": "uint256",
          "name": "",
          "type": "uint256"
        }
      ],
      "stateMutability": "view",
      "type": "function"
    },
    {
      "inputs": [
        {
          "internalType": "address",
          "name": "account",
          "type": "address"
        },
        {
          "internalType": "uint256",
          "name": "id",
          "type": "uint256"
        }
      ],
      "name": "balanceOf",
      "outputs": [
        {
          "internalType": "uint256",
          "name": "",
          "type": "uint256"
        }
      ],
      "stateMutability": "view",
      "type": "function"
    },
    {
      "inputs": [
        {
          "internalType": "address[]",
          "name": "accounts",
          "type": "address[]"
        },
        {
          "internalType": "uint256[]",
          "name": "ids",
          "type": "uint256[]"
        }
      ],
      "name": "balanceOfBatch",
      "outputs": [
        {
          "internalType": "uint256[]",
          "name": "",
          "type": "uint256[]"
        }
      ],
      "stateMutability": "view",
      "type": "function"
    },
    {
      "inputs": [
        {
          "internalType": "address",
          "name": "account",
          "type": "address"
        },
        {
          "internalType": "address",
          "name": "operator",
          "type": "address"
        }
      ],
      "name": "isApprovedForAll",
      "outputs": [
        {
          "internalType": "bool",
          "name": "",
          "type": "bool"
        }
      ],
      "stateMutability": "view",
      "type": "function"
    },
    {
      "inputs": [
        {
          "internalType": "address",
          "name": "from",
          "type": "address"
        },
        {
          "internalType": "address",
          "name": "to",
          "type": "address"
        },
        {
          "internalType": "uint256[]",
          "name": "ids",
          "type": "uint256[]"
        },
        {
          "internalType": "uint256[]",
          "name": "amounts",
          "type": "uint256[]"
        },
        {
          "internalType": "bytes",
          "name": "data",
          "type": "bytes"
        }
      ],
      "name": "safeBatchTransferFrom",
      "outputs": [],
      "stateMutability": "nonpayable",
      "type": "function"
    },
    {
      "inputs": [
        {
          "internalType": "address",
          "name": "from",
          "type": "address"
        },
        {
          "internalType": "address",
          "name": "to",
          "type": "address"
        },
        {
          "internalType": "uint256",
          "name": "id",
          "type": "uint256"
        },
        {
          "internalType": "uint256",
          "name": "amount",
          "type": "uint256"
        },
        {
          "internalType": "bytes",
          "name": "data",
          "type": "bytes"
        }
      ],
      "name": "safeTransferFrom",
      "outputs": [],
      "stateMutability": "nonpayable",
      "type": "function"
    },
    {
      "inputs": [
        {
          "internalType": "address",
          "name": "operator",
          "type": "address"
        },
        {
          "internalType": "bool",
          "name": "approved",
          "type": "bool"
        }
      ],
      "name": "setApprovalForAll",
      "outputs": [],
      "stateMutability": "nonpayable",
      "type": "function"
    },
    {
      "inputs": [
        {
          "internalType": "bytes4",
          "name": "interfaceId",
          "type": "bytes4"
        }
      ],
      "name": "supportsInterface",
      "outputs": [
        {
          "internalType": "bool",
          "name": "",
          "type": "bool"
        }
      ],
      "stateMutability": "view",
      "type": "function"
    },
    {
      "inputs": [
        {
          "internalType": "uint256",
          "name": "",
          "type": "uint256"
        }
      ],
      "name": "uri",
      "outputs": [
        {
          "internalType": "string",
          "name": "",
          "type": "string"
        }
      ],
      "stateMutability": "view",
      "type": "function"
    },
    {
      "inputs": [
        {
          "internalType": "string",
          "name": "_enterPass",
          "type": "string"
        }
      ],
      "name": "Login",
      "outputs": [
        {
          "internalType": "bool",
          "name": "",
          "type": "bool"
        }
      ],
      "stateMutability": "view",
      "type": "function"
    },
    {
      "inputs": [
        {
          "internalType": "address",
          "name": "_user",
          "type": "address"
        }
      ],
      "name": "CheckUserCreds",
      "outputs": [
        {
          "internalType": "bool",
          "name": "",
          "type": "bool"
        }
      ],
      "stateMutability": "view",
      "type": "function"
    }
  ],
  "bytecode": "0x60806040526000600455600580553480156200001a57600080fd5b5060405162003d2338038062003d238339818101604052810190620000409190620007ae565b8181806200005481620000e260201b60201c565b5081600390805190602001906200006d92919062000561565b50620000953360045460055460405180602001604052806000815250620000fe60201b60201c565b50503073ffffffffffffffffffffffffffffffffffffffff167f1a0f921ce3c6f2f0f6be5b624a487bc1d5143e1fd1833154f39ab63e13d8975560405160405180910390a2505062000e4d565b8060029080519060200190620000fa92919062000561565b5050565b600073ffffffffffffffffffffffffffffffffffffffff168473ffffffffffffffffffffffffffffffffffffffff16141562000171576040517f08c379a00000000000000000000000000000000000000000000000000000000081526004016200016890620008ba565b60405180910390fd5b600062000183620002c360201b60201c565b9050620001bc816000876200019e88620002cb60201b60201c565b620001af88620002cb60201b60201c565b876200034c60201b60201c565b8260008086815260200190815260200160002060008773ffffffffffffffffffffffffffffffffffffffff1673ffffffffffffffffffffffffffffffffffffffff16815260200190815260200160002060008282546200021d919062000915565b925050819055508473ffffffffffffffffffffffffffffffffffffffff16600073ffffffffffffffffffffffffffffffffffffffff168273ffffffffffffffffffffffffffffffffffffffff167fc3d58168c5ae7397731d063d5bbf3d657854427343f4c083240f7aacaa2d0f6287876040516200029d92919062000983565b60405180910390a4620002bc816000878787876200035460201b60201c565b5050505050565b600033905090565b60606000600167ffffffffffffffff811115620002ed57620002ec62000640565b5b6040519080825280602002602001820160405280156200031c5781602001602082028036833780820191505090505b5090508281600081518110620003375762000336620009b0565b5b60200260200101818152505080915050919050565b505050505050565b620003808473ffffffffffffffffffffffffffffffffffffffff166200054e60201b62000a701760201c565b1562000546578373ffffffffffffffffffffffffffffffffffffffff1663f23a6e6187878686866040518663ffffffff1660e01b8152600401620003c995949392919062000a81565b6020604051808303816000875af19250505080156200040857506040513d601f19601f8201168201806040525081019062000405919062000b42565b60015b620004ba576200041762000b81565b806308c379a014156200047b57506200042f62000ba6565b806200043c57506200047d565b806040517f08c379a000000000000000000000000000000000000000000000000000000000815260040162000472919062000c94565b60405180910390fd5b505b6040517f08c379a0000000000000000000000000000000000000000000000000000000008152600401620004b19062000d2e565b60405180910390fd5b63f23a6e6160e01b7bffffffffffffffffffffffffffffffffffffffffffffffffffffffff1916817bffffffffffffffffffffffffffffffffffffffffffffffffffffffff19161462000544576040517f08c379a00000000000000000000000000000000000000000000000000000000081526004016200053b9062000dc6565b60405180910390fd5b505b505050505050565b600080823b905060008111915050919050565b8280546200056f9062000e17565b90600052602060002090601f016020900481019282620005935760008555620005df565b82601f10620005ae57805160ff1916838001178555620005df565b82800160010185558215620005df579182015b82811115620005de578251825591602001919060010190620005c1565b5b509050620005ee9190620005f2565b5090565b5b808211156200060d576000816000905550600101620005f3565b5090565b6000604051905090565b600080fd5b600080fd5b600080fd5b600080fd5b6000601f19601f8301169050919050565b7f4e487b7100000000000000000000000000000000000000000000000000000000600052604160045260246000fd5b6200067a826200062f565b810181811067ffffffffffffffff821117156200069c576200069b62000640565b5b80604052505050565b6000620006b162000611565b9050620006bf82826200066f565b919050565b600067ffffffffffffffff821115620006e257620006e162000640565b5b620006ed826200062f565b9050602081019050919050565b60005b838110156200071a578082015181840152602081019050620006fd565b838111156200072a576000848401525b50505050565b6000620007476200074184620006c4565b620006a5565b9050828152602081018484840111156200076657620007656200062a565b5b62000773848285620006fa565b509392505050565b600082601f83011262000793576200079262000625565b5b8151620007a584826020860162000730565b91505092915050565b60008060408385031215620007c857620007c76200061b565b5b600083015167ffffffffffffffff811115620007e957620007e862000620565b5b620007f7858286016200077b565b925050602083015167ffffffffffffffff8111156200081b576200081a62000620565b5b62000829858286016200077b565b9150509250929050565b600082825260208201905092915050565b7f455243313135353a206d696e7420746f20746865207a65726f2061646472657360008201527f7300000000000000000000000000000000000000000000000000000000000000602082015250565b6000620008a260218362000833565b9150620008af8262000844565b604082019050919050565b60006020820190508181036000830152620008d58162000893565b9050919050565b6000819050919050565b7f4e487b7100000000000000000000000000000000000000000000000000000000600052601160045260246000fd5b60006200092282620008dc565b91506200092f83620008dc565b9250827fffffffffffffffffffffffffffffffffffffffffffffffffffffffffffffffff03821115620009675762000966620008e6565b5b828201905092915050565b6200097d81620008dc565b82525050565b60006040820190506200099a600083018562000972565b620009a9602083018462000972565b9392505050565b7f4e487b7100000000000000000000000000000000000000000000000000000000600052603260045260246000fd5b600073ffffffffffffffffffffffffffffffffffffffff82169050919050565b600062000a0c82620009df565b9050919050565b62000a1e81620009ff565b82525050565b600081519050919050565b600082825260208201905092915050565b600062000a4d8262000a24565b62000a59818562000a2f565b935062000a6b818560208601620006fa565b62000a76816200062f565b840191505092915050565b600060a08201905062000a98600083018862000a13565b62000aa7602083018762000a13565b62000ab6604083018662000972565b62000ac5606083018562000972565b818103608083015262000ad9818462000a40565b90509695505050505050565b60007fffffffff0000000000000000000000000000000000000000000000000000000082169050919050565b62000b1c8162000ae5565b811462000b2857600080fd5b50565b60008151905062000b3c8162000b11565b92915050565b60006020828403121562000b5b5762000b5a6200061b565b5b600062000b6b8482850162000b2b565b91505092915050565b60008160e01c9050919050565b600060033d111562000ba35760046000803e62000ba060005162000b74565b90505b90565b600060443d101562000bb85762000c45565b62000bc262000611565b60043d036004823e80513d602482011167ffffffffffffffff8211171562000bec57505062000c45565b808201805167ffffffffffffffff81111562000c0c575050505062000c45565b80602083010160043d03850181111562000c2b57505050505062000c45565b62000c3c826020018501866200066f565b82955050505050505b90565b600081519050919050565b600062000c608262000c48565b62000c6c818562000833565b935062000c7e818560208601620006fa565b62000c89816200062f565b840191505092915050565b6000602082019050818103600083015262000cb0818462000c53565b905092915050565b7f455243313135353a207472616e7366657220746f206e6f6e204552433131353560008201527f526563656976657220696d706c656d656e746572000000000000000000000000602082015250565b600062000d1660348362000833565b915062000d238262000cb8565b604082019050919050565b6000602082019050818103600083015262000d498162000d07565b9050919050565b7f455243313135353a204552433131353552656365697665722072656a6563746560008201527f6420746f6b656e73000000000000000000000000000000000000000000000000602082015250565b600062000dae60288362000833565b915062000dbb8262000d50565b604082019050919050565b6000602082019050818103600083015262000de18162000d9f565b9050919050565b7f4e487b7100000000000000000000000000000000000000000000000000000000600052602260045260246000fd5b6000600282049050600182168062000e3057607f821691505b6020821081141562000e475762000e4662000de8565b5b50919050565b612ec68062000e5d6000396000f3fe608060405234801561001057600080fd5b50600436106100e95760003560e01c80634e1273f41161008c578063cd31de7a11610066578063cd31de7a14610294578063e985e9c5146102b2578063f242432a146102e2578063f6554c3a146102fe576100e9565b80634e1273f414610218578063a22cb46514610248578063c5956fe114610264576100e9565b8063087f477a116100c8578063087f477a1461017e5780630b2d89241461019c5780630e89341c146101cc5780632eb2c2d6146101fc576100e9565b8062fdd58e146100ee57806301ffc9a71461011e57806305f8c8961461014e575b600080fd5b610108600480360381019061010391906119b9565b61032e565b6040516101159190611a08565b60405180910390f35b61013860048036038101906101339190611a7b565b6103f7565b6040516101459190611ac3565b60405180910390f35b61016860048036038101906101639190611ade565b6104d9565b6040516101759190611ac3565b60405180910390f35b610186610505565b6040516101939190611a08565b60405180910390f35b6101b660048036038101906101b19190611c51565b610517565b6040516101c39190611ac3565b60405180910390f35b6101e660048036038101906101e19190611c9a565b6105a2565b6040516101f39190611d4f565b60405180910390f35b61021660048036038101906102119190611eda565b610636565b005b610232600480360381019061022d919061206c565b6106d7565b60405161023f91906121a2565b60405180910390f35b610262600480360381019061025d91906121f0565b6107f0565b005b61027e60048036038101906102799190611c51565b610806565b60405161028b9190611ac3565b60405180910390f35b61029c610843565b6040516102a99190611d4f565b60405180910390f35b6102cc60048036038101906102c79190612230565b6108f0565b6040516102d99190611ac3565b60405180910390f35b6102fc60048036038101906102f79190612270565b610984565b005b61031860048036038101906103139190612307565b610a25565b6040516103259190611d4f565b60405180910390f35b60008073ffffffffffffffffffffffffffffffffffffffff168373ffffffffffffffffffffffffffffffffffffffff16141561039f576040517f08c379a0000000000000000000000000000000000000000000000000000000008152600401610396906123b9565b60405180910390fd5b60008083815260200190815260200160002060008473ffffffffffffffffffffffffffffffffffffffff1673ffffffffffffffffffffffffffffffffffffffff16815260200190815260200160002054905092915050565b60007fd9b67a26000000000000000000000000000000000000000000000000000000007bffffffffffffffffffffffffffffffffffffffffffffffffffffffff1916827bffffffffffffffffffffffffffffffffffffffffffffffffffffffff191614806104c257507f0e89341c000000000000000000000000000000000000000000000000000000007bffffffffffffffffffffffffffffffffffffffffffffffffffffffff1916827bffffffffffffffffffffffffffffffffffffffffffffffffffffffff1916145b806104d257506104d182610a83565b5b9050919050565b6000600115156104ea836001610aed565b151514156104fb5760019050610500565b600090505b919050565b600061051233600061032e565b905090565b600060011515610528336001610aed565b15151461053457600080fd5b816040516020016105459190612415565b60405160208183030381529060405280519060200120610563610843565b6040516020016105739190612415565b604051602081830303815290604052805190602001201415610598576001905061059d565b600090505b919050565b6060600280546105b19061245b565b80601f01602080910402602001604051908101604052809291908181526020018280546105dd9061245b565b801561062a5780601f106105ff5761010080835404028352916020019161062a565b820191906000526020600020905b81548152906001019060200180831161060d57829003601f168201915b50505050509050919050565b61063e610b14565b73ffffffffffffffffffffffffffffffffffffffff168573ffffffffffffffffffffffffffffffffffffffff16148061068457506106838561067e610b14565b6108f0565b5b6106c3576040517f08c379a00000000000000000000000000000000000000000000000000000000081526004016106ba906124ff565b60405180910390fd5b6106d08585858585610b1c565b5050505050565b6060815183511461071d576040517f08c379a000000000000000000000000000000000000000000000000000000000815260040161071490612591565b60405180910390fd5b6000835167ffffffffffffffff81111561073a57610739611b26565b5b6040519080825280602002602001820160405280156107685781602001602082028036833780820191505090505b50905060005b84518110156107e5576107b585828151811061078d5761078c6125b1565b5b60200260200101518583815181106107a8576107a76125b1565b5b602002602001015161032e565b8282815181106107c8576107c76125b1565b5b602002602001018181525050806107de9061260f565b905061076e565b508091505092915050565b6108026107fb610b14565b8383610e30565b5050565b600060011515610817336003610aed565b15151461082357600080fd5b816003908051906020019061083992919061186e565b5060019050919050565b606060011515610854336003610aed565b15151461086057600080fd5b6003805461086d9061245b565b80601f01602080910402602001604051908101604052809291908181526020018280546108999061245b565b80156108e65780601f106108bb576101008083540402835291602001916108e6565b820191906000526020600020905b8154815290600101906020018083116108c957829003601f168201915b5050505050905090565b6000600160008473ffffffffffffffffffffffffffffffffffffffff1673ffffffffffffffffffffffffffffffffffffffff16815260200190815260200160002060008373ffffffffffffffffffffffffffffffffffffffff1673ffffffffffffffffffffffffffffffffffffffff16815260200190815260200160002060009054906101000a900460ff16905092915050565b61098c610b14565b73ffffffffffffffffffffffffffffffffffffffff168573ffffffffffffffffffffffffffffffffffffffff1614806109d257506109d1856109cc610b14565b6108f0565b5b610a11576040517f08c379a0000000000000000000000000000000000000000000000000000000008152600401610a08906126ca565b60405180910390fd5b610a1e8585858585610f9d565b5050505050565b606060011515610a36336003610aed565b151514610a4257600080fd5b610a4f826004548561121f565b604051806060016040528060338152602001612e5e60339139905092915050565b600080823b905060008111915050919050565b60007f01ffc9a7000000000000000000000000000000000000000000000000000000007bffffffffffffffffffffffffffffffffffffffffffffffffffffffff1916827bffffffffffffffffffffffffffffffffffffffffffffffffffffffff1916149050919050565b600081610afb84600061032e565b10610b095760019050610b0e565b600090505b92915050565b600033905090565b8151835114610b60576040517f08c379a0000000000000000000000000000000000000000000000000000000008152600401610b579061275c565b60405180910390fd5b600073ffffffffffffffffffffffffffffffffffffffff168473ffffffffffffffffffffffffffffffffffffffff161415610bd0576040517f08c379a0000000000000000000000000000000000000000000000000000000008152600401610bc7906127ee565b60405180910390fd5b6000610bda610b14565b9050610bea81878787878761143c565b60005b8451811015610d9b576000858281518110610c0b57610c0a6125b1565b5b602002602001015190506000858381518110610c2a57610c296125b1565b5b60200260200101519050600080600084815260200190815260200160002060008b73ffffffffffffffffffffffffffffffffffffffff1673ffffffffffffffffffffffffffffffffffffffff16815260200190815260200160002054905081811015610ccb576040517f08c379a0000000000000000000000000000000000000000000000000000000008152600401610cc290612880565b60405180910390fd5b81810360008085815260200190815260200160002060008c73ffffffffffffffffffffffffffffffffffffffff1673ffffffffffffffffffffffffffffffffffffffff168152602001908152602001600020819055508160008085815260200190815260200160002060008b73ffffffffffffffffffffffffffffffffffffffff1673ffffffffffffffffffffffffffffffffffffffff1681526020019081526020016000206000828254610d8091906128a0565b9250508190555050505080610d949061260f565b9050610bed565b508473ffffffffffffffffffffffffffffffffffffffff168673ffffffffffffffffffffffffffffffffffffffff168273ffffffffffffffffffffffffffffffffffffffff167f4a39dc06d4c0dbc64b70af90fd698a233a518aa5d07e595d983b8c0526c8f7fb8787604051610e129291906128f6565b60405180910390a4610e28818787878787611444565b505050505050565b8173ffffffffffffffffffffffffffffffffffffffff168373ffffffffffffffffffffffffffffffffffffffff161415610e9f576040517f08c379a0000000000000000000000000000000000000000000000000000000008152600401610e969061299f565b60405180910390fd5b80600160008573ffffffffffffffffffffffffffffffffffffffff1673ffffffffffffffffffffffffffffffffffffffff16815260200190815260200160002060008473ffffffffffffffffffffffffffffffffffffffff1673ffffffffffffffffffffffffffffffffffffffff16815260200190815260200160002060006101000a81548160ff0219169083151502179055508173ffffffffffffffffffffffffffffffffffffffff168373ffffffffffffffffffffffffffffffffffffffff167f17307eab39ab6107e8899845ad3d59bd9653f200f220920489ca2b5937696c3183604051610f909190611ac3565b60405180910390a3505050565b600073ffffffffffffffffffffffffffffffffffffffff168473ffffffffffffffffffffffffffffffffffffffff16141561100d576040517f08c379a0000000000000000000000000000000000000000000000000000000008152600401611004906127ee565b60405180910390fd5b6000611017610b14565b90506110378187876110288861161c565b6110318861161c565b8761143c565b600080600086815260200190815260200160002060008873ffffffffffffffffffffffffffffffffffffffff1673ffffffffffffffffffffffffffffffffffffffff168152602001908152602001600020549050838110156110ce576040517f08c379a00000000000000000000000000000000000000000000000000000000081526004016110c590612880565b60405180910390fd5b83810360008087815260200190815260200160002060008973ffffffffffffffffffffffffffffffffffffffff1673ffffffffffffffffffffffffffffffffffffffff168152602001908152602001600020819055508360008087815260200190815260200160002060008873ffffffffffffffffffffffffffffffffffffffff1673ffffffffffffffffffffffffffffffffffffffff168152602001908152602001600020600082825461118391906128a0565b925050819055508573ffffffffffffffffffffffffffffffffffffffff168773ffffffffffffffffffffffffffffffffffffffff168373ffffffffffffffffffffffffffffffffffffffff167fc3d58168c5ae7397731d063d5bbf3d657854427343f4c083240f7aacaa2d0f6288886040516112009291906129bf565b60405180910390a4611216828888888888611696565b50505050505050565b600073ffffffffffffffffffffffffffffffffffffffff168373ffffffffffffffffffffffffffffffffffffffff16141561128f576040517f08c379a000000000000000000000000000000000000000000000000000000000815260040161128690612a5a565b60405180910390fd5b6000611299610b14565b90506112c9818560006112ab8761161c565b6112b48761161c565b6040518060200160405280600081525061143c565b600080600085815260200190815260200160002060008673ffffffffffffffffffffffffffffffffffffffff1673ffffffffffffffffffffffffffffffffffffffff16815260200190815260200160002054905082811015611360576040517f08c379a000000000000000000000000000000000000000000000000000000000815260040161135790612aec565b60405180910390fd5b82810360008086815260200190815260200160002060008773ffffffffffffffffffffffffffffffffffffffff1673ffffffffffffffffffffffffffffffffffffffff16815260200190815260200160002081905550600073ffffffffffffffffffffffffffffffffffffffff168573ffffffffffffffffffffffffffffffffffffffff168373ffffffffffffffffffffffffffffffffffffffff167fc3d58168c5ae7397731d063d5bbf3d657854427343f4c083240f7aacaa2d0f62878760405161142d9291906129bf565b60405180910390a45050505050565b505050505050565b6114638473ffffffffffffffffffffffffffffffffffffffff16610a70565b15611614578373ffffffffffffffffffffffffffffffffffffffff1663bc197c8187878686866040518663ffffffff1660e01b81526004016114a9959493929190612b70565b6020604051808303816000875af19250505080156114e557506040513d601f19601f820116820180604052508101906114e29190612bed565b60015b61158b576114f1612c27565b806308c379a0141561154e5750611506612c49565b806115115750611550565b806040517f08c379a00000000000000000000000000000000000000000000000000000000081526004016115459190611d4f565b60405180910390fd5b505b6040517f08c379a000000000000000000000000000000000000000000000000000000000815260040161158290612d51565b60405180910390fd5b63bc197c8160e01b7bffffffffffffffffffffffffffffffffffffffffffffffffffffffff1916817bffffffffffffffffffffffffffffffffffffffffffffffffffffffff191614611612576040517f08c379a000000000000000000000000000000000000000000000000000000000815260040161160990612de3565b60405180910390fd5b505b505050505050565b60606000600167ffffffffffffffff81111561163b5761163a611b26565b5b6040519080825280602002602001820160405280156116695781602001602082028036833780820191505090505b5090508281600081518110611681576116806125b1565b5b60200260200101818152505080915050919050565b6116b58473ffffffffffffffffffffffffffffffffffffffff16610a70565b15611866578373ffffffffffffffffffffffffffffffffffffffff1663f23a6e6187878686866040518663ffffffff1660e01b81526004016116fb959493929190612e03565b6020604051808303816000875af192505050801561173757506040513d601f19601f820116820180604052508101906117349190612bed565b60015b6117dd57611743612c27565b806308c379a014156117a05750611758612c49565b8061176357506117a2565b806040517f08c379a00000000000000000000000000000000000000000000000000000000081526004016117979190611d4f565b60405180910390fd5b505b6040517f08c379a00000000000000000000000000000000000000000000000000000000081526004016117d490612d51565b60405180910390fd5b63f23a6e6160e01b7bffffffffffffffffffffffffffffffffffffffffffffffffffffffff1916817bffffffffffffffffffffffffffffffffffffffffffffffffffffffff191614611864576040517f08c379a000000000000000000000000000000000000000000000000000000000815260040161185b90612de3565b60405180910390fd5b505b505050505050565b82805461187a9061245b565b90600052602060002090601f01602090048101928261189c57600085556118e3565b82601f106118b557805160ff19168380011785556118e3565b828001600101855582156118e3579182015b828111156118e25782518255916020019190600101906118c7565b5b5090506118f091906118f4565b5090565b5b8082111561190d5760008160009055506001016118f5565b5090565b6000604051905090565b600080fd5b600080fd5b600073ffffffffffffffffffffffffffffffffffffffff82169050919050565b600061195082611925565b9050919050565b61196081611945565b811461196b57600080fd5b50565b60008135905061197d81611957565b92915050565b6000819050919050565b61199681611983565b81146119a157600080fd5b50565b6000813590506119b38161198d565b92915050565b600080604083850312156119d0576119cf61191b565b5b60006119de8582860161196e565b92505060206119ef858286016119a4565b9150509250929050565b611a0281611983565b82525050565b6000602082019050611a1d60008301846119f9565b92915050565b60007fffffffff0000000000000000000000000000000000000000000000000000000082169050919050565b611a5881611a23565b8114611a6357600080fd5b50565b600081359050611a7581611a4f565b92915050565b600060208284031215611a9157611a9061191b565b5b6000611a9f84828501611a66565b91505092915050565b60008115159050919050565b611abd81611aa8565b82525050565b6000602082019050611ad86000830184611ab4565b92915050565b600060208284031215611af457611af361191b565b5b6000611b028482850161196e565b91505092915050565b600080fd5b600080fd5b6000601f19601f8301169050919050565b7f4e487b7100000000000000000000000000000000000000000000000000000000600052604160045260246000fd5b611b5e82611b15565b810181811067ffffffffffffffff82111715611b7d57611b7c611b26565b5b80604052505050565b6000611b90611911565b9050611b9c8282611b55565b919050565b600067ffffffffffffffff821115611bbc57611bbb611b26565b5b611bc582611b15565b9050602081019050919050565b82818337600083830152505050565b6000611bf4611bef84611ba1565b611b86565b905082815260208101848484011115611c1057611c0f611b10565b5b611c1b848285611bd2565b509392505050565b600082601f830112611c3857611c37611b0b565b5b8135611c48848260208601611be1565b91505092915050565b600060208284031215611c6757611c6661191b565b5b600082013567ffffffffffffffff811115611c8557611c84611920565b5b611c9184828501611c23565b91505092915050565b600060208284031215611cb057611caf61191b565b5b6000611cbe848285016119a4565b91505092915050565b600081519050919050565b600082825260208201905092915050565b60005b83811015611d01578082015181840152602081019050611ce6565b83811115611d10576000848401525b50505050565b6000611d2182611cc7565b611d2b8185611cd2565b9350611d3b818560208601611ce3565b611d4481611b15565b840191505092915050565b60006020820190508181036000830152611d698184611d16565b905092915050565b600067ffffffffffffffff821115611d8c57611d8b611b26565b5b602082029050602081019050919050565b600080fd5b6000611db5611db084611d71565b611b86565b90508083825260208201905060208402830185811115611dd857611dd7611d9d565b5b835b81811015611e015780611ded88826119a4565b845260208401935050602081019050611dda565b5050509392505050565b600082601f830112611e2057611e1f611b0b565b5b8135611e30848260208601611da2565b91505092915050565b600067ffffffffffffffff821115611e5457611e53611b26565b5b611e5d82611b15565b9050602081019050919050565b6000611e7d611e7884611e39565b611b86565b905082815260208101848484011115611e9957611e98611b10565b5b611ea4848285611bd2565b509392505050565b600082601f830112611ec157611ec0611b0b565b5b8135611ed1848260208601611e6a565b91505092915050565b600080600080600060a08688031215611ef657611ef561191b565b5b6000611f048882890161196e565b9550506020611f158882890161196e565b945050604086013567ffffffffffffffff811115611f3657611f35611920565b5b611f4288828901611e0b565b935050606086013567ffffffffffffffff811115611f6357611f62611920565b5b611f6f88828901611e0b565b925050608086013567ffffffffffffffff811115611f9057611f8f611920565b5b611f9c88828901611eac565b9150509295509295909350565b600067ffffffffffffffff821115611fc457611fc3611b26565b5b602082029050602081019050919050565b6000611fe8611fe384611fa9565b611b86565b9050808382526020820190506020840283018581111561200b5761200a611d9d565b5b835b818110156120345780612020888261196e565b84526020840193505060208101905061200d565b5050509392505050565b600082601f83011261205357612052611b0b565b5b8135612063848260208601611fd5565b91505092915050565b600080604083850312156120835761208261191b565b5b600083013567ffffffffffffffff8111156120a1576120a0611920565b5b6120ad8582860161203e565b925050602083013567ffffffffffffffff8111156120ce576120cd611920565b5b6120da85828601611e0b565b9150509250929050565b600081519050919050565b600082825260208201905092915050565b6000819050602082019050919050565b61211981611983565b82525050565b600061212b8383612110565b60208301905092915050565b6000602082019050919050565b600061214f826120e4565b61215981856120ef565b935061216483612100565b8060005b8381101561219557815161217c888261211f565b975061218783612137565b925050600181019050612168565b5085935050505092915050565b600060208201905081810360008301526121bc8184612144565b905092915050565b6121cd81611aa8565b81146121d857600080fd5b50565b6000813590506121ea816121c4565b92915050565b600080604083850312156122075761220661191b565b5b60006122158582860161196e565b9250506020612226858286016121db565b9150509250929050565b600080604083850312156122475761224661191b565b5b60006122558582860161196e565b92505060206122668582860161196e565b9150509250929050565b600080600080600060a0868803121561228c5761228b61191b565b5b600061229a8882890161196e565b95505060206122ab8882890161196e565b94505060406122bc888289016119a4565b93505060606122cd888289016119a4565b925050608086013567ffffffffffffffff8111156122ee576122ed611920565b5b6122fa88828901611eac565b9150509295509295909350565b6000806040838503121561231e5761231d61191b565b5b600061232c858286016119a4565b925050602061233d8582860161196e565b9150509250929050565b7f455243313135353a2062616c616e636520717565727920666f7220746865207a60008201527f65726f2061646472657373000000000000000000000000000000000000000000602082015250565b60006123a3602b83611cd2565b91506123ae82612347565b604082019050919050565b600060208201905081810360008301526123d281612396565b9050919050565b600081905092915050565b60006123ef82611cc7565b6123f981856123d9565b9350612409818560208601611ce3565b80840191505092915050565b600061242182846123e4565b915081905092915050565b7f4e487b7100000000000000000000000000000000000000000000000000000000600052602260045260246000fd5b6000600282049050600182168061247357607f821691505b602082108114156124875761248661242c565b5b50919050565b7f455243313135353a207472616e736665722063616c6c6572206973206e6f742060008201527f6f776e6572206e6f7220617070726f7665640000000000000000000000000000602082015250565b60006124e9603283611cd2565b91506124f48261248d565b604082019050919050565b60006020820190508181036000830152612518816124dc565b9050919050565b7f455243313135353a206163636f756e747320616e6420696473206c656e67746860008201527f206d69736d617463680000000000000000000000000000000000000000000000602082015250565b600061257b602983611cd2565b91506125868261251f565b604082019050919050565b600060208201905081810360008301526125aa8161256e565b9050919050565b7f4e487b7100000000000000000000000000000000000000000000000000000000600052603260045260246000fd5b7f4e487b7100000000000000000000000000000000000000000000000000000000600052601160045260246000fd5b600061261a82611983565b91507fffffffffffffffffffffffffffffffffffffffffffffffffffffffffffffffff82141561264d5761264c6125e0565b5b600182019050919050565b7f455243313135353a2063616c6c6572206973206e6f74206f776e6572206e6f7260008201527f20617070726f7665640000000000000000000000000000000000000000000000602082015250565b60006126b4602983611cd2565b91506126bf82612658565b604082019050919050565b600060208201905081810360008301526126e3816126a7565b9050919050565b7f455243313135353a2069647320616e6420616d6f756e7473206c656e6774682060008201527f6d69736d61746368000000000000000000000000000000000000000000000000602082015250565b6000612746602883611cd2565b9150612751826126ea565b604082019050919050565b6000602082019050818103600083015261277581612739565b9050919050565b7f455243313135353a207472616e7366657220746f20746865207a65726f20616460008201527f6472657373000000000000000000000000000000000000000000000000000000602082015250565b60006127d8602583611cd2565b91506127e38261277c565b604082019050919050565b60006020820190508181036000830152612807816127cb565b9050919050565b7f455243313135353a20696e73756666696369656e742062616c616e636520666f60008201527f72207472616e7366657200000000000000000000000000000000000000000000602082015250565b600061286a602a83611cd2565b91506128758261280e565b604082019050919050565b600060208201905081810360008301526128998161285d565b9050919050565b60006128ab82611983565b91506128b683611983565b9250827fffffffffffffffffffffffffffffffffffffffffffffffffffffffffffffffff038211156128eb576128ea6125e0565b5b828201905092915050565b600060408201905081810360008301526129108185612144565b905081810360208301526129248184612144565b90509392505050565b7f455243313135353a2073657474696e6720617070726f76616c2073746174757360008201527f20666f722073656c660000000000000000000000000000000000000000000000602082015250565b6000612989602983611cd2565b91506129948261292d565b604082019050919050565b600060208201905081810360008301526129b88161297c565b9050919050565b60006040820190506129d460008301856119f9565b6129e160208301846119f9565b9392505050565b7f455243313135353a206275726e2066726f6d20746865207a65726f206164647260008201527f6573730000000000000000000000000000000000000000000000000000000000602082015250565b6000612a44602383611cd2565b9150612a4f826129e8565b604082019050919050565b60006020820190508181036000830152612a7381612a37565b9050919050565b7f455243313135353a206275726e20616d6f756e7420657863656564732062616c60008201527f616e636500000000000000000000000000000000000000000000000000000000602082015250565b6000612ad6602483611cd2565b9150612ae182612a7a565b604082019050919050565b60006020820190508181036000830152612b0581612ac9565b9050919050565b612b1581611945565b82525050565b600081519050919050565b600082825260208201905092915050565b6000612b4282612b1b565b612b4c8185612b26565b9350612b5c818560208601611ce3565b612b6581611b15565b840191505092915050565b600060a082019050612b856000830188612b0c565b612b926020830187612b0c565b8181036040830152612ba48186612144565b90508181036060830152612bb88185612144565b90508181036080830152612bcc8184612b37565b90509695505050505050565b600081519050612be781611a4f565b92915050565b600060208284031215612c0357612c0261191b565b5b6000612c1184828501612bd8565b91505092915050565b60008160e01c9050919050565b600060033d1115612c465760046000803e612c43600051612c1a565b90505b90565b600060443d1015612c5957612cdc565b612c61611911565b60043d036004823e80513d602482011167ffffffffffffffff82111715612c89575050612cdc565b808201805167ffffffffffffffff811115612ca75750505050612cdc565b80602083010160043d038501811115612cc4575050505050612cdc565b612cd382602001850186611b55565b82955050505050505b90565b7f455243313135353a207472616e7366657220746f206e6f6e204552433131353560008201527f526563656976657220696d706c656d656e746572000000000000000000000000602082015250565b6000612d3b603483611cd2565b9150612d4682612cdf565b604082019050919050565b60006020820190508181036000830152612d6a81612d2e565b9050919050565b7f455243313135353a204552433131353552656365697665722072656a6563746560008201527f6420746f6b656e73000000000000000000000000000000000000000000000000602082015250565b6000612dcd602883611cd2565b9150612dd882612d71565b604082019050919050565b60006020820190508181036000830152612dfc81612dc0565b9050919050565b600060a082019050612e186000830188612b0c565b612e256020830187612b0c565b612e3260408301866119f9565b612e3f60608301856119f9565b8181036080830152612e518184612b37565b9050969550505050505056fe6275726e696e67207b5f616d6f756e747d2043726564656e7469616c20746f6b656e732066726f6d207b5f6163636f756e747da2646970667358221220da7296d254b3b8f0f2e29947bd7dc43c1899e88713d4a33fb01d65400bb80e2564736f6c634300080a0033",
  "immutableReferences": {},
  "source": "pragma solidity ^0.8.10;\n// SPDX-License-Identifier: MIT\nimport \"@openzeppelin/contracts/token/ERC1155/ERC1155.sol\";\nimport \"./PrivateAccessToken.sol\";\n\n//interface for other contract to read status\ninterface LoginContract_Interface{\n    function Login(string memory _enterPass)external view returns(bool);\n    function CheckUserCreds(address _user)external view returns(bool);\n}\ncontract LoginContract is PrivateAccessToken,LoginContract_Interface{\n    //new token that will allow for a smart contract to check credentials \n    string private Login_Pass;\n    event ContractAddress(address indexed _ContractSelf);\n\n\n    //lauch Login contract with PrivateAccessToken Contract as dependancy\n    constructor(string memory _Pass ,string memory _URI)PrivateAccessToken(_Pass,_URI){\n        emit ContractAddress(address(this));\n    }\n\n    //I can grab the OnlyToken modifier from the Inherited contract to only allow to token holder to mint permission tokens\n    function Login(string memory _enterPass)public view OnlyToken returns(bool){\n        if(keccak256(abi.encodePacked(ViewData())) == keccak256(abi.encodePacked(_enterPass))){\n            return true;\n        } else{\n            return false;\n        }\n    }\n    // external source can check if user data holds correct token\n    function CheckUserCreds(address _user)public view returns(bool){\n        if(PrivateAccessToken.OnlyIf(_user,1) == true){\n            return true;\n        } else {\n            return false;\n        }\n    }\n}\n//DApps can have this contract be the login contract for users to use this application\ncontract DAppLoginContract{\n    uint TotalAccounts =0;\n    constructor(){}\n    \n    mapping(address => Logins) logins;\n    //Keeps list of Login Contracts\n    struct Logins{\n        bool exist;\n        bool status;\n    }\n    //User can add their login contract to this DApp so this Daap can check their credentials in reference to the logincontract\n    function Register(address _LoginContract)public returns(bool){\n        if(logins[_LoginContract].exist == true){\n            return false;\n        }else{\n            logins[_LoginContract] =Logins(true,false);\n            TotalAccounts++;\n            return true;\n        }\n    }\n    //Checks Current Users Login Contracts\n    function LoginStatus(address _LoginContract) public view returns(bool){\n        return logins[_LoginContract].status;\n    }\n    //user Changes Login status\n    function Logout(address _LoginContract,address _user)public view returns(string memory){\n        require(LoginContract_Interface(_LoginContract).CheckUserCreds(_user) == true);\n        logins[_LoginContract].status==false;\n        return \"Logged out\";\n    }\n    //user can login and have DApp check login COntract for validity\n    // contract address & password to login\n    function userLogin(address _LoginContract,string memory _enterPass)public view returns(bool){\n        require(logins[_LoginContract].exist==true);\n        bool Pass = LoginContract_Interface(_LoginContract).Login(_enterPass);  //Has correct Password\n        bool Creds = LoginContract_Interface(_LoginContract).CheckUserCreds(msg.sender); //Has correct Credential Token\n        //Check Login Contract and Registration\n        if( Pass==true && Creds==true){\n            logins[_LoginContract].status==true;\n            return true;  //user successfully logs in!\n        }else{\n            return false; //User fails to have correct NFT access or incorect password\n        }\n    }\n    //check user\n    function CredToken(address _LoginContract,address _user)public view returns(bool){\n        bool Creds = LoginContract_Interface(_LoginContract).CheckUserCreds(_user);\n        return Creds;\n    }\n}\n//- Dev: Quincy J\n",
  "sourcePath": "/Users/Q/Documents/GitHub/LoginContract/contracts/LoginContract.sol",
  "compiler": {
    "name": "solc",
    "version": "0.8.10+commit.fc410830.Emscripten.clang"
  },
  "schemaVersion": "3.4.3",
  "updatedAt": "2022-02-16T20:06:07.205Z",
  "devdoc": {
    "kind": "dev",
    "methods": {
      "balanceOf(address,uint256)": {
        "details": "See {IERC1155-balanceOf}. Requirements: - `account` cannot be the zero address."
      },
      "balanceOfBatch(address[],uint256[])": {
        "details": "See {IERC1155-balanceOfBatch}. Requirements: - `accounts` and `ids` must have the same length."
      },
      "isApprovedForAll(address,address)": {
        "details": "See {IERC1155-isApprovedForAll}."
      },
      "safeBatchTransferFrom(address,address,uint256[],uint256[],bytes)": {
        "details": "See {IERC1155-safeBatchTransferFrom}."
      },
      "safeTransferFrom(address,address,uint256,uint256,bytes)": {
        "details": "See {IERC1155-safeTransferFrom}."
      },
      "setApprovalForAll(address,bool)": {
        "details": "See {IERC1155-setApprovalForAll}."
      },
      "supportsInterface(bytes4)": {
        "details": "See {IERC165-supportsInterface}."
      },
      "uri(uint256)": {
        "details": "See {IERC1155MetadataURI-uri}. This implementation returns the same URI for *all* token types. It relies on the token type ID substitution mechanism https://eips.ethereum.org/EIPS/eip-1155#metadata[defined in the EIP]. Clients calling this function must replace the `\\{id\\}` substring with the actual token type ID."
      }
    },
    "version": 1
  },
  "userdoc": {
    "kind": "user",
    "methods": {},
    "version": 1
  }
}