{
  "contractName": "LoginContract",
  "abi": [
    {
      "inputs": [
        {
          "internalType": "string",
          "name": "_Pass",
          "type": "string"
        },
        {
          "internalType": "string",
          "name": "_URI",
          "type": "string"
        }
      ],
      "stateMutability": "nonpayable",
      "type": "constructor"
    },
    {
      "anonymous": false,
      "inputs": [
        {
          "indexed": true,
          "internalType": "address",
          "name": "account",
          "type": "address"
        },
        {
          "indexed": true,
          "internalType": "address",
          "name": "operator",
          "type": "address"
        },
        {
          "indexed": false,
          "internalType": "bool",
          "name": "approved",
          "type": "bool"
        }
      ],
      "name": "ApprovalForAll",
      "type": "event"
    },
    {
      "anonymous": false,
      "inputs": [
        {
          "indexed": false,
          "internalType": "address",
          "name": "_ContractSelf",
          "type": "address"
        }
      ],
      "name": "ContractAddress",
      "type": "event"
    },
    {
      "anonymous": false,
      "inputs": [
        {
          "indexed": true,
          "internalType": "address",
          "name": "operator",
          "type": "address"
        },
        {
          "indexed": true,
          "internalType": "address",
          "name": "from",
          "type": "address"
        },
        {
          "indexed": true,
          "internalType": "address",
          "name": "to",
          "type": "address"
        },
        {
          "indexed": false,
          "internalType": "uint256[]",
          "name": "ids",
          "type": "uint256[]"
        },
        {
          "indexed": false,
          "internalType": "uint256[]",
          "name": "values",
          "type": "uint256[]"
        }
      ],
      "name": "TransferBatch",
      "type": "event"
    },
    {
      "anonymous": false,
      "inputs": [
        {
          "indexed": true,
          "internalType": "address",
          "name": "operator",
          "type": "address"
        },
        {
          "indexed": true,
          "internalType": "address",
          "name": "from",
          "type": "address"
        },
        {
          "indexed": true,
          "internalType": "address",
          "name": "to",
          "type": "address"
        },
        {
          "indexed": false,
          "internalType": "uint256",
          "name": "id",
          "type": "uint256"
        },
        {
          "indexed": false,
          "internalType": "uint256",
          "name": "value",
          "type": "uint256"
        }
      ],
      "name": "TransferSingle",
      "type": "event"
    },
    {
      "anonymous": false,
      "inputs": [
        {
          "indexed": false,
          "internalType": "string",
          "name": "value",
          "type": "string"
        },
        {
          "indexed": true,
          "internalType": "uint256",
          "name": "id",
          "type": "uint256"
        }
      ],
      "name": "URI",
      "type": "event"
    },
    {
      "inputs": [
        {
          "internalType": "uint256",
          "name": "_amount",
          "type": "uint256"
        },
        {
          "internalType": "address",
          "name": "_account",
          "type": "address"
        }
      ],
      "name": "Burn",
      "outputs": [
        {
          "internalType": "string",
          "name": "",
          "type": "string"
        }
      ],
      "stateMutability": "nonpayable",
      "type": "function"
    },
    {
      "inputs": [
        {
          "internalType": "string",
          "name": "_newData",
          "type": "string"
        }
      ],
      "name": "Edit",
      "outputs": [
        {
          "internalType": "bool",
          "name": "",
          "type": "bool"
        }
      ],
      "stateMutability": "nonpayable",
      "type": "function"
    },
    {
      "inputs": [],
      "name": "ViewData",
      "outputs": [
        {
          "internalType": "string",
          "name": "",
          "type": "string"
        }
      ],
      "stateMutability": "view",
      "type": "function"
    },
    {
      "inputs": [],
      "name": "ViewStatus",
      "outputs": [
        {
          "internalType": "uint256",
          "name": "",
          "type": "uint256"
        }
      ],
      "stateMutability": "view",
      "type": "function"
    },
    {
      "inputs": [
        {
          "internalType": "address",
          "name": "account",
          "type": "address"
        },
        {
          "internalType": "uint256",
          "name": "id",
          "type": "uint256"
        }
      ],
      "name": "balanceOf",
      "outputs": [
        {
          "internalType": "uint256",
          "name": "",
          "type": "uint256"
        }
      ],
      "stateMutability": "view",
      "type": "function"
    },
    {
      "inputs": [
        {
          "internalType": "address[]",
          "name": "accounts",
          "type": "address[]"
        },
        {
          "internalType": "uint256[]",
          "name": "ids",
          "type": "uint256[]"
        }
      ],
      "name": "balanceOfBatch",
      "outputs": [
        {
          "internalType": "uint256[]",
          "name": "",
          "type": "uint256[]"
        }
      ],
      "stateMutability": "view",
      "type": "function"
    },
    {
      "inputs": [
        {
          "internalType": "address",
          "name": "account",
          "type": "address"
        },
        {
          "internalType": "address",
          "name": "operator",
          "type": "address"
        }
      ],
      "name": "isApprovedForAll",
      "outputs": [
        {
          "internalType": "bool",
          "name": "",
          "type": "bool"
        }
      ],
      "stateMutability": "view",
      "type": "function"
    },
    {
      "inputs": [
        {
          "internalType": "address",
          "name": "from",
          "type": "address"
        },
        {
          "internalType": "address",
          "name": "to",
          "type": "address"
        },
        {
          "internalType": "uint256[]",
          "name": "ids",
          "type": "uint256[]"
        },
        {
          "internalType": "uint256[]",
          "name": "amounts",
          "type": "uint256[]"
        },
        {
          "internalType": "bytes",
          "name": "data",
          "type": "bytes"
        }
      ],
      "name": "safeBatchTransferFrom",
      "outputs": [],
      "stateMutability": "nonpayable",
      "type": "function"
    },
    {
      "inputs": [
        {
          "internalType": "address",
          "name": "from",
          "type": "address"
        },
        {
          "internalType": "address",
          "name": "to",
          "type": "address"
        },
        {
          "internalType": "uint256",
          "name": "id",
          "type": "uint256"
        },
        {
          "internalType": "uint256",
          "name": "amount",
          "type": "uint256"
        },
        {
          "internalType": "bytes",
          "name": "data",
          "type": "bytes"
        }
      ],
      "name": "safeTransferFrom",
      "outputs": [],
      "stateMutability": "nonpayable",
      "type": "function"
    },
    {
      "inputs": [
        {
          "internalType": "address",
          "name": "operator",
          "type": "address"
        },
        {
          "internalType": "bool",
          "name": "approved",
          "type": "bool"
        }
      ],
      "name": "setApprovalForAll",
      "outputs": [],
      "stateMutability": "nonpayable",
      "type": "function"
    },
    {
      "inputs": [
        {
          "internalType": "bytes4",
          "name": "interfaceId",
          "type": "bytes4"
        }
      ],
      "name": "supportsInterface",
      "outputs": [
        {
          "internalType": "bool",
          "name": "",
          "type": "bool"
        }
      ],
      "stateMutability": "view",
      "type": "function"
    },
    {
      "inputs": [
        {
          "internalType": "uint256",
          "name": "",
          "type": "uint256"
        }
      ],
      "name": "uri",
      "outputs": [
        {
          "internalType": "string",
          "name": "",
          "type": "string"
        }
      ],
      "stateMutability": "view",
      "type": "function"
    },
    {
      "inputs": [
        {
          "internalType": "string",
          "name": "_enterPass",
          "type": "string"
        }
      ],
      "name": "User_Login",
      "outputs": [
        {
          "internalType": "bool",
          "name": "",
          "type": "bool"
        }
      ],
      "stateMutability": "view",
      "type": "function"
    },
    {
      "inputs": [
        {
          "internalType": "address",
          "name": "_user",
          "type": "address"
        }
      ],
      "name": "CheckUserCreds",
      "outputs": [
        {
          "internalType": "bool",
          "name": "",
          "type": "bool"
        }
      ],
      "stateMutability": "view",
      "type": "function"
    },
    {
      "inputs": [
        {
          "internalType": "string",
          "name": "_enterPass",
          "type": "string"
        }
      ],
      "name": "login",
      "outputs": [
        {
          "internalType": "bool",
          "name": "",
          "type": "bool"
        }
      ],
      "stateMutability": "view",
      "type": "function"
    }
  ],
  "bytecode": "0x60806040526000600455600580553480156200001a57600080fd5b50604051620042393803806200423983398181016040528101906200004091906200071f565b8181806200005481620000d160201b60201c565b508160039081620000669190620009ef565b506200008e3360045460055460405180602001604052806000815250620000e660201b60201c565b50507f1a0f921ce3c6f2f0f6be5b624a487bc1d5143e1fd1833154f39ab63e13d8975530604051620000c1919062000b1b565b60405180910390a150506200108c565b8060029081620000e29190620009ef565b5050565b600073ffffffffffffffffffffffffffffffffffffffff168473ffffffffffffffffffffffffffffffffffffffff160362000158576040517f08c379a00000000000000000000000000000000000000000000000000000000081526004016200014f9062000bbf565b60405180910390fd5b60006200016a620002cd60201b60201c565b905060006200017f85620002d560201b60201c565b905060006200019485620002d560201b60201c565b9050620001ad836000898585896200035660201b60201c565b8460008088815260200190815260200160002060008973ffffffffffffffffffffffffffffffffffffffff1673ffffffffffffffffffffffffffffffffffffffff16815260200190815260200160002060008282546200020e919062000c10565b925050819055508673ffffffffffffffffffffffffffffffffffffffff16600073ffffffffffffffffffffffffffffffffffffffff168473ffffffffffffffffffffffffffffffffffffffff167fc3d58168c5ae7397731d063d5bbf3d657854427343f4c083240f7aacaa2d0f6289896040516200028e92919062000c7e565b60405180910390a4620002ad836000898585896200035e60201b60201c565b620002c4836000898989896200036660201b60201c565b50505050505050565b600033905090565b60606000600167ffffffffffffffff811115620002f757620002f6620005b1565b5b604051908082528060200260200182016040528015620003265781602001602082028036833780820191505090505b509050828160008151811062000341576200034062000cab565b5b60200260200101818152505080915050919050565b505050505050565b505050505050565b620003928473ffffffffffffffffffffffffffffffffffffffff166200055f60201b62000b101760201c565b1562000557578373ffffffffffffffffffffffffffffffffffffffff1663f23a6e6187878686866040518663ffffffff1660e01b8152600401620003db95949392919062000d37565b6020604051808303816000875af19250505080156200041a57506040513d601f19601f8201168201806040525081019062000417919062000df8565b60015b620004cb576200042962000e37565b806308c379a0036200048c57506200044062000e5c565b806200044d57506200048e565b806040517f08c379a000000000000000000000000000000000000000000000000000000000815260040162000483919062000f38565b60405180910390fd5b505b6040517f08c379a0000000000000000000000000000000000000000000000000000000008152600401620004c29062000fd2565b60405180910390fd5b63f23a6e6160e01b7bffffffffffffffffffffffffffffffffffffffffffffffffffffffff1916817bffffffffffffffffffffffffffffffffffffffffffffffffffffffff19161462000555576040517f08c379a00000000000000000000000000000000000000000000000000000000081526004016200054c906200106a565b60405180910390fd5b505b505050505050565b6000808273ffffffffffffffffffffffffffffffffffffffff163b119050919050565b6000604051905090565b600080fd5b600080fd5b600080fd5b600080fd5b6000601f19601f8301169050919050565b7f4e487b7100000000000000000000000000000000000000000000000000000000600052604160045260246000fd5b620005eb82620005a0565b810181811067ffffffffffffffff821117156200060d576200060c620005b1565b5b80604052505050565b60006200062262000582565b9050620006308282620005e0565b919050565b600067ffffffffffffffff821115620006535762000652620005b1565b5b6200065e82620005a0565b9050602081019050919050565b60005b838110156200068b5780820151818401526020810190506200066e565b838111156200069b576000848401525b50505050565b6000620006b8620006b28462000635565b62000616565b905082815260208101848484011115620006d757620006d66200059b565b5b620006e48482856200066b565b509392505050565b600082601f83011262000704576200070362000596565b5b815162000716848260208601620006a1565b91505092915050565b600080604083850312156200073957620007386200058c565b5b600083015167ffffffffffffffff8111156200075a576200075962000591565b5b6200076885828601620006ec565b925050602083015167ffffffffffffffff8111156200078c576200078b62000591565b5b6200079a85828601620006ec565b9150509250929050565b600081519050919050565b7f4e487b7100000000000000000000000000000000000000000000000000000000600052602260045260246000fd5b60006002820490506001821680620007f757607f821691505b6020821081036200080d576200080c620007af565b5b50919050565b60008190508160005260206000209050919050565b60006020601f8301049050919050565b600082821b905092915050565b600060088302620008777fffffffffffffffffffffffffffffffffffffffffffffffffffffffffffffffff8262000838565b62000883868362000838565b95508019841693508086168417925050509392505050565b6000819050919050565b6000819050919050565b6000620008d0620008ca620008c4846200089b565b620008a5565b6200089b565b9050919050565b6000819050919050565b620008ec83620008af565b62000904620008fb82620008d7565b84845462000845565b825550505050565b600090565b6200091b6200090c565b62000928818484620008e1565b505050565b5b8181101562000950576200094460008262000911565b6001810190506200092e565b5050565b601f8211156200099f57620009698162000813565b620009748462000828565b8101602085101562000984578190505b6200099c620009938562000828565b8301826200092d565b50505b505050565b600082821c905092915050565b6000620009c460001984600802620009a4565b1980831691505092915050565b6000620009df8383620009b1565b9150826002028217905092915050565b620009fa82620007a4565b67ffffffffffffffff81111562000a165762000a15620005b1565b5b62000a228254620007de565b62000a2f82828562000954565b600060209050601f83116001811462000a67576000841562000a52578287015190505b62000a5e8582620009d1565b86555062000ace565b601f19841662000a778662000813565b60005b8281101562000aa15784890151825560018201915060208501945060208101905062000a7a565b8683101562000ac1578489015162000abd601f891682620009b1565b8355505b6001600288020188555050505b505050505050565b600073ffffffffffffffffffffffffffffffffffffffff82169050919050565b600062000b038262000ad6565b9050919050565b62000b158162000af6565b82525050565b600060208201905062000b32600083018462000b0a565b92915050565b600082825260208201905092915050565b7f455243313135353a206d696e7420746f20746865207a65726f2061646472657360008201527f7300000000000000000000000000000000000000000000000000000000000000602082015250565b600062000ba760218362000b38565b915062000bb48262000b49565b604082019050919050565b6000602082019050818103600083015262000bda8162000b98565b9050919050565b7f4e487b7100000000000000000000000000000000000000000000000000000000600052601160045260246000fd5b600062000c1d826200089b565b915062000c2a836200089b565b9250827fffffffffffffffffffffffffffffffffffffffffffffffffffffffffffffffff0382111562000c625762000c6162000be1565b5b828201905092915050565b62000c78816200089b565b82525050565b600060408201905062000c95600083018562000c6d565b62000ca4602083018462000c6d565b9392505050565b7f4e487b7100000000000000000000000000000000000000000000000000000000600052603260045260246000fd5b600081519050919050565b600082825260208201905092915050565b600062000d038262000cda565b62000d0f818562000ce5565b935062000d218185602086016200066b565b62000d2c81620005a0565b840191505092915050565b600060a08201905062000d4e600083018862000b0a565b62000d5d602083018762000b0a565b62000d6c604083018662000c6d565b62000d7b606083018562000c6d565b818103608083015262000d8f818462000cf6565b90509695505050505050565b60007fffffffff0000000000000000000000000000000000000000000000000000000082169050919050565b62000dd28162000d9b565b811462000dde57600080fd5b50565b60008151905062000df28162000dc7565b92915050565b60006020828403121562000e115762000e106200058c565b5b600062000e218482850162000de1565b91505092915050565b60008160e01c9050919050565b600060033d111562000e595760046000803e62000e5660005162000e2a565b90505b90565b600060443d1062000ef45762000e7162000582565b60043d036004823e80513d602482011167ffffffffffffffff8211171562000e9b57505062000ef4565b808201805167ffffffffffffffff81111562000ebb575050505062000ef4565b80602083010160043d03850181111562000eda57505050505062000ef4565b62000eeb82602001850186620005e0565b82955050505050505b90565b600062000f0482620007a4565b62000f10818562000b38565b935062000f228185602086016200066b565b62000f2d81620005a0565b840191505092915050565b6000602082019050818103600083015262000f54818462000ef7565b905092915050565b7f455243313135353a207472616e7366657220746f206e6f6e204552433131353560008201527f526563656976657220696d706c656d656e746572000000000000000000000000602082015250565b600062000fba60348362000b38565b915062000fc78262000f5c565b604082019050919050565b6000602082019050818103600083015262000fed8162000fab565b9050919050565b7f455243313135353a204552433131353552656365697665722072656a6563746560008201527f6420746f6b656e73000000000000000000000000000000000000000000000000602082015250565b60006200105260288362000b38565b91506200105f8262000ff4565b604082019050919050565b60006020820190508181036000830152620010858162001043565b9050919050565b61319d806200109c6000396000f3fe608060405234801561001057600080fd5b50600436106100f45760003560e01c80634e1273f411610097578063cd31de7a11610066578063cd31de7a146102cf578063e985e9c5146102ed578063f242432a1461031d578063f6554c3a14610339576100f4565b80634e1273f4146102235780638f3c209014610253578063a22cb46514610283578063c5956fe11461029f576100f4565b8063087f477a116100d3578063087f477a146101895780630e89341c146101a75780632eb2c2d6146101d75780633a7d280c146101f3576100f4565b8062fdd58e146100f957806301ffc9a71461012957806305f8c89614610159575b600080fd5b610113600480360381019061010e9190611aac565b610369565b6040516101209190611afb565b60405180910390f35b610143600480360381019061013e9190611b6e565b610431565b6040516101509190611bb6565b60405180910390f35b610173600480360381019061016e9190611bd1565b610513565b6040516101809190611bb6565b60405180910390f35b61019161053e565b60405161019e9190611afb565b60405180910390f35b6101c160048036038101906101bc9190611bfe565b610550565b6040516101ce9190611cc4565b60405180910390f35b6101f160048036038101906101ec9190611ee3565b6105e4565b005b61020d60048036038101906102089190612053565b610685565b60405161021a9190611bb6565b60405180910390f35b61023d6004803603810190610238919061215f565b6106f4565b60405161024a9190612295565b60405180910390f35b61026d60048036038101906102689190612053565b61080d565b60405161027a9190611bb6565b60405180910390f35b61029d600480360381019061029891906122e3565b610897565b005b6102b960048036038101906102b49190612053565b6108ad565b6040516102c69190611bb6565b60405180910390f35b6102d76108e3565b6040516102e49190611cc4565b60405180910390f35b61030760048036038101906103029190612323565b610990565b6040516103149190611bb6565b60405180910390f35b61033760048036038101906103329190612363565b610a24565b005b610353600480360381019061034e91906123fa565b610ac5565b6040516103609190611cc4565b60405180910390f35b60008073ffffffffffffffffffffffffffffffffffffffff168373ffffffffffffffffffffffffffffffffffffffff16036103d9576040517f08c379a00000000000000000000000000000000000000000000000000000000081526004016103d0906124ac565b60405180910390fd5b60008083815260200190815260200160002060008473ffffffffffffffffffffffffffffffffffffffff1673ffffffffffffffffffffffffffffffffffffffff16815260200190815260200160002054905092915050565b60007fd9b67a26000000000000000000000000000000000000000000000000000000007bffffffffffffffffffffffffffffffffffffffffffffffffffffffff1916827bffffffffffffffffffffffffffffffffffffffffffffffffffffffff191614806104fc57507f0e89341c000000000000000000000000000000000000000000000000000000007bffffffffffffffffffffffffffffffffffffffffffffffffffffffff1916827bffffffffffffffffffffffffffffffffffffffffffffffffffffffff1916145b8061050c575061050b82610b33565b5b9050919050565b600060011515610524836001610b9d565b1515036105345760019050610539565b600090505b919050565b600061054b336000610369565b905090565b60606002805461055f906124fb565b80601f016020809104026020016040519081016040528092919081815260200182805461058b906124fb565b80156105d85780601f106105ad576101008083540402835291602001916105d8565b820191906000526020600020905b8154815290600101906020018083116105bb57829003601f168201915b50505050509050919050565b6105ec610bc4565b73ffffffffffffffffffffffffffffffffffffffff168573ffffffffffffffffffffffffffffffffffffffff16148061063257506106318561062c610bc4565b610990565b5b610671576040517f08c379a00000000000000000000000000000000000000000000000000000000081526004016106689061259e565b60405180910390fd5b61067e8585858585610bcc565b5050505050565b600061068f610eed565b60405160200161069f91906125fa565b60405160208183030381529060405280519060200120826040516020016106c691906125fa565b60405160208183030381529060405280519060200120036106ea57600190506106ef565b600090505b919050565b6060815183511461073a576040517f08c379a000000000000000000000000000000000000000000000000000000000815260040161073190612683565b60405180910390fd5b6000835167ffffffffffffffff81111561075757610756611ceb565b5b6040519080825280602002602001820160405280156107855781602001602082028036833780820191505090505b50905060005b8451811015610802576107d28582815181106107aa576107a96126a3565b5b60200260200101518583815181106107c5576107c46126a3565b5b6020026020010151610369565b8282815181106107e5576107e46126a3565b5b602002602001018181525050806107fb90612701565b905061078b565b508091505092915050565b60006001151561081e336001610b9d565b15151461082a57600080fd5b8160405160200161083b91906125fa565b604051602081830303815290604052805190602001206108596108e3565b60405160200161086991906125fa565b604051602081830303815290604052805190602001200361088d5760019050610892565b600090505b919050565b6108a96108a2610bc4565b8383610f7f565b5050565b6000600115156108be336003610b9d565b1515146108ca57600080fd5b81600390816108d991906128f5565b5060019050919050565b6060600115156108f4336003610b9d565b15151461090057600080fd5b6003805461090d906124fb565b80601f0160208091040260200160405190810160405280929190818152602001828054610939906124fb565b80156109865780601f1061095b57610100808354040283529160200191610986565b820191906000526020600020905b81548152906001019060200180831161096957829003601f168201915b5050505050905090565b6000600160008473ffffffffffffffffffffffffffffffffffffffff1673ffffffffffffffffffffffffffffffffffffffff16815260200190815260200160002060008373ffffffffffffffffffffffffffffffffffffffff1673ffffffffffffffffffffffffffffffffffffffff16815260200190815260200160002060009054906101000a900460ff16905092915050565b610a2c610bc4565b73ffffffffffffffffffffffffffffffffffffffff168573ffffffffffffffffffffffffffffffffffffffff161480610a725750610a7185610a6c610bc4565b610990565b5b610ab1576040517f08c379a0000000000000000000000000000000000000000000000000000000008152600401610aa89061259e565b60405180910390fd5b610abe85858585856110eb565b5050505050565b606060011515610ad6336003610b9d565b151514610ae257600080fd5b610aef8260045485611386565b60405180606001604052806033815260200161313560339139905092915050565b6000808273ffffffffffffffffffffffffffffffffffffffff163b119050919050565b60007f01ffc9a7000000000000000000000000000000000000000000000000000000007bffffffffffffffffffffffffffffffffffffffffffffffffffffffff1916827bffffffffffffffffffffffffffffffffffffffffffffffffffffffff1916149050919050565b600081610bab846000610369565b10610bb95760019050610bbe565b600090505b92915050565b600033905090565b8151835114610c10576040517f08c379a0000000000000000000000000000000000000000000000000000000008152600401610c0790612a39565b60405180910390fd5b600073ffffffffffffffffffffffffffffffffffffffff168473ffffffffffffffffffffffffffffffffffffffff1603610c7f576040517f08c379a0000000000000000000000000000000000000000000000000000000008152600401610c7690612acb565b60405180910390fd5b6000610c89610bc4565b9050610c998187878787876115cc565b60005b8451811015610e4a576000858281518110610cba57610cb96126a3565b5b602002602001015190506000858381518110610cd957610cd86126a3565b5b60200260200101519050600080600084815260200190815260200160002060008b73ffffffffffffffffffffffffffffffffffffffff1673ffffffffffffffffffffffffffffffffffffffff16815260200190815260200160002054905081811015610d7a576040517f08c379a0000000000000000000000000000000000000000000000000000000008152600401610d7190612b5d565b60405180910390fd5b81810360008085815260200190815260200160002060008c73ffffffffffffffffffffffffffffffffffffffff1673ffffffffffffffffffffffffffffffffffffffff168152602001908152602001600020819055508160008085815260200190815260200160002060008b73ffffffffffffffffffffffffffffffffffffffff1673ffffffffffffffffffffffffffffffffffffffff1681526020019081526020016000206000828254610e2f9190612b7d565b9250508190555050505080610e4390612701565b9050610c9c565b508473ffffffffffffffffffffffffffffffffffffffff168673ffffffffffffffffffffffffffffffffffffffff168273ffffffffffffffffffffffffffffffffffffffff167f4a39dc06d4c0dbc64b70af90fd698a233a518aa5d07e595d983b8c0526c8f7fb8787604051610ec1929190612bd3565b60405180910390a4610ed78187878787876115d4565b610ee58187878787876115dc565b505050505050565b606060038054610efc906124fb565b80601f0160208091040260200160405190810160405280929190818152602001828054610f28906124fb565b8015610f755780601f10610f4a57610100808354040283529160200191610f75565b820191906000526020600020905b815481529060010190602001808311610f5857829003601f168201915b5050505050905090565b8173ffffffffffffffffffffffffffffffffffffffff168373ffffffffffffffffffffffffffffffffffffffff1603610fed576040517f08c379a0000000000000000000000000000000000000000000000000000000008152600401610fe490612c7c565b60405180910390fd5b80600160008573ffffffffffffffffffffffffffffffffffffffff1673ffffffffffffffffffffffffffffffffffffffff16815260200190815260200160002060008473ffffffffffffffffffffffffffffffffffffffff1673ffffffffffffffffffffffffffffffffffffffff16815260200190815260200160002060006101000a81548160ff0219169083151502179055508173ffffffffffffffffffffffffffffffffffffffff168373ffffffffffffffffffffffffffffffffffffffff167f17307eab39ab6107e8899845ad3d59bd9653f200f220920489ca2b5937696c31836040516110de9190611bb6565b60405180910390a3505050565b600073ffffffffffffffffffffffffffffffffffffffff168473ffffffffffffffffffffffffffffffffffffffff160361115a576040517f08c379a000000000000000000000000000000000000000000000000000000000815260040161115190612acb565b60405180910390fd5b6000611164610bc4565b90506000611171856117b3565b9050600061117e856117b3565b905061118e8389898585896115cc565b600080600088815260200190815260200160002060008a73ffffffffffffffffffffffffffffffffffffffff1673ffffffffffffffffffffffffffffffffffffffff16815260200190815260200160002054905085811015611225576040517f08c379a000000000000000000000000000000000000000000000000000000000815260040161121c90612b5d565b60405180910390fd5b85810360008089815260200190815260200160002060008b73ffffffffffffffffffffffffffffffffffffffff1673ffffffffffffffffffffffffffffffffffffffff168152602001908152602001600020819055508560008089815260200190815260200160002060008a73ffffffffffffffffffffffffffffffffffffffff1673ffffffffffffffffffffffffffffffffffffffff16815260200190815260200160002060008282546112da9190612b7d565b925050819055508773ffffffffffffffffffffffffffffffffffffffff168973ffffffffffffffffffffffffffffffffffffffff168573ffffffffffffffffffffffffffffffffffffffff167fc3d58168c5ae7397731d063d5bbf3d657854427343f4c083240f7aacaa2d0f628a8a604051611357929190612c9c565b60405180910390a461136d848a8a86868a6115d4565b61137b848a8a8a8a8a61182d565b505050505050505050565b600073ffffffffffffffffffffffffffffffffffffffff168373ffffffffffffffffffffffffffffffffffffffff16036113f5576040517f08c379a00000000000000000000000000000000000000000000000000000000081526004016113ec90612d37565b60405180910390fd5b60006113ff610bc4565b9050600061140c846117b3565b90506000611419846117b3565b9050611439838760008585604051806020016040528060008152506115cc565b600080600087815260200190815260200160002060008873ffffffffffffffffffffffffffffffffffffffff1673ffffffffffffffffffffffffffffffffffffffff168152602001908152602001600020549050848110156114d0576040517f08c379a00000000000000000000000000000000000000000000000000000000081526004016114c790612dc9565b60405180910390fd5b84810360008088815260200190815260200160002060008973ffffffffffffffffffffffffffffffffffffffff1673ffffffffffffffffffffffffffffffffffffffff16815260200190815260200160002081905550600073ffffffffffffffffffffffffffffffffffffffff168773ffffffffffffffffffffffffffffffffffffffff168573ffffffffffffffffffffffffffffffffffffffff167fc3d58168c5ae7397731d063d5bbf3d657854427343f4c083240f7aacaa2d0f62898960405161159d929190612c9c565b60405180910390a46115c3848860008686604051806020016040528060008152506115d4565b50505050505050565b505050505050565b505050505050565b6115fb8473ffffffffffffffffffffffffffffffffffffffff16610b10565b156117ab578373ffffffffffffffffffffffffffffffffffffffff1663bc197c8187878686866040518663ffffffff1660e01b8152600401611641959493929190612e4d565b6020604051808303816000875af192505050801561167d57506040513d601f19601f8201168201806040525081019061167a9190612eca565b60015b61172257611689612f04565b806308c379a0036116e5575061169d612f26565b806116a857506116e7565b806040517f08c379a00000000000000000000000000000000000000000000000000000000081526004016116dc9190611cc4565b60405180910390fd5b505b6040517f08c379a000000000000000000000000000000000000000000000000000000000815260040161171990613028565b60405180910390fd5b63bc197c8160e01b7bffffffffffffffffffffffffffffffffffffffffffffffffffffffff1916817bffffffffffffffffffffffffffffffffffffffffffffffffffffffff1916146117a9576040517f08c379a00000000000000000000000000000000000000000000000000000000081526004016117a0906130ba565b60405180910390fd5b505b505050505050565b60606000600167ffffffffffffffff8111156117d2576117d1611ceb565b5b6040519080825280602002602001820160405280156118005781602001602082028036833780820191505090505b5090508281600081518110611818576118176126a3565b5b60200260200101818152505080915050919050565b61184c8473ffffffffffffffffffffffffffffffffffffffff16610b10565b156119fc578373ffffffffffffffffffffffffffffffffffffffff1663f23a6e6187878686866040518663ffffffff1660e01b81526004016118929594939291906130da565b6020604051808303816000875af19250505080156118ce57506040513d601f19601f820116820180604052508101906118cb9190612eca565b60015b611973576118da612f04565b806308c379a00361193657506118ee612f26565b806118f95750611938565b806040517f08c379a000000000000000000000000000000000000000000000000000000000815260040161192d9190611cc4565b60405180910390fd5b505b6040517f08c379a000000000000000000000000000000000000000000000000000000000815260040161196a90613028565b60405180910390fd5b63f23a6e6160e01b7bffffffffffffffffffffffffffffffffffffffffffffffffffffffff1916817bffffffffffffffffffffffffffffffffffffffffffffffffffffffff1916146119fa576040517f08c379a00000000000000000000000000000000000000000000000000000000081526004016119f1906130ba565b60405180910390fd5b505b505050505050565b6000604051905090565b600080fd5b600080fd5b600073ffffffffffffffffffffffffffffffffffffffff82169050919050565b6000611a4382611a18565b9050919050565b611a5381611a38565b8114611a5e57600080fd5b50565b600081359050611a7081611a4a565b92915050565b6000819050919050565b611a8981611a76565b8114611a9457600080fd5b50565b600081359050611aa681611a80565b92915050565b60008060408385031215611ac357611ac2611a0e565b5b6000611ad185828601611a61565b9250506020611ae285828601611a97565b9150509250929050565b611af581611a76565b82525050565b6000602082019050611b106000830184611aec565b92915050565b60007fffffffff0000000000000000000000000000000000000000000000000000000082169050919050565b611b4b81611b16565b8114611b5657600080fd5b50565b600081359050611b6881611b42565b92915050565b600060208284031215611b8457611b83611a0e565b5b6000611b9284828501611b59565b91505092915050565b60008115159050919050565b611bb081611b9b565b82525050565b6000602082019050611bcb6000830184611ba7565b92915050565b600060208284031215611be757611be6611a0e565b5b6000611bf584828501611a61565b91505092915050565b600060208284031215611c1457611c13611a0e565b5b6000611c2284828501611a97565b91505092915050565b600081519050919050565b600082825260208201905092915050565b60005b83811015611c65578082015181840152602081019050611c4a565b83811115611c74576000848401525b50505050565b6000601f19601f8301169050919050565b6000611c9682611c2b565b611ca08185611c36565b9350611cb0818560208601611c47565b611cb981611c7a565b840191505092915050565b60006020820190508181036000830152611cde8184611c8b565b905092915050565b600080fd5b7f4e487b7100000000000000000000000000000000000000000000000000000000600052604160045260246000fd5b611d2382611c7a565b810181811067ffffffffffffffff82111715611d4257611d41611ceb565b5b80604052505050565b6000611d55611a04565b9050611d618282611d1a565b919050565b600067ffffffffffffffff821115611d8157611d80611ceb565b5b602082029050602081019050919050565b600080fd5b6000611daa611da584611d66565b611d4b565b90508083825260208201905060208402830185811115611dcd57611dcc611d92565b5b835b81811015611df65780611de28882611a97565b845260208401935050602081019050611dcf565b5050509392505050565b600082601f830112611e1557611e14611ce6565b5b8135611e25848260208601611d97565b91505092915050565b600080fd5b600067ffffffffffffffff821115611e4e57611e4d611ceb565b5b611e5782611c7a565b9050602081019050919050565b82818337600083830152505050565b6000611e86611e8184611e33565b611d4b565b905082815260208101848484011115611ea257611ea1611e2e565b5b611ead848285611e64565b509392505050565b600082601f830112611eca57611ec9611ce6565b5b8135611eda848260208601611e73565b91505092915050565b600080600080600060a08688031215611eff57611efe611a0e565b5b6000611f0d88828901611a61565b9550506020611f1e88828901611a61565b945050604086013567ffffffffffffffff811115611f3f57611f3e611a13565b5b611f4b88828901611e00565b935050606086013567ffffffffffffffff811115611f6c57611f6b611a13565b5b611f7888828901611e00565b925050608086013567ffffffffffffffff811115611f9957611f98611a13565b5b611fa588828901611eb5565b9150509295509295909350565b600067ffffffffffffffff821115611fcd57611fcc611ceb565b5b611fd682611c7a565b9050602081019050919050565b6000611ff6611ff184611fb2565b611d4b565b90508281526020810184848401111561201257612011611e2e565b5b61201d848285611e64565b509392505050565b600082601f83011261203a57612039611ce6565b5b813561204a848260208601611fe3565b91505092915050565b60006020828403121561206957612068611a0e565b5b600082013567ffffffffffffffff81111561208757612086611a13565b5b61209384828501612025565b91505092915050565b600067ffffffffffffffff8211156120b7576120b6611ceb565b5b602082029050602081019050919050565b60006120db6120d68461209c565b611d4b565b905080838252602082019050602084028301858111156120fe576120fd611d92565b5b835b8181101561212757806121138882611a61565b845260208401935050602081019050612100565b5050509392505050565b600082601f83011261214657612145611ce6565b5b81356121568482602086016120c8565b91505092915050565b6000806040838503121561217657612175611a0e565b5b600083013567ffffffffffffffff81111561219457612193611a13565b5b6121a085828601612131565b925050602083013567ffffffffffffffff8111156121c1576121c0611a13565b5b6121cd85828601611e00565b9150509250929050565b600081519050919050565b600082825260208201905092915050565b6000819050602082019050919050565b61220c81611a76565b82525050565b600061221e8383612203565b60208301905092915050565b6000602082019050919050565b6000612242826121d7565b61224c81856121e2565b9350612257836121f3565b8060005b8381101561228857815161226f8882612212565b975061227a8361222a565b92505060018101905061225b565b5085935050505092915050565b600060208201905081810360008301526122af8184612237565b905092915050565b6122c081611b9b565b81146122cb57600080fd5b50565b6000813590506122dd816122b7565b92915050565b600080604083850312156122fa576122f9611a0e565b5b600061230885828601611a61565b9250506020612319858286016122ce565b9150509250929050565b6000806040838503121561233a57612339611a0e565b5b600061234885828601611a61565b925050602061235985828601611a61565b9150509250929050565b600080600080600060a0868803121561237f5761237e611a0e565b5b600061238d88828901611a61565b955050602061239e88828901611a61565b94505060406123af88828901611a97565b93505060606123c088828901611a97565b925050608086013567ffffffffffffffff8111156123e1576123e0611a13565b5b6123ed88828901611eb5565b9150509295509295909350565b6000806040838503121561241157612410611a0e565b5b600061241f85828601611a97565b925050602061243085828601611a61565b9150509250929050565b7f455243313135353a2061646472657373207a65726f206973206e6f742061207660008201527f616c6964206f776e657200000000000000000000000000000000000000000000602082015250565b6000612496602a83611c36565b91506124a18261243a565b604082019050919050565b600060208201905081810360008301526124c581612489565b9050919050565b7f4e487b7100000000000000000000000000000000000000000000000000000000600052602260045260246000fd5b6000600282049050600182168061251357607f821691505b602082108103612526576125256124cc565b5b50919050565b7f455243313135353a2063616c6c6572206973206e6f7420746f6b656e206f776e60008201527f6572206e6f7220617070726f7665640000000000000000000000000000000000602082015250565b6000612588602f83611c36565b91506125938261252c565b604082019050919050565b600060208201905081810360008301526125b78161257b565b9050919050565b600081905092915050565b60006125d482611c2b565b6125de81856125be565b93506125ee818560208601611c47565b80840191505092915050565b600061260682846125c9565b915081905092915050565b7f455243313135353a206163636f756e747320616e6420696473206c656e67746860008201527f206d69736d617463680000000000000000000000000000000000000000000000602082015250565b600061266d602983611c36565b915061267882612611565b604082019050919050565b6000602082019050818103600083015261269c81612660565b9050919050565b7f4e487b7100000000000000000000000000000000000000000000000000000000600052603260045260246000fd5b7f4e487b7100000000000000000000000000000000000000000000000000000000600052601160045260246000fd5b600061270c82611a76565b91507fffffffffffffffffffffffffffffffffffffffffffffffffffffffffffffffff820361273e5761273d6126d2565b5b600182019050919050565b60008190508160005260206000209050919050565b60006020601f8301049050919050565b600082821b905092915050565b6000600883026127ab7fffffffffffffffffffffffffffffffffffffffffffffffffffffffffffffffff8261276e565b6127b5868361276e565b95508019841693508086168417925050509392505050565b6000819050919050565b60006127f26127ed6127e884611a76565b6127cd565b611a76565b9050919050565b6000819050919050565b61280c836127d7565b612820612818826127f9565b84845461277b565b825550505050565b600090565b612835612828565b612840818484612803565b505050565b5b818110156128645761285960008261282d565b600181019050612846565b5050565b601f8211156128a95761287a81612749565b6128838461275e565b81016020851015612892578190505b6128a661289e8561275e565b830182612845565b50505b505050565b600082821c905092915050565b60006128cc600019846008026128ae565b1980831691505092915050565b60006128e583836128bb565b9150826002028217905092915050565b6128fe82611c2b565b67ffffffffffffffff81111561291757612916611ceb565b5b61292182546124fb565b61292c828285612868565b600060209050601f83116001811461295f576000841561294d578287015190505b61295785826128d9565b8655506129bf565b601f19841661296d86612749565b60005b8281101561299557848901518255600182019150602085019450602081019050612970565b868310156129b257848901516129ae601f8916826128bb565b8355505b6001600288020188555050505b505050505050565b7f455243313135353a2069647320616e6420616d6f756e7473206c656e6774682060008201527f6d69736d61746368000000000000000000000000000000000000000000000000602082015250565b6000612a23602883611c36565b9150612a2e826129c7565b604082019050919050565b60006020820190508181036000830152612a5281612a16565b9050919050565b7f455243313135353a207472616e7366657220746f20746865207a65726f20616460008201527f6472657373000000000000000000000000000000000000000000000000000000602082015250565b6000612ab5602583611c36565b9150612ac082612a59565b604082019050919050565b60006020820190508181036000830152612ae481612aa8565b9050919050565b7f455243313135353a20696e73756666696369656e742062616c616e636520666f60008201527f72207472616e7366657200000000000000000000000000000000000000000000602082015250565b6000612b47602a83611c36565b9150612b5282612aeb565b604082019050919050565b60006020820190508181036000830152612b7681612b3a565b9050919050565b6000612b8882611a76565b9150612b9383611a76565b9250827fffffffffffffffffffffffffffffffffffffffffffffffffffffffffffffffff03821115612bc857612bc76126d2565b5b828201905092915050565b60006040820190508181036000830152612bed8185612237565b90508181036020830152612c018184612237565b90509392505050565b7f455243313135353a2073657474696e6720617070726f76616c2073746174757360008201527f20666f722073656c660000000000000000000000000000000000000000000000602082015250565b6000612c66602983611c36565b9150612c7182612c0a565b604082019050919050565b60006020820190508181036000830152612c9581612c59565b9050919050565b6000604082019050612cb16000830185611aec565b612cbe6020830184611aec565b9392505050565b7f455243313135353a206275726e2066726f6d20746865207a65726f206164647260008201527f6573730000000000000000000000000000000000000000000000000000000000602082015250565b6000612d21602383611c36565b9150612d2c82612cc5565b604082019050919050565b60006020820190508181036000830152612d5081612d14565b9050919050565b7f455243313135353a206275726e20616d6f756e7420657863656564732062616c60008201527f616e636500000000000000000000000000000000000000000000000000000000602082015250565b6000612db3602483611c36565b9150612dbe82612d57565b604082019050919050565b60006020820190508181036000830152612de281612da6565b9050919050565b612df281611a38565b82525050565b600081519050919050565b600082825260208201905092915050565b6000612e1f82612df8565b612e298185612e03565b9350612e39818560208601611c47565b612e4281611c7a565b840191505092915050565b600060a082019050612e626000830188612de9565b612e6f6020830187612de9565b8181036040830152612e818186612237565b90508181036060830152612e958185612237565b90508181036080830152612ea98184612e14565b90509695505050505050565b600081519050612ec481611b42565b92915050565b600060208284031215612ee057612edf611a0e565b5b6000612eee84828501612eb5565b91505092915050565b60008160e01c9050919050565b600060033d1115612f235760046000803e612f20600051612ef7565b90505b90565b600060443d10612fb357612f38611a04565b60043d036004823e80513d602482011167ffffffffffffffff82111715612f60575050612fb3565b808201805167ffffffffffffffff811115612f7e5750505050612fb3565b80602083010160043d038501811115612f9b575050505050612fb3565b612faa82602001850186611d1a565b82955050505050505b90565b7f455243313135353a207472616e7366657220746f206e6f6e204552433131353560008201527f526563656976657220696d706c656d656e746572000000000000000000000000602082015250565b6000613012603483611c36565b915061301d82612fb6565b604082019050919050565b6000602082019050818103600083015261304181613005565b9050919050565b7f455243313135353a204552433131353552656365697665722072656a6563746560008201527f6420746f6b656e73000000000000000000000000000000000000000000000000602082015250565b60006130a4602883611c36565b91506130af82613048565b604082019050919050565b600060208201905081810360008301526130d381613097565b9050919050565b600060a0820190506130ef6000830188612de9565b6130fc6020830187612de9565b6131096040830186611aec565b6131166060830185611aec565b81810360808301526131288184612e14565b9050969550505050505056fe6275726e696e67207b5f616d6f756e747d2043726564656e7469616c20746f6b656e732066726f6d207b5f6163636f756e747da26469706673582212203b9a52da9da438096aeed1c91f524dfff0d4a2e20e65486bd06cd60f99033df664736f6c634300080f0033",
  "immutableReferences": {},
  "source": "pragma solidity ^0.8.10;\n// SPDX-License-Identifier: MIT\nimport \"@openzeppelin/contracts/token/ERC1155/ERC1155.sol\";\nimport \"./PrivateAccessToken.sol\";\n\n//interface for other contract to read status\ninterface LoginContract_Interface{\n    function CheckUserCreds(address _user)external view returns(bool);\n    function login(string memory _y)external view returns(bool);\n}\ncontract LoginContract is PrivateAccessToken,LoginContract_Interface{\n    //new token that will allow for a smart contract to check credentials \n    event ContractAddress(address _ContractSelf);\n\n\n    //lauch Login contract with PrivateAccessToken Contract as dependancy\n    constructor(string memory _Pass ,string memory _URI)PrivateAccessToken(_Pass,_URI){\n        emit ContractAddress(address(this));\n    }\n\n\n    //I can grab the OnlyToken modifier from the Inherited contract\n    function User_Login(string memory _enterPass)public view OnlyToken returns(bool){\n        if(keccak256(abi.encodePacked(ViewData())) == keccak256(abi.encodePacked(_enterPass))){\n            return true;\n        } else{\n            return false;\n        }\n    }\n    // external source can check if user data holds correct token\n    function CheckUserCreds(address _user)public view returns(bool){\n        if(PrivateAccessToken.OnlyIf(_user,1) == true){\n            return true;\n        } else {\n            return false;\n        }\n    }\n    //Dapp Contracts can check passwords\n    function login(string memory _enterPass)external view returns(bool){\n        if(keccak256(abi.encodePacked(_enterPass)) == keccak256(abi.encodePacked(PrivateViewData()))){\n            return true;\n        }else{\n            return false;\n        }\n    }\n}\ninterface DAppLogin_Interface{\n    function userLogin(address _LoginContract,string memory _enterPass)external returns(bool);\n    function CredToken(address _LoginContract,address _user)external view returns(bool);\n    function Logout(address _LoginContract,address _user)external returns(string memory);\n    function LoginStatus(address _LoginContract) external view returns(bool);\n    function Register(address _LoginContract)external returns(bool);\n}\n//DApps can have this contract be the login contract for users to use this application\ncontract DAppLoginContract is DAppLogin_Interface{\n    uint TotalAccounts =0;\n    constructor(){}\n    \n    mapping(address => Logins) logins;\n    //Keeps list of Login Contracts\n    struct Logins{\n        bool exist;\n        bool status;\n    }\n    //User can add their login contract to this DApp so this Daap can check their credentials in reference to the logincontract\n    function Register(address _LoginContract)public returns(bool){\n        if(logins[_LoginContract].exist == true){\n            return false;\n        }else{\n            logins[_LoginContract] =Logins(true,false);\n            TotalAccounts++;\n            return true;\n        }\n    }\n    //Checks Current Users Login Contracts\n    function LoginStatus(address _LoginContract) public view returns(bool){\n        return logins[_LoginContract].status;\n    }\n    //user Changes Login status\n    function Logout(address _LoginContract,address _user)public returns(string memory){\n        require(LoginContract_Interface(_LoginContract).CheckUserCreds(_user) == true);\n        logins[_LoginContract].status= false;\n        return \"Logged out\";\n    }\n    //user can login and have DApp check login COntract for validity\n    // contract address & password to login\n    function userLogin(address _LoginContract,string memory _enterPass)public returns(bool){\n        require(logins[_LoginContract].exist==true);\n        bool Password = LoginContract_Interface(_LoginContract).login(_enterPass);  //Has correct Password\n        bool Creds = LoginContract_Interface(_LoginContract).CheckUserCreds(msg.sender); //Has correct Credential Token\n        //Check Login Contract and Registration\n        if(Creds==true && Password==true){\n            logins[_LoginContract].status=true;\n            return true;  //user successfully logs in!\n        } else{\n            return false; //User fails to have correct NFT access or incorect password\n        }\n    }\n    //check user\n    function CredToken(address _LoginContract,address _user)public view returns(bool){\n        return LoginContract_Interface(_LoginContract).CheckUserCreds(_user);\n    }\n}\n//- Dev: Quincy J\n",
  "sourcePath": "/Users/quincyjones/Documents/GitHub/LoginContract/contracts/PrivateLoginContract.sol",
  "compiler": {
    "name": "solc",
    "version": "0.8.15+commit.e14f2714.Emscripten.clang"
  },
  "schemaVersion": "3.4.8",
  "updatedAt": "2022-08-12T16:48:10.957Z",
  "devdoc": {
    "kind": "dev",
    "methods": {
      "balanceOf(address,uint256)": {
        "details": "See {IERC1155-balanceOf}. Requirements: - `account` cannot be the zero address."
      },
      "balanceOfBatch(address[],uint256[])": {
        "details": "See {IERC1155-balanceOfBatch}. Requirements: - `accounts` and `ids` must have the same length."
      },
      "isApprovedForAll(address,address)": {
        "details": "See {IERC1155-isApprovedForAll}."
      },
      "safeBatchTransferFrom(address,address,uint256[],uint256[],bytes)": {
        "details": "See {IERC1155-safeBatchTransferFrom}."
      },
      "safeTransferFrom(address,address,uint256,uint256,bytes)": {
        "details": "See {IERC1155-safeTransferFrom}."
      },
      "setApprovalForAll(address,bool)": {
        "details": "See {IERC1155-setApprovalForAll}."
      },
      "supportsInterface(bytes4)": {
        "details": "See {IERC165-supportsInterface}."
      },
      "uri(uint256)": {
        "details": "See {IERC1155MetadataURI-uri}. This implementation returns the same URI for *all* token types. It relies on the token type ID substitution mechanism https://eips.ethereum.org/EIPS/eip-1155#metadata[defined in the EIP]. Clients calling this function must replace the `\\{id\\}` substring with the actual token type ID."
      }
    },
    "version": 1
  },
  "userdoc": {
    "kind": "user",
    "methods": {},
    "version": 1
  }
}