{
  "contractName": "PrivateAccessToken",
  "abi": [
    {
      "inputs": [
        {
          "internalType": "string",
          "name": "_PrivateData",
          "type": "string"
        },
        {
          "internalType": "string",
          "name": "URI",
          "type": "string"
        }
      ],
      "stateMutability": "nonpayable",
      "type": "constructor"
    },
    {
      "anonymous": false,
      "inputs": [
        {
          "indexed": true,
          "internalType": "address",
          "name": "account",
          "type": "address"
        },
        {
          "indexed": true,
          "internalType": "address",
          "name": "operator",
          "type": "address"
        },
        {
          "indexed": false,
          "internalType": "bool",
          "name": "approved",
          "type": "bool"
        }
      ],
      "name": "ApprovalForAll",
      "type": "event"
    },
    {
      "anonymous": false,
      "inputs": [
        {
          "indexed": true,
          "internalType": "address",
          "name": "operator",
          "type": "address"
        },
        {
          "indexed": true,
          "internalType": "address",
          "name": "from",
          "type": "address"
        },
        {
          "indexed": true,
          "internalType": "address",
          "name": "to",
          "type": "address"
        },
        {
          "indexed": false,
          "internalType": "uint256[]",
          "name": "ids",
          "type": "uint256[]"
        },
        {
          "indexed": false,
          "internalType": "uint256[]",
          "name": "values",
          "type": "uint256[]"
        }
      ],
      "name": "TransferBatch",
      "type": "event"
    },
    {
      "anonymous": false,
      "inputs": [
        {
          "indexed": true,
          "internalType": "address",
          "name": "operator",
          "type": "address"
        },
        {
          "indexed": true,
          "internalType": "address",
          "name": "from",
          "type": "address"
        },
        {
          "indexed": true,
          "internalType": "address",
          "name": "to",
          "type": "address"
        },
        {
          "indexed": false,
          "internalType": "uint256",
          "name": "id",
          "type": "uint256"
        },
        {
          "indexed": false,
          "internalType": "uint256",
          "name": "value",
          "type": "uint256"
        }
      ],
      "name": "TransferSingle",
      "type": "event"
    },
    {
      "anonymous": false,
      "inputs": [
        {
          "indexed": false,
          "internalType": "string",
          "name": "value",
          "type": "string"
        },
        {
          "indexed": true,
          "internalType": "uint256",
          "name": "id",
          "type": "uint256"
        }
      ],
      "name": "URI",
      "type": "event"
    },
    {
      "inputs": [
        {
          "internalType": "address",
          "name": "account",
          "type": "address"
        },
        {
          "internalType": "uint256",
          "name": "id",
          "type": "uint256"
        }
      ],
      "name": "balanceOf",
      "outputs": [
        {
          "internalType": "uint256",
          "name": "",
          "type": "uint256"
        }
      ],
      "stateMutability": "view",
      "type": "function"
    },
    {
      "inputs": [
        {
          "internalType": "address[]",
          "name": "accounts",
          "type": "address[]"
        },
        {
          "internalType": "uint256[]",
          "name": "ids",
          "type": "uint256[]"
        }
      ],
      "name": "balanceOfBatch",
      "outputs": [
        {
          "internalType": "uint256[]",
          "name": "",
          "type": "uint256[]"
        }
      ],
      "stateMutability": "view",
      "type": "function"
    },
    {
      "inputs": [
        {
          "internalType": "address",
          "name": "account",
          "type": "address"
        },
        {
          "internalType": "address",
          "name": "operator",
          "type": "address"
        }
      ],
      "name": "isApprovedForAll",
      "outputs": [
        {
          "internalType": "bool",
          "name": "",
          "type": "bool"
        }
      ],
      "stateMutability": "view",
      "type": "function"
    },
    {
      "inputs": [
        {
          "internalType": "address",
          "name": "from",
          "type": "address"
        },
        {
          "internalType": "address",
          "name": "to",
          "type": "address"
        },
        {
          "internalType": "uint256[]",
          "name": "ids",
          "type": "uint256[]"
        },
        {
          "internalType": "uint256[]",
          "name": "amounts",
          "type": "uint256[]"
        },
        {
          "internalType": "bytes",
          "name": "data",
          "type": "bytes"
        }
      ],
      "name": "safeBatchTransferFrom",
      "outputs": [],
      "stateMutability": "nonpayable",
      "type": "function"
    },
    {
      "inputs": [
        {
          "internalType": "address",
          "name": "from",
          "type": "address"
        },
        {
          "internalType": "address",
          "name": "to",
          "type": "address"
        },
        {
          "internalType": "uint256",
          "name": "id",
          "type": "uint256"
        },
        {
          "internalType": "uint256",
          "name": "amount",
          "type": "uint256"
        },
        {
          "internalType": "bytes",
          "name": "data",
          "type": "bytes"
        }
      ],
      "name": "safeTransferFrom",
      "outputs": [],
      "stateMutability": "nonpayable",
      "type": "function"
    },
    {
      "inputs": [
        {
          "internalType": "address",
          "name": "operator",
          "type": "address"
        },
        {
          "internalType": "bool",
          "name": "approved",
          "type": "bool"
        }
      ],
      "name": "setApprovalForAll",
      "outputs": [],
      "stateMutability": "nonpayable",
      "type": "function"
    },
    {
      "inputs": [
        {
          "internalType": "bytes4",
          "name": "interfaceId",
          "type": "bytes4"
        }
      ],
      "name": "supportsInterface",
      "outputs": [
        {
          "internalType": "bool",
          "name": "",
          "type": "bool"
        }
      ],
      "stateMutability": "view",
      "type": "function"
    },
    {
      "inputs": [
        {
          "internalType": "uint256",
          "name": "",
          "type": "uint256"
        }
      ],
      "name": "uri",
      "outputs": [
        {
          "internalType": "string",
          "name": "",
          "type": "string"
        }
      ],
      "stateMutability": "view",
      "type": "function"
    },
    {
      "inputs": [],
      "name": "ViewData",
      "outputs": [
        {
          "internalType": "string",
          "name": "",
          "type": "string"
        }
      ],
      "stateMutability": "view",
      "type": "function"
    },
    {
      "inputs": [],
      "name": "ViewStatus",
      "outputs": [
        {
          "internalType": "uint256",
          "name": "",
          "type": "uint256"
        }
      ],
      "stateMutability": "view",
      "type": "function"
    },
    {
      "inputs": [
        {
          "internalType": "string",
          "name": "_newData",
          "type": "string"
        }
      ],
      "name": "Edit",
      "outputs": [
        {
          "internalType": "bool",
          "name": "",
          "type": "bool"
        }
      ],
      "stateMutability": "nonpayable",
      "type": "function"
    },
    {
      "inputs": [
        {
          "internalType": "bool",
          "name": "_mint",
          "type": "bool"
        },
        {
          "internalType": "uint256",
          "name": "_amount",
          "type": "uint256"
        },
        {
          "internalType": "address",
          "name": "_account",
          "type": "address"
        }
      ],
      "name": "Burn",
      "outputs": [
        {
          "internalType": "string",
          "name": "",
          "type": "string"
        }
      ],
      "stateMutability": "nonpayable",
      "type": "function"
    }
  ],
  "bytecode": "0x60806040526000600455600a6005553480156200001b57600080fd5b5060405162003b2438038062003b24833981810160405281019062000041919062000768565b8062000053816200009c60201b60201c565b5081600390805190602001906200006c9291906200051b565b50620000943360045460055460405180602001604052806000815250620000b860201b60201c565b505062000e07565b8060029080519060200190620000b49291906200051b565b5050565b600073ffffffffffffffffffffffffffffffffffffffff168473ffffffffffffffffffffffffffffffffffffffff1614156200012b576040517f08c379a0000000000000000000000000000000000000000000000000000000008152600401620001229062000874565b60405180910390fd5b60006200013d6200027d60201b60201c565b9050620001768160008762000158886200028560201b60201c565b62000169886200028560201b60201c565b876200030660201b60201c565b8260008086815260200190815260200160002060008773ffffffffffffffffffffffffffffffffffffffff1673ffffffffffffffffffffffffffffffffffffffff1681526020019081526020016000206000828254620001d79190620008cf565b925050819055508473ffffffffffffffffffffffffffffffffffffffff16600073ffffffffffffffffffffffffffffffffffffffff168273ffffffffffffffffffffffffffffffffffffffff167fc3d58168c5ae7397731d063d5bbf3d657854427343f4c083240f7aacaa2d0f628787604051620002579291906200093d565b60405180910390a462000276816000878787876200030e60201b60201c565b5050505050565b600033905090565b60606000600167ffffffffffffffff811115620002a757620002a6620005fa565b5b604051908082528060200260200182016040528015620002d65781602001602082028036833780820191505090505b5090508281600081518110620002f157620002f06200096a565b5b60200260200101818152505080915050919050565b505050505050565b6200033a8473ffffffffffffffffffffffffffffffffffffffff166200050860201b620009241760201c565b1562000500578373ffffffffffffffffffffffffffffffffffffffff1663f23a6e6187878686866040518663ffffffff1660e01b81526004016200038395949392919062000a3b565b6020604051808303816000875af1925050508015620003c257506040513d601f19601f82011682018060405250810190620003bf919062000afc565b60015b6200047457620003d162000b3b565b806308c379a01415620004355750620003e962000b60565b80620003f6575062000437565b806040517f08c379a00000000000000000000000000000000000000000000000000000000081526004016200042c919062000c4e565b60405180910390fd5b505b6040517f08c379a00000000000000000000000000000000000000000000000000000000081526004016200046b9062000ce8565b60405180910390fd5b63f23a6e6160e01b7bffffffffffffffffffffffffffffffffffffffffffffffffffffffff1916817bffffffffffffffffffffffffffffffffffffffffffffffffffffffff191614620004fe576040517f08c379a0000000000000000000000000000000000000000000000000000000008152600401620004f59062000d80565b60405180910390fd5b505b505050505050565b600080823b905060008111915050919050565b828054620005299062000dd1565b90600052602060002090601f0160209004810192826200054d576000855562000599565b82601f106200056857805160ff191683800117855562000599565b8280016001018555821562000599579182015b82811115620005985782518255916020019190600101906200057b565b5b509050620005a89190620005ac565b5090565b5b80821115620005c7576000816000905550600101620005ad565b5090565b6000604051905090565b600080fd5b600080fd5b600080fd5b600080fd5b6000601f19601f8301169050919050565b7f4e487b7100000000000000000000000000000000000000000000000000000000600052604160045260246000fd5b6200063482620005e9565b810181811067ffffffffffffffff82111715620006565762000655620005fa565b5b80604052505050565b60006200066b620005cb565b905062000679828262000629565b919050565b600067ffffffffffffffff8211156200069c576200069b620005fa565b5b620006a782620005e9565b9050602081019050919050565b60005b83811015620006d4578082015181840152602081019050620006b7565b83811115620006e4576000848401525b50505050565b600062000701620006fb846200067e565b6200065f565b90508281526020810184848401111562000720576200071f620005e4565b5b6200072d848285620006b4565b509392505050565b600082601f8301126200074d576200074c620005df565b5b81516200075f848260208601620006ea565b91505092915050565b60008060408385031215620007825762000781620005d5565b5b600083015167ffffffffffffffff811115620007a357620007a2620005da565b5b620007b18582860162000735565b925050602083015167ffffffffffffffff811115620007d557620007d4620005da565b5b620007e38582860162000735565b9150509250929050565b600082825260208201905092915050565b7f455243313135353a206d696e7420746f20746865207a65726f2061646472657360008201527f7300000000000000000000000000000000000000000000000000000000000000602082015250565b60006200085c602183620007ed565b91506200086982620007fe565b604082019050919050565b600060208201905081810360008301526200088f816200084d565b9050919050565b6000819050919050565b7f4e487b7100000000000000000000000000000000000000000000000000000000600052601160045260246000fd5b6000620008dc8262000896565b9150620008e98362000896565b9250827fffffffffffffffffffffffffffffffffffffffffffffffffffffffffffffffff03821115620009215762000920620008a0565b5b828201905092915050565b620009378162000896565b82525050565b60006040820190506200095460008301856200092c565b6200096360208301846200092c565b9392505050565b7f4e487b7100000000000000000000000000000000000000000000000000000000600052603260045260246000fd5b600073ffffffffffffffffffffffffffffffffffffffff82169050919050565b6000620009c68262000999565b9050919050565b620009d881620009b9565b82525050565b600081519050919050565b600082825260208201905092915050565b600062000a0782620009de565b62000a138185620009e9565b935062000a25818560208601620006b4565b62000a3081620005e9565b840191505092915050565b600060a08201905062000a526000830188620009cd565b62000a616020830187620009cd565b62000a7060408301866200092c565b62000a7f60608301856200092c565b818103608083015262000a938184620009fa565b90509695505050505050565b60007fffffffff0000000000000000000000000000000000000000000000000000000082169050919050565b62000ad68162000a9f565b811462000ae257600080fd5b50565b60008151905062000af68162000acb565b92915050565b60006020828403121562000b155762000b14620005d5565b5b600062000b258482850162000ae5565b91505092915050565b60008160e01c9050919050565b600060033d111562000b5d5760046000803e62000b5a60005162000b2e565b90505b90565b600060443d101562000b725762000bff565b62000b7c620005cb565b60043d036004823e80513d602482011167ffffffffffffffff8211171562000ba657505062000bff565b808201805167ffffffffffffffff81111562000bc6575050505062000bff565b80602083010160043d03850181111562000be557505050505062000bff565b62000bf68260200185018662000629565b82955050505050505b90565b600081519050919050565b600062000c1a8262000c02565b62000c268185620007ed565b935062000c38818560208601620006b4565b62000c4381620005e9565b840191505092915050565b6000602082019050818103600083015262000c6a818462000c0d565b905092915050565b7f455243313135353a207472616e7366657220746f206e6f6e204552433131353560008201527f526563656976657220696d706c656d656e746572000000000000000000000000602082015250565b600062000cd0603483620007ed565b915062000cdd8262000c72565b604082019050919050565b6000602082019050818103600083015262000d038162000cc1565b9050919050565b7f455243313135353a204552433131353552656365697665722072656a6563746560008201527f6420746f6b656e73000000000000000000000000000000000000000000000000602082015250565b600062000d68602883620007ed565b915062000d758262000d0a565b604082019050919050565b6000602082019050818103600083015262000d9b8162000d59565b9050919050565b7f4e487b7100000000000000000000000000000000000000000000000000000000600052602260045260246000fd5b6000600282049050600182168062000dea57607f821691505b6020821081141562000e015762000e0062000da2565b5b50919050565b612d0d8062000e176000396000f3fe608060405234801561001057600080fd5b50600436106100b35760003560e01c80634e1273f4116100715780634e1273f4146101b2578063a22cb465146101e2578063c5956fe1146101fe578063cd31de7a1461022e578063e985e9c51461024c578063f242432a1461027c576100b3565b8062fdd58e146100b857806301ffc9a7146100e8578063087f477a146101185780630e89341c1461013657806315fbd4bd146101665780632eb2c2d614610196575b600080fd5b6100d260048036038101906100cd919061186d565b610298565b6040516100df91906118bc565b60405180910390f35b61010260048036038101906100fd919061192f565b610361565b60405161010f9190611977565b60405180910390f35b610120610443565b60405161012d91906118bc565b60405180910390f35b610150600480360381019061014b9190611992565b610455565b60405161015d9190611a58565b60405180910390f35b610180600480360381019061017b9190611aa6565b6104e9565b60405161018d9190611a58565b60405180910390f35b6101b060048036038101906101ab9190611cf6565b610535565b005b6101cc60048036038101906101c79190611e88565b6105d6565b6040516101d99190611fbe565b60405180910390f35b6101fc60048036038101906101f79190611fe0565b6106ef565b005b610218600480360381019061021391906120c1565b610705565b6040516102259190611977565b60405180910390f35b610236610742565b6040516102439190611a58565b60405180910390f35b6102666004803603810190610261919061210a565b6107ef565b6040516102739190611977565b60405180910390f35b6102966004803603810190610291919061214a565b610883565b005b60008073ffffffffffffffffffffffffffffffffffffffff168373ffffffffffffffffffffffffffffffffffffffff161415610309576040517f08c379a000000000000000000000000000000000000000000000000000000000815260040161030090612253565b60405180910390fd5b60008083815260200190815260200160002060008473ffffffffffffffffffffffffffffffffffffffff1673ffffffffffffffffffffffffffffffffffffffff16815260200190815260200160002054905092915050565b60007fd9b67a26000000000000000000000000000000000000000000000000000000007bffffffffffffffffffffffffffffffffffffffffffffffffffffffff1916827bffffffffffffffffffffffffffffffffffffffffffffffffffffffff1916148061042c57507f0e89341c000000000000000000000000000000000000000000000000000000007bffffffffffffffffffffffffffffffffffffffffffffffffffffffff1916827bffffffffffffffffffffffffffffffffffffffffffffffffffffffff1916145b8061043c575061043b82610937565b5b9050919050565b6000610450336000610298565b905090565b606060028054610464906122a2565b80601f0160208091040260200160405190810160405280929190818152602001828054610490906122a2565b80156104dd5780601f106104b2576101008083540402835291602001916104dd565b820191906000526020600020905b8154815290600101906020018083116104c057829003601f168201915b50505050509050919050565b6060600115156104fa3360036109a1565b15151461050657600080fd5b61051382600454856109c8565b604051806060016040528060338152602001612ca56033913990509392505050565b61053d610be5565b73ffffffffffffffffffffffffffffffffffffffff168573ffffffffffffffffffffffffffffffffffffffff16148061058357506105828561057d610be5565b6107ef565b5b6105c2576040517f08c379a00000000000000000000000000000000000000000000000000000000081526004016105b990612346565b60405180910390fd5b6105cf8585858585610bed565b5050505050565b6060815183511461061c576040517f08c379a0000000000000000000000000000000000000000000000000000000008152600401610613906123d8565b60405180910390fd5b6000835167ffffffffffffffff81111561063957610638611afe565b5b6040519080825280602002602001820160405280156106675781602001602082028036833780820191505090505b50905060005b84518110156106e4576106b485828151811061068c5761068b6123f8565b5b60200260200101518583815181106106a7576106a66123f8565b5b6020026020010151610298565b8282815181106106c7576106c66123f8565b5b602002602001018181525050806106dd90612456565b905061066d565b508091505092915050565b6107016106fa610be5565b8383610f01565b5050565b6000600115156107163360036109a1565b15151461072257600080fd5b8160039080519060200190610738929190611722565b5060019050919050565b6060600115156107533360036109a1565b15151461075f57600080fd5b6003805461076c906122a2565b80601f0160208091040260200160405190810160405280929190818152602001828054610798906122a2565b80156107e55780601f106107ba576101008083540402835291602001916107e5565b820191906000526020600020905b8154815290600101906020018083116107c857829003601f168201915b5050505050905090565b6000600160008473ffffffffffffffffffffffffffffffffffffffff1673ffffffffffffffffffffffffffffffffffffffff16815260200190815260200160002060008373ffffffffffffffffffffffffffffffffffffffff1673ffffffffffffffffffffffffffffffffffffffff16815260200190815260200160002060009054906101000a900460ff16905092915050565b61088b610be5565b73ffffffffffffffffffffffffffffffffffffffff168573ffffffffffffffffffffffffffffffffffffffff1614806108d157506108d0856108cb610be5565b6107ef565b5b610910576040517f08c379a000000000000000000000000000000000000000000000000000000000815260040161090790612511565b60405180910390fd5b61091d858585858561106e565b5050505050565b600080823b905060008111915050919050565b60007f01ffc9a7000000000000000000000000000000000000000000000000000000007bffffffffffffffffffffffffffffffffffffffffffffffffffffffff1916827bffffffffffffffffffffffffffffffffffffffffffffffffffffffff1916149050919050565b6000816109af846000610298565b106109bd57600190506109c2565b600090505b92915050565b600073ffffffffffffffffffffffffffffffffffffffff168373ffffffffffffffffffffffffffffffffffffffff161415610a38576040517f08c379a0000000000000000000000000000000000000000000000000000000008152600401610a2f906125a3565b60405180910390fd5b6000610a42610be5565b9050610a7281856000610a54876112f0565b610a5d876112f0565b6040518060200160405280600081525061136a565b600080600085815260200190815260200160002060008673ffffffffffffffffffffffffffffffffffffffff1673ffffffffffffffffffffffffffffffffffffffff16815260200190815260200160002054905082811015610b09576040517f08c379a0000000000000000000000000000000000000000000000000000000008152600401610b0090612635565b60405180910390fd5b82810360008086815260200190815260200160002060008773ffffffffffffffffffffffffffffffffffffffff1673ffffffffffffffffffffffffffffffffffffffff16815260200190815260200160002081905550600073ffffffffffffffffffffffffffffffffffffffff168573ffffffffffffffffffffffffffffffffffffffff168373ffffffffffffffffffffffffffffffffffffffff167fc3d58168c5ae7397731d063d5bbf3d657854427343f4c083240f7aacaa2d0f628787604051610bd6929190612655565b60405180910390a45050505050565b600033905090565b8151835114610c31576040517f08c379a0000000000000000000000000000000000000000000000000000000008152600401610c28906126f0565b60405180910390fd5b600073ffffffffffffffffffffffffffffffffffffffff168473ffffffffffffffffffffffffffffffffffffffff161415610ca1576040517f08c379a0000000000000000000000000000000000000000000000000000000008152600401610c9890612782565b60405180910390fd5b6000610cab610be5565b9050610cbb81878787878761136a565b60005b8451811015610e6c576000858281518110610cdc57610cdb6123f8565b5b602002602001015190506000858381518110610cfb57610cfa6123f8565b5b60200260200101519050600080600084815260200190815260200160002060008b73ffffffffffffffffffffffffffffffffffffffff1673ffffffffffffffffffffffffffffffffffffffff16815260200190815260200160002054905081811015610d9c576040517f08c379a0000000000000000000000000000000000000000000000000000000008152600401610d9390612814565b60405180910390fd5b81810360008085815260200190815260200160002060008c73ffffffffffffffffffffffffffffffffffffffff1673ffffffffffffffffffffffffffffffffffffffff168152602001908152602001600020819055508160008085815260200190815260200160002060008b73ffffffffffffffffffffffffffffffffffffffff1673ffffffffffffffffffffffffffffffffffffffff1681526020019081526020016000206000828254610e519190612834565b9250508190555050505080610e6590612456565b9050610cbe565b508473ffffffffffffffffffffffffffffffffffffffff168673ffffffffffffffffffffffffffffffffffffffff168273ffffffffffffffffffffffffffffffffffffffff167f4a39dc06d4c0dbc64b70af90fd698a233a518aa5d07e595d983b8c0526c8f7fb8787604051610ee392919061288a565b60405180910390a4610ef9818787878787611372565b505050505050565b8173ffffffffffffffffffffffffffffffffffffffff168373ffffffffffffffffffffffffffffffffffffffff161415610f70576040517f08c379a0000000000000000000000000000000000000000000000000000000008152600401610f6790612933565b60405180910390fd5b80600160008573ffffffffffffffffffffffffffffffffffffffff1673ffffffffffffffffffffffffffffffffffffffff16815260200190815260200160002060008473ffffffffffffffffffffffffffffffffffffffff1673ffffffffffffffffffffffffffffffffffffffff16815260200190815260200160002060006101000a81548160ff0219169083151502179055508173ffffffffffffffffffffffffffffffffffffffff168373ffffffffffffffffffffffffffffffffffffffff167f17307eab39ab6107e8899845ad3d59bd9653f200f220920489ca2b5937696c31836040516110619190611977565b60405180910390a3505050565b600073ffffffffffffffffffffffffffffffffffffffff168473ffffffffffffffffffffffffffffffffffffffff1614156110de576040517f08c379a00000000000000000000000000000000000000000000000000000000081526004016110d590612782565b60405180910390fd5b60006110e8610be5565b90506111088187876110f9886112f0565b611102886112f0565b8761136a565b600080600086815260200190815260200160002060008873ffffffffffffffffffffffffffffffffffffffff1673ffffffffffffffffffffffffffffffffffffffff1681526020019081526020016000205490508381101561119f576040517f08c379a000000000000000000000000000000000000000000000000000000000815260040161119690612814565b60405180910390fd5b83810360008087815260200190815260200160002060008973ffffffffffffffffffffffffffffffffffffffff1673ffffffffffffffffffffffffffffffffffffffff168152602001908152602001600020819055508360008087815260200190815260200160002060008873ffffffffffffffffffffffffffffffffffffffff1673ffffffffffffffffffffffffffffffffffffffff16815260200190815260200160002060008282546112549190612834565b925050819055508573ffffffffffffffffffffffffffffffffffffffff168773ffffffffffffffffffffffffffffffffffffffff168373ffffffffffffffffffffffffffffffffffffffff167fc3d58168c5ae7397731d063d5bbf3d657854427343f4c083240f7aacaa2d0f6288886040516112d1929190612655565b60405180910390a46112e782888888888861154a565b50505050505050565b60606000600167ffffffffffffffff81111561130f5761130e611afe565b5b60405190808252806020026020018201604052801561133d5781602001602082028036833780820191505090505b5090508281600081518110611355576113546123f8565b5b60200260200101818152505080915050919050565b505050505050565b6113918473ffffffffffffffffffffffffffffffffffffffff16610924565b15611542578373ffffffffffffffffffffffffffffffffffffffff1663bc197c8187878686866040518663ffffffff1660e01b81526004016113d79594939291906129b7565b6020604051808303816000875af192505050801561141357506040513d601f19601f820116820180604052508101906114109190612a34565b60015b6114b95761141f612a6e565b806308c379a0141561147c5750611434612a90565b8061143f575061147e565b806040517f08c379a00000000000000000000000000000000000000000000000000000000081526004016114739190611a58565b60405180910390fd5b505b6040517f08c379a00000000000000000000000000000000000000000000000000000000081526004016114b090612b98565b60405180910390fd5b63bc197c8160e01b7bffffffffffffffffffffffffffffffffffffffffffffffffffffffff1916817bffffffffffffffffffffffffffffffffffffffffffffffffffffffff191614611540576040517f08c379a000000000000000000000000000000000000000000000000000000000815260040161153790612c2a565b60405180910390fd5b505b505050505050565b6115698473ffffffffffffffffffffffffffffffffffffffff16610924565b1561171a578373ffffffffffffffffffffffffffffffffffffffff1663f23a6e6187878686866040518663ffffffff1660e01b81526004016115af959493929190612c4a565b6020604051808303816000875af19250505080156115eb57506040513d601f19601f820116820180604052508101906115e89190612a34565b60015b611691576115f7612a6e565b806308c379a01415611654575061160c612a90565b806116175750611656565b806040517f08c379a000000000000000000000000000000000000000000000000000000000815260040161164b9190611a58565b60405180910390fd5b505b6040517f08c379a000000000000000000000000000000000000000000000000000000000815260040161168890612b98565b60405180910390fd5b63f23a6e6160e01b7bffffffffffffffffffffffffffffffffffffffffffffffffffffffff1916817bffffffffffffffffffffffffffffffffffffffffffffffffffffffff191614611718576040517f08c379a000000000000000000000000000000000000000000000000000000000815260040161170f90612c2a565b60405180910390fd5b505b505050505050565b82805461172e906122a2565b90600052602060002090601f0160209004810192826117505760008555611797565b82601f1061176957805160ff1916838001178555611797565b82800160010185558215611797579182015b8281111561179657825182559160200191906001019061177b565b5b5090506117a491906117a8565b5090565b5b808211156117c15760008160009055506001016117a9565b5090565b6000604051905090565b600080fd5b600080fd5b600073ffffffffffffffffffffffffffffffffffffffff82169050919050565b6000611804826117d9565b9050919050565b611814816117f9565b811461181f57600080fd5b50565b6000813590506118318161180b565b92915050565b6000819050919050565b61184a81611837565b811461185557600080fd5b50565b60008135905061186781611841565b92915050565b60008060408385031215611884576118836117cf565b5b600061189285828601611822565b92505060206118a385828601611858565b9150509250929050565b6118b681611837565b82525050565b60006020820190506118d160008301846118ad565b92915050565b60007fffffffff0000000000000000000000000000000000000000000000000000000082169050919050565b61190c816118d7565b811461191757600080fd5b50565b60008135905061192981611903565b92915050565b600060208284031215611945576119446117cf565b5b60006119538482850161191a565b91505092915050565b60008115159050919050565b6119718161195c565b82525050565b600060208201905061198c6000830184611968565b92915050565b6000602082840312156119a8576119a76117cf565b5b60006119b684828501611858565b91505092915050565b600081519050919050565b600082825260208201905092915050565b60005b838110156119f95780820151818401526020810190506119de565b83811115611a08576000848401525b50505050565b6000601f19601f8301169050919050565b6000611a2a826119bf565b611a3481856119ca565b9350611a448185602086016119db565b611a4d81611a0e565b840191505092915050565b60006020820190508181036000830152611a728184611a1f565b905092915050565b611a838161195c565b8114611a8e57600080fd5b50565b600081359050611aa081611a7a565b92915050565b600080600060608486031215611abf57611abe6117cf565b5b6000611acd86828701611a91565b9350506020611ade86828701611858565b9250506040611aef86828701611822565b9150509250925092565b600080fd5b7f4e487b7100000000000000000000000000000000000000000000000000000000600052604160045260246000fd5b611b3682611a0e565b810181811067ffffffffffffffff82111715611b5557611b54611afe565b5b80604052505050565b6000611b686117c5565b9050611b748282611b2d565b919050565b600067ffffffffffffffff821115611b9457611b93611afe565b5b602082029050602081019050919050565b600080fd5b6000611bbd611bb884611b79565b611b5e565b90508083825260208201905060208402830185811115611be057611bdf611ba5565b5b835b81811015611c095780611bf58882611858565b845260208401935050602081019050611be2565b5050509392505050565b600082601f830112611c2857611c27611af9565b5b8135611c38848260208601611baa565b91505092915050565b600080fd5b600067ffffffffffffffff821115611c6157611c60611afe565b5b611c6a82611a0e565b9050602081019050919050565b82818337600083830152505050565b6000611c99611c9484611c46565b611b5e565b905082815260208101848484011115611cb557611cb4611c41565b5b611cc0848285611c77565b509392505050565b600082601f830112611cdd57611cdc611af9565b5b8135611ced848260208601611c86565b91505092915050565b600080600080600060a08688031215611d1257611d116117cf565b5b6000611d2088828901611822565b9550506020611d3188828901611822565b945050604086013567ffffffffffffffff811115611d5257611d516117d4565b5b611d5e88828901611c13565b935050606086013567ffffffffffffffff811115611d7f57611d7e6117d4565b5b611d8b88828901611c13565b925050608086013567ffffffffffffffff811115611dac57611dab6117d4565b5b611db888828901611cc8565b9150509295509295909350565b600067ffffffffffffffff821115611de057611ddf611afe565b5b602082029050602081019050919050565b6000611e04611dff84611dc5565b611b5e565b90508083825260208201905060208402830185811115611e2757611e26611ba5565b5b835b81811015611e505780611e3c8882611822565b845260208401935050602081019050611e29565b5050509392505050565b600082601f830112611e6f57611e6e611af9565b5b8135611e7f848260208601611df1565b91505092915050565b60008060408385031215611e9f57611e9e6117cf565b5b600083013567ffffffffffffffff811115611ebd57611ebc6117d4565b5b611ec985828601611e5a565b925050602083013567ffffffffffffffff811115611eea57611ee96117d4565b5b611ef685828601611c13565b9150509250929050565b600081519050919050565b600082825260208201905092915050565b6000819050602082019050919050565b611f3581611837565b82525050565b6000611f478383611f2c565b60208301905092915050565b6000602082019050919050565b6000611f6b82611f00565b611f758185611f0b565b9350611f8083611f1c565b8060005b83811015611fb1578151611f988882611f3b565b9750611fa383611f53565b925050600181019050611f84565b5085935050505092915050565b60006020820190508181036000830152611fd88184611f60565b905092915050565b60008060408385031215611ff757611ff66117cf565b5b600061200585828601611822565b925050602061201685828601611a91565b9150509250929050565b600067ffffffffffffffff82111561203b5761203a611afe565b5b61204482611a0e565b9050602081019050919050565b600061206461205f84612020565b611b5e565b9050828152602081018484840111156120805761207f611c41565b5b61208b848285611c77565b509392505050565b600082601f8301126120a8576120a7611af9565b5b81356120b8848260208601612051565b91505092915050565b6000602082840312156120d7576120d66117cf565b5b600082013567ffffffffffffffff8111156120f5576120f46117d4565b5b61210184828501612093565b91505092915050565b60008060408385031215612121576121206117cf565b5b600061212f85828601611822565b925050602061214085828601611822565b9150509250929050565b600080600080600060a08688031215612166576121656117cf565b5b600061217488828901611822565b955050602061218588828901611822565b945050604061219688828901611858565b93505060606121a788828901611858565b925050608086013567ffffffffffffffff8111156121c8576121c76117d4565b5b6121d488828901611cc8565b9150509295509295909350565b7f455243313135353a2062616c616e636520717565727920666f7220746865207a60008201527f65726f2061646472657373000000000000000000000000000000000000000000602082015250565b600061223d602b836119ca565b9150612248826121e1565b604082019050919050565b6000602082019050818103600083015261226c81612230565b9050919050565b7f4e487b7100000000000000000000000000000000000000000000000000000000600052602260045260246000fd5b600060028204905060018216806122ba57607f821691505b602082108114156122ce576122cd612273565b5b50919050565b7f455243313135353a207472616e736665722063616c6c6572206973206e6f742060008201527f6f776e6572206e6f7220617070726f7665640000000000000000000000000000602082015250565b60006123306032836119ca565b915061233b826122d4565b604082019050919050565b6000602082019050818103600083015261235f81612323565b9050919050565b7f455243313135353a206163636f756e747320616e6420696473206c656e67746860008201527f206d69736d617463680000000000000000000000000000000000000000000000602082015250565b60006123c26029836119ca565b91506123cd82612366565b604082019050919050565b600060208201905081810360008301526123f1816123b5565b9050919050565b7f4e487b7100000000000000000000000000000000000000000000000000000000600052603260045260246000fd5b7f4e487b7100000000000000000000000000000000000000000000000000000000600052601160045260246000fd5b600061246182611837565b91507fffffffffffffffffffffffffffffffffffffffffffffffffffffffffffffffff82141561249457612493612427565b5b600182019050919050565b7f455243313135353a2063616c6c6572206973206e6f74206f776e6572206e6f7260008201527f20617070726f7665640000000000000000000000000000000000000000000000602082015250565b60006124fb6029836119ca565b91506125068261249f565b604082019050919050565b6000602082019050818103600083015261252a816124ee565b9050919050565b7f455243313135353a206275726e2066726f6d20746865207a65726f206164647260008201527f6573730000000000000000000000000000000000000000000000000000000000602082015250565b600061258d6023836119ca565b915061259882612531565b604082019050919050565b600060208201905081810360008301526125bc81612580565b9050919050565b7f455243313135353a206275726e20616d6f756e7420657863656564732062616c60008201527f616e636500000000000000000000000000000000000000000000000000000000602082015250565b600061261f6024836119ca565b915061262a826125c3565b604082019050919050565b6000602082019050818103600083015261264e81612612565b9050919050565b600060408201905061266a60008301856118ad565b61267760208301846118ad565b9392505050565b7f455243313135353a2069647320616e6420616d6f756e7473206c656e6774682060008201527f6d69736d61746368000000000000000000000000000000000000000000000000602082015250565b60006126da6028836119ca565b91506126e58261267e565b604082019050919050565b60006020820190508181036000830152612709816126cd565b9050919050565b7f455243313135353a207472616e7366657220746f20746865207a65726f20616460008201527f6472657373000000000000000000000000000000000000000000000000000000602082015250565b600061276c6025836119ca565b915061277782612710565b604082019050919050565b6000602082019050818103600083015261279b8161275f565b9050919050565b7f455243313135353a20696e73756666696369656e742062616c616e636520666f60008201527f72207472616e7366657200000000000000000000000000000000000000000000602082015250565b60006127fe602a836119ca565b9150612809826127a2565b604082019050919050565b6000602082019050818103600083015261282d816127f1565b9050919050565b600061283f82611837565b915061284a83611837565b9250827fffffffffffffffffffffffffffffffffffffffffffffffffffffffffffffffff0382111561287f5761287e612427565b5b828201905092915050565b600060408201905081810360008301526128a48185611f60565b905081810360208301526128b88184611f60565b90509392505050565b7f455243313135353a2073657474696e6720617070726f76616c2073746174757360008201527f20666f722073656c660000000000000000000000000000000000000000000000602082015250565b600061291d6029836119ca565b9150612928826128c1565b604082019050919050565b6000602082019050818103600083015261294c81612910565b9050919050565b61295c816117f9565b82525050565b600081519050919050565b600082825260208201905092915050565b600061298982612962565b612993818561296d565b93506129a38185602086016119db565b6129ac81611a0e565b840191505092915050565b600060a0820190506129cc6000830188612953565b6129d96020830187612953565b81810360408301526129eb8186611f60565b905081810360608301526129ff8185611f60565b90508181036080830152612a13818461297e565b90509695505050505050565b600081519050612a2e81611903565b92915050565b600060208284031215612a4a57612a496117cf565b5b6000612a5884828501612a1f565b91505092915050565b60008160e01c9050919050565b600060033d1115612a8d5760046000803e612a8a600051612a61565b90505b90565b600060443d1015612aa057612b23565b612aa86117c5565b60043d036004823e80513d602482011167ffffffffffffffff82111715612ad0575050612b23565b808201805167ffffffffffffffff811115612aee5750505050612b23565b80602083010160043d038501811115612b0b575050505050612b23565b612b1a82602001850186611b2d565b82955050505050505b90565b7f455243313135353a207472616e7366657220746f206e6f6e204552433131353560008201527f526563656976657220696d706c656d656e746572000000000000000000000000602082015250565b6000612b826034836119ca565b9150612b8d82612b26565b604082019050919050565b60006020820190508181036000830152612bb181612b75565b9050919050565b7f455243313135353a204552433131353552656365697665722072656a6563746560008201527f6420746f6b656e73000000000000000000000000000000000000000000000000602082015250565b6000612c146028836119ca565b9150612c1f82612bb8565b604082019050919050565b60006020820190508181036000830152612c4381612c07565b9050919050565b600060a082019050612c5f6000830188612953565b612c6c6020830187612953565b612c7960408301866118ad565b612c8660608301856118ad565b8181036080830152612c98818461297e565b9050969550505050505056fe6275726e696e67207b5f616d6f756e747d2043726564656e7469616c20746f6b656e732066726f6d207b5f6163636f756e747da264697066735822122079c6f5c73a52d50431fa0ad7a4faab70def66b0e2797f7b2e6c35ac7773c75fb64736f6c634300080a0033",
  "immutableReferences": {},
  "source": "pragma solidity ^0.8.10;\n// SPDX-License-Identifier: MIT\nimport \"@openzeppelin/contracts/token/ERC1155/ERC1155.sol\";\n\ncontract PrivateAccessToken is ERC1155{\n    string private PrivateData;\n    uint Token =0;\n    uint totalNFTs=10;\n    // when contract is launched, PrivateData & URI will be defined\n    constructor(string memory _PrivateData,string memory URI)ERC1155(URI){\n        PrivateData = _PrivateData;\n        _mint(msg.sender, Token, totalNFTs, \"\"); //5 total tokens\n    }\n    //The modifier is so only the token holder is allowed to access function \n    modifier OnlyToken(){\n        require(OnlyIf(msg.sender,1)==true);\n        _;\n    }\n    // \n    modifier multi_Token(){\n        require(OnlyIf(msg.sender,3)==true);\n        _;\n    }\n    //The OnlyIf Function will run in the modifier to check if the user accessing the contract is the token holder\n    function OnlyIf(address _user,uint _tokenAmmount)internal view returns(bool){\n        if(balanceOf(_user,0)>=_tokenAmmount){ //changed from 1 to 3 for better security\n            return true;\n        }else{\n            return false;\n        }\n    }\n    //This function will allow the Token Holder to view data\n    function ViewData() public multi_Token view returns(string memory){\n        return PrivateData;\n    }\n    //This function will check if current account has token\n    function ViewStatus()public view returns(uint){\n        return balanceOf(msg.sender,0);\n    }\n    //user can edit password if they hold 3 access tokens\n    function Edit(string memory _newData)public multi_Token returns(bool){\n         PrivateData = _newData;\n         return true;\n    }\n    //Burn compramsed tokens\n    function Burn(bool _mint,uint _amount, address _account)public multi_Token returns(string memory){\n            _burn(_account, Token, _amount);\n            return \"burning {_amount} Credential tokens from {_account}\";\n    }\n}\n\n",
  "sourcePath": "/Users/Q/Documents/GitHub/LoginContract/contracts/PrivateAccessToken.sol",
  "compiler": {
    "name": "solc",
    "version": "0.8.10+commit.fc410830.Emscripten.clang"
  },
  "schemaVersion": "3.4.3",
  "updatedAt": "2022-02-16T19:43:03.989Z",
  "devdoc": {
    "kind": "dev",
    "methods": {
      "balanceOf(address,uint256)": {
        "details": "See {IERC1155-balanceOf}. Requirements: - `account` cannot be the zero address."
      },
      "balanceOfBatch(address[],uint256[])": {
        "details": "See {IERC1155-balanceOfBatch}. Requirements: - `accounts` and `ids` must have the same length."
      },
      "isApprovedForAll(address,address)": {
        "details": "See {IERC1155-isApprovedForAll}."
      },
      "safeBatchTransferFrom(address,address,uint256[],uint256[],bytes)": {
        "details": "See {IERC1155-safeBatchTransferFrom}."
      },
      "safeTransferFrom(address,address,uint256,uint256,bytes)": {
        "details": "See {IERC1155-safeTransferFrom}."
      },
      "setApprovalForAll(address,bool)": {
        "details": "See {IERC1155-setApprovalForAll}."
      },
      "supportsInterface(bytes4)": {
        "details": "See {IERC165-supportsInterface}."
      },
      "uri(uint256)": {
        "details": "See {IERC1155MetadataURI-uri}. This implementation returns the same URI for *all* token types. It relies on the token type ID substitution mechanism https://eips.ethereum.org/EIPS/eip-1155#metadata[defined in the EIP]. Clients calling this function must replace the `\\{id\\}` substring with the actual token type ID."
      }
    },
    "version": 1
  },
  "userdoc": {
    "kind": "user",
    "methods": {},
    "version": 1
  }
}