{
  "contractName": "PrivateAccessToken",
  "abi": [
    {
      "inputs": [
        {
          "internalType": "string",
          "name": "_PrivateData",
          "type": "string"
        },
        {
          "internalType": "string",
          "name": "URI",
          "type": "string"
        }
      ],
      "stateMutability": "nonpayable",
      "type": "constructor"
    },
    {
      "anonymous": false,
      "inputs": [
        {
          "indexed": true,
          "internalType": "address",
          "name": "account",
          "type": "address"
        },
        {
          "indexed": true,
          "internalType": "address",
          "name": "operator",
          "type": "address"
        },
        {
          "indexed": false,
          "internalType": "bool",
          "name": "approved",
          "type": "bool"
        }
      ],
      "name": "ApprovalForAll",
      "type": "event"
    },
    {
      "anonymous": false,
      "inputs": [
        {
          "indexed": true,
          "internalType": "address",
          "name": "operator",
          "type": "address"
        },
        {
          "indexed": true,
          "internalType": "address",
          "name": "from",
          "type": "address"
        },
        {
          "indexed": true,
          "internalType": "address",
          "name": "to",
          "type": "address"
        },
        {
          "indexed": false,
          "internalType": "uint256[]",
          "name": "ids",
          "type": "uint256[]"
        },
        {
          "indexed": false,
          "internalType": "uint256[]",
          "name": "values",
          "type": "uint256[]"
        }
      ],
      "name": "TransferBatch",
      "type": "event"
    },
    {
      "anonymous": false,
      "inputs": [
        {
          "indexed": true,
          "internalType": "address",
          "name": "operator",
          "type": "address"
        },
        {
          "indexed": true,
          "internalType": "address",
          "name": "from",
          "type": "address"
        },
        {
          "indexed": true,
          "internalType": "address",
          "name": "to",
          "type": "address"
        },
        {
          "indexed": false,
          "internalType": "uint256",
          "name": "id",
          "type": "uint256"
        },
        {
          "indexed": false,
          "internalType": "uint256",
          "name": "value",
          "type": "uint256"
        }
      ],
      "name": "TransferSingle",
      "type": "event"
    },
    {
      "anonymous": false,
      "inputs": [
        {
          "indexed": false,
          "internalType": "string",
          "name": "value",
          "type": "string"
        },
        {
          "indexed": true,
          "internalType": "uint256",
          "name": "id",
          "type": "uint256"
        }
      ],
      "name": "URI",
      "type": "event"
    },
    {
      "inputs": [
        {
          "internalType": "address",
          "name": "account",
          "type": "address"
        },
        {
          "internalType": "uint256",
          "name": "id",
          "type": "uint256"
        }
      ],
      "name": "balanceOf",
      "outputs": [
        {
          "internalType": "uint256",
          "name": "",
          "type": "uint256"
        }
      ],
      "stateMutability": "view",
      "type": "function"
    },
    {
      "inputs": [
        {
          "internalType": "address[]",
          "name": "accounts",
          "type": "address[]"
        },
        {
          "internalType": "uint256[]",
          "name": "ids",
          "type": "uint256[]"
        }
      ],
      "name": "balanceOfBatch",
      "outputs": [
        {
          "internalType": "uint256[]",
          "name": "",
          "type": "uint256[]"
        }
      ],
      "stateMutability": "view",
      "type": "function"
    },
    {
      "inputs": [
        {
          "internalType": "address",
          "name": "account",
          "type": "address"
        },
        {
          "internalType": "address",
          "name": "operator",
          "type": "address"
        }
      ],
      "name": "isApprovedForAll",
      "outputs": [
        {
          "internalType": "bool",
          "name": "",
          "type": "bool"
        }
      ],
      "stateMutability": "view",
      "type": "function"
    },
    {
      "inputs": [
        {
          "internalType": "address",
          "name": "from",
          "type": "address"
        },
        {
          "internalType": "address",
          "name": "to",
          "type": "address"
        },
        {
          "internalType": "uint256[]",
          "name": "ids",
          "type": "uint256[]"
        },
        {
          "internalType": "uint256[]",
          "name": "amounts",
          "type": "uint256[]"
        },
        {
          "internalType": "bytes",
          "name": "data",
          "type": "bytes"
        }
      ],
      "name": "safeBatchTransferFrom",
      "outputs": [],
      "stateMutability": "nonpayable",
      "type": "function"
    },
    {
      "inputs": [
        {
          "internalType": "address",
          "name": "from",
          "type": "address"
        },
        {
          "internalType": "address",
          "name": "to",
          "type": "address"
        },
        {
          "internalType": "uint256",
          "name": "id",
          "type": "uint256"
        },
        {
          "internalType": "uint256",
          "name": "amount",
          "type": "uint256"
        },
        {
          "internalType": "bytes",
          "name": "data",
          "type": "bytes"
        }
      ],
      "name": "safeTransferFrom",
      "outputs": [],
      "stateMutability": "nonpayable",
      "type": "function"
    },
    {
      "inputs": [
        {
          "internalType": "address",
          "name": "operator",
          "type": "address"
        },
        {
          "internalType": "bool",
          "name": "approved",
          "type": "bool"
        }
      ],
      "name": "setApprovalForAll",
      "outputs": [],
      "stateMutability": "nonpayable",
      "type": "function"
    },
    {
      "inputs": [
        {
          "internalType": "bytes4",
          "name": "interfaceId",
          "type": "bytes4"
        }
      ],
      "name": "supportsInterface",
      "outputs": [
        {
          "internalType": "bool",
          "name": "",
          "type": "bool"
        }
      ],
      "stateMutability": "view",
      "type": "function"
    },
    {
      "inputs": [
        {
          "internalType": "uint256",
          "name": "",
          "type": "uint256"
        }
      ],
      "name": "uri",
      "outputs": [
        {
          "internalType": "string",
          "name": "",
          "type": "string"
        }
      ],
      "stateMutability": "view",
      "type": "function"
    },
    {
      "inputs": [],
      "name": "ViewData",
      "outputs": [
        {
          "internalType": "string",
          "name": "",
          "type": "string"
        }
      ],
      "stateMutability": "view",
      "type": "function"
    },
    {
      "inputs": [],
      "name": "ViewStatus",
      "outputs": [
        {
          "internalType": "uint256",
          "name": "",
          "type": "uint256"
        }
      ],
      "stateMutability": "view",
      "type": "function"
    }
  ],
  "bytecode": "0x608060405260006004553480156200001657600080fd5b50604051620034ca380380620034ca83398181016040528101906200003c919062000762565b806200004e816200009660201b60201c565b5081600390805190602001906200006792919062000515565b506200008e33600454600160405180602001604052806000815250620000b260201b60201c565b505062000e01565b8060029080519060200190620000ae92919062000515565b5050565b600073ffffffffffffffffffffffffffffffffffffffff168473ffffffffffffffffffffffffffffffffffffffff16141562000125576040517f08c379a00000000000000000000000000000000000000000000000000000000081526004016200011c906200086e565b60405180910390fd5b6000620001376200027760201b60201c565b9050620001708160008762000152886200027f60201b60201c565b62000163886200027f60201b60201c565b876200030060201b60201c565b8260008086815260200190815260200160002060008773ffffffffffffffffffffffffffffffffffffffff1673ffffffffffffffffffffffffffffffffffffffff1681526020019081526020016000206000828254620001d19190620008c9565b925050819055508473ffffffffffffffffffffffffffffffffffffffff16600073ffffffffffffffffffffffffffffffffffffffff168273ffffffffffffffffffffffffffffffffffffffff167fc3d58168c5ae7397731d063d5bbf3d657854427343f4c083240f7aacaa2d0f6287876040516200025192919062000937565b60405180910390a462000270816000878787876200030860201b60201c565b5050505050565b600033905090565b60606000600167ffffffffffffffff811115620002a157620002a0620005f4565b5b604051908082528060200260200182016040528015620002d05781602001602082028036833780820191505090505b5090508281600081518110620002eb57620002ea62000964565b5b60200260200101818152505080915050919050565b505050505050565b620003348473ffffffffffffffffffffffffffffffffffffffff166200050260201b620008231760201c565b15620004fa578373ffffffffffffffffffffffffffffffffffffffff1663f23a6e6187878686866040518663ffffffff1660e01b81526004016200037d95949392919062000a35565b6020604051808303816000875af1925050508015620003bc57506040513d601f19601f82011682018060405250810190620003b9919062000af6565b60015b6200046e57620003cb62000b35565b806308c379a014156200042f5750620003e362000b5a565b80620003f0575062000431565b806040517f08c379a000000000000000000000000000000000000000000000000000000000815260040162000426919062000c48565b60405180910390fd5b505b6040517f08c379a0000000000000000000000000000000000000000000000000000000008152600401620004659062000ce2565b60405180910390fd5b63f23a6e6160e01b7bffffffffffffffffffffffffffffffffffffffffffffffffffffffff1916817bffffffffffffffffffffffffffffffffffffffffffffffffffffffff191614620004f8576040517f08c379a0000000000000000000000000000000000000000000000000000000008152600401620004ef9062000d7a565b60405180910390fd5b505b505050505050565b600080823b905060008111915050919050565b828054620005239062000dcb565b90600052602060002090601f01602090048101928262000547576000855562000593565b82601f106200056257805160ff191683800117855562000593565b8280016001018555821562000593579182015b828111156200059257825182559160200191906001019062000575565b5b509050620005a29190620005a6565b5090565b5b80821115620005c1576000816000905550600101620005a7565b5090565b6000604051905090565b600080fd5b600080fd5b600080fd5b600080fd5b6000601f19601f8301169050919050565b7f4e487b7100000000000000000000000000000000000000000000000000000000600052604160045260246000fd5b6200062e82620005e3565b810181811067ffffffffffffffff8211171562000650576200064f620005f4565b5b80604052505050565b600062000665620005c5565b905062000673828262000623565b919050565b600067ffffffffffffffff821115620006965762000695620005f4565b5b620006a182620005e3565b9050602081019050919050565b60005b83811015620006ce578082015181840152602081019050620006b1565b83811115620006de576000848401525b50505050565b6000620006fb620006f58462000678565b62000659565b9050828152602081018484840111156200071a5762000719620005de565b5b62000727848285620006ae565b509392505050565b600082601f830112620007475762000746620005d9565b5b815162000759848260208601620006e4565b91505092915050565b600080604083850312156200077c576200077b620005cf565b5b600083015167ffffffffffffffff8111156200079d576200079c620005d4565b5b620007ab858286016200072f565b925050602083015167ffffffffffffffff811115620007cf57620007ce620005d4565b5b620007dd858286016200072f565b9150509250929050565b600082825260208201905092915050565b7f455243313135353a206d696e7420746f20746865207a65726f2061646472657360008201527f7300000000000000000000000000000000000000000000000000000000000000602082015250565b600062000856602183620007e7565b91506200086382620007f8565b604082019050919050565b60006020820190508181036000830152620008898162000847565b9050919050565b6000819050919050565b7f4e487b7100000000000000000000000000000000000000000000000000000000600052601160045260246000fd5b6000620008d68262000890565b9150620008e38362000890565b9250827fffffffffffffffffffffffffffffffffffffffffffffffffffffffffffffffff038211156200091b576200091a6200089a565b5b828201905092915050565b620009318162000890565b82525050565b60006040820190506200094e600083018562000926565b6200095d602083018462000926565b9392505050565b7f4e487b7100000000000000000000000000000000000000000000000000000000600052603260045260246000fd5b600073ffffffffffffffffffffffffffffffffffffffff82169050919050565b6000620009c08262000993565b9050919050565b620009d281620009b3565b82525050565b600081519050919050565b600082825260208201905092915050565b600062000a0182620009d8565b62000a0d8185620009e3565b935062000a1f818560208601620006ae565b62000a2a81620005e3565b840191505092915050565b600060a08201905062000a4c6000830188620009c7565b62000a5b6020830187620009c7565b62000a6a604083018662000926565b62000a79606083018562000926565b818103608083015262000a8d8184620009f4565b90509695505050505050565b60007fffffffff0000000000000000000000000000000000000000000000000000000082169050919050565b62000ad08162000a99565b811462000adc57600080fd5b50565b60008151905062000af08162000ac5565b92915050565b60006020828403121562000b0f5762000b0e620005cf565b5b600062000b1f8482850162000adf565b91505092915050565b60008160e01c9050919050565b600060033d111562000b575760046000803e62000b5460005162000b28565b90505b90565b600060443d101562000b6c5762000bf9565b62000b76620005c5565b60043d036004823e80513d602482011167ffffffffffffffff8211171562000ba057505062000bf9565b808201805167ffffffffffffffff81111562000bc0575050505062000bf9565b80602083010160043d03850181111562000bdf57505050505062000bf9565b62000bf08260200185018662000623565b82955050505050505b90565b600081519050919050565b600062000c148262000bfc565b62000c208185620007e7565b935062000c32818560208601620006ae565b62000c3d81620005e3565b840191505092915050565b6000602082019050818103600083015262000c64818462000c07565b905092915050565b7f455243313135353a207472616e7366657220746f206e6f6e204552433131353560008201527f526563656976657220696d706c656d656e746572000000000000000000000000602082015250565b600062000cca603483620007e7565b915062000cd78262000c6c565b604082019050919050565b6000602082019050818103600083015262000cfd8162000cbb565b9050919050565b7f455243313135353a204552433131353552656365697665722072656a6563746560008201527f6420746f6b656e73000000000000000000000000000000000000000000000000602082015250565b600062000d62602883620007e7565b915062000d6f8262000d04565b604082019050919050565b6000602082019050818103600083015262000d958162000d53565b9050919050565b7f4e487b7100000000000000000000000000000000000000000000000000000000600052602260045260246000fd5b6000600282049050600182168062000de457607f821691505b6020821081141562000dfb5762000dfa62000d9c565b5b50919050565b6126b98062000e116000396000f3fe608060405234801561001057600080fd5b506004361061009d5760003560e01c80634e1273f4116100665780634e1273f41461016c578063a22cb4651461019c578063cd31de7a146101b8578063e985e9c5146101d6578063f242432a146102065761009d565b8062fdd58e146100a257806301ffc9a7146100d2578063087f477a146101025780630e89341c146101205780632eb2c2d614610150575b600080fd5b6100bc60048036038101906100b791906114ad565b610222565b6040516100c991906114fc565b60405180910390f35b6100ec60048036038101906100e7919061156f565b6102eb565b6040516100f991906115b7565b60405180910390f35b61010a6103cd565b60405161011791906114fc565b60405180910390f35b61013a600480360381019061013591906115d2565b6103df565b6040516101479190611698565b60405180910390f35b61016a600480360381019061016591906118b7565b610473565b005b61018660048036038101906101819190611a49565b610514565b6040516101939190611b7f565b60405180910390f35b6101b660048036038101906101b19190611bcd565b61062d565b005b6101c0610643565b6040516101cd9190611698565b60405180910390f35b6101f060048036038101906101eb9190611c0d565b6106ee565b6040516101fd91906115b7565b60405180910390f35b610220600480360381019061021b9190611c4d565b610782565b005b60008073ffffffffffffffffffffffffffffffffffffffff168373ffffffffffffffffffffffffffffffffffffffff161415610293576040517f08c379a000000000000000000000000000000000000000000000000000000000815260040161028a90611d56565b60405180910390fd5b60008083815260200190815260200160002060008473ffffffffffffffffffffffffffffffffffffffff1673ffffffffffffffffffffffffffffffffffffffff16815260200190815260200160002054905092915050565b60007fd9b67a26000000000000000000000000000000000000000000000000000000007bffffffffffffffffffffffffffffffffffffffffffffffffffffffff1916827bffffffffffffffffffffffffffffffffffffffffffffffffffffffff191614806103b657507f0e89341c000000000000000000000000000000000000000000000000000000007bffffffffffffffffffffffffffffffffffffffffffffffffffffffff1916827bffffffffffffffffffffffffffffffffffffffffffffffffffffffff1916145b806103c657506103c582610836565b5b9050919050565b60006103da336000610222565b905090565b6060600280546103ee90611da5565b80601f016020809104026020016040519081016040528092919081815260200182805461041a90611da5565b80156104675780601f1061043c57610100808354040283529160200191610467565b820191906000526020600020905b81548152906001019060200180831161044a57829003601f168201915b50505050509050919050565b61047b6108a0565b73ffffffffffffffffffffffffffffffffffffffff168573ffffffffffffffffffffffffffffffffffffffff1614806104c157506104c0856104bb6108a0565b6106ee565b5b610500576040517f08c379a00000000000000000000000000000000000000000000000000000000081526004016104f790611e49565b60405180910390fd5b61050d85858585856108a8565b5050505050565b6060815183511461055a576040517f08c379a000000000000000000000000000000000000000000000000000000000815260040161055190611edb565b60405180910390fd5b6000835167ffffffffffffffff811115610577576105766116bf565b5b6040519080825280602002602001820160405280156105a55781602001602082028036833780820191505090505b50905060005b8451811015610622576105f28582815181106105ca576105c9611efb565b5b60200260200101518583815181106105e5576105e4611efb565b5b6020026020010151610222565b82828151811061060557610604611efb565b5b6020026020010181815250508061061b90611f59565b90506105ab565b508091505092915050565b61063f6106386108a0565b8383610bbc565b5050565b60606001151561065233610d29565b15151461065e57600080fd5b6003805461066b90611da5565b80601f016020809104026020016040519081016040528092919081815260200182805461069790611da5565b80156106e45780601f106106b9576101008083540402835291602001916106e4565b820191906000526020600020905b8154815290600101906020018083116106c757829003601f168201915b5050505050905090565b6000600160008473ffffffffffffffffffffffffffffffffffffffff1673ffffffffffffffffffffffffffffffffffffffff16815260200190815260200160002060008373ffffffffffffffffffffffffffffffffffffffff1673ffffffffffffffffffffffffffffffffffffffff16815260200190815260200160002060009054906101000a900460ff16905092915050565b61078a6108a0565b73ffffffffffffffffffffffffffffffffffffffff168573ffffffffffffffffffffffffffffffffffffffff1614806107d057506107cf856107ca6108a0565b6106ee565b5b61080f576040517f08c379a000000000000000000000000000000000000000000000000000000000815260040161080690612014565b60405180910390fd5b61081c8585858585610d51565b5050505050565b600080823b905060008111915050919050565b60007f01ffc9a7000000000000000000000000000000000000000000000000000000007bffffffffffffffffffffffffffffffffffffffffffffffffffffffff1916827bffffffffffffffffffffffffffffffffffffffffffffffffffffffff1916149050919050565b600033905090565b81518351146108ec576040517f08c379a00000000000000000000000000000000000000000000000000000000081526004016108e3906120a6565b60405180910390fd5b600073ffffffffffffffffffffffffffffffffffffffff168473ffffffffffffffffffffffffffffffffffffffff16141561095c576040517f08c379a000000000000000000000000000000000000000000000000000000000815260040161095390612138565b60405180910390fd5b60006109666108a0565b9050610976818787878787610fd3565b60005b8451811015610b2757600085828151811061099757610996611efb565b5b6020026020010151905060008583815181106109b6576109b5611efb565b5b60200260200101519050600080600084815260200190815260200160002060008b73ffffffffffffffffffffffffffffffffffffffff1673ffffffffffffffffffffffffffffffffffffffff16815260200190815260200160002054905081811015610a57576040517f08c379a0000000000000000000000000000000000000000000000000000000008152600401610a4e906121ca565b60405180910390fd5b81810360008085815260200190815260200160002060008c73ffffffffffffffffffffffffffffffffffffffff1673ffffffffffffffffffffffffffffffffffffffff168152602001908152602001600020819055508160008085815260200190815260200160002060008b73ffffffffffffffffffffffffffffffffffffffff1673ffffffffffffffffffffffffffffffffffffffff1681526020019081526020016000206000828254610b0c91906121ea565b9250508190555050505080610b2090611f59565b9050610979565b508473ffffffffffffffffffffffffffffffffffffffff168673ffffffffffffffffffffffffffffffffffffffff168273ffffffffffffffffffffffffffffffffffffffff167f4a39dc06d4c0dbc64b70af90fd698a233a518aa5d07e595d983b8c0526c8f7fb8787604051610b9e929190612240565b60405180910390a4610bb4818787878787610fdb565b505050505050565b8173ffffffffffffffffffffffffffffffffffffffff168373ffffffffffffffffffffffffffffffffffffffff161415610c2b576040517f08c379a0000000000000000000000000000000000000000000000000000000008152600401610c22906122e9565b60405180910390fd5b80600160008573ffffffffffffffffffffffffffffffffffffffff1673ffffffffffffffffffffffffffffffffffffffff16815260200190815260200160002060008473ffffffffffffffffffffffffffffffffffffffff1673ffffffffffffffffffffffffffffffffffffffff16815260200190815260200160002060006101000a81548160ff0219169083151502179055508173ffffffffffffffffffffffffffffffffffffffff168373ffffffffffffffffffffffffffffffffffffffff167f17307eab39ab6107e8899845ad3d59bd9653f200f220920489ca2b5937696c3183604051610d1c91906115b7565b60405180910390a3505050565b60006001610d38836000610222565b1415610d475760019050610d4c565b600090505b919050565b600073ffffffffffffffffffffffffffffffffffffffff168473ffffffffffffffffffffffffffffffffffffffff161415610dc1576040517f08c379a0000000000000000000000000000000000000000000000000000000008152600401610db890612138565b60405180910390fd5b6000610dcb6108a0565b9050610deb818787610ddc886111b3565b610de5886111b3565b87610fd3565b600080600086815260200190815260200160002060008873ffffffffffffffffffffffffffffffffffffffff1673ffffffffffffffffffffffffffffffffffffffff16815260200190815260200160002054905083811015610e82576040517f08c379a0000000000000000000000000000000000000000000000000000000008152600401610e79906121ca565b60405180910390fd5b83810360008087815260200190815260200160002060008973ffffffffffffffffffffffffffffffffffffffff1673ffffffffffffffffffffffffffffffffffffffff168152602001908152602001600020819055508360008087815260200190815260200160002060008873ffffffffffffffffffffffffffffffffffffffff1673ffffffffffffffffffffffffffffffffffffffff1681526020019081526020016000206000828254610f3791906121ea565b925050819055508573ffffffffffffffffffffffffffffffffffffffff168773ffffffffffffffffffffffffffffffffffffffff168373ffffffffffffffffffffffffffffffffffffffff167fc3d58168c5ae7397731d063d5bbf3d657854427343f4c083240f7aacaa2d0f628888604051610fb4929190612309565b60405180910390a4610fca82888888888861122d565b50505050505050565b505050505050565b610ffa8473ffffffffffffffffffffffffffffffffffffffff16610823565b156111ab578373ffffffffffffffffffffffffffffffffffffffff1663bc197c8187878686866040518663ffffffff1660e01b8152600401611040959493929190612396565b6020604051808303816000875af192505050801561107c57506040513d601f19601f820116820180604052508101906110799190612413565b60015b6111225761108861244d565b806308c379a014156110e5575061109d61246f565b806110a857506110e7565b806040517f08c379a00000000000000000000000000000000000000000000000000000000081526004016110dc9190611698565b60405180910390fd5b505b6040517f08c379a000000000000000000000000000000000000000000000000000000000815260040161111990612577565b60405180910390fd5b63bc197c8160e01b7bffffffffffffffffffffffffffffffffffffffffffffffffffffffff1916817bffffffffffffffffffffffffffffffffffffffffffffffffffffffff1916146111a9576040517f08c379a00000000000000000000000000000000000000000000000000000000081526004016111a090612609565b60405180910390fd5b505b505050505050565b60606000600167ffffffffffffffff8111156111d2576111d16116bf565b5b6040519080825280602002602001820160405280156112005781602001602082028036833780820191505090505b509050828160008151811061121857611217611efb565b5b60200260200101818152505080915050919050565b61124c8473ffffffffffffffffffffffffffffffffffffffff16610823565b156113fd578373ffffffffffffffffffffffffffffffffffffffff1663f23a6e6187878686866040518663ffffffff1660e01b8152600401611292959493929190612629565b6020604051808303816000875af19250505080156112ce57506040513d601f19601f820116820180604052508101906112cb9190612413565b60015b611374576112da61244d565b806308c379a0141561133757506112ef61246f565b806112fa5750611339565b806040517f08c379a000000000000000000000000000000000000000000000000000000000815260040161132e9190611698565b60405180910390fd5b505b6040517f08c379a000000000000000000000000000000000000000000000000000000000815260040161136b90612577565b60405180910390fd5b63f23a6e6160e01b7bffffffffffffffffffffffffffffffffffffffffffffffffffffffff1916817bffffffffffffffffffffffffffffffffffffffffffffffffffffffff1916146113fb576040517f08c379a00000000000000000000000000000000000000000000000000000000081526004016113f290612609565b60405180910390fd5b505b505050505050565b6000604051905090565b600080fd5b600080fd5b600073ffffffffffffffffffffffffffffffffffffffff82169050919050565b600061144482611419565b9050919050565b61145481611439565b811461145f57600080fd5b50565b6000813590506114718161144b565b92915050565b6000819050919050565b61148a81611477565b811461149557600080fd5b50565b6000813590506114a781611481565b92915050565b600080604083850312156114c4576114c361140f565b5b60006114d285828601611462565b92505060206114e385828601611498565b9150509250929050565b6114f681611477565b82525050565b600060208201905061151160008301846114ed565b92915050565b60007fffffffff0000000000000000000000000000000000000000000000000000000082169050919050565b61154c81611517565b811461155757600080fd5b50565b60008135905061156981611543565b92915050565b6000602082840312156115855761158461140f565b5b60006115938482850161155a565b91505092915050565b60008115159050919050565b6115b18161159c565b82525050565b60006020820190506115cc60008301846115a8565b92915050565b6000602082840312156115e8576115e761140f565b5b60006115f684828501611498565b91505092915050565b600081519050919050565b600082825260208201905092915050565b60005b8381101561163957808201518184015260208101905061161e565b83811115611648576000848401525b50505050565b6000601f19601f8301169050919050565b600061166a826115ff565b611674818561160a565b935061168481856020860161161b565b61168d8161164e565b840191505092915050565b600060208201905081810360008301526116b2818461165f565b905092915050565b600080fd5b7f4e487b7100000000000000000000000000000000000000000000000000000000600052604160045260246000fd5b6116f78261164e565b810181811067ffffffffffffffff82111715611716576117156116bf565b5b80604052505050565b6000611729611405565b905061173582826116ee565b919050565b600067ffffffffffffffff821115611755576117546116bf565b5b602082029050602081019050919050565b600080fd5b600061177e6117798461173a565b61171f565b905080838252602082019050602084028301858111156117a1576117a0611766565b5b835b818110156117ca57806117b68882611498565b8452602084019350506020810190506117a3565b5050509392505050565b600082601f8301126117e9576117e86116ba565b5b81356117f984826020860161176b565b91505092915050565b600080fd5b600067ffffffffffffffff821115611822576118216116bf565b5b61182b8261164e565b9050602081019050919050565b82818337600083830152505050565b600061185a61185584611807565b61171f565b90508281526020810184848401111561187657611875611802565b5b611881848285611838565b509392505050565b600082601f83011261189e5761189d6116ba565b5b81356118ae848260208601611847565b91505092915050565b600080600080600060a086880312156118d3576118d261140f565b5b60006118e188828901611462565b95505060206118f288828901611462565b945050604086013567ffffffffffffffff81111561191357611912611414565b5b61191f888289016117d4565b935050606086013567ffffffffffffffff8111156119405761193f611414565b5b61194c888289016117d4565b925050608086013567ffffffffffffffff81111561196d5761196c611414565b5b61197988828901611889565b9150509295509295909350565b600067ffffffffffffffff8211156119a1576119a06116bf565b5b602082029050602081019050919050565b60006119c56119c084611986565b61171f565b905080838252602082019050602084028301858111156119e8576119e7611766565b5b835b81811015611a1157806119fd8882611462565b8452602084019350506020810190506119ea565b5050509392505050565b600082601f830112611a3057611a2f6116ba565b5b8135611a408482602086016119b2565b91505092915050565b60008060408385031215611a6057611a5f61140f565b5b600083013567ffffffffffffffff811115611a7e57611a7d611414565b5b611a8a85828601611a1b565b925050602083013567ffffffffffffffff811115611aab57611aaa611414565b5b611ab7858286016117d4565b9150509250929050565b600081519050919050565b600082825260208201905092915050565b6000819050602082019050919050565b611af681611477565b82525050565b6000611b088383611aed565b60208301905092915050565b6000602082019050919050565b6000611b2c82611ac1565b611b368185611acc565b9350611b4183611add565b8060005b83811015611b72578151611b598882611afc565b9750611b6483611b14565b925050600181019050611b45565b5085935050505092915050565b60006020820190508181036000830152611b998184611b21565b905092915050565b611baa8161159c565b8114611bb557600080fd5b50565b600081359050611bc781611ba1565b92915050565b60008060408385031215611be457611be361140f565b5b6000611bf285828601611462565b9250506020611c0385828601611bb8565b9150509250929050565b60008060408385031215611c2457611c2361140f565b5b6000611c3285828601611462565b9250506020611c4385828601611462565b9150509250929050565b600080600080600060a08688031215611c6957611c6861140f565b5b6000611c7788828901611462565b9550506020611c8888828901611462565b9450506040611c9988828901611498565b9350506060611caa88828901611498565b925050608086013567ffffffffffffffff811115611ccb57611cca611414565b5b611cd788828901611889565b9150509295509295909350565b7f455243313135353a2062616c616e636520717565727920666f7220746865207a60008201527f65726f2061646472657373000000000000000000000000000000000000000000602082015250565b6000611d40602b8361160a565b9150611d4b82611ce4565b604082019050919050565b60006020820190508181036000830152611d6f81611d33565b9050919050565b7f4e487b7100000000000000000000000000000000000000000000000000000000600052602260045260246000fd5b60006002820490506001821680611dbd57607f821691505b60208210811415611dd157611dd0611d76565b5b50919050565b7f455243313135353a207472616e736665722063616c6c6572206973206e6f742060008201527f6f776e6572206e6f7220617070726f7665640000000000000000000000000000602082015250565b6000611e3360328361160a565b9150611e3e82611dd7565b604082019050919050565b60006020820190508181036000830152611e6281611e26565b9050919050565b7f455243313135353a206163636f756e747320616e6420696473206c656e67746860008201527f206d69736d617463680000000000000000000000000000000000000000000000602082015250565b6000611ec560298361160a565b9150611ed082611e69565b604082019050919050565b60006020820190508181036000830152611ef481611eb8565b9050919050565b7f4e487b7100000000000000000000000000000000000000000000000000000000600052603260045260246000fd5b7f4e487b7100000000000000000000000000000000000000000000000000000000600052601160045260246000fd5b6000611f6482611477565b91507fffffffffffffffffffffffffffffffffffffffffffffffffffffffffffffffff821415611f9757611f96611f2a565b5b600182019050919050565b7f455243313135353a2063616c6c6572206973206e6f74206f776e6572206e6f7260008201527f20617070726f7665640000000000000000000000000000000000000000000000602082015250565b6000611ffe60298361160a565b915061200982611fa2565b604082019050919050565b6000602082019050818103600083015261202d81611ff1565b9050919050565b7f455243313135353a2069647320616e6420616d6f756e7473206c656e6774682060008201527f6d69736d61746368000000000000000000000000000000000000000000000000602082015250565b600061209060288361160a565b915061209b82612034565b604082019050919050565b600060208201905081810360008301526120bf81612083565b9050919050565b7f455243313135353a207472616e7366657220746f20746865207a65726f20616460008201527f6472657373000000000000000000000000000000000000000000000000000000602082015250565b600061212260258361160a565b915061212d826120c6565b604082019050919050565b6000602082019050818103600083015261215181612115565b9050919050565b7f455243313135353a20696e73756666696369656e742062616c616e636520666f60008201527f72207472616e7366657200000000000000000000000000000000000000000000602082015250565b60006121b4602a8361160a565b91506121bf82612158565b604082019050919050565b600060208201905081810360008301526121e3816121a7565b9050919050565b60006121f582611477565b915061220083611477565b9250827fffffffffffffffffffffffffffffffffffffffffffffffffffffffffffffffff0382111561223557612234611f2a565b5b828201905092915050565b6000604082019050818103600083015261225a8185611b21565b9050818103602083015261226e8184611b21565b90509392505050565b7f455243313135353a2073657474696e6720617070726f76616c2073746174757360008201527f20666f722073656c660000000000000000000000000000000000000000000000602082015250565b60006122d360298361160a565b91506122de82612277565b604082019050919050565b60006020820190508181036000830152612302816122c6565b9050919050565b600060408201905061231e60008301856114ed565b61232b60208301846114ed565b9392505050565b61233b81611439565b82525050565b600081519050919050565b600082825260208201905092915050565b600061236882612341565b612372818561234c565b935061238281856020860161161b565b61238b8161164e565b840191505092915050565b600060a0820190506123ab6000830188612332565b6123b86020830187612332565b81810360408301526123ca8186611b21565b905081810360608301526123de8185611b21565b905081810360808301526123f2818461235d565b90509695505050505050565b60008151905061240d81611543565b92915050565b6000602082840312156124295761242861140f565b5b6000612437848285016123fe565b91505092915050565b60008160e01c9050919050565b600060033d111561246c5760046000803e612469600051612440565b90505b90565b600060443d101561247f57612502565b612487611405565b60043d036004823e80513d602482011167ffffffffffffffff821117156124af575050612502565b808201805167ffffffffffffffff8111156124cd5750505050612502565b80602083010160043d0385018111156124ea575050505050612502565b6124f9826020018501866116ee565b82955050505050505b90565b7f455243313135353a207472616e7366657220746f206e6f6e204552433131353560008201527f526563656976657220696d706c656d656e746572000000000000000000000000602082015250565b600061256160348361160a565b915061256c82612505565b604082019050919050565b6000602082019050818103600083015261259081612554565b9050919050565b7f455243313135353a204552433131353552656365697665722072656a6563746560008201527f6420746f6b656e73000000000000000000000000000000000000000000000000602082015250565b60006125f360288361160a565b91506125fe82612597565b604082019050919050565b60006020820190508181036000830152612622816125e6565b9050919050565b600060a08201905061263e6000830188612332565b61264b6020830187612332565b61265860408301866114ed565b61266560608301856114ed565b8181036080830152612677818461235d565b9050969550505050505056fea2646970667358221220a051e6a92b077ccd36d02a57588c12821267e638d50fa9541704ae413667b83964736f6c634300080a0033",
  "immutableReferences": {},
  "source": "pragma solidity ^0.8.10;\n// SPDX-License-Identifier: MIT\nimport \"@openzeppelin/contracts/token/ERC1155/ERC1155.sol\";\n\ncontract PrivateAccessToken is ERC1155{\n    string private PrivateData;\n    uint Token =0;\n    // when contract is launched, PrivateData & URI will be defined\n    constructor(string memory _PrivateData,string memory URI)ERC1155(URI){\n        PrivateData = _PrivateData;\n        _mint(msg.sender, Token, 1, \"\");\n    }\n    //The modifier is so only the token holder is allowed to access function \n    modifier OnlyToken(){\n        require(OnlyIf(msg.sender)==true);\n        _;\n    }\n    //The OnlyIf Function will run in the modifier to check if the user accessing the contract is the token holder\n    function OnlyIf(address _user)internal view returns(bool){\n        if(balanceOf(_user,0)==1){\n            return true;\n        }else{\n            return false;\n        }\n    }\n    //This function will allow the Token Holder to view data\n    function ViewData() public OnlyToken view returns(string memory){\n        return PrivateData;\n    }\n    //This function will check if current account has token\n    function ViewStatus()public view returns(uint){\n        return balanceOf(msg.sender,0);\n    }\n}\n\n",
  "sourcePath": "/Users/Q/Documents/GitHub/LoginContract/contracts/PrivateAccessToken.sol",
  "compiler": {
    "name": "solc",
    "version": "0.8.10+commit.fc410830.Emscripten.clang"
  },
  "schemaVersion": "3.4.3",
  "updatedAt": "2022-02-15T19:08:31.925Z",
  "devdoc": {
    "kind": "dev",
    "methods": {
      "balanceOf(address,uint256)": {
        "details": "See {IERC1155-balanceOf}. Requirements: - `account` cannot be the zero address."
      },
      "balanceOfBatch(address[],uint256[])": {
        "details": "See {IERC1155-balanceOfBatch}. Requirements: - `accounts` and `ids` must have the same length."
      },
      "isApprovedForAll(address,address)": {
        "details": "See {IERC1155-isApprovedForAll}."
      },
      "safeBatchTransferFrom(address,address,uint256[],uint256[],bytes)": {
        "details": "See {IERC1155-safeBatchTransferFrom}."
      },
      "safeTransferFrom(address,address,uint256,uint256,bytes)": {
        "details": "See {IERC1155-safeTransferFrom}."
      },
      "setApprovalForAll(address,bool)": {
        "details": "See {IERC1155-setApprovalForAll}."
      },
      "supportsInterface(bytes4)": {
        "details": "See {IERC165-supportsInterface}."
      },
      "uri(uint256)": {
        "details": "See {IERC1155MetadataURI-uri}. This implementation returns the same URI for *all* token types. It relies on the token type ID substitution mechanism https://eips.ethereum.org/EIPS/eip-1155#metadata[defined in the EIP]. Clients calling this function must replace the `\\{id\\}` substring with the actual token type ID."
      }
    },
    "version": 1
  },
  "userdoc": {
    "kind": "user",
    "methods": {},
    "version": 1
  }
}