{
  "contractName": "PrivateAccessToken",
  "abi": [
    {
      "inputs": [
        {
          "internalType": "string",
          "name": "_PrivateData",
          "type": "string"
        },
        {
          "internalType": "string",
          "name": "URI",
          "type": "string"
        }
      ],
      "stateMutability": "nonpayable",
      "type": "constructor"
    },
    {
      "anonymous": false,
      "inputs": [
        {
          "indexed": true,
          "internalType": "address",
          "name": "account",
          "type": "address"
        },
        {
          "indexed": true,
          "internalType": "address",
          "name": "operator",
          "type": "address"
        },
        {
          "indexed": false,
          "internalType": "bool",
          "name": "approved",
          "type": "bool"
        }
      ],
      "name": "ApprovalForAll",
      "type": "event"
    },
    {
      "anonymous": false,
      "inputs": [
        {
          "indexed": true,
          "internalType": "address",
          "name": "operator",
          "type": "address"
        },
        {
          "indexed": true,
          "internalType": "address",
          "name": "from",
          "type": "address"
        },
        {
          "indexed": true,
          "internalType": "address",
          "name": "to",
          "type": "address"
        },
        {
          "indexed": false,
          "internalType": "uint256[]",
          "name": "ids",
          "type": "uint256[]"
        },
        {
          "indexed": false,
          "internalType": "uint256[]",
          "name": "values",
          "type": "uint256[]"
        }
      ],
      "name": "TransferBatch",
      "type": "event"
    },
    {
      "anonymous": false,
      "inputs": [
        {
          "indexed": true,
          "internalType": "address",
          "name": "operator",
          "type": "address"
        },
        {
          "indexed": true,
          "internalType": "address",
          "name": "from",
          "type": "address"
        },
        {
          "indexed": true,
          "internalType": "address",
          "name": "to",
          "type": "address"
        },
        {
          "indexed": false,
          "internalType": "uint256",
          "name": "id",
          "type": "uint256"
        },
        {
          "indexed": false,
          "internalType": "uint256",
          "name": "value",
          "type": "uint256"
        }
      ],
      "name": "TransferSingle",
      "type": "event"
    },
    {
      "anonymous": false,
      "inputs": [
        {
          "indexed": false,
          "internalType": "string",
          "name": "value",
          "type": "string"
        },
        {
          "indexed": true,
          "internalType": "uint256",
          "name": "id",
          "type": "uint256"
        }
      ],
      "name": "URI",
      "type": "event"
    },
    {
      "inputs": [
        {
          "internalType": "address",
          "name": "account",
          "type": "address"
        },
        {
          "internalType": "uint256",
          "name": "id",
          "type": "uint256"
        }
      ],
      "name": "balanceOf",
      "outputs": [
        {
          "internalType": "uint256",
          "name": "",
          "type": "uint256"
        }
      ],
      "stateMutability": "view",
      "type": "function"
    },
    {
      "inputs": [
        {
          "internalType": "address[]",
          "name": "accounts",
          "type": "address[]"
        },
        {
          "internalType": "uint256[]",
          "name": "ids",
          "type": "uint256[]"
        }
      ],
      "name": "balanceOfBatch",
      "outputs": [
        {
          "internalType": "uint256[]",
          "name": "",
          "type": "uint256[]"
        }
      ],
      "stateMutability": "view",
      "type": "function"
    },
    {
      "inputs": [
        {
          "internalType": "address",
          "name": "account",
          "type": "address"
        },
        {
          "internalType": "address",
          "name": "operator",
          "type": "address"
        }
      ],
      "name": "isApprovedForAll",
      "outputs": [
        {
          "internalType": "bool",
          "name": "",
          "type": "bool"
        }
      ],
      "stateMutability": "view",
      "type": "function"
    },
    {
      "inputs": [
        {
          "internalType": "address",
          "name": "from",
          "type": "address"
        },
        {
          "internalType": "address",
          "name": "to",
          "type": "address"
        },
        {
          "internalType": "uint256[]",
          "name": "ids",
          "type": "uint256[]"
        },
        {
          "internalType": "uint256[]",
          "name": "amounts",
          "type": "uint256[]"
        },
        {
          "internalType": "bytes",
          "name": "data",
          "type": "bytes"
        }
      ],
      "name": "safeBatchTransferFrom",
      "outputs": [],
      "stateMutability": "nonpayable",
      "type": "function"
    },
    {
      "inputs": [
        {
          "internalType": "address",
          "name": "from",
          "type": "address"
        },
        {
          "internalType": "address",
          "name": "to",
          "type": "address"
        },
        {
          "internalType": "uint256",
          "name": "id",
          "type": "uint256"
        },
        {
          "internalType": "uint256",
          "name": "amount",
          "type": "uint256"
        },
        {
          "internalType": "bytes",
          "name": "data",
          "type": "bytes"
        }
      ],
      "name": "safeTransferFrom",
      "outputs": [],
      "stateMutability": "nonpayable",
      "type": "function"
    },
    {
      "inputs": [
        {
          "internalType": "address",
          "name": "operator",
          "type": "address"
        },
        {
          "internalType": "bool",
          "name": "approved",
          "type": "bool"
        }
      ],
      "name": "setApprovalForAll",
      "outputs": [],
      "stateMutability": "nonpayable",
      "type": "function"
    },
    {
      "inputs": [
        {
          "internalType": "bytes4",
          "name": "interfaceId",
          "type": "bytes4"
        }
      ],
      "name": "supportsInterface",
      "outputs": [
        {
          "internalType": "bool",
          "name": "",
          "type": "bool"
        }
      ],
      "stateMutability": "view",
      "type": "function"
    },
    {
      "inputs": [
        {
          "internalType": "uint256",
          "name": "",
          "type": "uint256"
        }
      ],
      "name": "uri",
      "outputs": [
        {
          "internalType": "string",
          "name": "",
          "type": "string"
        }
      ],
      "stateMutability": "view",
      "type": "function"
    },
    {
      "inputs": [],
      "name": "ViewData",
      "outputs": [
        {
          "internalType": "string",
          "name": "",
          "type": "string"
        }
      ],
      "stateMutability": "view",
      "type": "function"
    },
    {
      "inputs": [],
      "name": "ViewStatus",
      "outputs": [
        {
          "internalType": "uint256",
          "name": "",
          "type": "uint256"
        }
      ],
      "stateMutability": "view",
      "type": "function"
    },
    {
      "inputs": [
        {
          "internalType": "string",
          "name": "_newData",
          "type": "string"
        }
      ],
      "name": "Edit",
      "outputs": [
        {
          "internalType": "bool",
          "name": "",
          "type": "bool"
        }
      ],
      "stateMutability": "nonpayable",
      "type": "function"
    },
    {
      "inputs": [
        {
          "internalType": "uint256",
          "name": "_amount",
          "type": "uint256"
        },
        {
          "internalType": "address",
          "name": "_account",
          "type": "address"
        }
      ],
      "name": "Burn",
      "outputs": [
        {
          "internalType": "string",
          "name": "",
          "type": "string"
        }
      ],
      "stateMutability": "nonpayable",
      "type": "function"
    }
  ],
  "bytecode": "0x60806040526000600455600580553480156200001a57600080fd5b5060405162003ed838038062003ed88339818101604052810190620000409190620006e2565b8062000052816200009460201b60201c565b508160039081620000649190620009b2565b506200008c3360045460055460405180602001604052806000815250620000a960201b60201c565b505062001032565b8060029081620000a59190620009b2565b5050565b600073ffffffffffffffffffffffffffffffffffffffff168473ffffffffffffffffffffffffffffffffffffffff16036200011b576040517f08c379a0000000000000000000000000000000000000000000000000000000008152600401620001129062000b20565b60405180910390fd5b60006200012d6200029060201b60201c565b9050600062000142856200029860201b60201c565b9050600062000157856200029860201b60201c565b905062000170836000898585896200031960201b60201c565b8460008088815260200190815260200160002060008973ffffffffffffffffffffffffffffffffffffffff1673ffffffffffffffffffffffffffffffffffffffff1681526020019081526020016000206000828254620001d1919062000b71565b925050819055508673ffffffffffffffffffffffffffffffffffffffff16600073ffffffffffffffffffffffffffffffffffffffff168473ffffffffffffffffffffffffffffffffffffffff167fc3d58168c5ae7397731d063d5bbf3d657854427343f4c083240f7aacaa2d0f6289896040516200025192919062000bdf565b60405180910390a462000270836000898585896200032160201b60201c565b62000287836000898989896200032960201b60201c565b50505050505050565b600033905090565b60606000600167ffffffffffffffff811115620002ba57620002b962000574565b5b604051908082528060200260200182016040528015620002e95781602001602082028036833780820191505090505b509050828160008151811062000304576200030362000c0c565b5b60200260200101818152505080915050919050565b505050505050565b505050505050565b620003558473ffffffffffffffffffffffffffffffffffffffff166200052260201b6200091b1760201c565b156200051a578373ffffffffffffffffffffffffffffffffffffffff1663f23a6e6187878686866040518663ffffffff1660e01b81526004016200039e95949392919062000cdd565b6020604051808303816000875af1925050508015620003dd57506040513d601f19601f82011682018060405250810190620003da919062000d9e565b60015b6200048e57620003ec62000ddd565b806308c379a0036200044f57506200040362000e02565b8062000410575062000451565b806040517f08c379a000000000000000000000000000000000000000000000000000000000815260040162000446919062000ede565b60405180910390fd5b505b6040517f08c379a0000000000000000000000000000000000000000000000000000000008152600401620004859062000f78565b60405180910390fd5b63f23a6e6160e01b7bffffffffffffffffffffffffffffffffffffffffffffffffffffffff1916817bffffffffffffffffffffffffffffffffffffffffffffffffffffffff19161462000518576040517f08c379a00000000000000000000000000000000000000000000000000000000081526004016200050f9062001010565b60405180910390fd5b505b505050505050565b6000808273ffffffffffffffffffffffffffffffffffffffff163b119050919050565b6000604051905090565b600080fd5b600080fd5b600080fd5b600080fd5b6000601f19601f8301169050919050565b7f4e487b7100000000000000000000000000000000000000000000000000000000600052604160045260246000fd5b620005ae8262000563565b810181811067ffffffffffffffff82111715620005d057620005cf62000574565b5b80604052505050565b6000620005e562000545565b9050620005f38282620005a3565b919050565b600067ffffffffffffffff82111562000616576200061562000574565b5b620006218262000563565b9050602081019050919050565b60005b838110156200064e57808201518184015260208101905062000631565b838111156200065e576000848401525b50505050565b60006200067b6200067584620005f8565b620005d9565b9050828152602081018484840111156200069a57620006996200055e565b5b620006a78482856200062e565b509392505050565b600082601f830112620006c757620006c662000559565b5b8151620006d984826020860162000664565b91505092915050565b60008060408385031215620006fc57620006fb6200054f565b5b600083015167ffffffffffffffff8111156200071d576200071c62000554565b5b6200072b85828601620006af565b925050602083015167ffffffffffffffff8111156200074f576200074e62000554565b5b6200075d85828601620006af565b9150509250929050565b600081519050919050565b7f4e487b7100000000000000000000000000000000000000000000000000000000600052602260045260246000fd5b60006002820490506001821680620007ba57607f821691505b602082108103620007d057620007cf62000772565b5b50919050565b60008190508160005260206000209050919050565b60006020601f8301049050919050565b600082821b905092915050565b6000600883026200083a7fffffffffffffffffffffffffffffffffffffffffffffffffffffffffffffffff82620007fb565b620008468683620007fb565b95508019841693508086168417925050509392505050565b6000819050919050565b6000819050919050565b6000620008936200088d62000887846200085e565b62000868565b6200085e565b9050919050565b6000819050919050565b620008af8362000872565b620008c7620008be826200089a565b84845462000808565b825550505050565b600090565b620008de620008cf565b620008eb818484620008a4565b505050565b5b81811015620009135762000907600082620008d4565b600181019050620008f1565b5050565b601f82111562000962576200092c81620007d6565b6200093784620007eb565b8101602085101562000947578190505b6200095f6200095685620007eb565b830182620008f0565b50505b505050565b600082821c905092915050565b6000620009876000198460080262000967565b1980831691505092915050565b6000620009a2838362000974565b9150826002028217905092915050565b620009bd8262000767565b67ffffffffffffffff811115620009d957620009d862000574565b5b620009e58254620007a1565b620009f282828562000917565b600060209050601f83116001811462000a2a576000841562000a15578287015190505b62000a21858262000994565b86555062000a91565b601f19841662000a3a86620007d6565b60005b8281101562000a645784890151825560018201915060208501945060208101905062000a3d565b8683101562000a84578489015162000a80601f89168262000974565b8355505b6001600288020188555050505b505050505050565b600082825260208201905092915050565b7f455243313135353a206d696e7420746f20746865207a65726f2061646472657360008201527f7300000000000000000000000000000000000000000000000000000000000000602082015250565b600062000b0860218362000a99565b915062000b158262000aaa565b604082019050919050565b6000602082019050818103600083015262000b3b8162000af9565b9050919050565b7f4e487b7100000000000000000000000000000000000000000000000000000000600052601160045260246000fd5b600062000b7e826200085e565b915062000b8b836200085e565b9250827fffffffffffffffffffffffffffffffffffffffffffffffffffffffffffffffff0382111562000bc35762000bc262000b42565b5b828201905092915050565b62000bd9816200085e565b82525050565b600060408201905062000bf6600083018562000bce565b62000c05602083018462000bce565b9392505050565b7f4e487b7100000000000000000000000000000000000000000000000000000000600052603260045260246000fd5b600073ffffffffffffffffffffffffffffffffffffffff82169050919050565b600062000c688262000c3b565b9050919050565b62000c7a8162000c5b565b82525050565b600081519050919050565b600082825260208201905092915050565b600062000ca98262000c80565b62000cb5818562000c8b565b935062000cc78185602086016200062e565b62000cd28162000563565b840191505092915050565b600060a08201905062000cf4600083018862000c6f565b62000d03602083018762000c6f565b62000d12604083018662000bce565b62000d21606083018562000bce565b818103608083015262000d35818462000c9c565b90509695505050505050565b60007fffffffff0000000000000000000000000000000000000000000000000000000082169050919050565b62000d788162000d41565b811462000d8457600080fd5b50565b60008151905062000d988162000d6d565b92915050565b60006020828403121562000db75762000db66200054f565b5b600062000dc78482850162000d87565b91505092915050565b60008160e01c9050919050565b600060033d111562000dff5760046000803e62000dfc60005162000dd0565b90505b90565b600060443d1062000e9a5762000e1762000545565b60043d036004823e80513d602482011167ffffffffffffffff8211171562000e4157505062000e9a565b808201805167ffffffffffffffff81111562000e61575050505062000e9a565b80602083010160043d03850181111562000e8057505050505062000e9a565b62000e9182602001850186620005a3565b82955050505050505b90565b600062000eaa8262000767565b62000eb6818562000a99565b935062000ec88185602086016200062e565b62000ed38162000563565b840191505092915050565b6000602082019050818103600083015262000efa818462000e9d565b905092915050565b7f455243313135353a207472616e7366657220746f206e6f6e204552433131353560008201527f526563656976657220696d706c656d656e746572000000000000000000000000602082015250565b600062000f6060348362000a99565b915062000f6d8262000f02565b604082019050919050565b6000602082019050818103600083015262000f938162000f51565b9050919050565b7f455243313135353a204552433131353552656365697665722072656a6563746560008201527f6420746f6b656e73000000000000000000000000000000000000000000000000602082015250565b600062000ff860288362000a99565b9150620010058262000f9a565b604082019050919050565b600060208201905081810360008301526200102b8162000fe9565b9050919050565b612e9680620010426000396000f3fe608060405234801561001057600080fd5b50600436106100b35760003560e01c8063a22cb46511610071578063a22cb465146101b2578063c5956fe1146101ce578063cd31de7a146101fe578063e985e9c51461021c578063f242432a1461024c578063f6554c3a14610268576100b3565b8062fdd58e146100b857806301ffc9a7146100e8578063087f477a146101185780630e89341c146101365780632eb2c2d6146101665780634e1273f414610182575b600080fd5b6100d260048036038101906100cd9190611825565b610298565b6040516100df9190611874565b60405180910390f35b61010260048036038101906100fd91906118e7565b610360565b60405161010f919061192f565b60405180910390f35b610120610442565b60405161012d9190611874565b60405180910390f35b610150600480360381019061014b919061194a565b610454565b60405161015d9190611a10565b60405180910390f35b610180600480360381019061017b9190611c2f565b6104e8565b005b61019c60048036038101906101979190611dc1565b610589565b6040516101a99190611ef7565b60405180910390f35b6101cc60048036038101906101c79190611f45565b6106a2565b005b6101e860048036038101906101e39190612026565b6106b8565b6040516101f5919061192f565b60405180910390f35b6102066106ee565b6040516102139190611a10565b60405180910390f35b6102366004803603810190610231919061206f565b61079b565b604051610243919061192f565b60405180910390f35b610266600480360381019061026191906120af565b61082f565b005b610282600480360381019061027d9190612146565b6108d0565b60405161028f9190611a10565b60405180910390f35b60008073ffffffffffffffffffffffffffffffffffffffff168373ffffffffffffffffffffffffffffffffffffffff1603610308576040517f08c379a00000000000000000000000000000000000000000000000000000000081526004016102ff906121f8565b60405180910390fd5b60008083815260200190815260200160002060008473ffffffffffffffffffffffffffffffffffffffff1673ffffffffffffffffffffffffffffffffffffffff16815260200190815260200160002054905092915050565b60007fd9b67a26000000000000000000000000000000000000000000000000000000007bffffffffffffffffffffffffffffffffffffffffffffffffffffffff1916827bffffffffffffffffffffffffffffffffffffffffffffffffffffffff1916148061042b57507f0e89341c000000000000000000000000000000000000000000000000000000007bffffffffffffffffffffffffffffffffffffffffffffffffffffffff1916827bffffffffffffffffffffffffffffffffffffffffffffffffffffffff1916145b8061043b575061043a8261093e565b5b9050919050565b600061044f336000610298565b905090565b60606002805461046390612247565b80601f016020809104026020016040519081016040528092919081815260200182805461048f90612247565b80156104dc5780601f106104b1576101008083540402835291602001916104dc565b820191906000526020600020905b8154815290600101906020018083116104bf57829003601f168201915b50505050509050919050565b6104f06109a8565b73ffffffffffffffffffffffffffffffffffffffff168573ffffffffffffffffffffffffffffffffffffffff1614806105365750610535856105306109a8565b61079b565b5b610575576040517f08c379a000000000000000000000000000000000000000000000000000000000815260040161056c906122ea565b60405180910390fd5b61058285858585856109b0565b5050505050565b606081518351146105cf576040517f08c379a00000000000000000000000000000000000000000000000000000000081526004016105c69061237c565b60405180910390fd5b6000835167ffffffffffffffff8111156105ec576105eb611a37565b5b60405190808252806020026020018201604052801561061a5781602001602082028036833780820191505090505b50905060005b84518110156106975761066785828151811061063f5761063e61239c565b5b602002602001015185838151811061065a5761065961239c565b5b6020026020010151610298565b82828151811061067a5761067961239c565b5b60200260200101818152505080610690906123fa565b9050610620565b508091505092915050565b6106b46106ad6109a8565b8383610cd1565b5050565b6000600115156106c9336003610e3d565b1515146106d557600080fd5b81600390816106e491906125ee565b5060019050919050565b6060600115156106ff336003610e3d565b15151461070b57600080fd5b6003805461071890612247565b80601f016020809104026020016040519081016040528092919081815260200182805461074490612247565b80156107915780601f1061076657610100808354040283529160200191610791565b820191906000526020600020905b81548152906001019060200180831161077457829003601f168201915b5050505050905090565b6000600160008473ffffffffffffffffffffffffffffffffffffffff1673ffffffffffffffffffffffffffffffffffffffff16815260200190815260200160002060008373ffffffffffffffffffffffffffffffffffffffff1673ffffffffffffffffffffffffffffffffffffffff16815260200190815260200160002060009054906101000a900460ff16905092915050565b6108376109a8565b73ffffffffffffffffffffffffffffffffffffffff168573ffffffffffffffffffffffffffffffffffffffff16148061087d575061087c856108776109a8565b61079b565b5b6108bc576040517f08c379a00000000000000000000000000000000000000000000000000000000081526004016108b3906122ea565b60405180910390fd5b6108c98585858585610e64565b5050505050565b6060600115156108e1336003610e3d565b1515146108ed57600080fd5b6108fa82600454856110ff565b604051806060016040528060338152602001612e2e60339139905092915050565b6000808273ffffffffffffffffffffffffffffffffffffffff163b119050919050565b60007f01ffc9a7000000000000000000000000000000000000000000000000000000007bffffffffffffffffffffffffffffffffffffffffffffffffffffffff1916827bffffffffffffffffffffffffffffffffffffffffffffffffffffffff1916149050919050565b600033905090565b81518351146109f4576040517f08c379a00000000000000000000000000000000000000000000000000000000081526004016109eb90612732565b60405180910390fd5b600073ffffffffffffffffffffffffffffffffffffffff168473ffffffffffffffffffffffffffffffffffffffff1603610a63576040517f08c379a0000000000000000000000000000000000000000000000000000000008152600401610a5a906127c4565b60405180910390fd5b6000610a6d6109a8565b9050610a7d818787878787611345565b60005b8451811015610c2e576000858281518110610a9e57610a9d61239c565b5b602002602001015190506000858381518110610abd57610abc61239c565b5b60200260200101519050600080600084815260200190815260200160002060008b73ffffffffffffffffffffffffffffffffffffffff1673ffffffffffffffffffffffffffffffffffffffff16815260200190815260200160002054905081811015610b5e576040517f08c379a0000000000000000000000000000000000000000000000000000000008152600401610b5590612856565b60405180910390fd5b81810360008085815260200190815260200160002060008c73ffffffffffffffffffffffffffffffffffffffff1673ffffffffffffffffffffffffffffffffffffffff168152602001908152602001600020819055508160008085815260200190815260200160002060008b73ffffffffffffffffffffffffffffffffffffffff1673ffffffffffffffffffffffffffffffffffffffff1681526020019081526020016000206000828254610c139190612876565b9250508190555050505080610c27906123fa565b9050610a80565b508473ffffffffffffffffffffffffffffffffffffffff168673ffffffffffffffffffffffffffffffffffffffff168273ffffffffffffffffffffffffffffffffffffffff167f4a39dc06d4c0dbc64b70af90fd698a233a518aa5d07e595d983b8c0526c8f7fb8787604051610ca59291906128cc565b60405180910390a4610cbb81878787878761134d565b610cc9818787878787611355565b505050505050565b8173ffffffffffffffffffffffffffffffffffffffff168373ffffffffffffffffffffffffffffffffffffffff1603610d3f576040517f08c379a0000000000000000000000000000000000000000000000000000000008152600401610d3690612975565b60405180910390fd5b80600160008573ffffffffffffffffffffffffffffffffffffffff1673ffffffffffffffffffffffffffffffffffffffff16815260200190815260200160002060008473ffffffffffffffffffffffffffffffffffffffff1673ffffffffffffffffffffffffffffffffffffffff16815260200190815260200160002060006101000a81548160ff0219169083151502179055508173ffffffffffffffffffffffffffffffffffffffff168373ffffffffffffffffffffffffffffffffffffffff167f17307eab39ab6107e8899845ad3d59bd9653f200f220920489ca2b5937696c3183604051610e30919061192f565b60405180910390a3505050565b600081610e4b846000610298565b10610e595760019050610e5e565b600090505b92915050565b600073ffffffffffffffffffffffffffffffffffffffff168473ffffffffffffffffffffffffffffffffffffffff1603610ed3576040517f08c379a0000000000000000000000000000000000000000000000000000000008152600401610eca906127c4565b60405180910390fd5b6000610edd6109a8565b90506000610eea8561152c565b90506000610ef78561152c565b9050610f07838989858589611345565b600080600088815260200190815260200160002060008a73ffffffffffffffffffffffffffffffffffffffff1673ffffffffffffffffffffffffffffffffffffffff16815260200190815260200160002054905085811015610f9e576040517f08c379a0000000000000000000000000000000000000000000000000000000008152600401610f9590612856565b60405180910390fd5b85810360008089815260200190815260200160002060008b73ffffffffffffffffffffffffffffffffffffffff1673ffffffffffffffffffffffffffffffffffffffff168152602001908152602001600020819055508560008089815260200190815260200160002060008a73ffffffffffffffffffffffffffffffffffffffff1673ffffffffffffffffffffffffffffffffffffffff16815260200190815260200160002060008282546110539190612876565b925050819055508773ffffffffffffffffffffffffffffffffffffffff168973ffffffffffffffffffffffffffffffffffffffff168573ffffffffffffffffffffffffffffffffffffffff167fc3d58168c5ae7397731d063d5bbf3d657854427343f4c083240f7aacaa2d0f628a8a6040516110d0929190612995565b60405180910390a46110e6848a8a86868a61134d565b6110f4848a8a8a8a8a6115a6565b505050505050505050565b600073ffffffffffffffffffffffffffffffffffffffff168373ffffffffffffffffffffffffffffffffffffffff160361116e576040517f08c379a000000000000000000000000000000000000000000000000000000000815260040161116590612a30565b60405180910390fd5b60006111786109a8565b905060006111858461152c565b905060006111928461152c565b90506111b283876000858560405180602001604052806000815250611345565b600080600087815260200190815260200160002060008873ffffffffffffffffffffffffffffffffffffffff1673ffffffffffffffffffffffffffffffffffffffff16815260200190815260200160002054905084811015611249576040517f08c379a000000000000000000000000000000000000000000000000000000000815260040161124090612ac2565b60405180910390fd5b84810360008088815260200190815260200160002060008973ffffffffffffffffffffffffffffffffffffffff1673ffffffffffffffffffffffffffffffffffffffff16815260200190815260200160002081905550600073ffffffffffffffffffffffffffffffffffffffff168773ffffffffffffffffffffffffffffffffffffffff168573ffffffffffffffffffffffffffffffffffffffff167fc3d58168c5ae7397731d063d5bbf3d657854427343f4c083240f7aacaa2d0f628989604051611316929190612995565b60405180910390a461133c8488600086866040518060200160405280600081525061134d565b50505050505050565b505050505050565b505050505050565b6113748473ffffffffffffffffffffffffffffffffffffffff1661091b565b15611524578373ffffffffffffffffffffffffffffffffffffffff1663bc197c8187878686866040518663ffffffff1660e01b81526004016113ba959493929190612b46565b6020604051808303816000875af19250505080156113f657506040513d601f19601f820116820180604052508101906113f39190612bc3565b60015b61149b57611402612bfd565b806308c379a00361145e5750611416612c1f565b806114215750611460565b806040517f08c379a00000000000000000000000000000000000000000000000000000000081526004016114559190611a10565b60405180910390fd5b505b6040517f08c379a000000000000000000000000000000000000000000000000000000000815260040161149290612d21565b60405180910390fd5b63bc197c8160e01b7bffffffffffffffffffffffffffffffffffffffffffffffffffffffff1916817bffffffffffffffffffffffffffffffffffffffffffffffffffffffff191614611522576040517f08c379a000000000000000000000000000000000000000000000000000000000815260040161151990612db3565b60405180910390fd5b505b505050505050565b60606000600167ffffffffffffffff81111561154b5761154a611a37565b5b6040519080825280602002602001820160405280156115795781602001602082028036833780820191505090505b50905082816000815181106115915761159061239c565b5b60200260200101818152505080915050919050565b6115c58473ffffffffffffffffffffffffffffffffffffffff1661091b565b15611775578373ffffffffffffffffffffffffffffffffffffffff1663f23a6e6187878686866040518663ffffffff1660e01b815260040161160b959493929190612dd3565b6020604051808303816000875af192505050801561164757506040513d601f19601f820116820180604052508101906116449190612bc3565b60015b6116ec57611653612bfd565b806308c379a0036116af5750611667612c1f565b8061167257506116b1565b806040517f08c379a00000000000000000000000000000000000000000000000000000000081526004016116a69190611a10565b60405180910390fd5b505b6040517f08c379a00000000000000000000000000000000000000000000000000000000081526004016116e390612d21565b60405180910390fd5b63f23a6e6160e01b7bffffffffffffffffffffffffffffffffffffffffffffffffffffffff1916817bffffffffffffffffffffffffffffffffffffffffffffffffffffffff191614611773576040517f08c379a000000000000000000000000000000000000000000000000000000000815260040161176a90612db3565b60405180910390fd5b505b505050505050565b6000604051905090565b600080fd5b600080fd5b600073ffffffffffffffffffffffffffffffffffffffff82169050919050565b60006117bc82611791565b9050919050565b6117cc816117b1565b81146117d757600080fd5b50565b6000813590506117e9816117c3565b92915050565b6000819050919050565b611802816117ef565b811461180d57600080fd5b50565b60008135905061181f816117f9565b92915050565b6000806040838503121561183c5761183b611787565b5b600061184a858286016117da565b925050602061185b85828601611810565b9150509250929050565b61186e816117ef565b82525050565b60006020820190506118896000830184611865565b92915050565b60007fffffffff0000000000000000000000000000000000000000000000000000000082169050919050565b6118c48161188f565b81146118cf57600080fd5b50565b6000813590506118e1816118bb565b92915050565b6000602082840312156118fd576118fc611787565b5b600061190b848285016118d2565b91505092915050565b60008115159050919050565b61192981611914565b82525050565b60006020820190506119446000830184611920565b92915050565b6000602082840312156119605761195f611787565b5b600061196e84828501611810565b91505092915050565b600081519050919050565b600082825260208201905092915050565b60005b838110156119b1578082015181840152602081019050611996565b838111156119c0576000848401525b50505050565b6000601f19601f8301169050919050565b60006119e282611977565b6119ec8185611982565b93506119fc818560208601611993565b611a05816119c6565b840191505092915050565b60006020820190508181036000830152611a2a81846119d7565b905092915050565b600080fd5b7f4e487b7100000000000000000000000000000000000000000000000000000000600052604160045260246000fd5b611a6f826119c6565b810181811067ffffffffffffffff82111715611a8e57611a8d611a37565b5b80604052505050565b6000611aa161177d565b9050611aad8282611a66565b919050565b600067ffffffffffffffff821115611acd57611acc611a37565b5b602082029050602081019050919050565b600080fd5b6000611af6611af184611ab2565b611a97565b90508083825260208201905060208402830185811115611b1957611b18611ade565b5b835b81811015611b425780611b2e8882611810565b845260208401935050602081019050611b1b565b5050509392505050565b600082601f830112611b6157611b60611a32565b5b8135611b71848260208601611ae3565b91505092915050565b600080fd5b600067ffffffffffffffff821115611b9a57611b99611a37565b5b611ba3826119c6565b9050602081019050919050565b82818337600083830152505050565b6000611bd2611bcd84611b7f565b611a97565b905082815260208101848484011115611bee57611bed611b7a565b5b611bf9848285611bb0565b509392505050565b600082601f830112611c1657611c15611a32565b5b8135611c26848260208601611bbf565b91505092915050565b600080600080600060a08688031215611c4b57611c4a611787565b5b6000611c59888289016117da565b9550506020611c6a888289016117da565b945050604086013567ffffffffffffffff811115611c8b57611c8a61178c565b5b611c9788828901611b4c565b935050606086013567ffffffffffffffff811115611cb857611cb761178c565b5b611cc488828901611b4c565b925050608086013567ffffffffffffffff811115611ce557611ce461178c565b5b611cf188828901611c01565b9150509295509295909350565b600067ffffffffffffffff821115611d1957611d18611a37565b5b602082029050602081019050919050565b6000611d3d611d3884611cfe565b611a97565b90508083825260208201905060208402830185811115611d6057611d5f611ade565b5b835b81811015611d895780611d7588826117da565b845260208401935050602081019050611d62565b5050509392505050565b600082601f830112611da857611da7611a32565b5b8135611db8848260208601611d2a565b91505092915050565b60008060408385031215611dd857611dd7611787565b5b600083013567ffffffffffffffff811115611df657611df561178c565b5b611e0285828601611d93565b925050602083013567ffffffffffffffff811115611e2357611e2261178c565b5b611e2f85828601611b4c565b9150509250929050565b600081519050919050565b600082825260208201905092915050565b6000819050602082019050919050565b611e6e816117ef565b82525050565b6000611e808383611e65565b60208301905092915050565b6000602082019050919050565b6000611ea482611e39565b611eae8185611e44565b9350611eb983611e55565b8060005b83811015611eea578151611ed18882611e74565b9750611edc83611e8c565b925050600181019050611ebd565b5085935050505092915050565b60006020820190508181036000830152611f118184611e99565b905092915050565b611f2281611914565b8114611f2d57600080fd5b50565b600081359050611f3f81611f19565b92915050565b60008060408385031215611f5c57611f5b611787565b5b6000611f6a858286016117da565b9250506020611f7b85828601611f30565b9150509250929050565b600067ffffffffffffffff821115611fa057611f9f611a37565b5b611fa9826119c6565b9050602081019050919050565b6000611fc9611fc484611f85565b611a97565b905082815260208101848484011115611fe557611fe4611b7a565b5b611ff0848285611bb0565b509392505050565b600082601f83011261200d5761200c611a32565b5b813561201d848260208601611fb6565b91505092915050565b60006020828403121561203c5761203b611787565b5b600082013567ffffffffffffffff81111561205a5761205961178c565b5b61206684828501611ff8565b91505092915050565b6000806040838503121561208657612085611787565b5b6000612094858286016117da565b92505060206120a5858286016117da565b9150509250929050565b600080600080600060a086880312156120cb576120ca611787565b5b60006120d9888289016117da565b95505060206120ea888289016117da565b94505060406120fb88828901611810565b935050606061210c88828901611810565b925050608086013567ffffffffffffffff81111561212d5761212c61178c565b5b61213988828901611c01565b9150509295509295909350565b6000806040838503121561215d5761215c611787565b5b600061216b85828601611810565b925050602061217c858286016117da565b9150509250929050565b7f455243313135353a2061646472657373207a65726f206973206e6f742061207660008201527f616c6964206f776e657200000000000000000000000000000000000000000000602082015250565b60006121e2602a83611982565b91506121ed82612186565b604082019050919050565b60006020820190508181036000830152612211816121d5565b9050919050565b7f4e487b7100000000000000000000000000000000000000000000000000000000600052602260045260246000fd5b6000600282049050600182168061225f57607f821691505b60208210810361227257612271612218565b5b50919050565b7f455243313135353a2063616c6c6572206973206e6f7420746f6b656e206f776e60008201527f6572206e6f7220617070726f7665640000000000000000000000000000000000602082015250565b60006122d4602f83611982565b91506122df82612278565b604082019050919050565b60006020820190508181036000830152612303816122c7565b9050919050565b7f455243313135353a206163636f756e747320616e6420696473206c656e67746860008201527f206d69736d617463680000000000000000000000000000000000000000000000602082015250565b6000612366602983611982565b91506123718261230a565b604082019050919050565b6000602082019050818103600083015261239581612359565b9050919050565b7f4e487b7100000000000000000000000000000000000000000000000000000000600052603260045260246000fd5b7f4e487b7100000000000000000000000000000000000000000000000000000000600052601160045260246000fd5b6000612405826117ef565b91507fffffffffffffffffffffffffffffffffffffffffffffffffffffffffffffffff8203612437576124366123cb565b5b600182019050919050565b60008190508160005260206000209050919050565b60006020601f8301049050919050565b600082821b905092915050565b6000600883026124a47fffffffffffffffffffffffffffffffffffffffffffffffffffffffffffffffff82612467565b6124ae8683612467565b95508019841693508086168417925050509392505050565b6000819050919050565b60006124eb6124e66124e1846117ef565b6124c6565b6117ef565b9050919050565b6000819050919050565b612505836124d0565b612519612511826124f2565b848454612474565b825550505050565b600090565b61252e612521565b6125398184846124fc565b505050565b5b8181101561255d57612552600082612526565b60018101905061253f565b5050565b601f8211156125a25761257381612442565b61257c84612457565b8101602085101561258b578190505b61259f61259785612457565b83018261253e565b50505b505050565b600082821c905092915050565b60006125c5600019846008026125a7565b1980831691505092915050565b60006125de83836125b4565b9150826002028217905092915050565b6125f782611977565b67ffffffffffffffff8111156126105761260f611a37565b5b61261a8254612247565b612625828285612561565b600060209050601f8311600181146126585760008415612646578287015190505b61265085826125d2565b8655506126b8565b601f19841661266686612442565b60005b8281101561268e57848901518255600182019150602085019450602081019050612669565b868310156126ab57848901516126a7601f8916826125b4565b8355505b6001600288020188555050505b505050505050565b7f455243313135353a2069647320616e6420616d6f756e7473206c656e6774682060008201527f6d69736d61746368000000000000000000000000000000000000000000000000602082015250565b600061271c602883611982565b9150612727826126c0565b604082019050919050565b6000602082019050818103600083015261274b8161270f565b9050919050565b7f455243313135353a207472616e7366657220746f20746865207a65726f20616460008201527f6472657373000000000000000000000000000000000000000000000000000000602082015250565b60006127ae602583611982565b91506127b982612752565b604082019050919050565b600060208201905081810360008301526127dd816127a1565b9050919050565b7f455243313135353a20696e73756666696369656e742062616c616e636520666f60008201527f72207472616e7366657200000000000000000000000000000000000000000000602082015250565b6000612840602a83611982565b915061284b826127e4565b604082019050919050565b6000602082019050818103600083015261286f81612833565b9050919050565b6000612881826117ef565b915061288c836117ef565b9250827fffffffffffffffffffffffffffffffffffffffffffffffffffffffffffffffff038211156128c1576128c06123cb565b5b828201905092915050565b600060408201905081810360008301526128e68185611e99565b905081810360208301526128fa8184611e99565b90509392505050565b7f455243313135353a2073657474696e6720617070726f76616c2073746174757360008201527f20666f722073656c660000000000000000000000000000000000000000000000602082015250565b600061295f602983611982565b915061296a82612903565b604082019050919050565b6000602082019050818103600083015261298e81612952565b9050919050565b60006040820190506129aa6000830185611865565b6129b76020830184611865565b9392505050565b7f455243313135353a206275726e2066726f6d20746865207a65726f206164647260008201527f6573730000000000000000000000000000000000000000000000000000000000602082015250565b6000612a1a602383611982565b9150612a25826129be565b604082019050919050565b60006020820190508181036000830152612a4981612a0d565b9050919050565b7f455243313135353a206275726e20616d6f756e7420657863656564732062616c60008201527f616e636500000000000000000000000000000000000000000000000000000000602082015250565b6000612aac602483611982565b9150612ab782612a50565b604082019050919050565b60006020820190508181036000830152612adb81612a9f565b9050919050565b612aeb816117b1565b82525050565b600081519050919050565b600082825260208201905092915050565b6000612b1882612af1565b612b228185612afc565b9350612b32818560208601611993565b612b3b816119c6565b840191505092915050565b600060a082019050612b5b6000830188612ae2565b612b686020830187612ae2565b8181036040830152612b7a8186611e99565b90508181036060830152612b8e8185611e99565b90508181036080830152612ba28184612b0d565b90509695505050505050565b600081519050612bbd816118bb565b92915050565b600060208284031215612bd957612bd8611787565b5b6000612be784828501612bae565b91505092915050565b60008160e01c9050919050565b600060033d1115612c1c5760046000803e612c19600051612bf0565b90505b90565b600060443d10612cac57612c3161177d565b60043d036004823e80513d602482011167ffffffffffffffff82111715612c59575050612cac565b808201805167ffffffffffffffff811115612c775750505050612cac565b80602083010160043d038501811115612c94575050505050612cac565b612ca382602001850186611a66565b82955050505050505b90565b7f455243313135353a207472616e7366657220746f206e6f6e204552433131353560008201527f526563656976657220696d706c656d656e746572000000000000000000000000602082015250565b6000612d0b603483611982565b9150612d1682612caf565b604082019050919050565b60006020820190508181036000830152612d3a81612cfe565b9050919050565b7f455243313135353a204552433131353552656365697665722072656a6563746560008201527f6420746f6b656e73000000000000000000000000000000000000000000000000602082015250565b6000612d9d602883611982565b9150612da882612d41565b604082019050919050565b60006020820190508181036000830152612dcc81612d90565b9050919050565b600060a082019050612de86000830188612ae2565b612df56020830187612ae2565b612e026040830186611865565b612e0f6060830185611865565b8181036080830152612e218184612b0d565b9050969550505050505056fe6275726e696e67207b5f616d6f756e747d2043726564656e7469616c20746f6b656e732066726f6d207b5f6163636f756e747da264697066735822122020a8e05537895deaa3399722470de7259a0a21bfac85e7687db1224c5a456b1564736f6c634300080f0033",
  "immutableReferences": {},
  "source": "pragma solidity ^0.8.10;\n// SPDX-License-Identifier: MIT\nimport \"@openzeppelin/contracts/token/ERC1155/ERC1155.sol\";\n\ncontract PrivateAccessToken is ERC1155{\n    string private PrivateData;\n    uint Token =0;\n    uint totalNFTs=5;\n    // when contract is launched, PrivateData & URI will be defined\n    constructor(string memory _PrivateData,string memory URI)ERC1155(URI){\n        PrivateData = _PrivateData;\n        _mint(msg.sender, Token, totalNFTs, \"\"); //5 total tokens\n    }\n    //The modifier is so only the token holder is allowed to access function \n    modifier OnlyToken(){\n        require(OnlyIf(msg.sender,1)==true);\n        _;\n    }\n    // \n    modifier multi_Token(){\n        require(OnlyIf(msg.sender,3)==true);\n        _;\n    }\n    //The OnlyIf Function will run in the modifier to check if the user accessing the contract is the token holder\n    function OnlyIf(address _user,uint _tokenAmmount)internal view returns(bool){\n        if(balanceOf(_user,0)>=_tokenAmmount){ //changed from 1 to 3 for better security\n            return true;\n        }else{\n            return false;\n        }\n    }\n    //This function will allow the Token Holder to view data\n    function ViewData() public multi_Token view returns(string memory){\n        return PrivateData;\n    }\n    function PrivateViewData()internal view returns(string memory){\n        return PrivateData;\n    }\n    //This function will check if current account has token\n    function ViewStatus()public view returns(uint){\n        return balanceOf(msg.sender,0);\n    }\n    //user can edit password if they hold 3 access tokens\n    function Edit(string memory _newData)public multi_Token returns(bool){\n         PrivateData = _newData;\n         return true;\n    }\n    //Burn compramsed tokens\n    function Burn(uint _amount, address _account)public multi_Token returns(string memory){\n            _burn(_account, Token, _amount);\n            return \"burning {_amount} Credential tokens from {_account}\";\n    }\n}\n\n",
  "sourcePath": "/Users/quincyjones/Documents/GitHub/LoginContract/contracts/PrivateAccessToken.sol",
  "compiler": {
    "name": "solc",
    "version": "0.8.15+commit.e14f2714.Emscripten.clang"
  },
  "schemaVersion": "3.4.8",
  "updatedAt": "2022-08-12T16:48:10.942Z",
  "devdoc": {
    "kind": "dev",
    "methods": {
      "balanceOf(address,uint256)": {
        "details": "See {IERC1155-balanceOf}. Requirements: - `account` cannot be the zero address."
      },
      "balanceOfBatch(address[],uint256[])": {
        "details": "See {IERC1155-balanceOfBatch}. Requirements: - `accounts` and `ids` must have the same length."
      },
      "isApprovedForAll(address,address)": {
        "details": "See {IERC1155-isApprovedForAll}."
      },
      "safeBatchTransferFrom(address,address,uint256[],uint256[],bytes)": {
        "details": "See {IERC1155-safeBatchTransferFrom}."
      },
      "safeTransferFrom(address,address,uint256,uint256,bytes)": {
        "details": "See {IERC1155-safeTransferFrom}."
      },
      "setApprovalForAll(address,bool)": {
        "details": "See {IERC1155-setApprovalForAll}."
      },
      "supportsInterface(bytes4)": {
        "details": "See {IERC165-supportsInterface}."
      },
      "uri(uint256)": {
        "details": "See {IERC1155MetadataURI-uri}. This implementation returns the same URI for *all* token types. It relies on the token type ID substitution mechanism https://eips.ethereum.org/EIPS/eip-1155#metadata[defined in the EIP]. Clients calling this function must replace the `\\{id\\}` substring with the actual token type ID."
      }
    },
    "version": 1
  },
  "userdoc": {
    "kind": "user",
    "methods": {},
    "version": 1
  }
}