{
  "contractName": "PrivateAccessToken",
  "abi": [
    {
      "inputs": [
        {
          "internalType": "string",
          "name": "_PrivateData",
          "type": "string"
        },
        {
          "internalType": "string",
          "name": "URI",
          "type": "string"
        }
      ],
      "stateMutability": "nonpayable",
      "type": "constructor"
    },
    {
      "anonymous": false,
      "inputs": [
        {
          "indexed": true,
          "internalType": "address",
          "name": "account",
          "type": "address"
        },
        {
          "indexed": true,
          "internalType": "address",
          "name": "operator",
          "type": "address"
        },
        {
          "indexed": false,
          "internalType": "bool",
          "name": "approved",
          "type": "bool"
        }
      ],
      "name": "ApprovalForAll",
      "type": "event"
    },
    {
      "anonymous": false,
      "inputs": [
        {
          "indexed": true,
          "internalType": "address",
          "name": "operator",
          "type": "address"
        },
        {
          "indexed": true,
          "internalType": "address",
          "name": "from",
          "type": "address"
        },
        {
          "indexed": true,
          "internalType": "address",
          "name": "to",
          "type": "address"
        },
        {
          "indexed": false,
          "internalType": "uint256[]",
          "name": "ids",
          "type": "uint256[]"
        },
        {
          "indexed": false,
          "internalType": "uint256[]",
          "name": "values",
          "type": "uint256[]"
        }
      ],
      "name": "TransferBatch",
      "type": "event"
    },
    {
      "anonymous": false,
      "inputs": [
        {
          "indexed": true,
          "internalType": "address",
          "name": "operator",
          "type": "address"
        },
        {
          "indexed": true,
          "internalType": "address",
          "name": "from",
          "type": "address"
        },
        {
          "indexed": true,
          "internalType": "address",
          "name": "to",
          "type": "address"
        },
        {
          "indexed": false,
          "internalType": "uint256",
          "name": "id",
          "type": "uint256"
        },
        {
          "indexed": false,
          "internalType": "uint256",
          "name": "value",
          "type": "uint256"
        }
      ],
      "name": "TransferSingle",
      "type": "event"
    },
    {
      "anonymous": false,
      "inputs": [
        {
          "indexed": false,
          "internalType": "string",
          "name": "value",
          "type": "string"
        },
        {
          "indexed": true,
          "internalType": "uint256",
          "name": "id",
          "type": "uint256"
        }
      ],
      "name": "URI",
      "type": "event"
    },
    {
      "inputs": [
        {
          "internalType": "address",
          "name": "account",
          "type": "address"
        },
        {
          "internalType": "uint256",
          "name": "id",
          "type": "uint256"
        }
      ],
      "name": "balanceOf",
      "outputs": [
        {
          "internalType": "uint256",
          "name": "",
          "type": "uint256"
        }
      ],
      "stateMutability": "view",
      "type": "function"
    },
    {
      "inputs": [
        {
          "internalType": "address[]",
          "name": "accounts",
          "type": "address[]"
        },
        {
          "internalType": "uint256[]",
          "name": "ids",
          "type": "uint256[]"
        }
      ],
      "name": "balanceOfBatch",
      "outputs": [
        {
          "internalType": "uint256[]",
          "name": "",
          "type": "uint256[]"
        }
      ],
      "stateMutability": "view",
      "type": "function"
    },
    {
      "inputs": [
        {
          "internalType": "address",
          "name": "account",
          "type": "address"
        },
        {
          "internalType": "address",
          "name": "operator",
          "type": "address"
        }
      ],
      "name": "isApprovedForAll",
      "outputs": [
        {
          "internalType": "bool",
          "name": "",
          "type": "bool"
        }
      ],
      "stateMutability": "view",
      "type": "function"
    },
    {
      "inputs": [
        {
          "internalType": "address",
          "name": "from",
          "type": "address"
        },
        {
          "internalType": "address",
          "name": "to",
          "type": "address"
        },
        {
          "internalType": "uint256[]",
          "name": "ids",
          "type": "uint256[]"
        },
        {
          "internalType": "uint256[]",
          "name": "amounts",
          "type": "uint256[]"
        },
        {
          "internalType": "bytes",
          "name": "data",
          "type": "bytes"
        }
      ],
      "name": "safeBatchTransferFrom",
      "outputs": [],
      "stateMutability": "nonpayable",
      "type": "function"
    },
    {
      "inputs": [
        {
          "internalType": "address",
          "name": "from",
          "type": "address"
        },
        {
          "internalType": "address",
          "name": "to",
          "type": "address"
        },
        {
          "internalType": "uint256",
          "name": "id",
          "type": "uint256"
        },
        {
          "internalType": "uint256",
          "name": "amount",
          "type": "uint256"
        },
        {
          "internalType": "bytes",
          "name": "data",
          "type": "bytes"
        }
      ],
      "name": "safeTransferFrom",
      "outputs": [],
      "stateMutability": "nonpayable",
      "type": "function"
    },
    {
      "inputs": [
        {
          "internalType": "address",
          "name": "operator",
          "type": "address"
        },
        {
          "internalType": "bool",
          "name": "approved",
          "type": "bool"
        }
      ],
      "name": "setApprovalForAll",
      "outputs": [],
      "stateMutability": "nonpayable",
      "type": "function"
    },
    {
      "inputs": [
        {
          "internalType": "bytes4",
          "name": "interfaceId",
          "type": "bytes4"
        }
      ],
      "name": "supportsInterface",
      "outputs": [
        {
          "internalType": "bool",
          "name": "",
          "type": "bool"
        }
      ],
      "stateMutability": "view",
      "type": "function"
    },
    {
      "inputs": [
        {
          "internalType": "uint256",
          "name": "",
          "type": "uint256"
        }
      ],
      "name": "uri",
      "outputs": [
        {
          "internalType": "string",
          "name": "",
          "type": "string"
        }
      ],
      "stateMutability": "view",
      "type": "function"
    },
    {
      "inputs": [],
      "name": "ViewData",
      "outputs": [
        {
          "internalType": "string",
          "name": "",
          "type": "string"
        }
      ],
      "stateMutability": "view",
      "type": "function"
    },
    {
      "inputs": [],
      "name": "ViewStatus",
      "outputs": [
        {
          "internalType": "uint256",
          "name": "",
          "type": "uint256"
        }
      ],
      "stateMutability": "view",
      "type": "function"
    },
    {
      "inputs": [
        {
          "internalType": "string",
          "name": "_newData",
          "type": "string"
        }
      ],
      "name": "Edit",
      "outputs": [
        {
          "internalType": "bool",
          "name": "",
          "type": "bool"
        }
      ],
      "stateMutability": "nonpayable",
      "type": "function"
    },
    {
      "inputs": [
        {
          "internalType": "uint256",
          "name": "_amount",
          "type": "uint256"
        },
        {
          "internalType": "address",
          "name": "_account",
          "type": "address"
        }
      ],
      "name": "Burn",
      "outputs": [
        {
          "internalType": "string",
          "name": "",
          "type": "string"
        }
      ],
      "stateMutability": "nonpayable",
      "type": "function"
    }
  ],
  "bytecode": "0x60806040526000600455600580553480156200001a57600080fd5b5060405162003b0f38038062003b0f833981810160405281019062000040919062000767565b8062000052816200009b60201b60201c565b5081600390805190602001906200006b9291906200051a565b50620000933360045460055460405180602001604052806000815250620000b760201b60201c565b505062000e06565b8060029080519060200190620000b39291906200051a565b5050565b600073ffffffffffffffffffffffffffffffffffffffff168473ffffffffffffffffffffffffffffffffffffffff1614156200012a576040517f08c379a0000000000000000000000000000000000000000000000000000000008152600401620001219062000873565b60405180910390fd5b60006200013c6200027c60201b60201c565b9050620001758160008762000157886200028460201b60201c565b62000168886200028460201b60201c565b876200030560201b60201c565b8260008086815260200190815260200160002060008773ffffffffffffffffffffffffffffffffffffffff1673ffffffffffffffffffffffffffffffffffffffff1681526020019081526020016000206000828254620001d69190620008ce565b925050819055508473ffffffffffffffffffffffffffffffffffffffff16600073ffffffffffffffffffffffffffffffffffffffff168273ffffffffffffffffffffffffffffffffffffffff167fc3d58168c5ae7397731d063d5bbf3d657854427343f4c083240f7aacaa2d0f628787604051620002569291906200093c565b60405180910390a462000275816000878787876200030d60201b60201c565b5050505050565b600033905090565b60606000600167ffffffffffffffff811115620002a657620002a5620005f9565b5b604051908082528060200260200182016040528015620002d55781602001602082028036833780820191505090505b5090508281600081518110620002f057620002ef62000969565b5b60200260200101818152505080915050919050565b505050505050565b620003398473ffffffffffffffffffffffffffffffffffffffff166200050760201b620009231760201c565b15620004ff578373ffffffffffffffffffffffffffffffffffffffff1663f23a6e6187878686866040518663ffffffff1660e01b81526004016200038295949392919062000a3a565b6020604051808303816000875af1925050508015620003c157506040513d601f19601f82011682018060405250810190620003be919062000afb565b60015b6200047357620003d062000b3a565b806308c379a01415620004345750620003e862000b5f565b80620003f5575062000436565b806040517f08c379a00000000000000000000000000000000000000000000000000000000081526004016200042b919062000c4d565b60405180910390fd5b505b6040517f08c379a00000000000000000000000000000000000000000000000000000000081526004016200046a9062000ce7565b60405180910390fd5b63f23a6e6160e01b7bffffffffffffffffffffffffffffffffffffffffffffffffffffffff1916817bffffffffffffffffffffffffffffffffffffffffffffffffffffffff191614620004fd576040517f08c379a0000000000000000000000000000000000000000000000000000000008152600401620004f49062000d7f565b60405180910390fd5b505b505050505050565b600080823b905060008111915050919050565b828054620005289062000dd0565b90600052602060002090601f0160209004810192826200054c576000855562000598565b82601f106200056757805160ff191683800117855562000598565b8280016001018555821562000598579182015b82811115620005975782518255916020019190600101906200057a565b5b509050620005a79190620005ab565b5090565b5b80821115620005c6576000816000905550600101620005ac565b5090565b6000604051905090565b600080fd5b600080fd5b600080fd5b600080fd5b6000601f19601f8301169050919050565b7f4e487b7100000000000000000000000000000000000000000000000000000000600052604160045260246000fd5b6200063382620005e8565b810181811067ffffffffffffffff82111715620006555762000654620005f9565b5b80604052505050565b60006200066a620005ca565b905062000678828262000628565b919050565b600067ffffffffffffffff8211156200069b576200069a620005f9565b5b620006a682620005e8565b9050602081019050919050565b60005b83811015620006d3578082015181840152602081019050620006b6565b83811115620006e3576000848401525b50505050565b600062000700620006fa846200067d565b6200065e565b9050828152602081018484840111156200071f576200071e620005e3565b5b6200072c848285620006b3565b509392505050565b600082601f8301126200074c576200074b620005de565b5b81516200075e848260208601620006e9565b91505092915050565b60008060408385031215620007815762000780620005d4565b5b600083015167ffffffffffffffff811115620007a257620007a1620005d9565b5b620007b08582860162000734565b925050602083015167ffffffffffffffff811115620007d457620007d3620005d9565b5b620007e28582860162000734565b9150509250929050565b600082825260208201905092915050565b7f455243313135353a206d696e7420746f20746865207a65726f2061646472657360008201527f7300000000000000000000000000000000000000000000000000000000000000602082015250565b60006200085b602183620007ec565b91506200086882620007fd565b604082019050919050565b600060208201905081810360008301526200088e816200084c565b9050919050565b6000819050919050565b7f4e487b7100000000000000000000000000000000000000000000000000000000600052601160045260246000fd5b6000620008db8262000895565b9150620008e88362000895565b9250827fffffffffffffffffffffffffffffffffffffffffffffffffffffffffffffffff0382111562000920576200091f6200089f565b5b828201905092915050565b620009368162000895565b82525050565b60006040820190506200095360008301856200092b565b6200096260208301846200092b565b9392505050565b7f4e487b7100000000000000000000000000000000000000000000000000000000600052603260045260246000fd5b600073ffffffffffffffffffffffffffffffffffffffff82169050919050565b6000620009c58262000998565b9050919050565b620009d781620009b8565b82525050565b600081519050919050565b600082825260208201905092915050565b600062000a0682620009dd565b62000a128185620009e8565b935062000a24818560208601620006b3565b62000a2f81620005e8565b840191505092915050565b600060a08201905062000a516000830188620009cc565b62000a606020830187620009cc565b62000a6f60408301866200092b565b62000a7e60608301856200092b565b818103608083015262000a928184620009f9565b90509695505050505050565b60007fffffffff0000000000000000000000000000000000000000000000000000000082169050919050565b62000ad58162000a9e565b811462000ae157600080fd5b50565b60008151905062000af58162000aca565b92915050565b60006020828403121562000b145762000b13620005d4565b5b600062000b248482850162000ae4565b91505092915050565b60008160e01c9050919050565b600060033d111562000b5c5760046000803e62000b5960005162000b2d565b90505b90565b600060443d101562000b715762000bfe565b62000b7b620005ca565b60043d036004823e80513d602482011167ffffffffffffffff8211171562000ba557505062000bfe565b808201805167ffffffffffffffff81111562000bc5575050505062000bfe565b80602083010160043d03850181111562000be457505050505062000bfe565b62000bf58260200185018662000628565b82955050505050505b90565b600081519050919050565b600062000c198262000c01565b62000c258185620007ec565b935062000c37818560208601620006b3565b62000c4281620005e8565b840191505092915050565b6000602082019050818103600083015262000c69818462000c0c565b905092915050565b7f455243313135353a207472616e7366657220746f206e6f6e204552433131353560008201527f526563656976657220696d706c656d656e746572000000000000000000000000602082015250565b600062000ccf603483620007ec565b915062000cdc8262000c71565b604082019050919050565b6000602082019050818103600083015262000d028162000cc0565b9050919050565b7f455243313135353a204552433131353552656365697665722072656a6563746560008201527f6420746f6b656e73000000000000000000000000000000000000000000000000602082015250565b600062000d67602883620007ec565b915062000d748262000d09565b604082019050919050565b6000602082019050818103600083015262000d9a8162000d58565b9050919050565b7f4e487b7100000000000000000000000000000000000000000000000000000000600052602260045260246000fd5b6000600282049050600182168062000de957607f821691505b6020821081141562000e005762000dff62000da1565b5b50919050565b612cf98062000e166000396000f3fe608060405234801561001057600080fd5b50600436106100b35760003560e01c8063a22cb46511610071578063a22cb465146101b2578063c5956fe1146101ce578063cd31de7a146101fe578063e985e9c51461021c578063f242432a1461024c578063f6554c3a14610268576100b3565b8062fdd58e146100b857806301ffc9a7146100e8578063087f477a146101185780630e89341c146101365780632eb2c2d6146101665780634e1273f414610182575b600080fd5b6100d260048036038101906100cd919061186c565b610298565b6040516100df91906118bb565b60405180910390f35b61010260048036038101906100fd919061192e565b610361565b60405161010f9190611976565b60405180910390f35b610120610443565b60405161012d91906118bb565b60405180910390f35b610150600480360381019061014b9190611991565b610455565b60405161015d9190611a57565b60405180910390f35b610180600480360381019061017b9190611c76565b6104e9565b005b61019c60048036038101906101979190611e08565b61058a565b6040516101a99190611f3e565b60405180910390f35b6101cc60048036038101906101c79190611f8c565b6106a3565b005b6101e860048036038101906101e3919061206d565b6106b9565b6040516101f59190611976565b60405180910390f35b6102066106f6565b6040516102139190611a57565b60405180910390f35b610236600480360381019061023191906120b6565b6107a3565b6040516102439190611976565b60405180910390f35b610266600480360381019061026191906120f6565b610837565b005b610282600480360381019061027d919061218d565b6108d8565b60405161028f9190611a57565b60405180910390f35b60008073ffffffffffffffffffffffffffffffffffffffff168373ffffffffffffffffffffffffffffffffffffffff161415610309576040517f08c379a00000000000000000000000000000000000000000000000000000000081526004016103009061223f565b60405180910390fd5b60008083815260200190815260200160002060008473ffffffffffffffffffffffffffffffffffffffff1673ffffffffffffffffffffffffffffffffffffffff16815260200190815260200160002054905092915050565b60007fd9b67a26000000000000000000000000000000000000000000000000000000007bffffffffffffffffffffffffffffffffffffffffffffffffffffffff1916827bffffffffffffffffffffffffffffffffffffffffffffffffffffffff1916148061042c57507f0e89341c000000000000000000000000000000000000000000000000000000007bffffffffffffffffffffffffffffffffffffffffffffffffffffffff1916827bffffffffffffffffffffffffffffffffffffffffffffffffffffffff1916145b8061043c575061043b82610936565b5b9050919050565b6000610450336000610298565b905090565b6060600280546104649061228e565b80601f01602080910402602001604051908101604052809291908181526020018280546104909061228e565b80156104dd5780601f106104b2576101008083540402835291602001916104dd565b820191906000526020600020905b8154815290600101906020018083116104c057829003601f168201915b50505050509050919050565b6104f16109a0565b73ffffffffffffffffffffffffffffffffffffffff168573ffffffffffffffffffffffffffffffffffffffff1614806105375750610536856105316109a0565b6107a3565b5b610576576040517f08c379a000000000000000000000000000000000000000000000000000000000815260040161056d90612332565b60405180910390fd5b61058385858585856109a8565b5050505050565b606081518351146105d0576040517f08c379a00000000000000000000000000000000000000000000000000000000081526004016105c7906123c4565b60405180910390fd5b6000835167ffffffffffffffff8111156105ed576105ec611a7e565b5b60405190808252806020026020018201604052801561061b5781602001602082028036833780820191505090505b50905060005b8451811015610698576106688582815181106106405761063f6123e4565b5b602002602001015185838151811061065b5761065a6123e4565b5b6020026020010151610298565b82828151811061067b5761067a6123e4565b5b6020026020010181815250508061069190612442565b9050610621565b508091505092915050565b6106b56106ae6109a0565b8383610cbc565b5050565b6000600115156106ca336003610e29565b1515146106d657600080fd5b81600390805190602001906106ec929190611721565b5060019050919050565b606060011515610707336003610e29565b15151461071357600080fd5b600380546107209061228e565b80601f016020809104026020016040519081016040528092919081815260200182805461074c9061228e565b80156107995780601f1061076e57610100808354040283529160200191610799565b820191906000526020600020905b81548152906001019060200180831161077c57829003601f168201915b5050505050905090565b6000600160008473ffffffffffffffffffffffffffffffffffffffff1673ffffffffffffffffffffffffffffffffffffffff16815260200190815260200160002060008373ffffffffffffffffffffffffffffffffffffffff1673ffffffffffffffffffffffffffffffffffffffff16815260200190815260200160002060009054906101000a900460ff16905092915050565b61083f6109a0565b73ffffffffffffffffffffffffffffffffffffffff168573ffffffffffffffffffffffffffffffffffffffff16148061088557506108848561087f6109a0565b6107a3565b5b6108c4576040517f08c379a00000000000000000000000000000000000000000000000000000000081526004016108bb906124fd565b60405180910390fd5b6108d18585858585610e50565b5050505050565b6060600115156108e9336003610e29565b1515146108f557600080fd5b61090282600454856110d2565b604051806060016040528060338152602001612c9160339139905092915050565b600080823b905060008111915050919050565b60007f01ffc9a7000000000000000000000000000000000000000000000000000000007bffffffffffffffffffffffffffffffffffffffffffffffffffffffff1916827bffffffffffffffffffffffffffffffffffffffffffffffffffffffff1916149050919050565b600033905090565b81518351146109ec576040517f08c379a00000000000000000000000000000000000000000000000000000000081526004016109e39061258f565b60405180910390fd5b600073ffffffffffffffffffffffffffffffffffffffff168473ffffffffffffffffffffffffffffffffffffffff161415610a5c576040517f08c379a0000000000000000000000000000000000000000000000000000000008152600401610a5390612621565b60405180910390fd5b6000610a666109a0565b9050610a768187878787876112ef565b60005b8451811015610c27576000858281518110610a9757610a966123e4565b5b602002602001015190506000858381518110610ab657610ab56123e4565b5b60200260200101519050600080600084815260200190815260200160002060008b73ffffffffffffffffffffffffffffffffffffffff1673ffffffffffffffffffffffffffffffffffffffff16815260200190815260200160002054905081811015610b57576040517f08c379a0000000000000000000000000000000000000000000000000000000008152600401610b4e906126b3565b60405180910390fd5b81810360008085815260200190815260200160002060008c73ffffffffffffffffffffffffffffffffffffffff1673ffffffffffffffffffffffffffffffffffffffff168152602001908152602001600020819055508160008085815260200190815260200160002060008b73ffffffffffffffffffffffffffffffffffffffff1673ffffffffffffffffffffffffffffffffffffffff1681526020019081526020016000206000828254610c0c91906126d3565b9250508190555050505080610c2090612442565b9050610a79565b508473ffffffffffffffffffffffffffffffffffffffff168673ffffffffffffffffffffffffffffffffffffffff168273ffffffffffffffffffffffffffffffffffffffff167f4a39dc06d4c0dbc64b70af90fd698a233a518aa5d07e595d983b8c0526c8f7fb8787604051610c9e929190612729565b60405180910390a4610cb48187878787876112f7565b505050505050565b8173ffffffffffffffffffffffffffffffffffffffff168373ffffffffffffffffffffffffffffffffffffffff161415610d2b576040517f08c379a0000000000000000000000000000000000000000000000000000000008152600401610d22906127d2565b60405180910390fd5b80600160008573ffffffffffffffffffffffffffffffffffffffff1673ffffffffffffffffffffffffffffffffffffffff16815260200190815260200160002060008473ffffffffffffffffffffffffffffffffffffffff1673ffffffffffffffffffffffffffffffffffffffff16815260200190815260200160002060006101000a81548160ff0219169083151502179055508173ffffffffffffffffffffffffffffffffffffffff168373ffffffffffffffffffffffffffffffffffffffff167f17307eab39ab6107e8899845ad3d59bd9653f200f220920489ca2b5937696c3183604051610e1c9190611976565b60405180910390a3505050565b600081610e37846000610298565b10610e455760019050610e4a565b600090505b92915050565b600073ffffffffffffffffffffffffffffffffffffffff168473ffffffffffffffffffffffffffffffffffffffff161415610ec0576040517f08c379a0000000000000000000000000000000000000000000000000000000008152600401610eb790612621565b60405180910390fd5b6000610eca6109a0565b9050610eea818787610edb886114cf565b610ee4886114cf565b876112ef565b600080600086815260200190815260200160002060008873ffffffffffffffffffffffffffffffffffffffff1673ffffffffffffffffffffffffffffffffffffffff16815260200190815260200160002054905083811015610f81576040517f08c379a0000000000000000000000000000000000000000000000000000000008152600401610f78906126b3565b60405180910390fd5b83810360008087815260200190815260200160002060008973ffffffffffffffffffffffffffffffffffffffff1673ffffffffffffffffffffffffffffffffffffffff168152602001908152602001600020819055508360008087815260200190815260200160002060008873ffffffffffffffffffffffffffffffffffffffff1673ffffffffffffffffffffffffffffffffffffffff168152602001908152602001600020600082825461103691906126d3565b925050819055508573ffffffffffffffffffffffffffffffffffffffff168773ffffffffffffffffffffffffffffffffffffffff168373ffffffffffffffffffffffffffffffffffffffff167fc3d58168c5ae7397731d063d5bbf3d657854427343f4c083240f7aacaa2d0f6288886040516110b39291906127f2565b60405180910390a46110c9828888888888611549565b50505050505050565b600073ffffffffffffffffffffffffffffffffffffffff168373ffffffffffffffffffffffffffffffffffffffff161415611142576040517f08c379a00000000000000000000000000000000000000000000000000000000081526004016111399061288d565b60405180910390fd5b600061114c6109a0565b905061117c8185600061115e876114cf565b611167876114cf565b604051806020016040528060008152506112ef565b600080600085815260200190815260200160002060008673ffffffffffffffffffffffffffffffffffffffff1673ffffffffffffffffffffffffffffffffffffffff16815260200190815260200160002054905082811015611213576040517f08c379a000000000000000000000000000000000000000000000000000000000815260040161120a9061291f565b60405180910390fd5b82810360008086815260200190815260200160002060008773ffffffffffffffffffffffffffffffffffffffff1673ffffffffffffffffffffffffffffffffffffffff16815260200190815260200160002081905550600073ffffffffffffffffffffffffffffffffffffffff168573ffffffffffffffffffffffffffffffffffffffff168373ffffffffffffffffffffffffffffffffffffffff167fc3d58168c5ae7397731d063d5bbf3d657854427343f4c083240f7aacaa2d0f6287876040516112e09291906127f2565b60405180910390a45050505050565b505050505050565b6113168473ffffffffffffffffffffffffffffffffffffffff16610923565b156114c7578373ffffffffffffffffffffffffffffffffffffffff1663bc197c8187878686866040518663ffffffff1660e01b815260040161135c9594939291906129a3565b6020604051808303816000875af192505050801561139857506040513d601f19601f820116820180604052508101906113959190612a20565b60015b61143e576113a4612a5a565b806308c379a0141561140157506113b9612a7c565b806113c45750611403565b806040517f08c379a00000000000000000000000000000000000000000000000000000000081526004016113f89190611a57565b60405180910390fd5b505b6040517f08c379a000000000000000000000000000000000000000000000000000000000815260040161143590612b84565b60405180910390fd5b63bc197c8160e01b7bffffffffffffffffffffffffffffffffffffffffffffffffffffffff1916817bffffffffffffffffffffffffffffffffffffffffffffffffffffffff1916146114c5576040517f08c379a00000000000000000000000000000000000000000000000000000000081526004016114bc90612c16565b60405180910390fd5b505b505050505050565b60606000600167ffffffffffffffff8111156114ee576114ed611a7e565b5b60405190808252806020026020018201604052801561151c5781602001602082028036833780820191505090505b5090508281600081518110611534576115336123e4565b5b60200260200101818152505080915050919050565b6115688473ffffffffffffffffffffffffffffffffffffffff16610923565b15611719578373ffffffffffffffffffffffffffffffffffffffff1663f23a6e6187878686866040518663ffffffff1660e01b81526004016115ae959493929190612c36565b6020604051808303816000875af19250505080156115ea57506040513d601f19601f820116820180604052508101906115e79190612a20565b60015b611690576115f6612a5a565b806308c379a01415611653575061160b612a7c565b806116165750611655565b806040517f08c379a000000000000000000000000000000000000000000000000000000000815260040161164a9190611a57565b60405180910390fd5b505b6040517f08c379a000000000000000000000000000000000000000000000000000000000815260040161168790612b84565b60405180910390fd5b63f23a6e6160e01b7bffffffffffffffffffffffffffffffffffffffffffffffffffffffff1916817bffffffffffffffffffffffffffffffffffffffffffffffffffffffff191614611717576040517f08c379a000000000000000000000000000000000000000000000000000000000815260040161170e90612c16565b60405180910390fd5b505b505050505050565b82805461172d9061228e565b90600052602060002090601f01602090048101928261174f5760008555611796565b82601f1061176857805160ff1916838001178555611796565b82800160010185558215611796579182015b8281111561179557825182559160200191906001019061177a565b5b5090506117a391906117a7565b5090565b5b808211156117c05760008160009055506001016117a8565b5090565b6000604051905090565b600080fd5b600080fd5b600073ffffffffffffffffffffffffffffffffffffffff82169050919050565b6000611803826117d8565b9050919050565b611813816117f8565b811461181e57600080fd5b50565b6000813590506118308161180a565b92915050565b6000819050919050565b61184981611836565b811461185457600080fd5b50565b60008135905061186681611840565b92915050565b60008060408385031215611883576118826117ce565b5b600061189185828601611821565b92505060206118a285828601611857565b9150509250929050565b6118b581611836565b82525050565b60006020820190506118d060008301846118ac565b92915050565b60007fffffffff0000000000000000000000000000000000000000000000000000000082169050919050565b61190b816118d6565b811461191657600080fd5b50565b60008135905061192881611902565b92915050565b600060208284031215611944576119436117ce565b5b600061195284828501611919565b91505092915050565b60008115159050919050565b6119708161195b565b82525050565b600060208201905061198b6000830184611967565b92915050565b6000602082840312156119a7576119a66117ce565b5b60006119b584828501611857565b91505092915050565b600081519050919050565b600082825260208201905092915050565b60005b838110156119f85780820151818401526020810190506119dd565b83811115611a07576000848401525b50505050565b6000601f19601f8301169050919050565b6000611a29826119be565b611a3381856119c9565b9350611a438185602086016119da565b611a4c81611a0d565b840191505092915050565b60006020820190508181036000830152611a718184611a1e565b905092915050565b600080fd5b7f4e487b7100000000000000000000000000000000000000000000000000000000600052604160045260246000fd5b611ab682611a0d565b810181811067ffffffffffffffff82111715611ad557611ad4611a7e565b5b80604052505050565b6000611ae86117c4565b9050611af48282611aad565b919050565b600067ffffffffffffffff821115611b1457611b13611a7e565b5b602082029050602081019050919050565b600080fd5b6000611b3d611b3884611af9565b611ade565b90508083825260208201905060208402830185811115611b6057611b5f611b25565b5b835b81811015611b895780611b758882611857565b845260208401935050602081019050611b62565b5050509392505050565b600082601f830112611ba857611ba7611a79565b5b8135611bb8848260208601611b2a565b91505092915050565b600080fd5b600067ffffffffffffffff821115611be157611be0611a7e565b5b611bea82611a0d565b9050602081019050919050565b82818337600083830152505050565b6000611c19611c1484611bc6565b611ade565b905082815260208101848484011115611c3557611c34611bc1565b5b611c40848285611bf7565b509392505050565b600082601f830112611c5d57611c5c611a79565b5b8135611c6d848260208601611c06565b91505092915050565b600080600080600060a08688031215611c9257611c916117ce565b5b6000611ca088828901611821565b9550506020611cb188828901611821565b945050604086013567ffffffffffffffff811115611cd257611cd16117d3565b5b611cde88828901611b93565b935050606086013567ffffffffffffffff811115611cff57611cfe6117d3565b5b611d0b88828901611b93565b925050608086013567ffffffffffffffff811115611d2c57611d2b6117d3565b5b611d3888828901611c48565b9150509295509295909350565b600067ffffffffffffffff821115611d6057611d5f611a7e565b5b602082029050602081019050919050565b6000611d84611d7f84611d45565b611ade565b90508083825260208201905060208402830185811115611da757611da6611b25565b5b835b81811015611dd05780611dbc8882611821565b845260208401935050602081019050611da9565b5050509392505050565b600082601f830112611def57611dee611a79565b5b8135611dff848260208601611d71565b91505092915050565b60008060408385031215611e1f57611e1e6117ce565b5b600083013567ffffffffffffffff811115611e3d57611e3c6117d3565b5b611e4985828601611dda565b925050602083013567ffffffffffffffff811115611e6a57611e696117d3565b5b611e7685828601611b93565b9150509250929050565b600081519050919050565b600082825260208201905092915050565b6000819050602082019050919050565b611eb581611836565b82525050565b6000611ec78383611eac565b60208301905092915050565b6000602082019050919050565b6000611eeb82611e80565b611ef58185611e8b565b9350611f0083611e9c565b8060005b83811015611f31578151611f188882611ebb565b9750611f2383611ed3565b925050600181019050611f04565b5085935050505092915050565b60006020820190508181036000830152611f588184611ee0565b905092915050565b611f698161195b565b8114611f7457600080fd5b50565b600081359050611f8681611f60565b92915050565b60008060408385031215611fa357611fa26117ce565b5b6000611fb185828601611821565b9250506020611fc285828601611f77565b9150509250929050565b600067ffffffffffffffff821115611fe757611fe6611a7e565b5b611ff082611a0d565b9050602081019050919050565b600061201061200b84611fcc565b611ade565b90508281526020810184848401111561202c5761202b611bc1565b5b612037848285611bf7565b509392505050565b600082601f83011261205457612053611a79565b5b8135612064848260208601611ffd565b91505092915050565b600060208284031215612083576120826117ce565b5b600082013567ffffffffffffffff8111156120a1576120a06117d3565b5b6120ad8482850161203f565b91505092915050565b600080604083850312156120cd576120cc6117ce565b5b60006120db85828601611821565b92505060206120ec85828601611821565b9150509250929050565b600080600080600060a08688031215612112576121116117ce565b5b600061212088828901611821565b955050602061213188828901611821565b945050604061214288828901611857565b935050606061215388828901611857565b925050608086013567ffffffffffffffff811115612174576121736117d3565b5b61218088828901611c48565b9150509295509295909350565b600080604083850312156121a4576121a36117ce565b5b60006121b285828601611857565b92505060206121c385828601611821565b9150509250929050565b7f455243313135353a2062616c616e636520717565727920666f7220746865207a60008201527f65726f2061646472657373000000000000000000000000000000000000000000602082015250565b6000612229602b836119c9565b9150612234826121cd565b604082019050919050565b600060208201905081810360008301526122588161221c565b9050919050565b7f4e487b7100000000000000000000000000000000000000000000000000000000600052602260045260246000fd5b600060028204905060018216806122a657607f821691505b602082108114156122ba576122b961225f565b5b50919050565b7f455243313135353a207472616e736665722063616c6c6572206973206e6f742060008201527f6f776e6572206e6f7220617070726f7665640000000000000000000000000000602082015250565b600061231c6032836119c9565b9150612327826122c0565b604082019050919050565b6000602082019050818103600083015261234b8161230f565b9050919050565b7f455243313135353a206163636f756e747320616e6420696473206c656e67746860008201527f206d69736d617463680000000000000000000000000000000000000000000000602082015250565b60006123ae6029836119c9565b91506123b982612352565b604082019050919050565b600060208201905081810360008301526123dd816123a1565b9050919050565b7f4e487b7100000000000000000000000000000000000000000000000000000000600052603260045260246000fd5b7f4e487b7100000000000000000000000000000000000000000000000000000000600052601160045260246000fd5b600061244d82611836565b91507fffffffffffffffffffffffffffffffffffffffffffffffffffffffffffffffff8214156124805761247f612413565b5b600182019050919050565b7f455243313135353a2063616c6c6572206973206e6f74206f776e6572206e6f7260008201527f20617070726f7665640000000000000000000000000000000000000000000000602082015250565b60006124e76029836119c9565b91506124f28261248b565b604082019050919050565b60006020820190508181036000830152612516816124da565b9050919050565b7f455243313135353a2069647320616e6420616d6f756e7473206c656e6774682060008201527f6d69736d61746368000000000000000000000000000000000000000000000000602082015250565b60006125796028836119c9565b91506125848261251d565b604082019050919050565b600060208201905081810360008301526125a88161256c565b9050919050565b7f455243313135353a207472616e7366657220746f20746865207a65726f20616460008201527f6472657373000000000000000000000000000000000000000000000000000000602082015250565b600061260b6025836119c9565b9150612616826125af565b604082019050919050565b6000602082019050818103600083015261263a816125fe565b9050919050565b7f455243313135353a20696e73756666696369656e742062616c616e636520666f60008201527f72207472616e7366657200000000000000000000000000000000000000000000602082015250565b600061269d602a836119c9565b91506126a882612641565b604082019050919050565b600060208201905081810360008301526126cc81612690565b9050919050565b60006126de82611836565b91506126e983611836565b9250827fffffffffffffffffffffffffffffffffffffffffffffffffffffffffffffffff0382111561271e5761271d612413565b5b828201905092915050565b600060408201905081810360008301526127438185611ee0565b905081810360208301526127578184611ee0565b90509392505050565b7f455243313135353a2073657474696e6720617070726f76616c2073746174757360008201527f20666f722073656c660000000000000000000000000000000000000000000000602082015250565b60006127bc6029836119c9565b91506127c782612760565b604082019050919050565b600060208201905081810360008301526127eb816127af565b9050919050565b600060408201905061280760008301856118ac565b61281460208301846118ac565b9392505050565b7f455243313135353a206275726e2066726f6d20746865207a65726f206164647260008201527f6573730000000000000000000000000000000000000000000000000000000000602082015250565b60006128776023836119c9565b91506128828261281b565b604082019050919050565b600060208201905081810360008301526128a68161286a565b9050919050565b7f455243313135353a206275726e20616d6f756e7420657863656564732062616c60008201527f616e636500000000000000000000000000000000000000000000000000000000602082015250565b60006129096024836119c9565b9150612914826128ad565b604082019050919050565b60006020820190508181036000830152612938816128fc565b9050919050565b612948816117f8565b82525050565b600081519050919050565b600082825260208201905092915050565b60006129758261294e565b61297f8185612959565b935061298f8185602086016119da565b61299881611a0d565b840191505092915050565b600060a0820190506129b8600083018861293f565b6129c5602083018761293f565b81810360408301526129d78186611ee0565b905081810360608301526129eb8185611ee0565b905081810360808301526129ff818461296a565b90509695505050505050565b600081519050612a1a81611902565b92915050565b600060208284031215612a3657612a356117ce565b5b6000612a4484828501612a0b565b91505092915050565b60008160e01c9050919050565b600060033d1115612a795760046000803e612a76600051612a4d565b90505b90565b600060443d1015612a8c57612b0f565b612a946117c4565b60043d036004823e80513d602482011167ffffffffffffffff82111715612abc575050612b0f565b808201805167ffffffffffffffff811115612ada5750505050612b0f565b80602083010160043d038501811115612af7575050505050612b0f565b612b0682602001850186611aad565b82955050505050505b90565b7f455243313135353a207472616e7366657220746f206e6f6e204552433131353560008201527f526563656976657220696d706c656d656e746572000000000000000000000000602082015250565b6000612b6e6034836119c9565b9150612b7982612b12565b604082019050919050565b60006020820190508181036000830152612b9d81612b61565b9050919050565b7f455243313135353a204552433131353552656365697665722072656a6563746560008201527f6420746f6b656e73000000000000000000000000000000000000000000000000602082015250565b6000612c006028836119c9565b9150612c0b82612ba4565b604082019050919050565b60006020820190508181036000830152612c2f81612bf3565b9050919050565b600060a082019050612c4b600083018861293f565b612c58602083018761293f565b612c6560408301866118ac565b612c7260608301856118ac565b8181036080830152612c84818461296a565b9050969550505050505056fe6275726e696e67207b5f616d6f756e747d2043726564656e7469616c20746f6b656e732066726f6d207b5f6163636f756e747da264697066735822122038f226e3335fe7d627ab002b5b0b6e78bdaaf79c8f0baab3c24c81fed4a33b9c64736f6c634300080a0033",
  "immutableReferences": {},
  "source": "pragma solidity ^0.8.10;\n// SPDX-License-Identifier: MIT\nimport \"@openzeppelin/contracts/token/ERC1155/ERC1155.sol\";\n\ncontract PrivateAccessToken is ERC1155{\n    string private PrivateData;\n    uint Token =0;\n    uint totalNFTs=5;\n    // when contract is launched, PrivateData & URI will be defined\n    constructor(string memory _PrivateData,string memory URI)ERC1155(URI){\n        PrivateData = _PrivateData;\n        _mint(msg.sender, Token, totalNFTs, \"\"); //5 total tokens\n    }\n    //The modifier is so only the token holder is allowed to access function \n    modifier OnlyToken(){\n        require(OnlyIf(msg.sender,1)==true);\n        _;\n    }\n    // \n    modifier multi_Token(){\n        require(OnlyIf(msg.sender,3)==true);\n        _;\n    }\n    //The OnlyIf Function will run in the modifier to check if the user accessing the contract is the token holder\n    function OnlyIf(address _user,uint _tokenAmmount)internal view returns(bool){\n        if(balanceOf(_user,0)>=_tokenAmmount){ //changed from 1 to 3 for better security\n            return true;\n        }else{\n            return false;\n        }\n    }\n    //This function will allow the Token Holder to view data\n    function ViewData() public multi_Token view returns(string memory){\n        return PrivateData;\n    }\n    //This function will check if current account has token\n    function ViewStatus()public view returns(uint){\n        return balanceOf(msg.sender,0);\n    }\n    //user can edit password if they hold 3 access tokens\n    function Edit(string memory _newData)public multi_Token returns(bool){\n         PrivateData = _newData;\n         return true;\n    }\n    //Burn compramsed tokens\n    function Burn(uint _amount, address _account)public multi_Token returns(string memory){\n            _burn(_account, Token, _amount);\n            return \"burning {_amount} Credential tokens from {_account}\";\n    }\n}\n\n",
  "sourcePath": "/Users/Q/Documents/GitHub/LoginContract/contracts/PrivateAccessToken.sol",
  "compiler": {
    "name": "solc",
    "version": "0.8.10+commit.fc410830.Emscripten.clang"
  },
  "schemaVersion": "3.4.3",
  "updatedAt": "2022-02-21T18:37:38.779Z",
  "devdoc": {
    "kind": "dev",
    "methods": {
      "balanceOf(address,uint256)": {
        "details": "See {IERC1155-balanceOf}. Requirements: - `account` cannot be the zero address."
      },
      "balanceOfBatch(address[],uint256[])": {
        "details": "See {IERC1155-balanceOfBatch}. Requirements: - `accounts` and `ids` must have the same length."
      },
      "isApprovedForAll(address,address)": {
        "details": "See {IERC1155-isApprovedForAll}."
      },
      "safeBatchTransferFrom(address,address,uint256[],uint256[],bytes)": {
        "details": "See {IERC1155-safeBatchTransferFrom}."
      },
      "safeTransferFrom(address,address,uint256,uint256,bytes)": {
        "details": "See {IERC1155-safeTransferFrom}."
      },
      "setApprovalForAll(address,bool)": {
        "details": "See {IERC1155-setApprovalForAll}."
      },
      "supportsInterface(bytes4)": {
        "details": "See {IERC165-supportsInterface}."
      },
      "uri(uint256)": {
        "details": "See {IERC1155MetadataURI-uri}. This implementation returns the same URI for *all* token types. It relies on the token type ID substitution mechanism https://eips.ethereum.org/EIPS/eip-1155#metadata[defined in the EIP]. Clients calling this function must replace the `\\{id\\}` substring with the actual token type ID."
      }
    },
    "version": 1
  },
  "userdoc": {
    "kind": "user",
    "methods": {},
    "version": 1
  }
}